00007056001008105003896MICHAEL PIETESZ     23000000000000003178000SLR7056011001108629401DU PAL (PVT) LTD    872893857V     AUD SAL APR '14140519      @
00007083041041020197792M A MOHAMED NAWSAR  23000000000000007832350SLR7056011001108629401DU PAL (PVT) LTD    900920725V     AUD SAL APR '14140519      @
00007056001008128000626M NIYAS MAHEES      23000000000000009450700SLR7056011001108629401DU PAL (PVT) LTD    883470699V     AUD SAL APR '14140519      @
00007083013013020067073W K NANAYAKKARA     23000000000000006731600SLR7056011001108629401DU PAL (PVT) LTD    921812310V     AUD SAL APR '14140519      @
00007287043033520539101S THUSHARA WIJEMUNI 23000000000000006797400SLR7056011001108629401DU PAL (PVT) LTD    692790251V     AUD SAL APR '14140519      @
00007278001104354043333T R M N N T BANDARA 23000000000000007629700SLR7056011001108629401DU PAL (PVT) LTD    873172452V     AUD SAL APR '14140519      @
00007056001008210028296R N WELAGEDARA      23000000000000007805000SLR7056011001108629401DU PAL (PVT) LTD    872110887V     AUD SAL APR '14140519      @
00007056001008158001292P NISHANTHA SENARATH23000000000000003691600SLR7056011001108629401DU PAL (PVT) LTD    880860810V     AUD SAL APR '14140519      @
00007056001008147002917M F MOHAMED FAIYQ   23000000000000007151400SLR7056011001108629401DU PAL (PVT) LTD    892420980V     AUD SAL APR '14140519      @
00007056011001108629401DU PAL (PVT) LTD    23001000000000060267750SLR7056011001108629401DU PAL (PVT) LTD                  0AUD SAL APR '14140519      @
