5555OUT111617056001000685                                                                                                                                                          
4444OUT11161705601100000062973489806840000006297348980001022589616968003                                                                                                           
00007056001008040024826H.G.P.C.RATHNASIRI  23000000000000004841368SLR7056011001108629401DU PAL (PVT) LTD    841574346V     COMM'N MAY'13  130610003936      CU1562                 
00007056001008040063643M.F.F.FAZRINA       23000000000000001036516SLR7056011001108629401DU PAL (PVT) LTD    897100312V     COMM'N MAY'13  130610004242      CU1562                 
00007056001008040085343A.C.F.RUSHDA        23000000000000000000000SLR7056011001108629401DU PAL (PVT) LTD    906642484V     COMM'N MAY'13  130610004683      CU1562                 
00007278001100753147138D.G.R.C.WIJESOORIYA 23000000000000000000000SLR7056011001108629401DU PAL (PVT) LTD    840203964V     COMM'N MAY'13  130610005325      CU1562                 
00007135189200160071852P.D.PRIYANTHA       23000000000000000000000SLR7056011001108629401DU PAL (PVT) LTD    771831745V     COMM'N MAY'13  130610004134      CU1562                 
00007135112200160042653P.G.E.U.ABESEKARA   23000000000000003191283SLR7056011001108629401DU PAL (PVT) LTD    842472776V     COMM'N MAY'13  130610004077      CU1562                 
00007135018200180011926M.SHAKIR            23000000000000000296725SLR7056011001108629401DU PAL (PVT) LTD    912930076V     COMM'N MAY'13  130610004884      CU1562                 
00007010273000002628623A.S.WELAGEDARA      23000000000000000000000SLR7056011001108629401DU PAL (PVT) LTD    742810887V     COMM'N MAY'13  130610004752      CU1562                 
00007056001001040056801J.M.KALEEL          23000000000000001261171SLR7056011001108629401DU PAL (PVT) LTD    502041193V     COMM'N MAY'13  130610004170      CU1562                 
00007056001008040022945L.H.G.U.K.UDAYANGA  23000000000000005152216SLR7056011001108629401DU PAL (PVT) LTD    793590628V     COMM'N MAY'13  130610004431      CU1562                 
00007287083032555187101W.M.N.K.KARUNARATHNE23000000000000001163993SLR7056011001108629401DU PAL (PVT) LTD    858274133V     COMM'N MAY'13  130610003423      CU1562                 
00007010473000073751920M.D.M.GUNATHILAKA   23000000000000001306472SLR7056011001108629401DU PAL (PVT) LTD    925061336V     COMM'N MAY'13  130610004743      CU1562                 
00007056001008040014382W.W.M.K.W.C.P.KAPUWA23000000000000000160317SLR7056011001108629401DU PAL (PVT) LTD    802153600V     COMM'N MAY'13  130610005076      CU1562                 
00007056001008120911679R.M.D.CHAMARA       23000000000000000024000SLR7056011001108629401DU PAL (PVT) LTD    790331281V     COMM'N MAY'13  130610003612      CU1562                 
00007056001008170011176L.A.C.ARUNASIRI     23000000000000000000000SLR7056011001108629401DU PAL (PVT) LTD    903063300V     COMM'N MAY'13  130610004557      CU1562                 
00007056001008080000136R.G.P.P.KUMARA      23000000000000005584296SLR7056011001108629401DU PAL (PVT) LTD    793410042V     COMM'N MAY'13  130610004701      CU1562                 
00007056001008080038515B.G.C.S.BANDARA     23000000000000000141156SLR7056011001108629401DU PAL (PVT) LTD    860531585V     COMM'N MAY'13  130610004674      CU1562                 
00007083018018020780132K.T.K.I.BANDARA     23000000000000002644228SLR7056011001108629401DU PAL (PVT) LTD    843453287V     COMM'N MAY'13  130610005448      CU1562                 
00007056001008180034825D.S.HEWAWASAM       23000000000000001051769SLR7056011001108629401DU PAL (PVT) LTD    898101096V     COMM'N MAY'13  130610003666      CU1562                 
00007056001008040081667J.V.D.K.JAYASEKARA  23000000000000001459327SLR7056011001108629401DU PAL (PVT) LTD    911871149V     COMM'N MAY'13  130610005331      CU1562                 
00007056001008040083010T.RAVICHANDRAN      23000000000000000000000SLR7056011001108629401DU PAL (PVT) LTD    902543562V     COMM'N MAY'13  130610005094      CU1562                 
00007056001008040003923A.W.M.HANEEF        23000000000000000031510SLR7056011001108629401DU PAL (PVT) LTD    793411154V     COMM'N MAY'13  130610003780      CU1562                 
00007056001008265000384M.M.M.HAMSA         23000000000000000891074SLR7056011001108629401DU PAL (PVT) LTD    710631603V     COMM'N MAY'13  130610003405      CU1562                 
00007287017002423763101S.W.P.A.PRIYANKARA  23000000000000005737616SLR7056011001108629401DU PAL (PVT) LTD    760862754V     COMM'N MAY'13  130610002694      CU1562                 
00007083015015020148819T.I.H.GAMAGE        23000000000000002971330SLR7056011001108629401DU PAL (PVT) LTD    851341749V     COMM'N MAY'13  130610004581      CU1562                 
00007278001100754035639U.D.HEWAGA          23000000000000000000000SLR7056011001108629401DU PAL (PVT) LTD    916450060V     COMM'N MAY'13  130610004884      CU1562                 
00007135022200120011808J.M.B.G.A.D.JAYASING23000000000000000258171SLR7056011001108629401DU PAL (PVT) LTD    906402130V     COMM'N MAY'13  130610004941      CU1562                 
00007135157200180038083P.T.H.P.I.SIRIWARDAN23000000000000002013006SLR7056011001108629401DU PAL (PVT) LTD    912530442V     COMM'N MAY'13  130610004380      CU1562                 
00007287017001660986101M.V.L.P.A.KUMARI    23000000000000001199123SLR7056011001108629401DU PAL (PVT) LTD    765471060V     COMM'N MAY'13  130610003369      CU1562                 
00007135158200140016501S.B.AZAM            23000000000000001028468SLR7056011001108629401DU PAL (PVT) LTD    925132705V     COMM'N MAY'13  130610004878      CU1562                 
00007010598000074425579A.M.S.BANU          23000000000000000922058SLR7056011001108629401DU PAL (PVT) LTD    925531561V     COMM'N MAY'13  130610003684      CU1562                 
00007056001008890025644G.R.T.GUNARATHNA    23000000000000000046339SLR7056011001108629401DU PAL (PVT) LTD    857010337V     COMM'N MAY'13  130610005196      CU1562                 
00007135220200230030561G.K.M.N.S.KAVIRAJ   23000000000000000000000SLR7056011001108629401DU PAL (PVT) LTD    721241300V     COMM'N MAY'13  130610004881      CU1562                 
00007135220200161114667G.A.WIMALAWARDHANA  23000000000000000930413SLR7056011001108629401DU PAL (PVT) LTD    781650560V     COMM'N MAY'13  130610004593      CU1562                 
00007056001008185001796G.G.M.P.JAYAWARDHANA23000000000000000000000SLR7056011001108629401DU PAL (PVT) LTD    758210774V     COMM'N MAY'13  130610005382      CU1562                 
00007311044443878840215P.G.G.DILSHAN       23000000000000000000000SLR7056011001108629401DU PAL (PVT) LTD    911835088V     COMM'N MAY'13  130610005004      CU1562                 
00007010549000071375028I.S.ATHAPATHTHU     23000000000000000000000SLR7056011001108629401DU PAL (PVT) LTD    855720728V     COMM'N MAY'13  130610004641      CU1562                 
00007056001008530026417S.H.T.BUDDIKA       23000000000000006722053SLR7056011001108629401DU PAL (PVT) LTD    722063538V     COMM'N MAY'13  130610004416      CU1562                 
00007056001008880015117S.M.S. SAMARAKOON   23000000000000000000000SLR7056011001108629401DU PAL (PVT) LTD    781181269V     COMM'N MAY'13  130610005265      CU1562                 
00007010006000008597524D.P.V. WEERASINGHE  23000000000000000307235SLR7056011001108629401DU PAL (PVT) LTD    713052183V     COMM'N MAY'13  130610004596      CU1562                 
00007056001008530030242D.M.I.W.G.T.KEERTHI 23000000000000001740513SLR7056011001108629401DU PAL (PVT) LTD    730490046V     COMM'N MAY'13  130610004158      CU1562                 
00007083010010020251721P.H.R.DESHAPRIYA    23000000000000000000000SLR7056011001108629401DU PAL (PVT) LTD    793311389V     COMM'N MAY'13  130610004698      CU1562                 
00007056001008148002155J.DHARMASENA        23000000000000000000000SLR7056011001108629401DU PAL (PVT) LTD    621002228V     COMM'N MAY'13  130610004308      CU1562                 
00007287021002100801101J.A.M.P.JAYASINGHE  23000000000000003235808SLR7056011001108629401DU PAL (PVT) LTD    766092926V     COMM'N MAY'13  130610003096      CU1562                 
00007056001008530002528T.M.P.U.LAKMAL      23000000000000000428143SLR7056011001108629401DU PAL (PVT) LTD    850950466V     COMM'N MAY'13  130610004488      CU1562                 
00007010022000001565965S.H.M.T.S.HEWAGE    23000000000000002810226SLR7056011001108629401DU PAL (PVT) LTD    868022892V     COMM'N MAY'13  130610005823      CU1562                 
00007056001008530037682W.T.L.SUMANATHILAKE 23000000000000000812188SLR7056011001108629401DU PAL (PVT) LTD    930960624V     COMM'N MAY'13  130610003309      CU1562                 
00007056001008185002016S.D.ABEYKOON        23000000000000000000000SLR7056011001108629401DU PAL (PVT) LTD    748472860V     COMM'N MAY'13  130610004884      CU1562                 
00007056001008185002021L.D.B.M.FERNANDO    23000000000000000000000SLR7056011001108629401DU PAL (PVT) LTD    871930422V     COMM'N MAY'13  130610004464      CU1562                 
00007056001008530022375A.A.N.HETTIARACHCHI 23000000000000000000000SLR7056011001108629401DU PAL (PVT) LTD    812310780V     COMM'N MAY'13  130610004656      CU1562                 
00007010022000072973006S.R.RANATHUNGA      23000000000000000000000SLR7056011001108629401DU PAL (PVT) LTD    782093932V     COMM'N MAY'13  130610004815      CU1562                 
00007083010010020261002W.M.S.PADIVITA      23000000000000000000000SLR7056011001108629401DU PAL (PVT) LTD    838143393V     COMM'N MAY'13  130610005070      CU1562                 
00007135008200298118387D.M.KUMARA          23000000000000000000000SLR7056011001108629401DU PAL (PVT) LTD    792030718V     COMM'N MAY'13  130610004653      CU1562                 
00007056001008530017870A.N.G.D.S.N.NANAYAKK23000000000000000000000SLR7056011001108629401DU PAL (PVT) LTD    812112155V     COMM'N MAY'13  130610004455      CU1562                 
00007010432000071423852K.G.N.S.WIJESIRI    23000000000000005210051SLR7056011001108629401DU PAL (PVT) LTD    891950179V     COMM'N MAY'13  130610004629      CU1562                 
00007056001008185001396D.M.BRAYAN          23000000000000002681700SLR7056011001108629401DU PAL (PVT) LTD    856880514V     COMM'N MAY'13  130610004539      CU1562                 
00007056001008320022298M.N.M.IRSHAD        23000000000000000000000SLR7056011001108629401DU PAL (PVT) LTD    870281471V     COMM'N MAY'13  130610004626      CU1562                 
00007010432000072999535W.L.P.LIYANAGE      23000000000000000000000SLR7056011001108629401DU PAL (PVT) LTD    926013343V     COMM'N MAY'13  130610005430      CU1562                 
00007010217000009753615S.SENARATHNA        23000000000000000945705SLR7056011001108629401DU PAL (PVT) LTD    643621380V     COMM'N MAY'13  130610005376      CU1562                 
00007083034034020247196I.U.BANDARA         23000000000000000955662SLR7056011001108629401DU PAL (PVT) LTD    800860733V     COMM'N MAY'13  130610003504      CU1562                 
00007010022000009856580I.G.A.S.VIDURUWAN   23000000000000002558439SLR7056011001108629401DU PAL (PVT) LTD    820481674V     COMM'N MAY'13  130610004767      CU1562                 
00007010217000005697612H.K.M.MARSHUK       23000000000000000000000SLR7056011001108629401DU PAL (PVT) LTD    740100599V     COMM'N MAY'13  130610005034      CU1562                 
00007056001008370033935N.M.FAIZAL          23000000000000001098237SLR7056011001108629401DU PAL (PVT) LTD    802563779V     COMM'N MAY'13  130610005223      CU1562                 
00007056001008080008770N.I.C.B.SENEVIRATHNE23000000000000000288520SLR7056011001108629401DU PAL (PVT) LTD    730790554V     COMM'N MAY'13  130610003870      CU1562                 
00007135242002070180000A.M.C.D. BANDARA    23000000000000000000000SLR7056011001108629401DU PAL (PVT) LTD    712243740V     COMM'N MAY'13  130610004611      CU1562                 
00007135232200170004120A.M.B. ATHTHANAGODA 23000000000000000000000SLR7056011001108629401DU PAL (PVT) LTD    803344060V     COMM'N MAY'13  130610005292      CU1562                 
00007278001100653519153G.W.KUMARA          23000000000000000665796SLR7056011001108629401DU PAL (PVT) LTD    750373739V     COMM'N MAY'13  130610003726      CU1562                 
00007056001008300006477S.J.FONSEKA         23000000000000006918311SLR7056011001108629401DU PAL (PVT) LTD    701771435V     COMM'N MAY'13  130610003165      CU1562                 
00007083071071020185642S.L.M.S.H.NUWAN     23000000000000001973454SLR7056011001108629401DU PAL (PVT) LTD    922911924V     COMM'N MAY'13  130610005019      CU1562                 
00007056001008820001083M.C.R.MUNASINGHE    23000000000000001152886SLR7056011001108629401DU PAL (PVT) LTD    910631721V     COMM'N MAY'13  130610004200      CU1562                 
00007056001008300031548P.P.C.GUNATHUNGA    23000000000000000913937SLR7056011001108629401DU PAL (PVT) LTD    932613182V     COMM'N MAY'13  130610005082      CU1562                 
00007010688000009593162W.G.L.NIROSHANI     23000000000000001038397SLR7056011001108629401DU PAL (PVT) LTD    737780090V     COMM'N MAY'13  130610004665      CU1562                 
00007287020033363005101J.W.P.WIJESIRI      23000000000000001081554SLR7056011001108629401DU PAL (PVT) LTD    777624377V     COMM'N MAY'13  130610002892      CU1562                 
00007056001008820020512N.K.C.H.KUMARI      23000000000000001015315SLR7056011001108629401DU PAL (PVT) LTD    926802216V     COMM'N MAY'13  130610004737      CU1562                 
00007056001008149004198F.D.D.L.PERERA      23000000000000000663131SLR7056011001108629401DU PAL (PVT) LTD    935542596V     COMM'N MAY'13  130610004056      CU1562                 
00007010057000003195647M.D.T.WIMALATHUNGA  23000000000000001123058SLR7056011001108629401DU PAL (PVT) LTD    940430895V     COMM'N MAY'13  130610003513      CU1562                 
00007056001008700033044W.D.A.H.GUNATHILAKA 23000000000000002230403SLR7056011001108629401DU PAL (PVT) LTD    920901352V     COMM'N MAY'13  130610005010      CU1562                 
00007056001008133012059V.Prasad            23000000000000001723302SLR7056011001108629401DU PAL (PVT) LTD    922763097V     COMM'N MAY'13  130610004314      CU1562                 
00007056001008300031718C.S.K.DADALLAGE     23000000000000005508840SLR7056011001108629401DU PAL (PVT) LTD    902542086V     COMM'N MAY'13  130610004686      CU1562                 
00007056001008300028471H.JAYAWEERA         23000000000000000000000SLR7056011001108629401DU PAL (PVT) LTD    653270100V     COMM'N MAY'13  130610004500      CU1562                 
00007056001008300015010J.R.CHANDANAYAKA    23000000000000001888679SLR7056011001108629401DU PAL (PVT) LTD    841110625V     COMM'N MAY'13  130610004782      CU1562                 
00007010517000074137680A.D.UDAYANGANI      23000000000000001640094SLR7056011001108629401DU PAL (PVT) LTD    918321420V     COMM'N MAY'13  130610003657      CU1562                 
00007056001008300033209H.M.S.K.GUNAWARDANA 23000000000000000837254SLR7056011001108629401DU PAL (PVT) LTD    812784064V     COMM'N MAY'13  130610003942      CU1562                 
00007135295200110031519T.M.GALAGEDARA      23000000000000000743074SLR7056011001108629401DU PAL (PVT) LTD    867902511V     COMM'N MAY'13  130610004065      CU1562                 
00007056001008300033503K.A.A.D.Priyadarshan23000000000000001754621SLR7056011001108629401DU PAL (PVT) LTD    830491635V     COMM'N MAY'13  130610005877      CU1562                 
00007056001008300033126H.E.I.S.RASHINDA    23000000000000000228247SLR7056011001108629401DU PAL (PVT) LTD    910470094V     COMM'N MAY'13  130610003555      CU1562                 
00007010092000007015185W.G.D.T.Bandara     23000000000000008520381SLR7056011001108629401DU PAL (PVT) LTD    871262063V     COMM'N MAY'13  130610002682      CU1562                 
00007056001008136001258W.M.N.CHATHURANGA   23000000000000003907605SLR7056011001108629401DU PAL (PVT) LTD    872261303V     COMM'N MAY'13  130610004137      CU1562                 
00007056001008200044699M.G.U.WANIGARATHNA  23000000000000001320877SLR7056011001108629401DU PAL (PVT) LTD    671670086V     COMM'N MAY'13  130610005739      CU1562                 
00007135014200180004334K.S.JAYASOORIYA ARAC23000000000000000000000SLR7056011001108629401DU PAL (PVT) LTD    912910113V     COMM'N MAY'13  130610004761      CU1562                 
00007278001103353344964A.G.P.SAMANMALI     23000000000000000043906SLR7056011001108629401DU PAL (PVT) LTD    766300499V     COMM'N MAY'13  130610004488      CU1562                 
00007010089000002915452I.D.N.DESHAPRIYA    23000000000000006984571SLR7056011001108629401DU PAL (PVT) LTD    871833362V     COMM'N MAY'13  130610004620      CU1562                 
00007056001008190001474H.M.R.A.K.HERATH    23000000000000001010755SLR7056011001108629401DU PAL (PVT) LTD    762602466V     COMM'N MAY'13  130610004440      CU1562                 
00007056001008211001754P.G.C.SANDALEKA     23000000000000000000000SLR7056011001108629401DU PAL (PVT) LTD    935040981V     COMM'N MAY'13  130610005295      CU1562                 
00007278001107054170303W.H.NUPEARACHCHI    23000000000000000173076SLR7056011001108629401DU PAL (PVT) LTD    895524263V     COMM'N MAY'13  130610005253      CU1562                 
00007287043033442924101S.P.T.JAYALATH      23000000000000000000000SLR7056011001108629401DU PAL (PVT) LTD    933432742V     COMM'N MAY'13  130610005139      CU1562                 
00007278001106954058913B.SAYURI            23000000000000000906183SLR7056011001108629401DU PAL (PVT) LTD    938310378V     COMM'N MAY'13  130610005508      CU1562                 
00007135080200340002199P.D.L.LAKRUWANI     23000000000000000352287SLR7056011001108629401DU PAL (PVT) LTD    925410608V     COMM'N MAY'13  130610003954      CU1562                 
00007083076076020164158W.A.JAYAWARDANA     23000000000000000000000SLR7056011001108629401DU PAL (PVT) LTD    898170241V     COMM'N MAY'13  130610005550      CU1562                 
00007719012100128110310P.C.A.KUMARA        23000000000000006857691SLR7056011001108629401DU PAL (PVT) LTD    802863640V     COMM'N MAY'13  130610005799      CU1562                 
00007056001008170012255S.D.N.P.K.JAYAMANNA 23000000000000000000000SLR7056011001108629401DU PAL (PVT) LTD    852252235V     COMM'N MAY'13  130610004830      CU1562                 
00007056001008147011608C.C.GAMAGE          23000000000000000000000SLR7056011001108629401DU PAL (PVT) LTD    812050699V     COMM'N MAY'13  130610004626      CU1562                 
00007083160160020020706M.N.M.ASIF          23000000000000002509191SLR7056011001108629401DU PAL (PVT) LTD    931300881V     COMM'N MAY'13  130610004887      CU1562                 
00007083064064020132816K.D.I.L.SAMANMALI   23000000000000000266010SLR7056011001108629401DU PAL (PVT) LTD    828171119V     COMM'N MAY'13  130610003294      CU1562                 
00007056001008130003561K.V.S.I.KEKULAWALA  23000000000000004513187SLR7056011001108629401DU PAL (PVT) LTD    713642169V     COMM'N MAY'13  130610004539      CU1562                 
00007135208200180321354H.M.T.I.KARIYAWASAM 23000000000000001675190SLR7056011001108629401DU PAL (PVT) LTD    817544037V     COMM'N MAY'13  130610003837      CU1562                 
00007287070033414104101A.G.D.S.LAKSHITHA   23000000000000000965485SLR7056011001108629401DU PAL (PVT) LTD    911350203V     COMM'N MAY'13  130610004494      CU1562                 
00007056001008370001886S.H.SAKIYA          23000000000000000347365SLR7056011001108629401DU PAL (PVT) LTD    885171214V     COMM'N MAY'13  130610006390      CU1562                 
00007287062033333094101R.S.AMARASEKARA     23000000000000000901721SLR7056011001108629401DU PAL (PVT) LTD    931023845V     COMM'N MAY'13  130610004626      CU1562                 
00007010721000071298714C.S.Dahanayaka      23000000000000003984295SLR7056011001108629401DU PAL (PVT) LTD    712491884V     COMM'N MAY'13  130610005904      CU1562                 
00007278001109753495304M.C.S.PERERA        23000000000000000000000SLR7056011001108629401DU PAL (PVT) LTD    902873961V     COMM'N MAY'13  130610005025      CU1562                 
00007056001008320024869A.A.M.MISYAATH      23000000000000000000000SLR7056011001108629401DU PAL (PVT) LTD     881822458V    COMM'N MAY'13  130610004203      CU1562                 
00007010039000000484203G.S.SALLAY          23000000000000000000000SLR7056011001108629401DU PAL (PVT) LTD    896540637V     COMM'N MAY'13  130610004398      CU1562                 
00007083009000090696718S.LOGESWARAN        23000000000000003968158SLR7056011001108629401DU PAL (PVT) LTD    812460315V     COMM'N MAY'13  130610004749      CU1562                 
00007056001008690037933S.J.Perera          23000000000000003304296SLR7056011001108629401DU PAL (PVT) LTD    813092670V     COMM'N MAY'13  130610004185      CU1562                 
00007056001008127011632M.RUBAJINI          23000000000000001078694SLR7056011001108629401DU PAL (PVT) LTD    818285795V     COMM'N MAY'13  130610004509      CU1562                 
00007056001008100090127S.MURUGIAH          23000000000000000102204SLR7056011001108629401DU PAL (PVT) LTD    825741216X     COMM'N MAY'13  130610004758      CU1562                 
00007278001102553844759W.G.S.BANDARA       23000000000000006008759SLR7056011001108629401DU PAL (PVT) LTD    840520609V     COMM'N MAY'13  130610004776      CU1562                 
00007135019200120009332K.P.S.FERNANDO      23000000000000000000000SLR7056011001108629401DU PAL (PVT) LTD    875811762V     COMM'N MAY'13  130610005052      CU1562                 
00007287011031429470101A.V.D.VIMUKTHA      23000000000000001142956SLR7056011001108629401DU PAL (PVT) LTD    752292558V     COMM'N MAY'13  130610003264      CU1562                 
00007083039039020167751W.W.W.J.N.FERNANDO  23000000000000001389710SLR7056011001108629401DU PAL (PVT) LTD    923000186V     COMM'N MAY'13  130610004356      CU1562                 
00007010039000000487962C.D.P.K.BANDARA     23000000000000000000000SLR7056011001108629401DU PAL (PVT) LTD    930223794V     COMM'N MAY'13  130610003327      CU1562                 
00007056001008180036184B.G.D.DUSHANTHA     23000000000000000144445SLR7056011001108629401DU PAL (PVT) LTD    931341642V     COMM'N MAY'13  130610004794      CU1562                 
00007056001008430009628M.I.M. INJATH       23000000000000011344760SLR7056011001108629401DU PAL (PVT) LTD    882354156V     COMM'N MAY'13  130610004968      CU1562                 
00007056001008165001259S.L.CHANDRASENA     23000000000000000000000SLR7056011001108629401DU PAL (PVT) LTD    880040049V     COMM'N MAY'13  130610004704      CU1562                 
00007056001008390013754M.I.M.SAFRAS        23000000000000000076165SLR7056011001108629401DU PAL (PVT) LTD    861552420V     COMM'N MAY'13  130610004242      CU1562                 
00007056001008170010897S.P.KANTH           23000000000000000762120SLR7056011001108629401DU PAL (PVT) LTD    860233266V     COMM'N MAY'13  130610003369      CU1562                 
00007056001008690050821M.S.P.KUMARA        23000000000000002924405SLR7056011001108629401DU PAL (PVT) LTD    882282066V     COMM'N MAY'13  130610005295      CU1562                 
00007278001100453125662J.M.C.JAYASEKARA    23000000000000003379204SLR7056011001108629401DU PAL (PVT) LTD    820931858V     COMM'N MAY'13  130610004365      CU1562                 
00007719083100835001820K.V.HENADEERA       23000000000000002726529SLR7056011001108629401DU PAL (PVT) LTD    903650044V     COMM'N MAY'13  130610004044      CU1562                 
00007056001008170010707S.D.PALLIYAGURU     23000000000000003707519SLR7056011001108629401DU PAL (PVT) LTD    880771620V     COMM'N MAY'13  130610005409      CU1562                 
00007056001008560030509S.G.A.KUMAR         23000000000000000000000SLR7056011001108629401DU PAL (PVT) LTD    931862529V     COMM'N MAY'13  130610005220      CU1562                 
00007056001008770034216H.M.S.K.S.BANDARA   23000000000000002067679SLR7056011001108629401DU PAL (PVT) LTD    622020092V     COMM'N MAY'13  130610004779      CU1562                 
00007278001109554203904P.G.R.WIMALASENA    23000000000000000000000SLR7056011001108629401DU PAL (PVT) LTD    760315095V     COMM'N MAY'13  130610005184      CU1562                 
00007056001008170010836D.M.T.T.DASANAYAKA  23000000000000002041521SLR7056011001108629401DU PAL (PVT) LTD    920550053V     COMM'N MAY'13  130610004101      CU1562                 
00007056001008170011081P.M.M.ZAHARAN       23000000000000005832922SLR7056011001108629401DU PAL (PVT) LTD    870750650V     COMM'N MAY'13  130610004830      CU1562                 
00007056001008460030270D.P.KODAGODA        23000000000000000000000SLR7056011001108629401DU PAL (PVT) LTD    872512861V     COMM'N MAY'13  130610005400      CU1562                 
00007056001008214000857K.M.RAJAPAKSHA      23000000000000001278081SLR7056011001108629401DU PAL (PVT) LTD    872862536V     COMM'N MAY'13  130610004089      CU1562                 
00007056001008870024386W.A.C.L.KUMARA      23000000000000004516296SLR7056011001108629401DU PAL (PVT) LTD    933532461V     COMM'N MAY'13  130610004173      CU1562                 
00007056001008106020968R.PRABA             23000000000000000000000SLR7056011001108629401DU PAL (PVT) LTD    922074178V     COMM'N MAY'13  130610004344      CU1562                 
00007056001008106020969S.SIVAKUMAR         23000000000000000000000SLR7056011001108629401DU PAL (PVT) LTD    920242073V     COMM'N MAY'13  130610004260      CU1562                 
00007056001008110000430W.P.SURANGA         23000000000000003291749SLR7056011001108629401DU PAL (PVT) LTD    801991483V     COMM'N MAY'13  130610005388      CU1562                 
00007287002001480944101D.W.S.SANJEEWA      23000000000000000000000SLR7056011001108629401DU PAL (PVT) LTD    782385135V     COMM'N MAY'13  130610003834      CU1562                 
00007056001008123006409D.C.JAYASEKARA      23000000000000001217622SLR7056011001108629401DU PAL (PVT) LTD    850893250V     COMM'N MAY'13  130610004275      CU1562                 
00007056001008070012002Y.R.LIANAARACHCHI   23000000000000003651391SLR7056011001108629401DU PAL (PVT) LTD    800490189V     COMM'N MAY'13  130610003537      CU1562                 
00007135067200110011227M.M.S.AHAMAD        23000000000000001592204SLR7056011001108629401DU PAL (PVT) LTD    902733868V     COMM'N MAY'13  130610003747      CU1562                 
00007010592000071813971S.L.R.WIJESIRI      23000000000000001667347SLR7056011001108629401DU PAL (PVT) LTD    890303994V     COMM'N MAY'13  130610002940      CU1562                 
00007056001008181001702Y.M.WIJESINGHE      23000000000000000000000SLR7056011001108629401DU PAL (PVT) LTD    937121695V     COMM'N MAY'13  130610004920      CU1562                 
00007135188200150037473O.D.NISHSHANKA      23000000000000004022971SLR7056011001108629401DU PAL (PVT) LTD    912761614V     COMM'N MAY'13  130610002901      CU1562                 
00007056001008270023700K.L.N.JAYALATH      23000000000000001643237SLR7056011001108629401DU PAL (PVT) LTD    720974673V     COMM'N MAY'13  130610005190      CU1562                 
00007135077200170015735J.D.C.DE SILVA      23000000000000001401218SLR7056011001108629401DU PAL (PVT) LTD    912584232V     COMM'N MAY'13  130610005799      CU1562                 
00007056001008151008425B.L.T.SANDAMALI     23000000000000000000000SLR7056011001108629401DU PAL (PVT) LTD    925792390V     COMM'N MAY'13  130610004632      CU1562                 
00007056001008620030940K.S.M.PERERA        23000000000000000272600SLR7056011001108629401DU PAL (PVT) LTD    951010340V     COMM'N MAY'13  130610005586      CU1562                 
00007056001008270041437K.L.A.E.MADHUSANKA  23000000000000000000000SLR7056011001108629401DU PAL (PVT) LTD    890081878V     COMM'N MAY'13  130610004275      CU1562                 
00007056001008270026498M.A.ASHIK           23000000000000000577057SLR7056011001108629401DU PAL (PVT) LTD    773333076V     COMM'N MAY'13  130610004233      CU1562                 
00007010537000073889799W.G.NAVODA          23000000000000000000000SLR7056011001108629401DU PAL (PVT) LTD    941793940V     COMM'N MAY'13  130610004461      CU1562                 
00007278001103554042554G.DULAJ             23000000000000000000000SLR7056011001108629401DU PAL (PVT) LTD    941280129V     COMM'N MAY'13  130610005088      CU1562                 
00007719003109038009155A.H.S.N.PRIYALAL    23000000000000000039653SLR7056011001108629401DU PAL (PVT) LTD    932261154V     COMM'N MAY'13  130610004131      CU1562                 
00007056001008135007492M.N.M.HAYAS         23000000000000003006503SLR7056011001108629401DU PAL (PVT) LTD    912121879V     COMM'N MAY'13  130610005349      CU1562                 
00007056001008270052287R.H.D.SANJEEWA      23000000000000001393050SLR7056011001108629401DU PAL (PVT) LTD    800444942V     COMM'N MAY'13  130610003576      CU1562                 
00007056001008270052116M.K.A.SUJEEWAN      23000000000000000164466SLR7056011001108629401DU PAL (PVT) LTD    880123440V     COMM'N MAY'13  130610004989      CU1562                 
00007056001008070036695M.G.T.THIWANKA      23000000000000000000000SLR7056011001108629401DU PAL (PVT) LTD    932910950V     COMM'N MAY'13  130610004170      CU1562                 
00007083013013020352001K.D.D.MADURANGA     23000000000000000000000SLR7056011001108629401DU PAL (PVT) LTD    931931628V     COMM'N MAY'13  130610004269      CU1562                 
00007056001008129006181H.W.N.MAHEETHA      23000000000000000658451SLR7056011001108629401DU PAL (PVT) LTD    930492213V     COMM'N MAY'13  130610003999      CU1562                 
00007056001008270048931N.D.WEKUNUGODAGE    23000000000000000308657SLR7056011001108629401DU PAL (PVT) LTD    893063730V     COMM'N MAY'13  130610004224      CU1562                 
00007056001008270049082D.P.M.SRIMANTHA     23000000000000000052787SLR7056011001108629401DU PAL (PVT) LTD    890861083V     COMM'N MAY'13  130610004446      CU1562                 
00007135207200170012074W.M.S.K.H.WIJESUNDAR23000000000000007758104SLR7056011001108629401DU PAL (PVT) LTD    792951775V     COMM'N MAY'13  130610004683      CU1562                 
00007278001100654112904H.W.G.WIJERATHNA    23000000000000000000000SLR7056011001108629401DU PAL (PVT) LTD    818442661V     COMM'N MAY'13  130610005508      CU1562                 
00007056001008810020257P.B.D.E.FERNANDO    23000000000000000285399SLR7056011001108629401DU PAL (PVT) LTD    846111069V     COMM'N MAY'13  130610004338      CU1562                 
00007719017100170827037H.Y.R.PERERA        23000000000000000000000SLR7056011001108629401DU PAL (PVT) LTD    823233736V     COMM'N MAY'13  130610006126      CU1562                 
00007278001100654027310R.N.WICKRAMASINGHE  23000000000000000000000SLR7056011001108629401DU PAL (PVT) LTD    781532290V     COMM'N MAY'13  130610005547      CU1562                 
00007010009000071786823W.A.D.I.T.PREMASINGH23000000000000001077644SLR7056011001108629401DU PAL (PVT) LTD    878331052V     COMM'N MAY'13  130610004581      CU1562                 
00007010379000005827025W.G.A.D.GAMLATH     23000000000000000000000SLR7056011001108629401DU PAL (PVT) LTD    921482795V     COMM'N MAY'13  130610004083      CU1562                 
00007010068000072284110J.A.R.S.JAYANETHTHIA23000000000000000000000SLR7056011001108629401DU PAL (PVT) LTD    921631022V     COMM'N MAY'13  130610003867      CU1562                 
00007278001105353308091M.D.B.SENARATHNA    23000000000000000991382SLR7056011001108629401DU PAL (PVT) LTD    761930028V     COMM'N MAY'13  130610004452      CU1562                 
00007056001008160058321S.M.S.P.SENANAYAKA  23000000000000004916408SLR7056011001108629401DU PAL (PVT) LTD    542020130X     COMM'N MAY'13  130610003942      CU1562                 
00007214002002111013240W.N.K.D.SILVA       23000000000000000000000SLR7056011001108629401DU PAL (PVT) LTD    831634367V     COMM'N MAY'13  130610004266      CU1562                 
00007056001008160071539H.W.D.B.KASTHURIMANI23000000000000000000000SLR7056011001108629401DU PAL (PVT) LTD    867120300V     COMM'N MAY'13  130610004614      CU1562                 
00007135241200180038633S.D.M.S.N.SMARAKKODI23000000000000001060211SLR7056011001108629401DU PAL (PVT) LTD    900550952V     COMM'N MAY'13  130610004263      CU1562                 
00007719771107718000727W.M.A.PUSHPAKUMARA  23000000000000001050382SLR7056011001108629401DU PAL (PVT) LTD    860903717V     COMM'N MAY'13  130610004740      CU1562                 
00007135012200150438443M.R.M.S.PRIYARATHNA 23000000000000000000000SLR7056011001108629401DU PAL (PVT) LTD    727360999V     COMM'N MAY'13  130610004578      CU1562                 
00007287018032360494101P.P.KULATHUNGA      23000000000000002635546SLR7056011001108629401DU PAL (PVT) LTD    632383010V     COMM'N MAY'13  130610004662      CU1562                 
00007135207200160449132N.G.P.P.NIKALANDA   23000000000000000000000SLR7056011001108629401DU PAL (PVT) LTD    810194162V     COMM'N MAY'13  130610004269      CU1562                 
00007056001008160041107R.P.I.U.N.SENANAYAKE23000000000000000000000SLR7056011001108629401DU PAL (PVT) LTD    810684500V     COMM'N MAY'13  130610005190      CU1562                 
00007135089200140030641H.G.WIMALARATHNA    23000000000000000000000SLR7056011001108629401DU PAL (PVT) LTD    573204050V     COMM'N MAY'13  130610004548      CU1562                 
00007135334200170036596N.G.A.P.Wijesekara  23000000000000005631123SLR7056011001108629401DU PAL (PVT) LTD    721683362V     COMM'N MAY'13  130610004317      CU1562                 
00007083023023020237698W.K.S.A.BANDARA     23000000000000000143041SLR7056011001108629401DU PAL (PVT) LTD    790333462V     COMM'N MAY'13  130610005313      CU1562                 
00007056001008160073240E.P.S.M.DARMATHILAKA23000000000000000000000SLR7056011001108629401DU PAL (PVT) LTD    940964350V     COMM'N MAY'13  130610004587      CU1562                 
00007278001100650302669H.M.S.P.DHARMASIRI  23000000000000000000000SLR7056011001108629401DU PAL (PVT) LTD    808523248V     COMM'N MAY'13  130610005304      CU1562                 
00007135163200160009431A.M.K.ADIKARI       23000000000000000958668SLR7056011001108629401DU PAL (PVT) LTD    718230292V     COMM'N MAY'13  130610003996      CU1562                 
00007719017100170424617W.W.I.NILANTHI      23000000000000002619591SLR7056011001108629401DU PAL (PVT) LTD    766423400V     COMM'N MAY'13  130610005334      CU1562                 
00007719017100170164917W.I.R.KUMARI        23000000000000000000000SLR7056011001108629401DU PAL (PVT) LTD    767861503V     COMM'N MAY'13  130610005934      CU1562                 
00007010549000003876554R.M.P.RATHNAYAKE    23000000000000003457615SLR7056011001108629401DU PAL (PVT) LTD    653182361V     COMM'N MAY'13  130610003588      CU1562                 
00007056001008600016198E.P.S.K.EDIRISINGHE 23000000000000001007988SLR7056011001108629401DU PAL (PVT) LTD    790571215V     COMM'N MAY'13  130610005139      CU1562                 
00007056001008160039826L.S.K.DALADAWATHTHAG23000000000000000000000SLR7056011001108629401DU PAL (PVT) LTD    887693721V     COMM'N MAY'13  130610004902      CU1562                 
00007056001008182001120H.P.S.DESHAPRIYA    23000000000000000810806SLR7056011001108629401DU PAL (PVT) LTD    722932625V     COMM'N MAY'13  130610004866      CU1562                 
00007135012200110031011H.M.K.HERATH        23000000000000003049208SLR7056011001108629401DU PAL (PVT) LTD    765830060V     COMM'N MAY'13  130610003627      CU1562                 
00007056001008300012196U.RANGANA           23000000000000000000000SLR7056011001108629401DU PAL (PVT) LTD    853205265V     COMM'N MAY'13  130610004455      CU1562                 
00007056001008160018686S.H.D.SRIKANTHA     23000000000000002943070SLR7056011001108629401DU PAL (PVT) LTD    786203945V     COMM'N MAY'13  130610004068      CU1562                 
00007010379000000922221D.M.R.Disanayakae   23000000000000000432081SLR7056011001108629401DU PAL (PVT) LTD    722561031V     COMM'N MAY'13  130610003873      CU1562                 
00007010379000005524555H.M.S.K.PRIYADARSHAN23000000000000000000000SLR7056011001108629401DU PAL (PVT) LTD    797491489V     COMM'N MAY'13  130610004293      CU1562                 
00007010564000008153600M.N.M.NUSRATH       23000000000000000000000SLR7056011001108629401DU PAL (PVT) LTD    893561013V     COMM'N MAY'13  130610005166      CU1562                 
00007719709107090105376H.D.A.LAKSIRI       23000000000000000000000SLR7056011001108629401DU PAL (PVT) LTD    701663071V     COMM'N MAY'13  130610003771      CU1562                 
00007010172000005428351K.M.DANAPALA        23000000000000000255214SLR7056011001108629401DU PAL (PVT) LTD    650861337V     COMM'N MAY'13  130610005487      CU1562                 
00007056001008174001777Y.M.P.YAPA          23000000000000000000000SLR7056011001108629401DU PAL (PVT) LTD    803302081V     COMM'N MAY'13  130610004473      CU1562                 
00007278001104453077937W.G.D.A.PRIYALAL    23000000000000000000000SLR7056011001108629401DU PAL (PVT) LTD    820581440V     COMM'N MAY'13  130610004620      CU1562                 
00007083121121020004946C.M.U.N.CHANDRASEKAR23000000000000000000000SLR7056011001108629401DU PAL (PVT) LTD    770290520V     COMM'N MAY'13  130610004962      CU1562                 
00007278001104453639819L.A.WEJERATHNA      23000000000000000000000SLR7056011001108629401DU PAL (PVT) LTD    812591002V     COMM'N MAY'13  130610005664      CU1562                 
00007010547000005835876R.B.R.J.BANDARA     23000000000000000000000SLR7056011001108629401DU PAL (PVT) LTD    802000065V     COMM'N MAY'13  130610004350      CU1562                 
00007010088000009470644P.G.N.K.RANASINGHE  23000000000000003526791SLR7056011001108629401DU PAL (PVT) LTD    881953781V     COMM'N MAY'13  130610005247      CU1562                 
00007056001008167001229R.M.NIMAZ           23000000000000000000000SLR7056011001108629401DU PAL (PVT) LTD    921393156V     COMM'N MAY'13  130610004410      CU1562                 
00007278001109553308702O.P.M.RANGANATH     23000000000000000000000SLR7056011001108629401DU PAL (PVT) LTD    881384264V     COMM'N MAY'13  130610005073      CU1562                 
00007010743000071472884A.M.N.N.ATHTHANAYAKA23000000000000000024952SLR7056011001108629401DU PAL (PVT) LTD    932254654V     COMM'N MAY'13  130610003402      CU1562                 
00007056001008160016364F.M.IRFAN           23000000000000000160705SLR7056011001108629401DU PAL (PVT) LTD    822482023X     COMM'N MAY'13  130610004545      CU1562                 
00007056001008161003326I.M.A.ISMAIL        23000000000000000000000SLR7056011001108629401DU PAL (PVT) LTD    942022352V     COMM'N MAY'13  130610004536      CU1562                 
00007010564000073317075I.M.IMRAS           23000000000000000000000SLR7056011001108629401DU PAL (PVT) LTD    900351410V     COMM'N MAY'13  130610004596      CU1562                 
00007056001008450018937M.A.K.M.ARSHATH     23000000000000001156727SLR7056011001108629401DU PAL (PVT) LTD    922190909V     COMM'N MAY'13  130610005106      CU1562                 
00007278001110953603651M.R.M.Rikaz         23000000000000000977841SLR7056011001108629401DU PAL (PVT) LTD    842130468V     COMM'N MAY'13  130610005622      CU1562                 
00007010257000007122675B.M.B.I.Wijesinghe  23000000000000000000000SLR7056011001108629401DU PAL (PVT) LTD    760653330V     COMM'N MAY'13  130610003744      CU1562                 
00007056001008160073635K.M.C.L.BANDARA     23000000000000002287805SLR7056011001108629401DU PAL (PVT) LTD    921443838V     COMM'N MAY'13  130610003684      CU1562                 
00007010009000072150853P.D.C.D.ARIYAWANSHA 23000000000000002853628SLR7056011001108629401DU PAL (PVT) LTD    762933284V     COMM'N MAY'13  130610004653      CU1562                 
00007010009000070330862R.NEWTON            23000000000000002628287SLR7056011001108629401DU PAL (PVT) LTD    652360203V     COMM'N MAY'13  130610004143      CU1562                 
00007010555000072184233S.A.G.S.SENARATH    23000000000000000000000SLR7056011001108629401DU PAL (PVT) LTD    802695144V     COMM'N MAY'13  130610004632      CU1562                 
00007010513000070672851A.A.P.D.KUMARA      23000000000000001728799SLR7056011001108629401DU PAL (PVT) LTD    683555282V     COMM'N MAY'13  130610005529      CU1562                 
00007056001008160056041N.T.D.S.KUMARA      23000000000000003002954SLR7056011001108629401DU PAL (PVT) LTD    651942918V     COMM'N MAY'13  130610004383      CU1562                 
00007287018032441420101K.G.D.D.D.WIJERATHNA23000000000000003229387SLR7056011001108629401DU PAL (PVT) LTD    823500947V     COMM'N MAY'13  130610003579      CU1562                 
00007135199200190014538T.G.H.WIKUMSIRI     23000000000000000000000SLR7056011001108629401DU PAL (PVT) LTD    862171446V     COMM'N MAY'13  130610004884      CU1562                 
00007083019019020424136M.M.SIFAN           23000000000000001020593SLR7056011001108629401DU PAL (PVT) LTD    890831559V     COMM'N MAY'13  130610005388      CU1562                 
00007056001008161002776R.M.D.J.H.ABERATHNA 23000000000000000127770SLR7056011001108629401DU PAL (PVT) LTD    650590376V     COMM'N MAY'13  130610004197      CU1562                 
00007287018001635075101R.H.G.E.K.RANASINGHE23000000000000000192029SLR7056011001108629401DU PAL (PVT) LTD    831391650V     COMM'N MAY'13  130610003618      CU1562                 
00007056001008160074691R.Saldin Mohamed    23000000000000000000000SLR7056011001108629401DU PAL (PVT) LTD    761763172V     COMM'N MAY'13  130610004338      CU1562                 
00007056001008432484601G.Raveendran        23000000000000003967104SLR7056011001108629401DU PAL (PVT) LTD    780661445V     COMM'N MAY'13  130610004767      CU1562                 
00007056001008114015822P.G.H.FERNANDO      23000000000000000000000SLR7056011001108629401DU PAL (PVT) LTD    842211239V     COMM'N MAY'13  130610004773      CU1562                 
00007135024200160010716G.SHEREEN           23000000000000000352859SLR7056011001108629401DU PAL (PVT) LTD    906360888V     COMM'N MAY'13  130610004557      CU1562                 
00007056001008430026521C.N.P.CROOS         23000000000000000352338SLR7056011001108629401DU PAL (PVT) LTD    881051605V     COMM'N MAY'13  130610003354      CU1562                 
00007287015002022072101M.R.D.H.BANDARA     23000000000000000286179SLR7056011001108629401DU PAL (PVT) LTD    861882853V     COMM'N MAY'13  130610003660      CU1562                 
00007056001008430023291H.M.P.K.THILAKAWARDA23000000000000000130661SLR7056011001108629401DU PAL (PVT) LTD    803621446V     COMM'N MAY'13  130610004047      CU1562                 
00007010050000008975187D.C.C.FERNANDO      23000000000000000000000SLR7056011001108629401DU PAL (PVT) LTD    783610329V     COMM'N MAY'13  130610004023      CU1562                 
00007056001008106015953N.M.JAMSY           23000000000000000973052SLR7056011001108629401DU PAL (PVT) LTD    800612438V     COMM'N MAY'13  130610005244      CU1562                 
00007278001100650120218A.M.N.W.M.H.P.ATHURU23000000000000005750394SLR7056011001108629401DU PAL (PVT) LTD    771273009V     COMM'N MAY'13  130610004431      CU1562                 
00007056001008122002471L.H.W.S.DE SILVA    23000000000000000000000SLR7056011001108629401DU PAL (PVT) LTD    748392092V     COMM'N MAY'13  130610005355      CU1562                 
00007056001008550010847K.S.SILVA           23000000000000002932476SLR7056011001108629401DU PAL (PVT) LTD    650110196V     COMM'N MAY'13  130610003225      CU1562                 
00007135207200160024869R.K.D.M.R.P.M.K.BOGA23000000000000000210917SLR7056011001108629401DU PAL (PVT) LTD    932341212V     COMM'N MAY'13  130610004380      CU1562                 
00007056001008550017724M.M.K.W.KEERTHI     23000000000000001817747SLR7056011001108629401DU PAL (PVT) LTD    632480199V     COMM'N MAY'13  130610004701      CU1562                 
00007056001008160067239A.G.N.S.BANDARA     23000000000000001810830SLR7056011001108629401DU PAL (PVT) LTD    852203242V     COMM'N MAY'13  130610004167      CU1562                 
00007287018001414194101D.M.D.Nalaka Karunar23000000000000000000000SLR7056011001108629401DU PAL (PVT) LTD    761992554V     COMM'N MAY'13  130610003885      CU1562                 
00007010009000070585856D.A.W.MADARI        23000000000000001469040SLR7056011001108629401DU PAL (PVT) LTD    827703656V     COMM'N MAY'13  130610004320      CU1562                 
00007287018032360834101E.M.S.K.EKANAYAKE   23000000000000001122557SLR7056011001108629401DU PAL (PVT) LTD    783311160V     COMM'N MAY'13  130610004071      CU1562                 
00007056001008430014640A.CHANDRAPALA       23000000000000000339152SLR7056011001108629401DU PAL (PVT) LTD    660031995V     COMM'N MAY'13  130610004575      CU1562                 
00007056001008510010826H.M.M.CHANDRASIRI   23000000000000001035871SLR7056011001108629401DU PAL (PVT) LTD    643130297V     COMM'N MAY'13  130610004836      CU1562                 
00007056001008160073844M.T.M.AHAMED        23000000000000000000000SLR7056011001108629401DU PAL (PVT) LTD    932142198V     COMM'N MAY'13  130610004800      CU1562                 
00007278001105353570803G.S.GOVINDA         23000000000000004259545SLR7056011001108629401DU PAL (PVT) LTD    870510799V     COMM'N MAY'13  130610006195      CU1562                 
00007287010032412297101K.G.I.S.NAYANANADA  23000000000000000000000SLR7056011001108629401DU PAL (PVT) LTD    817940560V     COMM'N MAY'13  130610004269      CU1562                 
00007010498000007025920P.K.K.S.WIMALASENA  23000000000000000000000SLR7056011001108629401DU PAL (PVT) LTD    850430683V     COMM'N MAY'13  130610004845      CU1562                 
00007135149200106089674S.A.D.M.AMARAWANSHA 23000000000000001201654SLR7056011001108629401DU PAL (PVT) LTD    878403215V     COMM'N MAY'13  130610004866      CU1562                 
00007287010033468808101T.M.T.K.BANDARA     23000000000000000000000SLR7056011001108629401DU PAL (PVT) LTD    930891711V     COMM'N MAY'13  130610004941      CU1562                 
00007083041041020175709P.K.I.KUMARA        23000000000000000000000SLR7056011001108629401DU PAL (PVT) LTD    731782636V     COMM'N MAY'13  130610003912      CU1562                 
00007287063032530518101M.M.M.MUBEEN        23000000000000000000000SLR7056011001108629401DU PAL (PVT) LTD    832510459V     COMM'N MAY'13  130610004092      CU1562                 
00007010498000005689003U.P.R.S.PATHIRANA   23000000000000003028338SLR7056011001108629401DU PAL (PVT) LTD    852812028V     COMM'N MAY'13  130610003153      CU1562                 
00007083089089020127412A.R.D.NILMINI       23000000000000000857133SLR7056011001108629401DU PAL (PVT) LTD    886723636V     COMM'N MAY'13  130610004254      CU1562                 
00007056001008120050858I.D.C.S.MAHINDU     23000000000000003914826SLR7056011001108629401DU PAL (PVT) LTD    853340537V     COMM'N MAY'13  130610004713      CU1562                 
00007135119200143714509Kosala Kaduruwana   23000000000000000279956SLR7056011001108629401DU PAL (PVT) LTD    821271169V     COMM'N MAY'13  130610005244      CU1562                 
00007135054200134871875K.GUNASENA          23000000000000001543412SLR7056011001108629401DU PAL (PVT) LTD    541872698V     COMM'N MAY'13  130610004761      CU1562                 
00007056001008690051491K.N.S.PERERA        23000000000000003050496SLR7056011001108629401DU PAL (PVT) LTD    835483827V     COMM'N MAY'13  130610003795      CU1562                 
00007056001008106020661B.P.N.PERERA        23000000000000003424090SLR7056011001108629401DU PAL (PVT) LTD    907341976V     COMM'N MAY'13  130610004254      CU1562                 
00007056001008760027544D.M.D.DISSANAKAKE   23000000000000002347631SLR7056011001108629401DU PAL (PVT) LTD    726331251V     COMM'N MAY'13  130610005796      CU1562                 
00007056001008258003254K.C.JAYASINGHE      23000000000000000000000SLR7056011001108629401DU PAL (PVT) LTD    897110431V     COMM'N MAY'13  130610004731      CU1562                 
00007278001108153461448W.N.K.RANATHUNGE    23000000000000005570171SLR7056011001108629401DU PAL (PVT) LTD    750812090V     COMM'N MAY'13  130610004881      CU1562                 
00007056001008800023083D.M.M.B.DASSANAYAKE 23000000000000001733720SLR7056011001108629401DU PAL (PVT) LTD    822900917V     COMM'N MAY'13  130610004029      CU1562                 
00007719748107488001561M.C.N.KULATHUNGA    23000000000000003526760SLR7056011001108629401DU PAL (PVT) LTD    856152600V     COMM'N MAY'13  130610005073      CU1562                 
00007056001008136005142R.B.C.H.JAYATHILAKA 23000000000000000262863SLR7056011001108629401DU PAL (PVT) LTD    868591200V     COMM'N MAY'13  130610004887      CU1562                 
00007287029033337331101T.M.A.G.D.P.K.TENNAK23000000000000000263337SLR7056011001108629401DU PAL (PVT) LTD    822143865V     COMM'N MAY'13  130610004719      CU1562                 
00007010002000071655042H.S.R.WEERASOORIYA  23000000000000000000000SLR7056011001108629401DU PAL (PVT) LTD    733620846V     COMM'N MAY'13  130610004293      CU1562                 
00007083053053020143051R.M.N.JAYAWARDHANA  23000000000000000000000SLR7056011001108629401DU PAL (PVT) LTD    771931294V     COMM'N MAY'13  130610004722      CU1562                 
00007056001008100900985B.M.SENAVIRATHNA    23000000000000000000000SLR7056011001108629401DU PAL (PVT) LTD    570922998V     COMM'N MAY'13  130610004965      CU1562                 
00007135058200230016484W.W.M.WIJEKOON      23000000000000000000000SLR7056011001108629401DU PAL (PVT) LTD    660560866V     COMM'N MAY'13  130610005235      CU1562                 
00007287057002452959101L.M.C.P.WIJESEKARA  23000000000000001606664SLR7056011001108629401DU PAL (PVT) LTD    880342304V     COMM'N MAY'13  130610004644      CU1562                 
00007056001008120911663S.VIJAYKANTH        23000000000000000000000SLR7056011001108629401DU PAL (PVT) LTD    882633233V     COMM'N MAY'13  130610004461      CU1562                 
00007056001008116007005K.A.S.PUSHPAKUMARA  23000000000000000000000SLR7056011001108629401DU PAL (PVT) LTD    812732781V     COMM'N MAY'13  130610004569      CU1562                 
00007056001008750019727R.A.Leelarathna     23000000000000000000000SLR7056011001108629401DU PAL (PVT) LTD    733421630V     COMM'N MAY'13  130610003975      CU1562                 
00007056001008560045108I.W.M.H.PRADEEP     23000000000000000000000SLR7056011001108629401DU PAL (PVT) LTD    881980622V     COMM'N MAY'13  130610004191      CU1562                 
00007719002100020807095K.A.U.INDIKA        23000000000000000795750SLR7056011001108629401DU PAL (PVT) LTD    742430286V     COMM'N MAY'13  130610004167      CU1562                 
00007719012109070170992P.H.R.PERERA        23000000000000000783849SLR7056011001108629401DU PAL (PVT) LTD    821632960V     COMM'N MAY'13  130610004647      CU1562                 
00007056001008143012591T.A.I.INDIKA        23000000000000000000000SLR7056011001108629401DU PAL (PVT) LTD    820035615V     COMM'N MAY'13  130610004605      CU1562                 
00007278001101650221290K.K.S.W.KUMARA      23000000000000000000000SLR7056011001108629401DU PAL (PVT) LTD    810310995V     COMM'N MAY'13  130610005088      CU1562                 
00007719057100570421073E.A.Abewardhana     23000000000000000000000SLR7056011001108629401DU PAL (PVT) LTD    623383040V     COMM'N MAY'13  130610005241      CU1562                 
00007278001102253555967D.D.T.VITHANAGE     23000000000000005688140SLR7056011001108629401DU PAL (PVT) LTD    791134234V     COMM'N MAY'13  130610004632      CU1562                 
00007056001008700033861A. Weerasekara      23000000000000000023000SLR7056011001108629401DU PAL (PVT) LTD    533413544 V    COMM'N MAY'13  130610004530      CU1562                 
00007056001008840016830S.SUJEEWA           23000000000000000000000SLR7056011001108629401DU PAL (PVT) LTD    737291960V     COMM'N MAY'13  130610004566      CU1562                 
00007056001008230029104S.A.VIJITHA         23000000000000000000000SLR7056011001108629401DU PAL (PVT) LTD    888423427V     COMM'N MAY'13  130610004863      CU1562                 
00007278001113754151856S.N.MADHUWANTHI     23000000000000001142151SLR7056011001108629401DU PAL (PVT) LTD    877062015V     COMM'N MAY'13  130610004827      CU1562                 
00007278001102254191302M.N.S.KARUNARATHNA  23000000000000000803095SLR7056011001108629401DU PAL (PVT) LTD    903343265V     COMM'N MAY'13  130610004227      CU1562                 
00007056001008700037337N.G.R.D.R.GAMLATH   23000000000000001798243SLR7056011001108629401DU PAL (PVT) LTD    922840091V     COMM'N MAY'13  130610004032      CU1562                 
00007056001008500036451D.K.R.WEERASINGHE   23000000000000001104000SLR7056011001108629401DU PAL (PVT) LTD    927370468V     COMM'N MAY'13  130610005511      CU1562                 
00007056001008770037918W.A.D.N.CHANDIKA KUM23000000000000000000000SLR7056011001108629401DU PAL (PVT) LTD    933580075V     COMM'N MAY'13  130610004746      CU1562                 
00007278001102250018956K.B.S.R.BANDARA     23000000000000000000000SLR7056011001108629401DU PAL (PVT) LTD    781363189V     COMM'N MAY'13  130610004518      CU1562                 
00007719057100578021368P.A.T.R.PERERA      23000000000000000700790SLR7056011001108629401DU PAL (PVT) LTD    791830684V     COMM'N MAY'13  130610004221      CU1562                 
00007719043100438838089T.P.K.FERNANDO      23000000000000000000000SLR7056011001108629401DU PAL (PVT) LTD    856533280V     COMM'N MAY'13  130610004542      CU1562                 
00007278001102254192757B.U.D.FERNANDO      23000000000000001006235SLR7056011001108629401DU PAL (PVT) LTD    895053287V     COMM'N MAY'13  130610004935      CU1562                 
00007278001102050080711W.H.T.N.PATHMINEE   23000000000000001629314SLR7056011001108629401DU PAL (PVT) LTD    676610103V     COMM'N MAY'13  130610005589      CU1562                 
00007278001102253763409B.M.B.FERNANDO      23000000000000000000000SLR7056011001108629401DU PAL (PVT) LTD    810741554V     COMM'N MAY'13  130610005643      CU1562                 
00007056001008131008976S.VASHIKARAN        23000000000000000936046SLR7056011001108629401DU PAL (PVT) LTD    933342484V     COMM'N MAY'13  130610005034      CU1562                 
00007056001008430018954I.L.Hairudeen       23000000000000000000000SLR7056011001108629401DU PAL (PVT) LTD    793123566V     COMM'N MAY'13  130610005391      CU1562                 
00007083097097020198044M.F.M.SALMAN        23000000000000000000000SLR7056011001108629401DU PAL (PVT) LTD    922512752V     COMM'N MAY'13  130610005232      CU1562                 
00007056001008430032996P.D.PAWITHRA        23000000000000000000000SLR7056011001108629401DU PAL (PVT) LTD    828280236V     COMM'N MAY'13  130610004440      CU1562                 
00007010057000003195508R.A.S.BANDARA       23000000000000000000000SLR7056011001108629401DU PAL (PVT) LTD    923632875V     COMM'N MAY'13  130610004746      CU1562                 
00007010642000001908739W.G.M.C.SOMASIRI    23000000000000000000000SLR7056011001108629401DU PAL (PVT) LTD    921920121V     COMM'N MAY'13  130610004782      CU1562                 
00007278001111153973692M.M.RUKSHAN         23000000000000000000000SLR7056011001108629401DU PAL (PVT) LTD    931842960V     COMM'N MAY'13  130610004599      CU1562                 
00007056001008460007782H.P.H.PREMATHILAKA  23000000000000000138358SLR7056011001108629401DU PAL (PVT) LTD    771722636V     COMM'N MAY'13  130610004659      CU1562                 
00007083056056020056714R.A.C.M.ROOPASINGHE 23000000000000003001653SLR7056011001108629401DU PAL (PVT) LTD    942540426V     COMM'N MAY'13  130610003975      CU1562                 
00007056001008760022307S.R.S.K.VITHANAGE   23000000000000000000000SLR7056011001108629401DU PAL (PVT) LTD    600321161v     COMM'N MAY'13  130610004953      CU1562                 
00007278001102153543638R.A.A.K.RANASINGHE  23000000000000000000000SLR7056011001108629401DU PAL (PVT) LTD    762581760V     COMM'N MAY'13  130610005322      CU1562                 
00007056001008530000166H.M.R.P.HERATH      23000000000000000000000SLR7056011001108629401DU PAL (PVT) LTD    691533379V     COMM'N MAY'13  130610004566      CU1562                 
00007056001008520025398P.H.S.SWARNAMALI    23000000000000001241965SLR7056011001108629401DU PAL (PVT) LTD    926364448V     COMM'N MAY'13  130610004902      CU1562                 
00007056001008137000397B.M.J.KUMARA        23000000000000001095384SLR7056011001108629401DU PAL (PVT) LTD    711681736V     COMM'N MAY'13  130610004503      CU1562                 
00007135214200160012206M.A.M.ASHIK         23000000000000000248448SLR7056011001108629401DU PAL (PVT) LTD    943591270V     COMM'N MAY'13  130610004005      CU1562                 
00007056001008107017428B.THANUSHAN         23000000000000000000000SLR7056011001108629401DU PAL (PVT) LTD    911723239V     COMM'N MAY'13  130610004593      CU1562                 
00007056001008127012955S.THANUSHANTH       23000000000000000000000SLR7056011001108629401DU PAL (PVT) LTD    910922742V     COMM'N MAY'13  130610005532      CU1562                 
00007056001008140001222E.R.NALAKA          23000000000000000000000SLR7056011001108629401DU PAL (PVT) LTD    783521849V     COMM'N MAY'13  130610005025      CU1562                 
00007287006000342742101D.N.R.SUBASHINI     23000000000000000000000SLR7056011001108629401DU PAL (PVT) LTD    816101220V     COMM'N MAY'13  130610005007      CU1562                 
00007056001008163001482W.A.S.K.WIMALASIRI  23000000000000000000000SLR7056011001108629401DU PAL (PVT) LTD    853254860V     COMM'N MAY'13  130610004770      CU1562                 
00007278001103554080748P.L.A.U.KESHAN      23000000000000001395795SLR7056011001108629401DU PAL (PVT) LTD    910370405V     COMM'N MAY'13  130610005409      CU1562                 
00007056001008103010374H.G.P.GAMAGE        23000000000000000000000SLR7056011001108629401DU PAL (PVT) LTD    841750853V     COMM'N MAY'13  130610004599      CU1562                 
00007056001008120016786K.SUGANTHAN         23000000000000000000000SLR7056011001108629401DU PAL (PVT) LTD    752371202V     COMM'N MAY'13  130610005265      CU1562                 
00007135064200140034224M.I.NAIYOOB         23000000000000000000000SLR7056011001108629401DU PAL (PVT) LTD    920393950V     COMM'N MAY'13  130610005052      CU1562                 
00007056001008038364301A.M.M.RINOS         23000000000000000000000SLR7056011001108629401DU PAL (PVT) LTD    751490909V     COMM'N MAY'13  130610004761      CU1562                 
00007278001112353752562D.M.ABEYWARNA       23000000000000000674137SLR7056011001108629401DU PAL (PVT) LTD    733592680V     COMM'N MAY'13  130610004722      CU1562                 
00007056001008730007400K.M.M.P.BANDARA     23000000000000000000000SLR7056011001108629401DU PAL (PVT) LTD    792243525V     COMM'N MAY'13  130610004890      CU1562                 
00007056001008150904552H.M.V.KULATHUNGA    23000000000000003228316SLR7056011001108629401DU PAL (PVT) LTD    570780107V     COMM'N MAY'13  130610003570      CU1562                 
00007056001008700005146E.A.A.EDIRISINGHE   23000000000000000000000SLR7056011001108629401DU PAL (PVT) LTD    583183531V     COMM'N MAY'13  130610004911      CU1562                 
00007135029200201099246W.A.D.G.WETHTHASINGE23000000000000000000000SLR7056011001108629401DU PAL (PVT) LTD    580072224V     COMM'N MAY'13  130610004794      CU1562                 
00007278001108153591993H.M.H.N.SENAVIRATHNA23000000000000000000000SLR7056011001108629401DU PAL (PVT) LTD    893574123V     COMM'N MAY'13  130610005175      CU1562                 
00007287100033467216101K.K.T.MADUSHAN      23000000000000000000000SLR7056011001108629401DU PAL (PVT) LTD    923311246V     COMM'N MAY'13  130610005802      CU1562                 
00007056001008730012607W.G.D.WEERASINGHE   23000000000000001363320SLR7056011001108629401DU PAL (PVT) LTD    733610727V     COMM'N MAY'13  130610004470      CU1562                 
00007287057032317811101W.R.N.KULASOORIYA   23000000000000000024916SLR7056011001108629401DU PAL (PVT) LTD    766110223V     COMM'N MAY'13  130610004398      CU1562                 
00007719741107410104833W.A.R.N.WIJESOORIYA 23000000000000000000000SLR7056011001108629401DU PAL (PVT) LTD    732430350V     COMM'N MAY'13  130610004101      CU1562                 
00007056001008108038332S.SRIKANTHARANGANATH23000000000000000681828SLR7056011001108629401DU PAL (PVT) LTD    907302636V     COMM'N MAY'13  130610004581      CU1562                 
00007278001106654191471D.B.N.N.DHARMASENA  23000000000000000000000SLR7056011001108629401DU PAL (PVT) LTD    753052097V     COMM'N MAY'13  130610004284      CU1562                 
00007135112200150033630M.A.W.DHARMASRI     23000000000000000000000SLR7056011001108629401DU PAL (PVT) LTD    781351342V     COMM'N MAY'13  130610004797      CU1562                 
00007056001008800000341R.M.S.PRIYANGA      23000000000000000000000SLR7056011001108629401DU PAL (PVT) LTD    751891121V     COMM'N MAY'13  130610005094      CU1562                 
00007056001008580031309A.S.SAFWAN          23000000000000000000000SLR7056011001108629401DU PAL (PVT) LTD    910312189V     COMM'N MAY'13  130610004785      CU1562                 
00007056001008127000533L.A.JESUTHASAN      23000000000000000652050SLR7056011001108629401DU PAL (PVT) LTD    840374106V     COMM'N MAY'13  130610004431      CU1562                 
00007056001008106001661K.RAJEEV            23000000000000000000000SLR7056011001108629401DU PAL (PVT) LTD    832353655V     COMM'N MAY'13  130610005241      CU1562                 
00007056001008040028161K.B.D.M.SAMARATHUNGA23000000000000000000000SLR7056011001108629401DU PAL (PVT) LTD    805223154V     COMM'N MAY'13  130610004239      CU1562                 
00007056001008320026540F.W.SARAP           23000000000000001495000SLR7056011001108629401DU PAL (PVT) LTD    927451328V     COMM'N MAY'13  130610004506      CU1562                 
00007083018018020765285F.A.NASARDEEN       23000000000000001380000SLR7056011001108629401DU PAL (PVT) LTD    905134043V     COMM'N MAY'13  130610004434      CU1562                 
00007719018100180240494W.H.M.S.WADIYARATHNA23000000000000001058000SLR7056011001108629401DU PAL (PVT) LTD    570851233V     COMM'N MAY'13  130610003741      CU1562                 
00007056001008170012329H.A.PREMATHILAKA    23000000000000001380000SLR7056011001108629401DU PAL (PVT) LTD    928251845V     COMM'N MAY'13  130610005004      CU1562                 
00007056001008160004667D.D.D.Rajanandana   23000000000000001610000SLR7056011001108629401DU PAL (PVT) LTD    741210908V     COMM'N MAY'13  130610004407      CU1562                 
00007278001104954117851D.D.S.DAYABARAN     23000000000000001092500SLR7056011001108629401DU PAL (PVT) LTD    918492879V     COMM'N MAY'13  130610004311      CU1562                 
00007056001008170012202C.W.Vithanage       23000000000000001104000SLR7056011001108629401DU PAL (PVT) LTD    907510310V     COMM'N MAY'13  130610005700      CU1562                 
00007056001008270052112I.D.WAKUNUGODAGE    23000000000000001230500SLR7056011001108629401DU PAL (PVT) LTD    921801521V     COMM'N MAY'13  130610004050      CU1562                 
00007056001008106020200E.M.N.N.BALASOORIYA 23000000000000000000000SLR7056011001108629401DU PAL (PVT) LTD    935031710V     COMM'N MAY'13  130610004920      CU1562                 
00007056001008170012475J.A.D.V.Y.RANASINGHE23000000000000000000000SLR7056011001108629401DU PAL (PVT) LTD    926262408V     COMM'N MAY'13  130610004332      CU1562                 
00007056001008222002146W.S.S.PERERA        23000000000000000000000SLR7056011001108629401DU PAL (PVT) LTD    898411605V     COMM'N MAY'13  130610004599      CU1562                 
00007056001008170012027M.S.KUMARI          23000000000000000000000SLR7056011001108629401DU PAL (PVT) LTD    816210470V     COMM'N MAY'13  130610005001      CU1562                 
00007056001008114023888P.S.N.PEIRIS        23000000000000000000000SLR7056011001108629401DU PAL (PVT) LTD    888211020V     COMM'N MAY'13  130610004551      CU1562                 
00007056001008124002097W.G.G.Indrajith Gala23000000000000000505602SLR7056011001108629401DU PAL (PVT) LTD    772320884V     COMM'N MAY'13  130610004500      CU1562                 
00007287045001364878101T.lakmal            23000000000000000000000SLR7056011001108629401DU PAL (PVT) LTD    910171763V     COMM'N MAY'13  130610004548      CU1562                 
00007010049000006224926M.S.Maduranga       23000000000000000000000SLR7056011001108629401DU PAL (PVT) LTD    892721831V     COMM'N MAY'13  130610003933      CU1562                 
00007056001008820019936R.M.I.L.Gunarathna  23000000000000000000000SLR7056011001108629401DU PAL (PVT) LTD    928342980V     COMM'N MAY'13  130610004812      CU1562                 
00007056001008880023444Chirath Chathuranga 23000000000000003843352SLR7056011001108629401DU PAL (PVT) LTD    891790074V     COMM'N MAY'13  130610003960      CU1562                 
00007056001008970019070P.H.L.De Silva      23000000000000003079372SLR7056011001108629401DU PAL (PVT) LTD    902161848V     COMM'N MAY'13  130610004788      CU1562                 
00007056001008970010064M.Sajith Priyantha W23000000000000000000000SLR7056011001108629401DU PAL (PVT) LTD    823433263V     COMM'N MAY'13  130610004386      CU1562                 
00007056001008980020455J.N.T.AKALANKA      23000000000000000358343SLR7056011001108629401DU PAL (PVT) LTD    910660497V     COMM'N MAY'13  130610004641      CU1562                 
00007056001008140026882D.S.C.P.DISSANAYAKA 23000000000000000000000SLR7056011001108629401DU PAL (PVT) LTD    912930939V     COMM'N MAY'13  130610004698      CU1562                 
00007056001008330028282G.K.R.W.KUMARA      23000000000000001574918SLR7056011001108629401DU PAL (PVT) LTD    830351922V     COMM'N MAY'13  130610004926      CU1562                 
00007056001008270051581S.A.C.LIYANAGE      23000000000000000000000SLR7056011001108629401DU PAL (PVT) LTD    796471760V     COMM'N MAY'13  130610005082      CU1562                 
00007056001008140028752Nishantha  Wickramas23000000000000001363032SLR7056011001108629401DU PAL (PVT) LTD    911260212V     COMM'N MAY'13  130610004083      CU1562                 
00007135087200170009535P.L.K.THILINA       23000000000000000043984SLR7056011001108629401DU PAL (PVT) LTD    911534827V     COMM'N MAY'13  130610003816      CU1562                 
00007056001008270049440M.S.M.Fawzan        23000000000000000000000SLR7056011001108629401DU PAL (PVT) LTD    942551770V     COMM'N MAY'13  130610005106      CU1562                 
00007056001008270048556W.L.S.Lakshan       23000000000000000000000SLR7056011001108629401DU PAL (PVT) LTD    943020230V     COMM'N MAY'13  130610004437      CU1562                 
00007056001008112017456G.K.M.B.MALSHAN     23000000000000000000000SLR7056011001108629401DU PAL (PVT) LTD    932131994V     COMM'N MAY'13  130610005196      CU1562                 
00007056001008350024563L.C.P.KUMARA        23000000000000000163909SLR7056011001108629401DU PAL (PVT) LTD    942792042V     COMM'N MAY'13  130610004407      CU1562                 
00007056001008135000754D.Chandrakumara     23000000000000004097741SLR7056011001108629401DU PAL (PVT) LTD    791620929V     COMM'N MAY'13  130610003891      CU1562                 
00007056001008270048549S.L.Chamara Vijethil23000000000000001587788SLR7056011001108629401DU PAL (PVT) LTD    941662919V     COMM'N MAY'13  130610004650      CU1562                 
00007056001008270047384D.L.K.Sajith Kumara 23000000000000000647998SLR7056011001108629401DU PAL (PVT) LTD    920910548V     COMM'N MAY'13  130610004854      CU1562                 
00007056001008280024392K.R.Gunasekara      23000000000000003074442SLR7056011001108629401DU PAL (PVT) LTD    793131674V     COMM'N MAY'13  130610005088      CU1562                 
00007056001008270051001C.U.N.N.HEWAWASAM   23000000000000000204809SLR7056011001108629401DU PAL (PVT) LTD    940282926V     COMM'N MAY'13  130610003567      CU1562                 
00007056001008270052557N.W.T.M.G.WARNASHANT23000000000000000031869SLR7056011001108629401DU PAL (PVT) LTD    866483540V     COMM'N MAY'13  130610004611      CU1562                 
00007056001008270046739N.W.T.M.C.MAHESH WAR23000000000000000000000SLR7056011001108629401DU PAL (PVT) LTD    942734328V     COMM'N MAY'13  130610004218      CU1562                 
00007056001008135000090F.M.Madugalle       23000000000000000000000SLR7056011001108629401DU PAL (PVT) LTD    731740674V     COMM'N MAY'13  130610005250      CU1562                 
00007056001008151004369D.P.S.Abediwakara   23000000000000002975887SLR7056011001108629401DU PAL (PVT) LTD    770803314V     COMM'N MAY'13  130610005457      CU1562                 
00007056001008151006955H.A.Asanka Chamara  23000000000000000000000SLR7056011001108629401DU PAL (PVT) LTD    892662070V     COMM'N MAY'13  130610005235      CU1562                 
00007056001008070035904W.A.Nirodha Buddhapr23000000000000002376082SLR7056011001108629401DU PAL (PVT) LTD    810995556V     COMM'N MAY'13  130610005109      CU1562                 
00007056001008151009310T.C.WEERASINGHE     23000000000000000895220SLR7056011001108629401DU PAL (PVT) LTD    867673288V     COMM'N MAY'13  130610005571      CU1562                 
00007056001008350021600M.P.P.KUMARA        23000000000000002128371SLR7056011001108629401DU PAL (PVT) LTD    923291270V     COMM'N MAY'13  130610003885      CU1562                 
00007056001008104004746P.HASARANGA         23000000000000000000000SLR7056011001108629401DU PAL (PVT) LTD    861411265V     COMM'N MAY'13  130610005415      CU1562                 
00007056001008930014997W.K.V.ABEYGUNAWARDAN23000000000000002006311SLR7056011001108629401DU PAL (PVT) LTD    823540400V     COMM'N MAY'13  130610003978      CU1562                 
00007056001008570012861M.M.Farhan          23000000000000000000000SLR7056011001108629401DU PAL (PVT) LTD    873521597V     COMM'N MAY'13  130610005538      CU1562                 
00007056001008167001504M.M.S.R.Dassanayaka 23000000000000000000000SLR7056011001108629401DU PAL (PVT) LTD    880340395V     COMM'N MAY'13  130610005286      CU1562                 
00007056001008870027432R.Y.Chandima Rahul  23000000000000000000000SLR7056011001108629401DU PAL (PVT) LTD    841202872V     COMM'N MAY'13  130610004611      CU1562                 
00007056001008360033607P.T.Samarasekara    23000000000000000000000SLR7056011001108629401DU PAL (PVT) LTD    922560811V     COMM'N MAY'13  130610004896      CU1562                 
00007056001008130037576H.A.S.K.Appuhamy    23000000000000000000000SLR7056011001108629401DU PAL (PVT) LTD    851600655V     COMM'N MAY'13  130610004344      CU1562                 
00007056001008960020816W.M.Minura Rashantha23000000000000000000000SLR7056011001108629401DU PAL (PVT) LTD    900531516V     COMM'N MAY'13  130610004155      CU1562                 
00007056001008570025115M.Z.M.SAFRIN        23000000000000000000000SLR7056011001108629401DU PAL (PVT) LTD    923501533V     COMM'N MAY'13  130610004686      CU1562                 
00007287006001843076102M.A.Maduranga Udaya 23000000000000003891600SLR7056011001108629401DU PAL (PVT) LTD    802582404V     COMM'N MAY'13  130610005064      CU1562                 
00007056001008400027302M.M.Muzhir          23000000000000002499411SLR7056011001108629401DU PAL (PVT) LTD    923001450V     COMM'N MAY'13  130610005214      CU1562                 
00007056001008142009867P.L.D.G.L.Senevirath23000000000000000574037SLR7056011001108629401DU PAL (PVT) LTD    937713940V     COMM'N MAY'13  130610004818      CU1562                 
00007056001008380019119J.M.C.A.Bandara jaya23000000000000000000000SLR7056011001108629401DU PAL (PVT) LTD    912482863V     COMM'N MAY'13  130610005181      CU1562                 
00007083087087020257940W.A.P.A.H.Priyasanth23000000000000000000000SLR7056011001108629401DU PAL (PVT) LTD    801963765V     COMM'N MAY'13  130610004047      CU1562                 
00007056001008106020836E.A.D.PETER         23000000000000000459838SLR7056011001108629401DU PAL (PVT) LTD    553061962V     COMM'N MAY'13  130610005196      CU1562                 
00007056001008106021316E.M.G.B.dananjanee  23000000000000000000000SLR7056011001108629401DU PAL (PVT) LTD    926680544V     COMM'N MAY'13  130610005082      CU1562                 
00007056001008170010655P.A.Chathuranga Vish23000000000000003798968SLR7056011001108629401DU PAL (PVT) LTD    883231155V     COMM'N MAY'13  130610005187      CU1562                 
00007056001008106019375J.A.D.Thilina Shehan23000000000000001408797SLR7056011001108629401DU PAL (PVT) LTD    920392334V     COMM'N MAY'13  130610004587      CU1562                 
00007056001008690018661H.N.U.Indika        23000000000000000000000SLR7056011001108629401DU PAL (PVT) LTD    731762368V     COMM'N MAY'13  130610005355      CU1562                 
00007056001008106019958K.C.Kaushalya       23000000000000000000000SLR7056011001108629401DU PAL (PVT) LTD    891061439V     COMM'N MAY'13  130610004269      CU1562                 
00007056001008106021009W.M.D.WEERASINGHE   23000000000000001761118SLR7056011001108629401DU PAL (PVT) LTD    930902136V     COMM'N MAY'13  130610004092      CU1562                 
00007056001008460013408T.A.P.U.KUMARA      23000000000000003089120SLR7056011001108629401DU PAL (PVT) LTD    763190536V     COMM'N MAY'13  130610005724      CU1562                 
00007056001008217003309J.BALACHANDRAN      23000000000000002068009SLR7056011001108629401DU PAL (PVT) LTD    885741100V     COMM'N MAY'13  130610005100      CU1562                 
00007056001008114000181T.A.R.W.KUMARA      23000000000000000803393SLR7056011001108629401DU PAL (PVT) LTD    800731631V     COMM'N MAY'13  130610004395      CU1562                 
00007056001008560044570S.RAGUPATHY         23000000000000002024000SLR7056011001108629401DU PAL (PVT) LTD    887041997V     COMM'N MAY'13  130610004107      CU1562                 
00007056001008590032430T.M.FERNANDO        23000000000000000058772SLR7056011001108629401DU PAL (PVT) LTD    62292602V      COMM'N MAY'13  130610005193      CU1562                 
00007056001008440039699L.B.N.PRIYADAMMI    23000000000000000046000SLR7056011001108629401DU PAL (PVT) LTD    795350209V     COMM'N MAY'13  130610004413      CU1562                 
00007135070200110006799I.S Maddumage       23000000000000000000000SLR7056011001108629401DU PAL (PVT) LTD    872292829V     COMM'N MAY'13  130610005238      CU1562                 
00007083125125020052119D.D.Indika Sendanaya23000000000000000417824SLR7056011001108629401DU PAL (PVT) LTD    878903771V     COMM'N MAY'13  130610005199      CU1562                 
00007056001008400017747M.A.Mohamed Arafath 23000000000000000000000SLR7056011001108629401DU PAL (PVT) LTD    882654036V     COMM'N MAY'13  130610005376      CU1562                 
00007056001008480040294A.M.Shally          23000000000000000000000SLR7056011001108629401DU PAL (PVT) LTD    891072368V     COMM'N MAY'13  130610005130      CU1562                 
00007135196200170006461M.P.K.D Farnando    23000000000000000000000SLR7056011001108629401DU PAL (PVT) LTD    882491358V     COMM'N MAY'13  130610003966      CU1562                 
00007056001008480041257S.I.Thennakoon      23000000000000002676329SLR7056011001108629401DU PAL (PVT) LTD    910532375V     COMM'N MAY'13  130610004296      CU1562                 
00007056001008410037452M.D.Peris           23000000000000000000000SLR7056011001108629401DU PAL (PVT) LTD    480980964V     COMM'N MAY'13  130610004929      CU1562                 
00007056001008820019897D.M.E.L.Kulathilaka 23000000000000000000000SLR7056011001108629401DU PAL (PVT) LTD    900261217V     COMM'N MAY'13  130610005091      CU1562                 
00007056001008960010212S.N.Baruhupala      23000000000000000000000SLR7056011001108629401DU PAL (PVT) LTD    891150309V     COMM'N MAY'13  130610005025      CU1562                 
00007056001008750032324A.W.H.S.Dhanushka   23000000000000003110707SLR7056011001108629401DU PAL (PVT) LTD    933000494V     COMM'N MAY'13  130610005925      CU1562                 
00007056001008960023437K.Y.M Karunarathne  23000000000000000354418SLR7056011001108629401DU PAL (PVT) LTD    900790503V     COMM'N MAY'13  130610004101      CU1562                 
00007135070200120004059G.S.Maduranga       23000000000000000000000SLR7056011001108629401DU PAL (PVT) LTD    892180652V     COMM'N MAY'13  130610004545      CU1562                 
00007056001008290008502H.D.B.Priyadarshana 23000000000000000000000SLR7056011001108629401DU PAL (PVT) LTD    842380669V     COMM'N MAY'13  130610004146      CU1562                 
00007056001008190041857R.M.N.Dharshani     23000000000000000000000SLR7056011001108629401DU PAL (PVT) LTD    759540901V     COMM'N MAY'13  130610004875      CU1562                 
00007056001008106020044C.S.Vithanage       23000000000000000000000SLR7056011001108629401DU PAL (PVT) LTD    931630083V     COMM'N MAY'13  130610005037      CU1562                 
00007056001008110017612Sahan C W M Kumarana23000000000000007489387SLR7056011001108629401DU PAL (PVT) LTD    753203605V     COMM'N MAY'13  130610004461      CU1562                 
00007278001109453788694K.G.S.Dulanjali     23000000000000000000000SLR7056011001108629401DU PAL (PVT) LTD    755151572V     COMM'N MAY'13  130610005793      CU1562                 
00007056001008760027116W.A.Ruwan Kumara Gan23000000000000000000000SLR7056011001108629401DU PAL (PVT) LTD    812363395V     COMM'N MAY'13  130610005349      CU1562                 
00007135072200340007093W.H.G.Sameera Dhammi23000000000000001062583SLR7056011001108629401DU PAL (PVT) LTD    873232790V     COMM'N MAY'13  130610005070      CU1562                 
00007056001008258002380T.M.Madumalinga Pere23000000000000002040399SLR7056011001108629401DU PAL (PVT) LTD    910370197V     COMM'N MAY'13  130610004518      CU1562                 
00007010542000071382520W.M.A.Supun Wijethun23000000000000000543111SLR7056011001108629401DU PAL (PVT) LTD    913020685V     COMM'N MAY'13  130610003444      CU1562                 
00007056001008180037161M.B.M.Pathum Sathsar23000000000000001233784SLR7056011001108629401DU PAL (PVT) LTD    882654257V     COMM'N MAY'13  130610004302      CU1562                 
00007056001008190041940R.A.Nadeeka Dulanja 23000000000000000785601SLR7056011001108629401DU PAL (PVT) LTD    822394507V     COMM'N MAY'13  130610005139      CU1562                 
00007056001008930009485L.K.S.Pelpola       23000000000000000000000SLR7056011001108629401DU PAL (PVT) LTD    880473867V     COMM'N MAY'13  130610005406      CU1562                 
00007010054000071108976H.D.S.I.Kanchana Som23000000000000000000000SLR7056011001108629401DU PAL (PVT) LTD    910460196V     COMM'N MAY'13  130610004407      CU1562                 
00007056001008410036962E.A.C.Athukorala    23000000000000003257032SLR7056011001108629401DU PAL (PVT) LTD    822232310V     COMM'N MAY'13  130610004281      CU1562                 
00007056001008258003526H.P.G.D.MADHUSHANKA 23000000000000000000000SLR7056011001108629401DU PAL (PVT) LTD    923554556V     COMM'N MAY'13  130610004860      CU1562                 
00007056001008500026110M.N.M.Rahumathulla  23000000000000000000000SLR7056011001108629401DU PAL (PVT) LTD    873540478V     COMM'N MAY'13  130610004854      CU1562                 
00007056001008145008530M.S.M.Safwan        23000000000000000616154SLR7056011001108629401DU PAL (PVT) LTD    872150048V     COMM'N MAY'13  130610005427      CU1562                 
00007056001008760029118D.D.Chanuka Gunasena23000000000000000000000SLR7056011001108629401DU PAL (PVT) LTD    912784711V     COMM'N MAY'13  130610005013      CU1562                 
00007056001008530029933R.Lakruwan Kumara   23000000000000000000000SLR7056011001108629401DU PAL (PVT) LTD    903163623V     COMM'N MAY'13  130610004905      CU1562                 
00007056001008320025188M.R.Rajap           23000000000000000000000SLR7056011001108629401DU PAL (PVT) LTD    931702920V     COMM'N MAY'13  130610005379      CU1562                 
00007056001008760030702B.V.T.PABASARA      23000000000000000000000SLR7056011001108629401DU PAL (PVT) LTD    863253276V     COMM'N MAY'13  130610004824      CU1562                 
00007056001008120052466A.S.C.Nirmal Silva  23000000000000000000000SLR7056011001108629401DU PAL (PVT) LTD    902401067V     COMM'N MAY'13  130610005415      CU1562                 
00007056001008500035033K.C Withanawasam    23000000000000000000000SLR7056011001108629401DU PAL (PVT) LTD    911653141V     COMM'N MAY'13  130610005328      CU1562                 
00007056001008500035031A.G.L.N.Karunarathne23000000000000000000000SLR7056011001108629401DU PAL (PVT) LTD    913263766V     COMM'N MAY'13  130610004497      CU1562                 
00007056001008500035032G.H.M.Y.K.Perera    23000000000000000000000SLR7056011001108629401DU PAL (PVT) LTD    912050165V     COMM'N MAY'13  130610005412      CU1562                 
00007056001008118012755G.R.L.R.Gunawardana 23000000000000000000000SLR7056011001108629401DU PAL (PVT) LTD    915253938V     COMM'N MAY'13  130610005268      CU1562                 
00007056001008128006075K.P.T.D.Leelarathna 23000000000000000000000SLR7056011001108629401DU PAL (PVT) LTD    790533704V     COMM'N MAY'13  130610004623      CU1562                 
00007056001008258003521C.THAMILCHELVAN     23000000000000000166229SLR7056011001108629401DU PAL (PVT) LTD    800950759V     COMM'N MAY'13  130610004932      CU1562                 
00007056001008120000483B.ASHOK             23000000000000000000000SLR7056011001108629401DU PAL (PVT) LTD    763261239V     COMM'N MAY'13  130610005574      CU1562                 
00007056001008100088382S.VANI              23000000000000000000000SLR7056011001108629401DU PAL (PVT) LTD    937810776V     COMM'N MAY'13  130610004647      CU1562                 
00007056001008210037278G.M.D.KEMASIRI      23000000000000000000000SLR7056011001108629401DU PAL (PVT) LTD    928452590V     COMM'N MAY'13  130610004728      CU1562                 
00007056001008760027611K.G.S.Kumara        23000000000000009922443SLR7056011001108629401DU PAL (PVT) LTD    861531554V     COMM'N MAY'13  130610004899      CU1562                 
00007056001008100921641T.P.D.P.Kumara      23000000000000001776101SLR7056011001108629401DU PAL (PVT) LTD    933511294V     COMM'N MAY'13  130610004515      CU1562                 
00007056001008100921663W.G.G.T.Pradeep Kuma23000000000000000000000SLR7056011001108629401DU PAL (PVT) LTD    930562254V     COMM'N MAY'13  130610004788      CU1562                 
00007056001008100921653S..G.Samarakoon     23000000000000001642366SLR7056011001108629401DU PAL (PVT) LTD    932272709V     COMM'N MAY'13  130610004896      CU1562                 
00007056001008180044228M.L.K.Mahawatta     23000000000000001297597SLR7056011001108629401DU PAL (PVT) LTD    932441713V     COMM'N MAY'13  130610004476      CU1562                 
00007056001008700037909T.C.R.ajapaksha     23000000000000000000000SLR7056011001108629401DU PAL (PVT) LTD    890022502V     COMM'N MAY'13  130610004335      CU1562                 
00007056001008700014478H.W.Kumaranayake    23000000000000000000000SLR7056011001108629401DU PAL (PVT) LTD    811431010V     COMM'N MAY'13  130610004995      CU1562                 
00007278001110653743730K.V.Kasun Chamara   23000000000000000716601SLR7056011001108629401DU PAL (PVT) LTD    902011234V     COMM'N MAY'13  130610004506      CU1562                 
00007056001008290023471L.L.P.Jayasundara   23000000000000000000000SLR7056011001108629401DU PAL (PVT) LTD    863240441V     COMM'N MAY'13  130610005247      CU1562                 
00007056001008145007464H.C.Mahesh Pathmasir23000000000000000000000SLR7056011001108629401DU PAL (PVT) LTD    850064229V     COMM'N MAY'13  130610004887      CU1562                 
00007056001008750025702P.GAMAGE            23000000000000001458432SLR7056011001108629401DU PAL (PVT) LTD    722502248V     COMM'N MAY'13  130610003897      CU1562                 
00007056001008130074603V.M.N.NISHSHANKA    23000000000000000615544SLR7056011001108629401DU PAL (PVT) LTD    901051771V     COMM'N MAY'13  130610004455      CU1562                 
00007056001008106021309S.HARIPRASATH       23000000000000001133120SLR7056011001108629401DU PAL (PVT) LTD    950180064V     COMM'N MAY'13  130610003828      CU1562                 
00007056001008160033637H D S K Hewage      23000000000000002209433SLR7056011001108629401DU PAL (PVT) LTD    782422600V     COMM'N MAY'13  130610003636      CU1562                 
00007056001008330033337A.M.L. Lakmal Karuna23000000000000003825122SLR7056011001108629401DU PAL (PVT) LTD    912981371V     COMM'N MAY'13  130610004809      CU1562                 
00007719017100170755877M H A N MINIPALAGE  23000000000000000000000SLR7056011001108629401DU PAL (PVT) LTD    852645296V     COMM'N MAY'13  130610005253      CU1562                 
00007056001008160064329J.M.M.K.JAYAWARDANA 23000000000000001935034SLR7056011001108629401DU PAL (PVT) LTD    818164335V     COMM'N MAY'13  130610005109      CU1562                 
00007056001008160053019G.A.T.S.Chandrasiri 23000000000000000000000SLR7056011001108629401DU PAL (PVT) LTD    811234265V     COMM'N MAY'13  130610004338      CU1562                 
00007287018002488943101D.H.A.Rajanandana   23000000000000000000000SLR7056011001108629401DU PAL (PVT) LTD    670760260V     COMM'N MAY'13  130610004599      CU1562                 
00007278001104853642413L A N I SUMANASIRI  23000000000000000000000SLR7056011001108629401DU PAL (PVT) LTD    851744592V     COMM'N MAY'13  130610005214      CU1562                 
00007056001008530030251D.G.S.Darmarathna   23000000000000000000000SLR7056011001108629401DU PAL (PVT) LTD    882684288V     COMM'N MAY'13  130610004167      CU1562                 
00007056001008162003514Kusum priyantha Jaya23000000000000003710329SLR7056011001108629401DU PAL (PVT) LTD    750530060V     COMM'N MAY'13  130610004461      CU1562                 
00007010022000072280402D.M.T.P.Dissanayake 23000000000000000000000SLR7056011001108629401DU PAL (PVT) LTD    911402513V     COMM'N MAY'13  130610004572      CU1562                 
00007056001008880025480A.W.L.M.Peiris      23000000000000000084493SLR7056011001108629401DU PAL (PVT) LTD    932311003V     COMM'N MAY'13  130610003954      CU1562                 
00007056001008250020774M.A.C.A.MARASINGHE  23000000000000000000000SLR7056011001108629401DU PAL (PVT) LTD    781892696V     COMM'N MAY'13  130610004359      CU1562                 
00007056001008510024433H.M.R.L.KUMARASIRI  23000000000000000000000SLR7056011001108629401DU PAL (PVT) LTD    911901951V     COMM'N MAY'13  130610004779      CU1562                 
00007056001008730005937B.A.R.K.Nandasena   23000000000000002420724SLR7056011001108629401DU PAL (PVT) LTD    882502422V     COMM'N MAY'13  130610004680      CU1562                 
00007056001008144012997J.K.A.Rangana       23000000000000000478802SLR7056011001108629401DU PAL (PVT) LTD    913391543V     COMM'N MAY'13  130610003756      CU1562                 
00007056001008160074235J.C.JAYETHILAKA     23000000000000000000000SLR7056011001108629401DU PAL (PVT) LTD    640591820V     COMM'N MAY'13  130610004680      CU1562                 
00007010768000070676290N.M.Nelushka Sagara 23000000000000001716530SLR7056011001108629401DU PAL (PVT) LTD    841374320V     COMM'N MAY'13  130610004578      CU1562                 
00007056001008080029294K.W.A.Kumudu Chamind23000000000000001396169SLR7056011001108629401DU PAL (PVT) LTD    823640730X     COMM'N MAY'13  130610005988      CU1562                 
00007056001008720017800S.Divaharan         23000000000000000324752SLR7056011001108629401DU PAL (PVT) LTD    911303477V     COMM'N MAY'13  130610005997      CU1562                 
00007056001008500034891G.K.A.D.Kalansuriya 23000000000000000000000SLR7056011001108629401DU PAL (PVT) LTD    890691242V     COMM'N MAY'13  130610004269      CU1562                 
00007056001008150911885M.H.G.C.S.Kulasinghe23000000000000000964420SLR7056011001108629401DU PAL (PVT) LTD    910293222V     COMM'N MAY'13  130610004575      CU1562                 
00007056001008080018710H.H.A.I.Dumbukola   23000000000000000000000SLR7056011001108629401DU PAL (PVT) LTD    840992012V     COMM'N MAY'13  130610004824      CU1562                 
00007056001008080015942E.G.D.D.B.Ellepola  23000000000000000138343SLR7056011001108629401DU PAL (PVT) LTD    883480511V     COMM'N MAY'13  130610004719      CU1562                 
00007056001008080009531S.M.M.Z.M.SHELUBEEN 23000000000000001545353SLR7056011001108629401DU PAL (PVT) LTD    751272960V     COMM'N MAY'13  130610004581      CU1562                 
00007056001008080008656J.P.NUWAN           23000000000000000102629SLR7056011001108629401DU PAL (PVT) LTD    880724630V     COMM'N MAY'13  130610005550      CU1562                 
00007135334200150078304S.P.A.M Senarathna  23000000000000001000751SLR7056011001108629401DU PAL (PVT) LTD    801921469V     COMM'N MAY'13  130610004743      CU1562                 
00007010002000008307543H.Nilani Rangika Rod23000000000000000000000SLR7056011001108629401DU PAL (PVT) LTD    846271562V     COMM'N MAY'13  130610004914      CU1562                 
00007056001008160021303A.M.S.Abeykoon      23000000000000001302439SLR7056011001108629401DU PAL (PVT) LTD    803524394V     COMM'N MAY'13  130610004866      CU1562                 
00007056001008167977501H.P.U.Ariyasinghe   23000000000000000000000SLR7056011001108629401DU PAL (PVT) LTD    732973222V     COMM'N MAY'13  130610004635      CU1562                 
00007056001008160074231D.M.A.DISSANAYAKA   23000000000000001490362SLR7056011001108629401DU PAL (PVT) LTD    832711446V     COMM'N MAY'13  130610005049      CU1562                 
00007056001008480048227K.P.Vijith Priyantha23000000000000003015415SLR7056011001108629401DU PAL (PVT) LTD    730980264V     COMM'N MAY'13  130610004980      CU1562                 
00007056001008500034083I.N Sadamali        23000000000000000563374SLR7056011001108629401DU PAL (PVT) LTD    877493555V     COMM'N MAY'13  130610004800      CU1562                 
00007056001008500034772R.D.Weerasundara    23000000000000000401950SLR7056011001108629401DU PAL (PVT) LTD    905632272V     COMM'N MAY'13  130610003948      CU1562                 
00007056001008180020060W.G.N.P.Wimalarathna23000000000000002456965SLR7056011001108629401DU PAL (PVT) LTD    811862193V     COMM'N MAY'13  130610003738      CU1562                 
00007278001115153740917W.L.P.Perera        23000000000000002456325SLR7056011001108629401DU PAL (PVT) LTD    922531331V     COMM'N MAY'13  130610003828      CU1562                 
00007056001008410023468W.K.Steeve Heshan ro23000000000000000961163SLR7056011001108629401DU PAL (PVT) LTD    913313925V     COMM'N MAY'13  130610004386      CU1562                 
00007135054200190019887K.Thilini DharshanI 23000000000000001541004SLR7056011001108629401DU PAL (PVT) LTD    935281644V     COMM'N MAY'13  130610004671      CU1562                 
00007056001008930014542G.W.K.PRASAD        23000000000000000084538SLR7056011001108629401DU PAL (PVT) LTD    922760993V     COMM'N MAY'13  130610004461      CU1562                 
00007278001100954189996A.A.D.S.P.K.ALGAMA  23000000000000001227424SLR7056011001108629401DU PAL (PVT) LTD    843080049V     COMM'N MAY'13  130610004359      CU1562                 
00007056001008106020135W.M.A.K.Jayamat     23000000000000002023149SLR7056011001108629401DU PAL (PVT) LTD    910552732V     COMM'N MAY'13  130610003621      CU1562                 
00007056001008106020461R.W.K.L.Chamara     23000000000000001585735SLR7056011001108629401DU PAL (PVT) LTD    912984532V     COMM'N MAY'13  130610003225      CU1562                 
00007056001008160027101W.D.P.Perera        23000000000000001109940SLR7056011001108629401DU PAL (PVT) LTD    915200702V     COMM'N MAY'13  130610003828      CU1562                 
00007056001008570023189M.Zaharan Rasheed   23000000000000004743557SLR7056011001108629401DU PAL (PVT) LTD    870182996V     COMM'N MAY'13  130610004932      CU1562                 
00007056001008310011144R.A.D.K.Madusanka   23000000000000001075443SLR7056011001108629401DU PAL (PVT) LTD    821811589V     COMM'N MAY'13  130610003918      CU1562                 
00007056001008580032339Sivakumar Subenthan 23000000000000005190789SLR7056011001108629401DU PAL (PVT) LTD    900872666V     COMM'N MAY'13  130610005196      CU1562                 
00007056001008106021289V.JAYALUXSHAN       23000000000000001030330SLR7056011001108629401DU PAL (PVT) LTD    883541200V     COMM'N MAY'13  130610004944      CU1562                 
00007056001008131007201M.G.Husny Ahamed    23000000000000000000000SLR7056011001108629401DU PAL (PVT) LTD    922720568V     COMM'N MAY'13  130610004719      CU1562                 
00007719728107288002070W.D.C.M.Gunasekara  23000000000000000000000SLR7056011001108629401DU PAL (PVT) LTD    922861242V     COMM'N MAY'13  130610004509      CU1562                 
00007056001008670027219A.C.Indrajith Perera23000000000000000000000SLR7056011001108629401DU PAL (PVT) LTD    911941228V     COMM'N MAY'13  130610004689      CU1562                 
00007056001008670029135J.P.K.Liyanapathiran23000000000000000000000SLR7056011001108629401DU PAL (PVT) LTD    792791360V     COMM'N MAY'13  130610004584      CU1562                 
00007056001008580024656M.H.M.Mafaz         23000000000000000000000SLR7056011001108629401DU PAL (PVT) LTD    830261060V     COMM'N MAY'13  130610004197      CU1562                 
00007056001008500035789B.A.M.Riflan        23000000000000000000000SLR7056011001108629401DU PAL (PVT) LTD    902591702V     COMM'N MAY'13  130610004761      CU1562                 
00007056001008560052187H.P.M.Dilsiri       23000000000000000000000SLR7056011001108629401DU PAL (PVT) LTD    903112115V     COMM'N MAY'13  130610004959      CU1562                 
00007056001008106019456D.R.R.Madusanka     23000000000000000979476SLR7056011001108629401DU PAL (PVT) LTD    921953330V     COMM'N MAY'13  130610003300      CU1562                 
00007056001008106019454S.Nilanka Rajine    23000000000000002821180SLR7056011001108629401DU PAL (PVT) LTD    888350292V     COMM'N MAY'13  130610004716      CU1562                 
00007056001008260900695P.Kasun Kalhara     23000000000000000206821SLR7056011001108629401DU PAL (PVT) LTD    901290377V     COMM'N MAY'13  130610006054      CU1562                 
00007056001008106019610J.A.N.Tharika       23000000000000000000000SLR7056011001108629401DU PAL (PVT) LTD    935131570V     COMM'N MAY'13  130610004530      CU1562                 
00007056001008114012193W.M.M.P.Fernando    23000000000000003474181SLR7056011001108629401DU PAL (PVT) LTD    846861637V     COMM'N MAY'13  130610005181      CU1562                 
00007287008031444624101M.J.M.Izzeth        23000000000000000000000SLR7056011001108629401DU PAL (PVT) LTD    902581871V     COMM'N MAY'13  130610005955      CU1562                 
00007056001008106019875P.D.Lahiru Tharaka  23000000000000000000000SLR7056011001108629401DU PAL (PVT) LTD    932120909V     COMM'N MAY'13  130610004248      CU1562                 
00007056001008106019876J.A.Petum Chamra    23000000000000000000000SLR7056011001108629401DU PAL (PVT) LTD    933030040V     COMM'N MAY'13  130610004164      CU1562                 
00007056001008106019874M.J.M.Isham         23000000000000000000000SLR7056011001108629401DU PAL (PVT) LTD    931632736V     COMM'N MAY'13  130610004332      CU1562                 
00007083007007020322251B.A.M.Rinoz         23000000000000000577151SLR7056011001108629401DU PAL (PVT) LTD    922113726V     COMM'N MAY'13  130610004269      CU1562                 
00007056001008500035748O.S.Namal           23000000000000000079196SLR7056011001108629401DU PAL (PVT) LTD    933443205V     COMM'N MAY'13  130610005139      CU1562                 
00007056001008500035749P.J.S.Premakumar    23000000000000000000000SLR7056011001108629401DU PAL (PVT) LTD    940023106V     COMM'N MAY'13  130610005124      CU1562                 
00007056001008190041204O.K.Chinthana       23000000000000000212663SLR7056011001108629401DU PAL (PVT) LTD    920990177V     COMM'N MAY'13  130610004101      CU1562                 
00007056001001113003268H.M.Sri Palitha     23000000000000000000000SLR7056011001108629401DU PAL (PVT) LTD    662521418V     COMM'N MAY'13  130610005145      CU1562                 
00007135055200123416655P.B.S.R.Kodithuwakku23000000000000000000000SLR7056011001108629401DU PAL (PVT) LTD    842000858V     COMM'N MAY'13  130610004959      CU1562                 
00007135071200140006429P.L.M.S.Alwis       23000000000000000260339SLR7056011001108629401DU PAL (PVT) LTD    932970538V     COMM'N MAY'13  130610004323      CU1562                 
00007056001008147007667H.A.Suresh Chandana 23000000000000001124495SLR7056011001108629401DU PAL (PVT) LTD    890322077V     COMM'N MAY'13  130610004383      CU1562                 
00007056001008620018989R.P.N.Pathmasiri    23000000000000002226571SLR7056011001108629401DU PAL (PVT) LTD    810812594V     COMM'N MAY'13  130610004182      CU1562                 
00007056001008620017355R.P.Harshaka Senarat23000000000000008983065SLR7056011001108629401DU PAL (PVT) LTD    832420182V     COMM'N MAY'13  130610004776      CU1562                 
00007056001008180044404P.G.Mekala Priyadars23000000000000001695863SLR7056011001108629401DU PAL (PVT) LTD    877270912V     COMM'N MAY'13  130610004116      CU1562                 
00007056001008113018238K.L.S.Sasindu       23000000000000000000000SLR7056011001108629401DU PAL (PVT) LTD    940673577V     COMM'N MAY'13  130610005034      CU1562                 
00007056001008167001940W.M.J.P.Franando    23000000000000000000000SLR7056011001108629401DU PAL (PVT) LTD    551812391V     COMM'N MAY'13  130610004626      CU1562                 
00007056001008260901081N.I.Attanayake      23000000000000000000000SLR7056011001108629401DU PAL (PVT) LTD    903013745V     COMM'N MAY'13  130610005061      CU1562                 
00007056001008690049963J.M.V.A.Jambugas Wat23000000000000000000000SLR7056011001108629401DU PAL (PVT) LTD    912721779V     COMM'N MAY'13  130610004626      CU1562                 
00007056001008221005340K.A.NISHANTHA       23000000000000000000000SLR7056011001108629401DU PAL (PVT) LTD    680463751V     COMM'N MAY'13  130610004200      CU1562                 
00007056001008120055482B.N.SEPALIKA        23000000000000000000000SLR7056011001108629401DU PAL (PVT) LTD    665721566V     COMM'N MAY'13  130610004575      CU1562                 
00007056001008570024216E.A.D.M.PRABATH     23000000000000000000000SLR7056011001108629401DU PAL (PVT) LTD    932741172V     COMM'N MAY'13  130610004278      CU1562                 
00007056001008570024724W.S.D.FERNANDO      23000000000000000000000SLR7056011001108629401DU PAL (PVT) LTD    931362232V     COMM'N MAY'13  130610004563      CU1562                 
00007056001008210904798M.S.V.FERNANDO      23000000000000000000000SLR7056011001108629401DU PAL (PVT) LTD    935241294V     COMM'N MAY'13  130610004941      CU1562                 
00007083018018020654758T.P.G.Gayan Manjula 23000000000000005740590SLR7056011001108629401DU PAL (PVT) LTD    841710533V     COMM'N MAY'13  130610004401      CU1562                 
