00007056001008223001287J.D.B.L.JAYAKODI    23000000000000001456000SLR7056011001108629401DU PAL (PVT) LTD    887910073V     OS SAL JAN '14 140207      @
00007056001008116016383D.K.U.DISSANAYAKE   23000000000000000896000SLR7056011001108629401DU PAL (PVT) LTD                   OS SAL JAN '14 140207      @
00007056011001108629401DU PAL (PVT) LTD    23001000000000002352000SLR7056011001108629401DU PAL (PVT) LTD                  0OS SAL JAN '14 140207      @
