00007056001008120059427ALWIS A I D         23000000000000001342000SLR7056011001108629401DU PAL (PVT) LTD    936302491V     SALARY MAR '16 161014      @
00007056001008121028427S.S.LEKAMLAGE       23000000000000001459733SLR7056011001108629401DU PAL (PVT) LTD    955720954V     SALARY MAR '16 161014      @
00007056001008265002124M.H.F.MOHAMED       23000000000000001511867SLR7056011001108629401DU PAL (PVT) LTD    952520415V     SALARY MAR '16 161014      @
00007010550000004473966M.P.M.N.P. PIERIS   23000000000000001564000SLR7056011001108629401DU PAL (PVT) LTD    948152770V     SALARY MAR '16 161014      @
00007056001008480049841H.G.T.R. PERERA     23000000000000001564000SLR7056011001108629401DU PAL (PVT) LTD    900190662V     SALARY MAR '16 161014      @
00007010034000074449023UPENDRI S S         23000000000000001459733SLR7056011001108629401DU PAL (PVT) LTD    947362186V     SALARY MAR '16 161014      @
00007056011001108629401DU PAL (PVT) LTD    23001000000000008901333SLR7056011001108629401DU PAL (PVT) LTD                  0SALARY MAR '16 161014      @
