5555OUT110997056001000429                                                                                                                                                          
4444OUT11099705601100000074067734004280000007406773400001017632586416579                                                                                                           
00007056004008040024826H.G.P.C.RATHNASIRI  23000000000000002263903SLR7056011001108629401DU PAL (PVT) LTD    841574346V     COMM'N MAR'13  130409003954      CU1562                 
00007056004008040063643M.F.F.FAZRINA       23000000000000000136250SLR7056011001108629401DU PAL (PVT) LTD    897100312V     COMM'N MAR'13  130409004653      CU1562                 
00007278004100753147138D.G.R.C.WIJESOORIYA 23000000000000000497346SLR7056011001108629401DU PAL (PVT) LTD    840203964V     COMM'N MAR'13  130409004758      CU1562                 
00007135004200160042653P.G.E.U.ABESEKARA   23000000000000002384401SLR7056011001108629401DU PAL (PVT) LTD    842472776V     COMM'N MAR'13  130409004281      CU1562                 
00007135004200180011926M.SHAKIR            23000000000000000841820SLR7056011001108629401DU PAL (PVT) LTD    912930076V     COMM'N MAR'13  130409004707      CU1562                 
00007010004000002628623A.S.WELAGEDARA      23000000000000000185225SLR7056011001108629401DU PAL (PVT) LTD    742810887V     COMM'N MAR'13  130409004086      CU1562                 
00007056004008040022945L.H.G.U.K.UDAYANGA  23000000000000006280537SLR7056011001108629401DU PAL (PVT) LTD    793590628V     COMM'N MAR'13  130409003585      CU1562                 
00007287004032555187101W.M.N.K.KARUNARATHNE23000000000000000782495SLR7056011001108629401DU PAL (PVT) LTD    858274133V     COMM'N MAR'13  130409004002      CU1562                 
00007056004008080038515B.G.C.S.BANDARA     23000000000000000294243SLR7056011001108629401DU PAL (PVT) LTD    860531585V     COMM'N MAR'13  130409005079      CU1562                 
00007010004000073751920M.D.M.GUNATHILAKA   23000000000000000338610SLR7056011001108629401DU PAL (PVT) LTD    925061336V     COMM'N MAR'13  130409003726      CU1562                 
00007083004018020780132K.T.K.I.BANDARA     23000000000000001821398SLR7056011001108629401DU PAL (PVT) LTD    843453287V     COMM'N MAR'13  130409005316      CU1562                 
00007056004008180034825D.S.HEWAWASAM       23000000000000000346647SLR7056011001108629401DU PAL (PVT) LTD    898101096V     COMM'N MAR'13  130409003708      CU1562                 
00007056004008040081667J.V.D.K.JAYASEKARA  23000000000000001234549SLR7056011001108629401DU PAL (PVT) LTD    911871149V     COMM'N MAR'13  130409004413      CU1562                 
00007056004008040083010T.RAVICHANDRAN      23000000000000000850454SLR7056011001108629401DU PAL (PVT) LTD    902543562V     COMM'N MAR'13  130409004251      CU1562                 
00007056004008080000136R.G.P.P.KUMARA      23000000000000002991555SLR7056011001108629401DU PAL (PVT) LTD    793410042V     COMM'N MAR'13  130409004674      CU1562                 
00007056004008040014382W.W.M.K.W.C.P.KAPUWA23000000000000000368891SLR7056011001108629401DU PAL (PVT) LTD    802153600V     COMM'N MAR'13  130409004692      CU1562                 
00007278004100753994931R.M.K.RATHNAYAKE    23000000000000000023413SLR7056011001108629401DU PAL (PVT) LTD    911112477V     COMM'N MAR'13  130409004083      CU1562                 
00007287004002423763101S.W.P.A.PRIYANKARA  23000000000000004589159SLR7056011001108629401DU PAL (PVT) LTD    760862754V     COMM'N MAR'13  130409003552      CU1562                 
00007083004015020148819T.I.H.GAMAGE        23000000000000002693489SLR7056011001108629401DU PAL (PVT) LTD    851341749V     COMM'N MAR'13  130409004647      CU1562                 
00007278004100754035639U.D.HEWAGA          23000000000000000216853SLR7056011001108629401DU PAL (PVT) LTD    916450060V     COMM'N MAR'13  130409004125      CU1562                 
00007056004008040003923A.W.M.HANEEF        23000000000000000108973SLR7056011001108629401DU PAL (PVT) LTD    793411154V     COMM'N MAR'13  130409003906      CU1562                 
00007135004200180038083P.T.H.P.I.SIRIWARDAN23000000000000001349128SLR7056011001108629401DU PAL (PVT) LTD    912530442V     COMM'N MAR'13  130409004656      CU1562                 
00007287004001660986101M.V.L.P.A.KUMARI    23000000000000001279309SLR7056011001108629401DU PAL (PVT) LTD    765471060V     COMM'N MAR'13  130409004986      CU1562                 
00007135004200140016501S.B.AZAM            23000000000000000914626SLR7056011001108629401DU PAL (PVT) LTD    925132705V     COMM'N MAR'13  130409005343      CU1562                 
00007135004200230030561G.K.M.N.S.KAVIRAJ   23000000000000005304203SLR7056011001108629401DU PAL (PVT) LTD    721241300V     COMM'N MAR'13  130409004533      CU1562                 
00007135004200161114667G.A.WIMALAWARDHANA  23000000000000000888612SLR7056011001108629401DU PAL (PVT) LTD    781650560V     COMM'N MAR'13  130409003231      CU1562                 
00007056004008185001796G.G.M.P.JAYAWARDHANA23000000000000000867473SLR7056011001108629401DU PAL (PVT) LTD    758210774V     COMM'N MAR'13  130409004026      CU1562                 
00007311004443878840215P.G.G.DILSHAN       23000000000000000951738SLR7056011001108629401DU PAL (PVT) LTD    911835088V     COMM'N MAR'13  130409004512      CU1562                 
00007056004008530026417S.H.T.BUDDIKA       23000000000000005547848SLR7056011001108629401DU PAL (PVT) LTD    722063538V     COMM'N MAR'13  130409005304      CU1562                 
00007056004008880015117S.M.S. SAMARAKOON   23000000000000000591459SLR7056011001108629401DU PAL (PVT) LTD    781181269V     COMM'N MAR'13  130409005103      CU1562                 
00007010004000008597524D.P.V. WEERASINGHE  23000000000000001229178SLR7056011001108629401DU PAL (PVT) LTD    713052183V     COMM'N MAR'13  130409004167      CU1562                 
00007083004010020251721P.H.R.DESHAPRIYA    23000000000000000299000SLR7056011001108629401DU PAL (PVT) LTD    793311389V     COMM'N MAR'13  130409004305      CU1562                 
00007056004008148002155J.DHARMASENA        23000000000000000929988SLR7056011001108629401DU PAL (PVT) LTD    621002228V     COMM'N MAR'13  130409002976      CU1562                 
00007287004002100801101J.A.M.P.JAYASINGHE  23000000000000002971706SLR7056011001108629401DU PAL (PVT) LTD    766092926V     COMM'N MAR'13  130409003732      CU1562                 
00007056004008530002528T.M.P.U.LAKMAL      23000000000000001000145SLR7056011001108629401DU PAL (PVT) LTD    850950466V     COMM'N MAR'13  130409003837      CU1562                 
00007010004000001565965S.H.M.T.S.HEWAGE    23000000000000001281476SLR7056011001108629401DU PAL (PVT) LTD    868022892V     COMM'N MAR'13  130409003720      CU1562                 
00007056004008530022375A.A.N.HETTIARACHCHI 23000000000000003574239SLR7056011001108629401DU PAL (PVT) LTD    812310780V     COMM'N MAR'13  130409003441      CU1562                 
00007010004000072973006S.R.RANATHUNGA      23000000000000000874028SLR7056011001108629401DU PAL (PVT) LTD    782093932V     COMM'N MAR'13  130409003945      CU1562                 
00007010004000001481953K.R.C.KARUNARATHNA  23000000000000002697688SLR7056011001108629401DU PAL (PVT) LTD    846430610V     COMM'N MAR'13  130409003552      CU1562                 
00007083004010020261002W.M.S.PADIVITA      23000000000000001223742SLR7056011001108629401DU PAL (PVT) LTD    838143393V     COMM'N MAR'13  130409004215      CU1562                 
00007135004200298118387D.M.KUMARA          23000000000000000783204SLR7056011001108629401DU PAL (PVT) LTD    792030718V     COMM'N MAR'13  130409003054      CU1562                 
00007010004000071423852K.G.N.S.WIJESIRI    23000000000000007226692SLR7056011001108629401DU PAL (PVT) LTD    891950179V     COMM'N MAR'13  130409005205      CU1562                 
00007056004008185001396D.M.BRAYAN          23000000000000001144209SLR7056011001108629401DU PAL (PVT) LTD    856880514V     COMM'N MAR'13  130409003756      CU1562                 
00007056004008320022298M.N.M.IRSHAD        23000000000000000833329SLR7056011001108629401DU PAL (PVT) LTD    870281471V     COMM'N MAR'13  130409004209      CU1562                 
00007010004000072999535W.L.P.LIYANAGE      23000000000000001092365SLR7056011001108629401DU PAL (PVT) LTD    926013343V     COMM'N MAR'13  130409004530      CU1562                 
00007010004000009753615S.SENARATHNA        23000000000000000855073SLR7056011001108629401DU PAL (PVT) LTD    643621380V     COMM'N MAR'13  130409004617      CU1562                 
00007083004034020247196I.U.BANDARA         23000000000000005243033SLR7056011001108629401DU PAL (PVT) LTD    800860733V     COMM'N MAR'13  130409004956      CU1562                 
00007010004000009856580I.G.A.S.VIDURUWAN   23000000000000000976745SLR7056011001108629401DU PAL (PVT) LTD    820481674V     COMM'N MAR'13  130409004626      CU1562                 
00007056004008022883401T.V. NAWARATHNA     23000000000000001481275SLR7056011001108629401DU PAL (PVT) LTD    632862555V     COMM'N MAR'13  130409003669      CU1562                 
00007056004008080008770N.I.C.B.SENEVIRATHNE23000000000000004436169SLR7056011001108629401DU PAL (PVT) LTD    730790554V     COMM'N MAR'13  130409004134      CU1562                 
00007278004106453133452K.D.G.S.C. KARIYAWAS23000000000000001803623SLR7056011001108629401DU PAL (PVT) LTD    780951184V     COMM'N MAR'13  130409003501      CU1562                 
00007278004100653519153G.W.KUMARA          23000000000000001369089SLR7056011001108629401DU PAL (PVT) LTD    750373739V     COMM'N MAR'13  130409004428      CU1562                 
00007056004008300006477S.J.FONSEKA         23000000000000006842746SLR7056011001108629401DU PAL (PVT) LTD    701771435V     COMM'N MAR'13  130409003402      CU1562                 
00007083004071020185642S.L.M.S.H.NUWAN     23000000000000001944935SLR7056011001108629401DU PAL (PVT) LTD    922911924V     COMM'N MAR'13  130409004836      CU1562                 
00007010004000074346218F.D.S.S.WANIGASEKARA23000000000000001626600SLR7056011001108629401DU PAL (PVT) LTD    962423159V     COMM'N MAR'13  130409004290      CU1562                 
00007056004008820001083M.C.R.MUNASINGHE    23000000000000000907371SLR7056011001108629401DU PAL (PVT) LTD    910631721V     COMM'N MAR'13  130409003420      CU1562                 
00007056004008300031548P.P.C.GUNATHUNGA    23000000000000000879215SLR7056011001108629401DU PAL (PVT) LTD    932613182V     COMM'N MAR'13  130409003858      CU1562                 
00007010004000009593162W.G.L.NIROSHANI     23000000000000000843920SLR7056011001108629401DU PAL (PVT) LTD    737780090V     COMM'N MAR'13  130409004329      CU1562                 
00007135004200110031519T.M.GALAGEDARA      23000000000000002959273SLR7056011001108629401DU PAL (PVT) LTD    867902511V     COMM'N MAR'13  130409003930      CU1562                 
00007287004033363005101J.W.P.WIJESIRI      23000000000000001439738SLR7056011001108629401DU PAL (PVT) LTD    777624377V     COMM'N MAR'13  130409004014      CU1562                 
00007056004008820020014M.D.V.WIJERATHNA    23000000000000000082056SLR7056011001108629401DU PAL (PVT) LTD    892584141V     COMM'N MAR'13  130409005181      CU1562                 
00007719004107390101320K.P.J.D.SOMADASA    23000000000000001411043SLR7056011001108629401DU PAL (PVT) LTD    850541205V     COMM'N MAR'13  130409004287      CU1562                 
00007010004000003195647M.D.T.WIMALATHUNGA  23000000000000000924220SLR7056011001108629401DU PAL (PVT) LTD    940430895V     COMM'N MAR'13  130409002811      CU1562                 
00007056004008700033044W.D.A.H.GUNATHILAKA 23000000000000002414677SLR7056011001108629401DU PAL (PVT) LTD    920901352V     COMM'N MAR'13  130409004356      CU1562                 
00007056004008300031718C.S.K.DADALLAGE     23000000000000005414691SLR7056011001108629401DU PAL (PVT) LTD    902542086V     COMM'N MAR'13  130409003786      CU1562                 
00007056004008300015010J.R.CHANDANAYAKA    23000000000000002893898SLR7056011001108629401DU PAL (PVT) LTD    841110625V     COMM'N MAR'13  130409004017      CU1562                 
00007135004200180030184A.S.KARANAYAKA      23000000000000000040623SLR7056011001108629401DU PAL (PVT) LTD    923591990V     COMM'N MAR'13  130409003390      CU1562                 
00007010004000074137680A.D.UDAYANGANI      23000000000000000971609SLR7056011001108629401DU PAL (PVT) LTD    918321420V     COMM'N MAR'13  130409003498      CU1562                 
00007056004008300033209H.M.S.K.GUNAWARDANA 23000000000000000928780SLR7056011001108629401DU PAL (PVT) LTD    812784064V     COMM'N MAR'13  130409003351      CU1562                 
00007010004000007015185W.G.D.T.Bandara     23000000000000008080318SLR7056011001108629401DU PAL (PVT) LTD    871262063V     COMM'N MAR'13  130409002673      CU1562                 
00007056004008136001258W.M.N.CHATHURANGA   23000000000000003533854SLR7056011001108629401DU PAL (PVT) LTD    872261303V     COMM'N MAR'13  130409004368      CU1562                 
00007056004008200044699M.G.U.WANIGARATHNA  23000000000000001431614SLR7056011001108629401DU PAL (PVT) LTD    671670086V     COMM'N MAR'13  130409004323      CU1562                 
00007135004200180004334K.S.JAYASOORIYA ARAC23000000000000000075284SLR7056011001108629401DU PAL (PVT) LTD    912910113V     COMM'N MAR'13  130409004038      CU1562                 
00007278004103353344964A.G.P.SAMANMALI     23000000000000000096467SLR7056011001108629401DU PAL (PVT) LTD    766300499V     COMM'N MAR'13  130409003963      CU1562                 
00007010004000002915452I.D.N.DESHAPRIYA    23000000000000008753104SLR7056011001108629401DU PAL (PVT) LTD    871833362V     COMM'N MAR'13  130409003804      CU1562                 
00007056004008190001474H.M.R.A.K.HERATH    23000000000000000917129SLR7056011001108629401DU PAL (PVT) LTD    762602466V     COMM'N MAR'13  130409003564      CU1562                 
00007278004107054170303W.H.NUPEARACHCHI    23000000000000000368665SLR7056011001108629401DU PAL (PVT) LTD    895524263V     COMM'N MAR'13  130409003945      CU1562                 
00007278004106954058913B.SAYURI            23000000000000000828862SLR7056011001108629401DU PAL (PVT) LTD    938310378V     COMM'N MAR'13  130409004398      CU1562                 
00007135004200340002199P.D.L.LAKRUWANI     23000000000000000793314SLR7056011001108629401DU PAL (PVT) LTD    925410608V     COMM'N MAR'13  130409004803      CU1562                 
00007083004076020164158W.A.JAYAWARDANA     23000000000000000782123SLR7056011001108629401DU PAL (PVT) LTD    898170241V     COMM'N MAR'13  130409004023      CU1562                 
00007719004100128110310P.C.A.KUMARA        23000000000000006367919SLR7056011001108629401DU PAL (PVT) LTD    802863640V     COMM'N MAR'13  130409004476      CU1562                 
00007056004008147011608C.C.GAMAGE          23000000000000000883252SLR7056011001108629401DU PAL (PVT) LTD    812050699V     COMM'N MAR'13  130409003264      CU1562                 
00007083004160020020706M.N.M.ASIF          23000000000000002657727SLR7056011001108629401DU PAL (PVT) LTD    931300881V     COMM'N MAR'13  130409004896      CU1562                 
00007083004064020132816K.D.I.L.SAMANMALI   23000000000000001045540SLR7056011001108629401DU PAL (PVT) LTD    828171119V     COMM'N MAR'13  130409004704      CU1562                 
00007056004008130003561K.V.S.I.KEKULAWALA  23000000000000004405821SLR7056011001108629401DU PAL (PVT) LTD    713642169V     COMM'N MAR'13  130409004221      CU1562                 
00007135004200180321354H.M.T.I.KARIYAWASAM 23000000000000001680035SLR7056011001108629401DU PAL (PVT) LTD    817544037V     COMM'N MAR'13  130409004224      CU1562                 
00007287004033414104101A.G.D.S.LAKSHITHA   23000000000000001219918SLR7056011001108629401DU PAL (PVT) LTD    911350203V     COMM'N MAR'13  130409005142      CU1562                 
00007287004033333094101R.S.AMARASEKARA     23000000000000000786708SLR7056011001108629401DU PAL (PVT) LTD    931023845V     COMM'N MAR'13  130409004833      CU1562                 
00007010004000071298714C.S.Dahanayaka      23000000000000005355562SLR7056011001108629401DU PAL (PVT) LTD    712491884V     COMM'N MAR'13  130409004977      CU1562                 
00007010004000000484203G.S.SALLAY          23000000000000000818804SLR7056011001108629401DU PAL (PVT) LTD    896540637V     COMM'N MAR'13  130409004497      CU1562                 
00007083004000090696718S.LOGESWARAN        23000000000000004458755SLR7056011001108629401DU PAL (PVT) LTD    812460315V     COMM'N MAR'13  130409004635      CU1562                 
00007056004008690037933S.J.Perera          23000000000000004483563SLR7056011001108629401DU PAL (PVT) LTD    813092670V     COMM'N MAR'13  130409003618      CU1562                 
00007278004102553844759W.G.S.BANDARA       23000000000000006139452SLR7056011001108629401DU PAL (PVT) LTD    840520609V     COMM'N MAR'13  130409003891      CU1562                 
00007135004200120009332K.P.S.FERNANDO      23000000000000000891769SLR7056011001108629401DU PAL (PVT) LTD    875811762V     COMM'N MAR'13  130409004437      CU1562                 
00007287004031429470101A.V.D.VIMUKTHA      23000000000000001803194SLR7056011001108629401DU PAL (PVT) LTD    752292558V     COMM'N MAR'13  130409003588      CU1562                 
00007083004039020167751W.W.W.J.N.FERNANDO  23000000000000000986819SLR7056011001108629401DU PAL (PVT) LTD    923000186V     COMM'N MAR'13  130409004236      CU1562                 
00007056004008320026540F.W.SARAP           23000000000000000316312SLR7056011001108629401DU PAL (PVT) LTD    927451328V     COMM'N MAR'13  130409004587      CU1562                 
00007056004008430009628M.I.M. INJATH       23000000000000000207000SLR7056011001108629401DU PAL (PVT) LTD    882354156V     COMM'N MAR'13  130409004767      CU1562                 
00007056004008390013754M.I.M.SAFRAS        23000000000000001307957SLR7056011001108629401DU PAL (PVT) LTD    861552420V     COMM'N MAR'13  130409003699      CU1562                 
00007056004008170010897S.P.KANTH           23000000000000002948141SLR7056011001108629401DU PAL (PVT) LTD    860233266V     COMM'N MAR'13  130409004002      CU1562                 
00007056004008690050821M.S.P.KUMARA        23000000000000001325479SLR7056011001108629401DU PAL (PVT) LTD    882282066V     COMM'N MAR'13  130409004920      CU1562                 
00007278004106554139646A.S.S.DE SILVA      23000000000000000082643SLR7056011001108629401DU PAL (PVT) LTD    875861743V     COMM'N MAR'13  130409003813      CU1562                 
00007278004100453125662J.M.C.JAYASEKARA    23000000000000002503485SLR7056011001108629401DU PAL (PVT) LTD    820931858V     COMM'N MAR'13  130409003279      CU1562                 
00007719004100835001820K.V.HENADEERA       23000000000000001281021SLR7056011001108629401DU PAL (PVT) LTD    903650044V     COMM'N MAR'13  130409003957      CU1562                 
00007056004008250023103K.K.D.R.DILSHAN     23000000000000000011500SLR7056011001108629401DU PAL (PVT) LTD    840800482V     COMM'N MAR'13  130409003795      CU1562                 
00007056004008170010707S.D.PALLIYAGURU     23000000000000003962086SLR7056011001108629401DU PAL (PVT) LTD    880771620V     COMM'N MAR'13  130409004773      CU1562                 
00007056004008560030509S.G.A.KUMAR         23000000000000000011500SLR7056011001108629401DU PAL (PVT) LTD    931862529V     COMM'N MAR'13  130409004488      CU1562                 
00007056004008770034216H.M.S.K.S.BANDARA   23000000000000001622016SLR7056011001108629401DU PAL (PVT) LTD    622020092V     COMM'N MAR'13  130409003369      CU1562                 
00007278004109554203904P.G.R.WIMALASENA    23000000000000000023000SLR7056011001108629401DU PAL (PVT) LTD    760315095V     COMM'N MAR'13  130409004242      CU1562                 
00007056004008170010836D.M.T.T.DASANAYAKA  23000000000000004031577SLR7056011001108629401DU PAL (PVT) LTD    920550053V     COMM'N MAR'13  130409004137      CU1562                 
00007056004008170011081P.M.M.ZAHARAN       23000000000000004510774SLR7056011001108629401DU PAL (PVT) LTD    870750650V     COMM'N MAR'13  130409003021      CU1562                 
00007056004008460030270D.P.KODAGODA        23000000000000000148214SLR7056011001108629401DU PAL (PVT) LTD    872512861V     COMM'N MAR'13  130409004791      CU1562                 
00007056004008214000857K.M.RAJAPAKSHA      23000000000000001241323SLR7056011001108629401DU PAL (PVT) LTD    872862536V     COMM'N MAR'13  130409004302      CU1562                 
00007056004008870024386W.A.C.L.KUMARA      23000000000000003500446SLR7056011001108629401DU PAL (PVT) LTD    933532461V     COMM'N MAR'13  130409004278      CU1562                 
00007056004008106020968R.PRABA             23000000000000000084527SLR7056011001108629401DU PAL (PVT) LTD    922074178V     COMM'N MAR'13  130409003258      CU1562                 
00007056004008110000430W.P.SURANGA         23000000000000005785231SLR7056011001108629401DU PAL (PVT) LTD    801991483V     COMM'N MAR'13  130409004905      CU1562                 
00007287004001480944101D.W.S.SANJEEWA      23000000000000001448263SLR7056011001108629401DU PAL (PVT) LTD    782385135V     COMM'N MAR'13  130409004014      CU1562                 
00007056004008123006409D.C.JAYASEKARA      23000000000000001777310SLR7056011001108629401DU PAL (PVT) LTD    850893250V     COMM'N MAR'13  130409003279      CU1562                 
00007056004008070012002Y.R.LIANAARACHCHI   23000000000000004072923SLR7056011001108629401DU PAL (PVT) LTD    800490189V     COMM'N MAR'13  130409002667      CU1562                 
00007135004200110011227M.M.S.AHAMAD        23000000000000001240654SLR7056011001108629401DU PAL (PVT) LTD    902733868V     COMM'N MAR'13  130409003993      CU1562                 
00007010004000071813971S.L.R.WIJESIRI      23000000000000001494212SLR7056011001108629401DU PAL (PVT) LTD    890303994V     COMM'N MAR'13  130409002631      CU1562                 
00007010004000001582788W.H.N.UPEKSHA       23000000000000000305319SLR7056011001108629401DU PAL (PVT) LTD    935990440V     COMM'N MAR'13  130409002793      CU1562                 
00007135004200150037473O.D.NISHSHANKA      23000000000000005686493SLR7056011001108629401DU PAL (PVT) LTD    912761614V     COMM'N MAR'13  130409003270      CU1562                 
00007056004008330028282G.K.R.W.KUMARA      23000000000000001409282SLR7056011001108629401DU PAL (PVT) LTD    830351922V     COMM'N MAR'13  130409003891      CU1562                 
00007056004008270023700K.L.N.JAYALATH      23000000000000000445120SLR7056011001108629401DU PAL (PVT) LTD    720974673V     COMM'N MAR'13  130409004185      CU1562                 
00007135004200170015735J.D.C.DE SILVA      23000000000000002489226SLR7056011001108629401DU PAL (PVT) LTD    912584232V     COMM'N MAR'13  130409005511      CU1562                 
00007056004008270052019S.A.C.VIDURANGA     23000000000000000879365SLR7056011001108629401DU PAL (PVT) LTD    920444113V     COMM'N MAR'13  130409003726      CU1562                 
00007056004008270041437K.L.A.E.MADHUSANKA  23000000000000003136847SLR7056011001108629401DU PAL (PVT) LTD    890081878V     COMM'N MAR'13  130409003468      CU1562                 
00007056004008270026498M.A.ASHIK           23000000000000002482468SLR7056011001108629401DU PAL (PVT) LTD    773333076V     COMM'N MAR'13  130409003756      CU1562                 
00007719004109030145475A.M.WIJESEKARA      23000000000000000010849SLR7056011001108629401DU PAL (PVT) LTD    931494007V     COMM'N MAR'13  130409003498      CU1562                 
00007278004103554042554G.DULAJ             23000000000000000796887SLR7056011001108629401DU PAL (PVT) LTD    941280129V     COMM'N MAR'13  130409003594      CU1562                 
00007719004109030154334A.R.JAYASINGHE      23000000000000000405375SLR7056011001108629401DU PAL (PVT) LTD    905504266V     COMM'N MAR'13  130409004266      CU1562                 
00007719004109038009155A.H.S.N.PRIYALAL    23000000000000000876012SLR7056011001108629401DU PAL (PVT) LTD    932261154V     COMM'N MAR'13  130409004377      CU1562                 
00007056004008135007492M.N.M.HAYAS         23000000000000003380109SLR7056011001108629401DU PAL (PVT) LTD    912121879V     COMM'N MAR'13  130409005508      CU1562                 
00007135004200170012074W.M.S.K.H.WIJESUNDAR23000000000000009931163SLR7056011001108629401DU PAL (PVT) LTD    792951775V     COMM'N MAR'13  130409004158      CU1562                 
00007056004008810020257P.B.D.E.FERNANDO    23000000000000000872062SLR7056011001108629401DU PAL (PVT) LTD    846111069V     COMM'N MAR'13  130409003687      CU1562                 
00007010004000071786823W.A.D.I.T.PREMASINGH23000000000000000808691SLR7056011001108629401DU PAL (PVT) LTD    878331052V     COMM'N MAR'13  130409003021      CU1562                 
00007010004000005827025W.G.A.D.GAMLATH     23000000000000000804991SLR7056011001108629401DU PAL (PVT) LTD    921482795V     COMM'N MAR'13  130409003009      CU1562                 
00007278004105353308091M.D.B.SENARATHNA    23000000000000001108161SLR7056011001108629401DU PAL (PVT) LTD    761930028V     COMM'N MAR'13  130409003756      CU1562                 
00007056004008160058321S.M.S.P.SENANAYAKA  23000000000000004392753SLR7056011001108629401DU PAL (PVT) LTD    542020130X     COMM'N MAR'13  130409003363      CU1562                 
00007135004200180038633S.D.M.S.N.SMARAKKODI23000000000000001326172SLR7056011001108629401DU PAL (PVT) LTD    900550952V     COMM'N MAR'13  130409004131      CU1562                 
00007719004107718000727W.M.A.PUSHPAKUMARA  23000000000000001411344SLR7056011001108629401DU PAL (PVT) LTD    860903717V     COMM'N MAR'13  130409004992      CU1562                 
00007287004032360494101P.P.KULATHUNGA      23000000000000001631522SLR7056011001108629401DU PAL (PVT) LTD    632383010V     COMM'N MAR'13  130409004440      CU1562                 
00007056004008160041107R.P.I.U.N.SENANAYAKE23000000000000001140759SLR7056011001108629401DU PAL (PVT) LTD    810684500V     COMM'N MAR'13  130409004263      CU1562                 
00007135004200140030641H.G.WIMALARATHNA    23000000000000000023345SLR7056011001108629401DU PAL (PVT) LTD    573204050V     COMM'N MAR'13  130409004590      CU1562                 
00007135004200170036596N.G.A.P.Wijesekara  23000000000000005032404SLR7056011001108629401DU PAL (PVT) LTD    721683362V     COMM'N MAR'13  130409004371      CU1562                 
00007083004023020237698W.K.S.A.BANDARA     23000000000000000317080SLR7056011001108629401DU PAL (PVT) LTD    790333462V     COMM'N MAR'13  130409005001      CU1562                 
00007056004008160073240E.P.S.M.DARMATHILAKA23000000000000000026115SLR7056011001108629401DU PAL (PVT) LTD    940964350V     COMM'N MAR'13  130409003480      CU1562                 
00007135004200160009431A.M.K.ADIKARI       23000000000000001411137SLR7056011001108629401DU PAL (PVT) LTD    718230292V     COMM'N MAR'13  130409003303      CU1562                 
00007719004100170424617W.W.I.NILANTHI      23000000000000000950040SLR7056011001108629401DU PAL (PVT) LTD    766423400V     COMM'N MAR'13  130409004554      CU1562                 
00007719004100170164917W.I.R.KUMARI        23000000000000000137764SLR7056011001108629401DU PAL (PVT) LTD    767861503V     COMM'N MAR'13  130409004701      CU1562                 
00007010004000003876554R.M.P.RATHNAYAKE    23000000000000003104332SLR7056011001108629401DU PAL (PVT) LTD    653182361V     COMM'N MAR'13  130409003081      CU1562                 
00007056004008600016198E.P.S.K.EDIRISINGHE 23000000000000001060963SLR7056011001108629401DU PAL (PVT) LTD    790571215V     COMM'N MAR'13  130409005046      CU1562                 
00007056004008160039826L.S.K.DALADAWATHTHAG23000000000000003221593SLR7056011001108629401DU PAL (PVT) LTD    887693721V     COMM'N MAR'13  130409004359      CU1562                 
00007056004008182001120H.P.S.DESHAPRIYA    23000000000000002117773SLR7056011001108629401DU PAL (PVT) LTD    722932625V     COMM'N MAR'13  130409004356      CU1562                 
00007135004200110031011H.M.K.HERATH        23000000000000000339764SLR7056011001108629401DU PAL (PVT) LTD    765830060V     COMM'N MAR'13  130409004389      CU1562                 
00007056004008160018686S.H.D.SRIKANTHA     23000000000000001598330SLR7056011001108629401DU PAL (PVT) LTD    786203945V     COMM'N MAR'13  130409003372      CU1562                 
00007010004000000922221D.M.R.Disanayakae   23000000000000000266846SLR7056011001108629401DU PAL (PVT) LTD    722561031V     COMM'N MAR'13  130409003957      CU1562                 
00007010004000008153600M.N.M.NUSRATH       23000000000000000058047SLR7056011001108629401DU PAL (PVT) LTD    893561013V     COMM'N MAR'13  130409003993      CU1562                 
00007719004107090105376H.D.A.LAKSIRI       23000000000000000461019SLR7056011001108629401DU PAL (PVT) LTD    701663071V     COMM'N MAR'13  130409004257      CU1562                 
00007010004000005428351K.M.DANAPALA        23000000000000000849643SLR7056011001108629401DU PAL (PVT) LTD    650861337V     COMM'N MAR'13  130409004380      CU1562                 
00007010004000009470644P.G.N.K.RANASINGHE  23000000000000006012674SLR7056011001108629401DU PAL (PVT) LTD    881953781V     COMM'N MAR'13  130409004359      CU1562                 
00007010004000070330862R.NEWTON            23000000000000001691712SLR7056011001108629401DU PAL (PVT) LTD    652360203V     COMM'N MAR'13  130409004263      CU1562                 
00007010004000072150853P.D.C.D.ARIYAWANSHA 23000000000000001389461SLR7056011001108629401DU PAL (PVT) LTD    762933284V     COMM'N MAR'13  130409003513      CU1562                 
00007010004000071472884A.M.N.N.ATHTHANAYAKA23000000000000000023294SLR7056011001108629401DU PAL (PVT) LTD    932254654V     COMM'N MAR'13  130409003681      CU1562                 
00007056004008160016364F.M.IRFAN           23000000000000000239531SLR7056011001108629401DU PAL (PVT) LTD    822482023X     COMM'N MAR'13  130409004065      CU1562                 
00007056004008161003326I.M.A.ISMAIL        23000000000000000800129SLR7056011001108629401DU PAL (PVT) LTD    942022352V     COMM'N MAR'13  130409003441      CU1562                 
00007010004000070672851A.A.P.D.KUMARA      23000000000000003687666SLR7056011001108629401DU PAL (PVT) LTD    683555282V     COMM'N MAR'13  130409003549      CU1562                 
00007056004008160056041N.T.D.S.KUMARA      23000000000000003508759SLR7056011001108629401DU PAL (PVT) LTD    651942918V     COMM'N MAR'13  130409004305      CU1562                 
00007278004110953603651M.R.M.Rikaz         23000000000000001005598SLR7056011001108629401DU PAL (PVT) LTD    842130468V     COMM'N MAR'13  130409004449      CU1562                 
00007056004008160073635K.M.C.L.BANDARA     23000000000000000078332SLR7056011001108629401DU PAL (PVT) LTD    921443838V     COMM'N MAR'13  130409003432      CU1562                 
00007287004032441420101K.G.D.D.D.WIJERATHNA23000000000000002286718SLR7056011001108629401DU PAL (PVT) LTD    823500947V     COMM'N MAR'13  130409004674      CU1562                 
00007083004019020424136M.M.SIFAN           23000000000000001045668SLR7056011001108629401DU PAL (PVT) LTD    890831559V     COMM'N MAR'13  130409005862      CU1562                 
00007056004008161002776R.M.D.J.H.ABERATHNA 23000000000000000912478SLR7056011001108629401DU PAL (PVT) LTD    650590376V     COMM'N MAR'13  130409004248      CU1562                 
00007287004001635075101R.H.G.E.K.RANASINGHE23000000000000000892353SLR7056011001108629401DU PAL (PVT) LTD    831391650V     COMM'N MAR'13  130409004260      CU1562                 
00007056004008432484601G.Raveendran        23000000000000005555748SLR7056011001108629401DU PAL (PVT) LTD    780661445V     COMM'N MAR'13  130409004893      CU1562                 
00007135004200160010716G.SHEREEN           23000000000000001772758SLR7056011001108629401DU PAL (PVT) LTD    906360888V     COMM'N MAR'13  130409004926      CU1562                 
00007056004008430026521C.N.P.CROOS         23000000000000001245331SLR7056011001108629401DU PAL (PVT) LTD    881051605V     COMM'N MAR'13  130409002442      CU1562                 
00007287004002022072101M.R.D.H.BANDARA     23000000000000001287632SLR7056011001108629401DU PAL (PVT) LTD    861882853V     COMM'N MAR'13  130409004326      CU1562                 
00007056004008106015953N.M.JAMSY           23000000000000000213156SLR7056011001108629401DU PAL (PVT) LTD    800612438V     COMM'N MAR'13  130409003369      CU1562                 
00007278004100650120218A.M.N.W.M.H.P.ATHURU23000000000000007333961SLR7056011001108629401DU PAL (PVT) LTD    771273009V     COMM'N MAR'13  130409004695      CU1562                 
00007056004008122002471L.H.W.S.DE SILVA    23000000000000000038450SLR7056011001108629401DU PAL (PVT) LTD    748392092V     COMM'N MAR'13  130409004827      CU1562                 
00007056004008550010847K.S.SILVA           23000000000000002765611SLR7056011001108629401DU PAL (PVT) LTD    650110196V     COMM'N MAR'13  130409002286      CU1562                 
00007135004200160024869R.K.D.M.R.P.M.K.BOGA23000000000000000183273SLR7056011001108629401DU PAL (PVT) LTD    932341212V     COMM'N MAR'13  130409003465      CU1562                 
00007056004008550017724M.M.K.W.KEERTHI     23000000000000000986176SLR7056011001108629401DU PAL (PVT) LTD    632480199V     COMM'N MAR'13  130409004254      CU1562                 
00007056004008160067239A.G.N.S.BANDARA     23000000000000003355897SLR7056011001108629401DU PAL (PVT) LTD    852203242V     COMM'N MAR'13  130409003399      CU1562                 
00007010004000070585856D.A.W.MADARI        23000000000000003440484SLR7056011001108629401DU PAL (PVT) LTD    827703656V     COMM'N MAR'13  130409003543      CU1562                 
00007287004032360834101E.M.S.K.EKANAYAKE   23000000000000002090374SLR7056011001108629401DU PAL (PVT) LTD    783311160V     COMM'N MAR'13  130409004242      CU1562                 
00007278004105353570803G.S.GOVINDA         23000000000000005558882SLR7056011001108629401DU PAL (PVT) LTD    870510799V     COMM'N MAR'13  130409005490      CU1562                 
00007287004032412297101K.G.I.S.NAYANANADA  23000000000000000509086SLR7056011001108629401DU PAL (PVT) LTD    817940560V     COMM'N MAR'13  130409003879      CU1562                 
00007135004002070483509S.A.D.M.AMARAWANSHA 23000000000000001014404SLR7056011001108629401DU PAL (PVT) LTD    878403215V     COMM'N MAR'13  130409004359      CU1562                 
00007010004000005689003U.P.R.S.PATHIRANA   23000000000000003415790SLR7056011001108629401DU PAL (PVT) LTD    852812028V     COMM'N MAR'13  130409002739      CU1562                 
00007083004089020127412A.R.D.NILMINI       23000000000000003111302SLR7056011001108629401DU PAL (PVT) LTD    886723636V     COMM'N MAR'13  130409004260      CU1562                 
00007056004008120050858I.D.C.S.MAHINDU     23000000000000004927781SLR7056011001108629401DU PAL (PVT) LTD    853340537V     COMM'N MAR'13  130409004230      CU1562                 
00007135004200134871875K.GUNASENA          23000000000000001370997SLR7056011001108629401DU PAL (PVT) LTD    541872698V     COMM'N MAR'13  130409004296      CU1562                 
00007135004200197303910K.N.S.PERERA        23000000000000003751758SLR7056011001108629401DU PAL (PVT) LTD    835483827V     COMM'N MAR'13  130409004248      CU1562                 
00007135004200110003081B.P.N.PERERA        23000000000000003675632SLR7056011001108629401DU PAL (PVT) LTD    907341976V     COMM'N MAR'13  130409003939      CU1562                 
00007056004008760027544D.M.D.DISSANAKAKE   23000000000000001607940SLR7056011001108629401DU PAL (PVT) LTD    726331251V     COMM'N MAR'13  130409004515      CU1562                 
00007719004100615011515K.C.JAYASINGHE      23000000000000001306692SLR7056011001108629401DU PAL (PVT) LTD    897110431V     COMM'N MAR'13  130409004845      CU1562                 
00007056004008760022307S.R.S.K.VITHANAGE   23000000000000000026406SLR7056011001108629401DU PAL (PVT) LTD    600321161v     COMM'N MAR'13  130409003378      CU1562                 
00007278004108153461448W.N.K.RANATHUNGE    23000000000000000191791SLR7056011001108629401DU PAL (PVT) LTD    750812090V     COMM'N MAR'13  130409004380      CU1562                 
00007056004008800023083D.M.M.B.DASSANAYAKE 23000000000000001629195SLR7056011001108629401DU PAL (PVT) LTD    822900917V     COMM'N MAR'13  130409003828      CU1562                 
00007719004107488001561M.C.N.KULATHUNGA    23000000000000000752282SLR7056011001108629401DU PAL (PVT) LTD    856152600V     COMM'N MAR'13  130409004965      CU1562                 
00007056004008136005142R.B.C.H.JAYATHILAKA 23000000000000001194798SLR7056011001108629401DU PAL (PVT) LTD    868591200V     COMM'N MAR'13  130409003600      CU1562                 
00007287004033337331101T.M.A.G.D.P.K.TENNAK23000000000000000752335SLR7056011001108629401DU PAL (PVT) LTD    822143865V     COMM'N MAR'13  130409004872      CU1562                 
00007083004053020143051R.M.N.JAYAWARDHANA  23000000000000000199542SLR7056011001108629401DU PAL (PVT) LTD    771931294V     COMM'N MAR'13  130409003753      CU1562                 
00007056004008100900985B.M.SENAVIRATHNA    23000000000000000158015SLR7056011001108629401DU PAL (PVT) LTD    570922998V     COMM'N MAR'13  130409004005      CU1562                 
00007287004002452959101L.M.C.P.WIJESEKARA  23000000000000002933458SLR7056011001108629401DU PAL (PVT) LTD    880342304V     COMM'N MAR'13  130409003843      CU1562                 
00007056004008120911663S.VIJAYKANTH        23000000000000000293528SLR7056011001108629401DU PAL (PVT) LTD    882633233V     COMM'N MAR'13  130409003852      CU1562                 
00007056004008116007005K.A.S.PUSHPAKUMARA  23000000000000008259516SLR7056011001108629401DU PAL (PVT) LTD    812732781V     COMM'N MAR'13  130409004290      CU1562                 
00007719004100020807095K.A.U.INDIKA        23000000000000002572757SLR7056011001108629401DU PAL (PVT) LTD    742430286V     COMM'N MAR'13  130409003426      CU1562                 
00007719004109070170992P.H.R.PERERA        23000000000000002604739SLR7056011001108629401DU PAL (PVT) LTD    821632960V     COMM'N MAR'13  130409003993      CU1562                 
00007278004102253555967D.D.T.VITHANAGE     23000000000000010116135SLR7056011001108629401DU PAL (PVT) LTD    791134234V     COMM'N MAR'13  130409004449      CU1562                 
00007056004008840016830S.SUJEEWA           23000000000000000051132SLR7056011001108629401DU PAL (PVT) LTD    737291960V     COMM'N MAR'13  130409003441      CU1562                 
00007278004113754151856S.N.MADHUWANTHI     23000000000000001327131SLR7056011001108629401DU PAL (PVT) LTD    877062015V     COMM'N MAR'13  130409004809      CU1562                 
00007278004102254191302M.N.S.KARUNARATHNA  23000000000000000074002SLR7056011001108629401DU PAL (PVT) LTD    903343265V     COMM'N MAR'13  130409004578      CU1562                 
00007056004008700037337N.G.R.D.R.GAMLATH   23000000000000002963638SLR7056011001108629401DU PAL (PVT) LTD    922840091V     COMM'N MAR'13  130409003123      CU1562                 
00007083004006020010111D.K.R.WEERASINGHE   23000000000000000976964SLR7056011001108629401DU PAL (PVT) LTD    927370468V     COMM'N MAR'13  130409003783      CU1562                 
00007278004102250018956K.B.S.R.BANDARA     23000000000000006423979SLR7056011001108629401DU PAL (PVT) LTD    781363189V     COMM'N MAR'13  130409004443      CU1562                 
00007719004100578021368P.A.T.R.PERERA      23000000000000000824427SLR7056011001108629401DU PAL (PVT) LTD    791830684V     COMM'N MAR'13  130409003720      CU1562                 
00007278004102254192757B.U.D.FERNANDO      23000000000000000795484SLR7056011001108629401DU PAL (PVT) LTD    895053287V     COMM'N MAR'13  130409004326      CU1562                 
00007278004102050080711W.H.T.N.PATHMINEE   23000000000000001565886SLR7056011001108629401DU PAL (PVT) LTD    676610103V     COMM'N MAR'13  130409004812      CU1562                 
00007278004102253763409B.M.B.FERNANDO      23000000000000003213646SLR7056011001108629401DU PAL (PVT) LTD    810741554V     COMM'N MAR'13  130409004560      CU1562                 
00007083004097020198044M.F.M.SALMAN        23000000000000000696410SLR7056011001108629401DU PAL (PVT) LTD    922512752V     COMM'N MAR'13  130409004407      CU1562                 
00007135004200130024607R.RIYAS             23000000000000000640757SLR7056011001108629401DU PAL (PVT) LTD    862270924V     COMM'N MAR'13  130409004434      CU1562                 
00007278004111153973692M.M.RUKSHAN         23000000000000000326103SLR7056011001108629401DU PAL (PVT) LTD    931842960V     COMM'N MAR'13  130409003978      CU1562                 
00007056004008460007782H.P.H.PREMATHILAKA  23000000000000001115835SLR7056011001108629401DU PAL (PVT) LTD    771722636V     COMM'N MAR'13  130409004041      CU1562                 
00007083004056020056714R.A.C.M.ROOPASINGHE 23000000000000000559389SLR7056011001108629401DU PAL (PVT) LTD    942540426V     COMM'N MAR'13  130409004581      CU1562                 
00007056004008270051438C.U.N.HEWAWASSAM    23000000000000001113998SLR7056011001108629401DU PAL (PVT) LTD    940282918V     COMM'N MAR'13  130409003084      CU1562                 
00007278004102153543638R.A.A.K.RANASINGHE  23000000000000000311408SLR7056011001108629401DU PAL (PVT) LTD    762581760V     COMM'N MAR'13  130409004803      CU1562                 
00007056004008520025398P.H.S.SWARNAMALI    23000000000000000908511SLR7056011001108629401DU PAL (PVT) LTD    926364448V     COMM'N MAR'13  130409003582      CU1562                 
00007056004008137000397B.M.J.KUMARA        23000000000000000957910SLR7056011001108629401DU PAL (PVT) LTD    711681736V     COMM'N MAR'13  130409003762      CU1562                 
00007056004001040056801J.M.KALEEL          23000000000000000033673SLR7056011001108629401DU PAL (PVT) LTD    502041193V     COMM'N MAR'13  130409003612      CU1562                 
00007056004008060088373M.JANAHAN           23000000000000000078689SLR7056011001108629401DU PAL (PVT) LTD    912333248V     COMM'N MAR'13  130409003780      CU1562                 
00007135004200160012206M.A.M.ASHIK         23000000000000000905258SLR7056011001108629401DU PAL (PVT) LTD    943591270V     COMM'N MAR'13  130409003504      CU1562                 
00007056004008140001222E.R.NALAKA          23000000000000001167526SLR7056011001108629401DU PAL (PVT) LTD    783521849V     COMM'N MAR'13  130409003690      CU1562                 
00007056004008040065599M.B.S.M.T.TOWSHAN   23000000000000000123413SLR7056011001108629401DU PAL (PVT) LTD    912710939V     COMM'N MAR'13  130409003816      CU1562                 
00007056004008163001482W.A.S.K.WIMALASIRI  23000000000000000945593SLR7056011001108629401DU PAL (PVT) LTD    853254860V     COMM'N MAR'13  130409003819      CU1562                 
00007083004013020352001K.D.D.MADURANGA     23000000000000000959247SLR7056011001108629401DU PAL (PVT) LTD    931931628V     COMM'N MAR'13  130409005079      CU1562                 
00007278004103554080748P.L.A.U.KESHAN      23000000000000003279278SLR7056011001108629401DU PAL (PVT) LTD    910370405V     COMM'N MAR'13  130409004215      CU1562                 
00007056004008103010374H.G.P.GAMAGE        23000000000000000143954SLR7056011001108629401DU PAL (PVT) LTD    841750853V     COMM'N MAR'13  130409003432      CU1562                 
00007056004008970012704S.G.GODAHEWA        23000000000000000023148SLR7056011001108629401DU PAL (PVT) LTD    850233144V     COMM'N MAR'13  130409004017      CU1562                 
00007056004008120016786K.SUGANTHAN         23000000000000001332163SLR7056011001108629401DU PAL (PVT) LTD    752371202V     COMM'N MAR'13  130409004686      CU1562                 
00007135004200140034224M.I.NAIYOOB         23000000000000000072689SLR7056011001108629401DU PAL (PVT) LTD    920393950V     COMM'N MAR'13  130409003813      CU1562                 
00007056004008038364301A.M.M.RINOS         23000000000000000120310SLR7056011001108629401DU PAL (PVT) LTD    751490909V     COMM'N MAR'13  130409004164      CU1562                 
00007278004112353752562D.M.ABEYWARNA       23000000000000002254396SLR7056011001108629401DU PAL (PVT) LTD    733592680V     COMM'N MAR'13  130409004137      CU1562                 
00007056004008150904552H.M.V.KULATHUNGA    23000000000000003102407SLR7056011001108629401DU PAL (PVT) LTD    570780107V     COMM'N MAR'13  130409003153      CU1562                 
00007056004008070036695M.G.T.THIWANKA      23000000000000001001307SLR7056011001108629401DU PAL (PVT) LTD    932910950V     COMM'N MAR'13  130409003342      CU1562                 
00007287004032315432101M.M.M.AMJAAD        23000000000000000011500SLR7056011001108629401DU PAL (PVT) LTD    910402803V     COMM'N MAR'13  130409004449      CU1562                 
00007287004032555777101A.S.GAYAN           23000000000000001029465SLR7056011001108629401DU PAL (PVT) LTD    920073751V     COMM'N MAR'13  130409004713      CU1562                 
00007056004008190032315W.ARIYARATHNA       23000000000000000011500SLR7056011001108629401DU PAL (PVT) LTD    690691280V     COMM'N MAR'13  130409004716      CU1562                 
00007056004008730012607W.G.D.WEERASINGHE   23000000000000000450066SLR7056011001108629401DU PAL (PVT) LTD    733610727V     COMM'N MAR'13  130409004209      CU1562                 
00007056004008108038332S.SRIKANTHARANGANATH23000000000000001347251SLR7056011001108629401DU PAL (PVT) LTD    907302636V     COMM'N MAR'13  130409004278      CU1562                 
00007278004106654191471D.B.N.N.DHARMASENA  23000000000000000845106SLR7056011001108629401DU PAL (PVT) LTD    753052097V     COMM'N MAR'13  130409004122      CU1562                 
00007083004018020765285F.A.NASARDEEN       23000000000000001552500SLR7056011001108629401DU PAL (PVT) LTD    905134043V     COMM'N MAR'13  130409003567      CU1562                 
00007719004100180240494W.H.M.S.WADIYARATHNA23000000000000001610000SLR7056011001108629401DU PAL (PVT) LTD    570851233V     COMM'N MAR'13  130409003720      CU1562                 
00007010004000008529727W.M.S. ALAGODA      23000000000000001495000SLR7056011001108629401DU PAL (PVT) LTD    897440180V     COMM'N MAR'13  130409003552      CU1562                 
00007056004008160004667D.D.D.Rajanandana   23000000000000001610000SLR7056011001108629401DU PAL (PVT) LTD    741210908V     COMM'N MAR'13  130409003885      CU1562                 
00007083004013020462116S.A.HAPUARACHCHI    23000000000000001610000SLR7056011001108629401DU PAL (PVT) LTD    901802360V     COMM'N MAR'13  130409003705      CU1562                 
00007056004008124002097W.G.G.Indrajith Gala23000000000000001198348SLR7056011001108629401DU PAL (PVT) LTD    772320884V     COMM'N MAR'13  130409003282      CU1562                 
00007278004102953774443K.A.A.D.Priyadarshan23000000000000003319269SLR7056011001108629401DU PAL (PVT) LTD    830491635V     COMM'N MAR'13  130409003813      CU1562                 
00007287004001364878101T.lakmal            23000000000000000866113SLR7056011001108629401DU PAL (PVT) LTD    910171763V     COMM'N MAR'13  130409004542      CU1562                 
00007278004104353777103A.A.Akila Romesh    23000000000000001020974SLR7056011001108629401DU PAL (PVT) LTD    843413340V     COMM'N MAR'13  130409003948      CU1562                 
00007056004008820019936R.M.I.L.Gunarathna  23000000000000000393232SLR7056011001108629401DU PAL (PVT) LTD    928342980V     COMM'N MAR'13  130409003252      CU1562                 
00007056004008133012059V.Prasad            23000000000000002862307SLR7056011001108629401DU PAL (PVT) LTD    922763097V     COMM'N MAR'13  130409003870      CU1562                 
00007056004008124008849M.A.PERERA          23000000000000000025970SLR7056011001108629401DU PAL (PVT) LTD    892173028V     COMM'N MAR'13  130409004092      CU1562                 
00007056004008300033126H.E.I.S.RASHINDA    23000000000000000939126SLR7056011001108629401DU PAL (PVT) LTD    910470094V     COMM'N MAR'13  130409003153      CU1562                 
00007056004008880023444Chirath Chathuranga 23000000000000003279264SLR7056011001108629401DU PAL (PVT) LTD    891790074V     COMM'N MAR'13  130409003882      CU1562                 
00007056004008970019070P.H.L.De Silva      23000000000000003363850SLR7056011001108629401DU PAL (PVT) LTD    902161848V     COMM'N MAR'13  130409004383      CU1562                 
00007056004008970003568V.K.J.Hewapathirana 23000000000000000486034SLR7056011001108629401DU PAL (PVT) LTD    856423026V     COMM'N MAR'13  130409003675      CU1562                 
00007056004008970010064M.Sajith Priyantha W23000000000000000284682SLR7056011001108629401DU PAL (PVT) LTD    823433263V     COMM'N MAR'13  130409003585      CU1562                 
00007056004008970021174W.J.G.S.S.K.FERNANDO23000000000000000844759SLR7056011001108629401DU PAL (PVT) LTD    912011976V     COMM'N MAR'13  130409003984      CU1562                 
00007056004008270045662T.M.Chamith Madawa  23000000000000001284081SLR7056011001108629401DU PAL (PVT) LTD    922131880V     COMM'N MAR'13  130409004101      CU1562                 
00007056004008270048549S.L.Chamara Vijethil23000000000000001615347SLR7056011001108629401DU PAL (PVT) LTD    941662919V     COMM'N MAR'13  130409004125      CU1562                 
00007056004008270048556W.L.S.Lakshan       23000000000000001499867SLR7056011001108629401DU PAL (PVT) LTD    943020230V     COMM'N MAR'13  130409004485      CU1562                 
00007056004008270051581S.A.C.LIYANAGE      23000000000000000921204SLR7056011001108629401DU PAL (PVT) LTD    796471760V     COMM'N MAR'13  130409004587      CU1562                 
00007056004008135000754D.Chandrakumara     23000000000000004426130SLR7056011001108629401DU PAL (PVT) LTD    791620929V     COMM'N MAR'13  130409003054      CU1562                 
00007056004008270047384D.L.K.Sajith Kumara 23000000000000002161535SLR7056011001108629401DU PAL (PVT) LTD    920910548V     COMM'N MAR'13  130409004230      CU1562                 
00007056004008270032098M.J.H.MOHAMED       23000000000000000025003SLR7056011001108629401DU PAL (PVT) LTD    903114924V     COMM'N MAR'13  130409004173      CU1562                 
00007056004008270051001C.U.N.N.HEWAWASAM   23000000000000001033074SLR7056011001108629401DU PAL (PVT) LTD    940282926V     COMM'N MAR'13  130409003195      CU1562                 
00007056004008050001172F.R.M.SHUKRI        23000000000000000025671SLR7056011001108629401DU PAL (PVT) LTD    942962347V     COMM'N MAR'13  130409004455      CU1562                 
00007056004008151006955H.A.Asanka Chamara  23000000000000001012324SLR7056011001108629401DU PAL (PVT) LTD    892662070V     COMM'N MAR'13  130409004809      CU1562                 
00007056004008070035904W.A.Nirodha Buddhapr23000000000000001328293SLR7056011001108629401DU PAL (PVT) LTD    810995556V     COMM'N MAR'13  130409004506      CU1562                 
00007056004008151007930C.S.Hewamanage      23000000000000002904213SLR7056011001108629401DU PAL (PVT) LTD    778212730V     COMM'N MAR'13  130409003858      CU1562                 
00007056004008151009310T.C.WEERASINGHE     23000000000000000829445SLR7056011001108629401DU PAL (PVT) LTD    867673288V     COMM'N MAR'13  130409004383      CU1562                 
00007056004008350021600M.P.P.KUMARA        23000000000000000967203SLR7056011001108629401DU PAL (PVT) LTD    923291270V     COMM'N MAR'13  130409004326      CU1562                 
00007056004008630009266C.P.K.Sudusinghe    23000000000000000101033SLR7056011001108629401DU PAL (PVT) LTD    800964091V     COMM'N MAR'13  130409004851      CU1562                 
00007056004008135000090F.M.Madugalle       23000000000000000151246SLR7056011001108629401DU PAL (PVT) LTD    731740674V     COMM'N MAR'13  130409004698      CU1562                 
00007056004008570012861M.M.Farhan          23000000000000002988248SLR7056011001108629401DU PAL (PVT) LTD    873521597V     COMM'N MAR'13  130409004191      CU1562                 
00007056004008360033607P.T.Samarasekara    23000000000000000198908SLR7056011001108629401DU PAL (PVT) LTD    922560811V     COMM'N MAR'13  130409004512      CU1562                 
00007056004008130037576H.A.S.K.Appuhamy    23000000000000000908068SLR7056011001108629401DU PAL (PVT) LTD    851600655V     COMM'N MAR'13  130409003621      CU1562                 
00007287004001843076102M.A.Maduranga Udaya 23000000000000002287760SLR7056011001108629401DU PAL (PVT) LTD    802582404V     COMM'N MAR'13  130409004083      CU1562                 
00007056004008400027302M.M.Muzhir          23000000000000004673739SLR7056011001108629401DU PAL (PVT) LTD    923001450V     COMM'N MAR'13  130409005529      CU1562                 
00007010004000072307137P.G.M.Perera        23000000000000001416462SLR7056011001108629401DU PAL (PVT) LTD    560703147V     COMM'N MAR'13  130409003540      CU1562                 
00007056004008142009867P.L.D.G.L.Senevirath23000000000000000885586SLR7056011001108629401DU PAL (PVT) LTD    937713940V     COMM'N MAR'13  130409004200      CU1562                 
00007083004087020096626S.S.M.N peiris      23000000000000001218212SLR7056011001108629401DU PAL (PVT) LTD    646273625V     COMM'N MAR'13  130409005994      CU1562                 
00007083004087020257940W.A.P.A.H.Priyasanth23000000000000001326416SLR7056011001108629401DU PAL (PVT) LTD    801963765V     COMM'N MAR'13  130409004011      CU1562                 
00007056004008170010655P.A.Chathuranga Vish23000000000000003244935SLR7056011001108629401DU PAL (PVT) LTD    883231155V     COMM'N MAR'13  130409004401      CU1562                 
00007056004008106019375J.A.D.Thilina Shehan23000000000000002300226SLR7056011001108629401DU PAL (PVT) LTD    920392334V     COMM'N MAR'13  130409003426      CU1562                 
00007056004008690018661H.N.U.Indika        23000000000000000376549SLR7056011001108629401DU PAL (PVT) LTD    731762368V     COMM'N MAR'13  130409004812      CU1562                 
00007056004008106021009W.M.D.WEERASINGHE   23000000000000000811020SLR7056011001108629401DU PAL (PVT) LTD    930902136V     COMM'N MAR'13  130409003798      CU1562                 
00007056004008106020836E.A.D.PETER         23000000000000000367399SLR7056011001108629401DU PAL (PVT) LTD    553061962V     COMM'N MAR'13  130409004512      CU1562                 
00007135004200110006799I.S Maddumage       23000000000000000302034SLR7056011001108629401DU PAL (PVT) LTD    872292829V     COMM'N MAR'13  130409005184      CU1562                 
00007083004125020052119D.D.Indika Sendanaya23000000000000000847962SLR7056011001108629401DU PAL (PVT) LTD    878903771V     COMM'N MAR'13  130409003723      CU1562                 
00007135004200170006461M.P.K.D Farnando    23000000000000001619423SLR7056011001108629401DU PAL (PVT) LTD    882491358V     COMM'N MAR'13  130409003303      CU1562                 
00007056004008480041257S.I.Thennakoon      23000000000000002825197SLR7056011001108629401DU PAL (PVT) LTD    910532375V     COMM'N MAR'13  130409003696      CU1562                 
00007056004008960010212S.N.Baruhupala      23000000000000000185616SLR7056011001108629401DU PAL (PVT) LTD    891150309V     COMM'N MAR'13  130409004530      CU1562                 
00007056004008750032324A.W.H.S.Dhanushka   23000000000000003420273SLR7056011001108629401DU PAL (PVT) LTD    933000494V     COMM'N MAR'13  130409004290      CU1562                 
00007056004008960023437K.Y.M Karunarathne  23000000000000003413709SLR7056011001108629401DU PAL (PVT) LTD    900790503V     COMM'N MAR'13  130409003708      CU1562                 
00007056004008170012202C.W.Vithanage       23000000000000001436237SLR7056011001108629401DU PAL (PVT) LTD    907510310V     COMM'N MAR'13  130409004065      CU1562                 
00007056004008110017612Sahan C W M Kumarana23000000000000009663170SLR7056011001108629401DU PAL (PVT) LTD    753203605V     COMM'N MAR'13  130409004602      CU1562                 
00007135004200340007093W.H.G.Sameera Dhammi23000000000000001061424SLR7056011001108629401DU PAL (PVT) LTD    873232790V     COMM'N MAR'13  130409005700      CU1562                 
00007056004008258002380T.M.Madumalinga Pere23000000000000002996761SLR7056011001108629401DU PAL (PVT) LTD    910370197V     COMM'N MAR'13  130409003822      CU1562                 
00007010004000071382520W.M.A.Supun Wijethun23000000000000001143645SLR7056011001108629401DU PAL (PVT) LTD    913020685V     COMM'N MAR'13  130409003114      CU1562                 
00007056004008180037161M.B.M.Pathum Sathsar23000000000000001803748SLR7056011001108629401DU PAL (PVT) LTD    882654257V     COMM'N MAR'13  130409004014      CU1562                 
00007056004008190041940R.A.Nadeeka Dulanja 23000000000000000945844SLR7056011001108629401DU PAL (PVT) LTD    822394507V     COMM'N MAR'13  130409003840      CU1562                 
00007056004008410036962E.A.C.Athukorala    23000000000000003371043SLR7056011001108629401DU PAL (PVT) LTD    822232310V     COMM'N MAR'13  130409003573      CU1562                 
00007287004002081792101M.S.M.Safwan        23000000000000000815169SLR7056011001108629401DU PAL (PVT) LTD    872150048V     COMM'N MAR'13  130409005226      CU1562                 
00007056004008760027611K.G.S.Kumara        23000000000000010544540SLR7056011001108629401DU PAL (PVT) LTD    861531554V     COMM'N MAR'13  130409003597      CU1562                 
00007056004008100921641T.P.D.P.Kumara      23000000000000001401695SLR7056011001108629401DU PAL (PVT) LTD    933511294V     COMM'N MAR'13  130409003822      CU1562                 
00007056004008100921653S..G.Samarakoon     23000000000000001162637SLR7056011001108629401DU PAL (PVT) LTD    932272709V     COMM'N MAR'13  130409003624      CU1562                 
00007056004008180044228M.L.K.Mahawatta     23000000000000000935885SLR7056011001108629401DU PAL (PVT) LTD    932441713V     COMM'N MAR'13  130409002934      CU1562                 
00007278004110653743730K.V.Kasun Chamara   23000000000000001293120SLR7056011001108629401DU PAL (PVT) LTD    902011234V     COMM'N MAR'13  130409004047      CU1562                 
00007056004008145007464H.C.Mahesh Pathmasir23000000000000002085073SLR7056011001108629401DU PAL (PVT) LTD    850064229V     COMM'N MAR'13  130409004074      CU1562                 
00007278004105753835099P.GAMAGE            23000000000000000221351SLR7056011001108629401DU PAL (PVT) LTD    722502248V     COMM'N MAR'13  130409004797      CU1562                 
00007056004008160033637H D S K Hewage  (TL)23000000000000002786962SLR7056011001108629401DU PAL (PVT) LTD    782422600V     COMM'N MAR'13  130409004008      CU1562                 
00007056004008330033337A.M.L. Lakmal Karuna23000000000000004314264SLR7056011001108629401DU PAL (PVT) LTD    912981371V     COMM'N MAR'13  130409004311      CU1562                 
00007056004008160064329J.M.M.K.JAYAWARDANA 23000000000000001775740SLR7056011001108629401DU PAL (PVT) LTD    818164335V     COMM'N MAR'13  130409003570      CU1562                 
00007278004104853642413L A N I SUMANASIRI  23000000000000004518441SLR7056011001108629401DU PAL (PVT) LTD    851744592V     COMM'N MAR'13  130409004773      CU1562                 
00007056004008530030251D.G.S.Darmarathna   23000000000000001242573SLR7056011001108629401DU PAL (PVT) LTD    882684288V     COMM'N MAR'13  130409002871      CU1562                 
00007010004000004165023Kusum priyantha Jaya23000000000000004108625SLR7056011001108629401DU PAL (PVT) LTD    750530060V     COMM'N MAR'13  130409002994      CU1562                 
00007056004008880025480A.W.L.M.Peiris      23000000000000001073764SLR7056011001108629401DU PAL (PVT) LTD    932311003V     COMM'N MAR'13  130409003648      CU1562                 
00007056004008250020774M.A.C.A.MARASINGHE  23000000000000000970328SLR7056011001108629401DU PAL (PVT) LTD    781892696V     COMM'N MAR'13  130409004101      CU1562                 
00007135004200110016403H.M.R.L.KUMARASIRI  23000000000000002147925SLR7056011001108629401DU PAL (PVT) LTD    911901951V     COMM'N MAR'13  130409004344      CU1562                 
00007056004008730005937B.A.R.K.Nandasena   23000000000000001493809SLR7056011001108629401DU PAL (PVT) LTD    882502422V     COMM'N MAR'13  130409003579      CU1562                 
00007056004008144012997J.K.A.Rangana       23000000000000001268820SLR7056011001108629401DU PAL (PVT) LTD    913391543V     COMM'N MAR'13  130409004077      CU1562                 
00007010004000070195564J.C.JAYETHILAKA     23000000000000000792665SLR7056011001108629401DU PAL (PVT) LTD    640591820V     COMM'N MAR'13  130409003270      CU1562                 
00007010004000070676290N.M.Nelushka Sagara 23000000000000002443889SLR7056011001108629401DU PAL (PVT) LTD    841374320V     COMM'N MAR'13  130409004395      CU1562                 
00007010004000008870594K.W.A.Kumudu Chamind23000000000000002127814SLR7056011001108629401DU PAL (PVT) LTD    823640730X     COMM'N MAR'13  130409002883      CU1562                 
00007056004008720017800S.Divaharan         23000000000000001198643SLR7056011001108629401DU PAL (PVT) LTD    911303477V     COMM'N MAR'13  130409004989      CU1562                 
00007056004008500034891G.K.A.D.Kalansuriya 23000000000000000080809SLR7056011001108629401DU PAL (PVT) LTD    890691242V     COMM'N MAR'13  130409003051      CU1562                 
00007056004008150911885M.H.G.C.S.Kulasinghe23000000000000000230981SLR7056011001108629401DU PAL (PVT) LTD    910293222V     COMM'N MAR'13  130409003600      CU1562                 
00007056004008080009531S.M.M.Z.M.SHELUBEEN 23000000000000000543100SLR7056011001108629401DU PAL (PVT) LTD    751272960V     COMM'N MAR'13  130409004152      CU1562                 
00007056004008080008656J.P.NUWAN           23000000000000000484893SLR7056011001108629401DU PAL (PVT) LTD    880724630V     COMM'N MAR'13  130409004224      CU1562                 
00007135004200150078304S.P.A.M Senarathna  23000000000000001089538SLR7056011001108629401DU PAL (PVT) LTD    801921469V     COMM'N MAR'13  130409004701      CU1562                 
00007010004000008307543H.Nilani Rangika Rod23000000000000001136765SLR7056011001108629401DU PAL (PVT) LTD    846271562V     COMM'N MAR'13  130409004659      CU1562                 
00007056004008160021303A.M.S.Abeykoon      23000000000000001408689SLR7056011001108629401DU PAL (PVT) LTD    803524394V     COMM'N MAR'13  130409003735      CU1562                 
00007010004000006781870D.M.A.DISSANAYAKA   23000000000000000999420SLR7056011001108629401DU PAL (PVT) LTD    832711446V     COMM'N MAR'13  130409003627      CU1562                 
00007056004008830020976Y.M.P.L.YAPA        23000000000000000046000SLR7056011001108629401DU PAL (PVT) LTD    920743463V     COMM'N MAR'13  130409004431      CU1562                 
00007056004008480048227K.P.Vijith Priyantha23000000000000003497488SLR7056011001108629401DU PAL (PVT) LTD    730980264V     COMM'N MAR'13  130409004116      CU1562                 
00007056004008500034083I.N Sadamali        23000000000000000759599SLR7056011001108629401DU PAL (PVT) LTD    877493555V     COMM'N MAR'13  130409004014      CU1562                 
00007056004008500034772R.D.Weerasundara    23000000000000000610979SLR7056011001108629401DU PAL (PVT) LTD    905632272V     COMM'N MAR'13  130409004305      CU1562                 
00007056004008180020060W.G.N.P.Wimalarathna23000000000000003263861SLR7056011001108629401DU PAL (PVT) LTD    811862193V     COMM'N MAR'13  130409003645      CU1562                 
00007278004115153740917W.L.P.Perera        23000000000000003568842SLR7056011001108629401DU PAL (PVT) LTD    922531331V     COMM'N MAR'13  130409003333      CU1562                 
00007056004008410023468W.K.Steeve Heshan ro23000000000000006830224SLR7056011001108629401DU PAL (PVT) LTD    913313925V     COMM'N MAR'13  130409004461      CU1562                 
00007135004200190019887K.Thilini DharshanI 23000000000000001558946SLR7056011001108629401DU PAL (PVT) LTD    935281644V     COMM'N MAR'13  130409004590      CU1562                 
00007278004100954189996A.A.D.S.P.K.ALGAMA  23000000000000000989620SLR7056011001108629401DU PAL (PVT) LTD    843080049V     COMM'N MAR'13  130409004206      CU1562                 
00007056004008106020135W.M.A.K.Jayamat     23000000000000002696971SLR7056011001108629401DU PAL (PVT) LTD    910552732V     COMM'N MAR'13  130409003852      CU1562                 
00007056004008106020461R.W.K.L.Chamara     23000000000000001738294SLR7056011001108629401DU PAL (PVT) LTD    912984532V     COMM'N MAR'13  130409002271      CU1562                 
00007056004008020040466B.A.S.N.Perera      23000000000000000379966SLR7056011001108629401DU PAL (PVT) LTD    906120720V     COMM'N MAR'13  130409003894      CU1562                 
00007056004008570023189M.Zaharan Rasheed   23000000000000004542415SLR7056011001108629401DU PAL (PVT) LTD    870182996V     COMM'N MAR'13  130409004116      CU1562                 
00007056004008160027101W.D.P.Perera        23000000000000002303426SLR7056011001108629401DU PAL (PVT) LTD    915200702V     COMM'N MAR'13  130409005181      CU1562                 
00007056004008310011144R.A.D.K.Madusanka   23000000000000001373375SLR7056011001108629401DU PAL (PVT) LTD    821811589V     COMM'N MAR'13  130409004002      CU1562                 
00007056004008580032339Sivakumar Subenthan 23000000000000001740278SLR7056011001108629401DU PAL (PVT) LTD    900872666V     COMM'N MAR'13  130409004650      CU1562                 
00007056004008670027219A.C.Indrajith Prera 23000000000000000175377SLR7056011001108629401DU PAL (PVT) LTD    911941228V     COMM'N MAR'13  130409003375      CU1562                 
00007056004008560052187H.P.M.Dilsiri       23000000000000001461988SLR7056011001108629401DU PAL (PVT) LTD    903112115V     COMM'N MAR'13  130409004002      CU1562                 
00007056004008106019456D.R.R.Madusanka     23000000000000001979286SLR7056011001108629401DU PAL (PVT) LTD    921953330V     COMM'N MAR'13  130409004344      CU1562                 
00007056004008106019454S.Nilanka Rajine    23000000000000002253603SLR7056011001108629401DU PAL (PVT) LTD    888350292V     COMM'N MAR'13  130409003252      CU1562                 
00007056004008106019610J.A.N.Tharika       23000000000000001632971SLR7056011001108629401DU PAL (PVT) LTD    935131570V     COMM'N MAR'13  130409004488      CU1562                 
00007056004008114012193W.M.M.P.Fernando    23000000000000003325996SLR7056011001108629401DU PAL (PVT) LTD    846861637V     COMM'N MAR'13  130409004308      CU1562                 
00007287004031444624101M.J.M.Izzeth        23000000000000000681361SLR7056011001108629401DU PAL (PVT) LTD    902581871V     COMM'N MAR'13  130409005163      CU1562                 
00007056004008106019875P.D.Lahiru Tharaka  23000000000000002076892SLR7056011001108629401DU PAL (PVT) LTD    932120909V     COMM'N MAR'13  130409003570      CU1562                 
00007056004008106019876J.A.Petum Chamra    23000000000000001141532SLR7056011001108629401DU PAL (PVT) LTD    933030040V     COMM'N MAR'13  130409003240      CU1562                 
00007056004008106019874M.J.M.Isham         23000000000000000706047SLR7056011001108629401DU PAL (PVT) LTD    931632736V     COMM'N MAR'13  130409003225      CU1562                 
00007083004007020322251B.A.M.Rinoz         23000000000000000496340SLR7056011001108629401DU PAL (PVT) LTD    922113726V     COMM'N MAR'13  130409004656      CU1562                 
00007135004200140006429P.L.M.S.Alwis       23000000000000000286523SLR7056011001108629401DU PAL (PVT) LTD    932970538V     COMM'N MAR'13  130409004272      CU1562                 
00007056004008620018989R.P.N.Pathmasiri    23000000000000002104913SLR7056011001108629401DU PAL (PVT) LTD    810812594V     COMM'N MAR'13  130409004080      CU1562                 
00007056004008620017355R.P.Harshaka Senarat23000000000000006161376SLR7056011001108629401DU PAL (PVT) LTD    832420182V     COMM'N MAR'13  130409003984      CU1562                 
00007056004008180044404P.G.Mekala Priyadars23000000000000000681561SLR7056011001108629401DU PAL (PVT) LTD    877270912V     COMM'N MAR'13  130409003060      CU1562                 
00007056004008210904798M.S.V.FERNANDO      23000000000000000019153SLR7056011001108629401DU PAL (PVT) LTD    935241294V     COMM'N MAR'13  130409003471      CU1562                 
00007083004018020654758T.P.G.Gayan Manjula 23000000000000002916959SLR7056011001108629401DU PAL (PVT) LTD    841710533V     COMM'N MAR'13  130409005193      CU1562                 
00007056004008130063439W.D.Ranga Pradeep   23000000000000001764130SLR7056011001108629401DU PAL (PVT) LTD    902990453V     COMM'N MAR'13  130409003360      CU1562                 
00007056004008040071365A.D.Dassanayaka     23000000000000001027787SLR7056011001108629401DU PAL (PVT) LTD    902430458V     COMM'N MAR'13  130409004392      CU1562                 
00007010004000072751868W.M.N.Deepal Wickram23000000000000001266375SLR7056011001108629401DU PAL (PVT) LTD    920583210V     COMM'N MAR'13  130409002616      CU1562                 
00007056004008040081703A.P.R.Abeysekara    23000000000000000945682SLR7056011001108629401DU PAL (PVT) LTD    917271542V     COMM'N MAR'13  130409004557      CU1562                 
00007056004008370032775Jawfar Imthiyas     23000000000000000272038SLR7056011001108629401DU PAL (PVT) LTD    800713447V     COMM'N MAR'13  130409004614      CU1562                 
00007056004008210032174W.A.G.Nuwan Madusank23000000000000000656955SLR7056011001108629401DU PAL (PVT) LTD    891340796V     COMM'N MAR'13  130409003102      CU1562                 
00007056004008790023027A.S.M.Shakir        23000000000000002172253SLR7056011001108629401DU PAL (PVT) LTD    923580239V     COMM'N MAR'13  130409004950      CU1562                 
00007056004008040080982W.K.P.Sampath Bandar23000000000000002003986SLR7056011001108629401DU PAL (PVT) LTD    872943633V     COMM'N MAR'13  130409004119      CU1562                 
00007056004008143007696D.M.D.L.Karunarathna23000000000000000052130SLR7056011001108629401DU PAL (PVT) LTD    881281473V     COMM'N MAR'13  130409004155      CU1562                 
00007056004008168002445N.M.SABRAS          23000000000000000023408SLR7056011001108629401DU PAL (PVT) LTD    902311670V     COMM'N MAR'13  130409003507      CU1562                 
00007056004008168000872A.M.ASLAM           23000000000000000049673SLR7056011001108629401DU PAL (PVT) LTD    931823051V     COMM'N MAR'13  130409003573      CU1562                 
00007056004008890023117H.T.M.Sabry         23000000000000001678063SLR7056011001108629401DU PAL (PVT) LTD    923374540V     COMM'N MAR'13  130409003732      CU1562                 
00007135004200140019428D.M.A.I.Siriwardhana23000000000000000529077SLR7056011001108629401DU PAL (PVT) LTD    802290373V     COMM'N MAR'13  130409003252      CU1562                 
00007056004008150911193B.D.S.Harshan Wickra23000000000000000176929SLR7056011001108629401DU PAL (PVT) LTD    831831545V     COMM'N MAR'13  130409004914      CU1562                 
00007056004008040080928D.D.Thilakarathna   23000000000000000369241SLR7056011001108629401DU PAL (PVT) LTD    912673065V     COMM'N MAR'13  130409004344      CU1562                 
00007056004008040082955E.M.N.Ekanayake     23000000000000001962530SLR7056011001108629401DU PAL (PVT) LTD    847683619V     COMM'N MAR'13  130409003984      CU1562                 
00007056004008040052551U.W.R.T.W.M.R.R.Band23000000000000000268151SLR7056011001108629401DU PAL (PVT) LTD    913100263V     COMM'N MAR'13  130409003621      CU1562                 
00007056004008107016171B.Losithakumara     23000000000000000714564SLR7056011001108629401DU PAL (PVT) LTD    903081384V     COMM'N MAR'13  130409003792      CU1562                 
00007056004008154002582R.J.J.Michalraj     23000000000000001530847SLR7056011001108629401DU PAL (PVT) LTD    913343719V     COMM'N MAR'13  130409004347      CU1562                 
00007056004008154000121M.M.Anas            23000000000000002328266SLR7056011001108629401DU PAL (PVT) LTD    912040410V     COMM'N MAR'13  130409003573      CU1562                 
00007056004008610042535Sivabalan Prasannath23000000000000002584408SLR7056011001108629401DU PAL (PVT) LTD    840854426V     COMM'N MAR'13  130409004260      CU1562                 
00007056004008600928863Vallipuram Varathan 23000000000000000057352SLR7056011001108629401DU PAL (PVT) LTD    761732641V     COMM'N MAR'13  130409004347      CU1562                 
00007056004008040078916T.P.Ranaheva        23000000000000001469797SLR7056011001108629401DU PAL (PVT) LTD    940102308V     COMM'N MAR'13  130409004521      CU1562                 
00007056004008150913943M.K.M.SHAKIR        23000000000000001670837SLR7056011001108629401DU PAL (PVT) LTD    921550316V     COMM'N MAR'13  130409003555      CU1562                 
00007056004008102012110M.R.M.RASMY         23000000000000001160809SLR7056011001108629401DU PAL (PVT) LTD    890991106V     COMM'N MAR'13  130409004737      CU1562                 
00007010004000008993379F.M.NIZAM           23000000000000000937523SLR7056011001108629401DU PAL (PVT) LTD    825711937V     COMM'N MAR'13  130409003174      CU1562                 
00007056004008100920253R.M.S.R.Kumara      23000000000000001802516SLR7056011001108629401DU PAL (PVT) LTD    750243215V     COMM'N MAR'13  130409004134      CU1562                 
00007056004008100915416D.M.K.Dissanayaka   23000000000000000535929SLR7056011001108629401DU PAL (PVT) LTD    767073445V     COMM'N MAR'13  130409004305      CU1562                 
00007056004008100922035R.H.W.P.W.M.R.P.GUNA23000000000000000023500SLR7056011001108629401DU PAL (PVT) LTD    713533963V     COMM'N MAR'13  130409003525      CU1562                 
00007056004008150007954M.M.M.Senevirathne  23000000000000003643230SLR7056011001108629401DU PAL (PVT) LTD    741340372V     COMM'N MAR'13  130409003924      CU1562                 
00007056004008172002365P.G.M.Donald        23000000000000000923230SLR7056011001108629401DU PAL (PVT) LTD    890492746V     COMM'N MAR'13  130409003999      CU1562                 
00007056004008172002366D.G.Barthlat        23000000000000000899503SLR7056011001108629401DU PAL (PVT) LTD    941403468V     COMM'N MAR'13  130409003465      CU1562                 
00007719004100040935107D.A.WICKRAMASINGHE  23000000000000001134250SLR7056011001108629401DU PAL (PVT) LTD    512150926V     COMM'N MAR'13  130409002652      CU1562                 
00007287004033428975101M.Z.Gaffoor         23000000000000000961421SLR7056011001108629401DU PAL (PVT) LTD    802291671V     COMM'N MAR'13  130409005589      CU1562                 
00007056004008148005947A.B.M.Bajil         23000000000000000275603SLR7056011001108629401DU PAL (PVT) LTD    913041950V     COMM'N MAR'13  130409003060      CU1562                 
00007056004008106020724A.N.Inayathulla     23000000000000000491157SLR7056011001108629401DU PAL (PVT) LTD    903553731V     COMM'N MAR'13  130409003933      CU1562                 
00007056004008106020723T.S.T.Farzan        23000000000000000351131SLR7056011001108629401DU PAL (PVT) LTD    913120370V     COMM'N MAR'13  130409003381      CU1562                 
00007056004008140900439U.G.GUNASINGHE      23000000000000000799702SLR7056011001108629401DU PAL (PVT) LTD    821103339V     COMM'N MAR'13  130409004104      CU1562                 
00007083004164020002214S.ROBINSON          23000000000000000189708SLR7056011001108629401DU PAL (PVT) LTD    850551898V     COMM'N MAR'13  130409005100      CU1562                 
00007056004008172000648U.L.SHAMSUDEEN      23000000000000000817586SLR7056011001108629401DU PAL (PVT) LTD    830510729V     COMM'N MAR'13  130409004782      CU1562                 
00007056004008106020133K.W.K.Revin Helitha 23000000000000001753971SLR7056011001108629401DU PAL (PVT) LTD    920263461V     COMM'N MAR'13  130409004419      CU1562                 
00007056004008106020132K.K.G.O.Kapuduwa    23000000000000001191429SLR7056011001108629401DU PAL (PVT) LTD    921441088V     COMM'N MAR'13  130409003954      CU1562                 
00007278004104954117851DANUSHIKA SEWWANDI  23000000000000001610000SLR7056011001108629401DU PAL (PVT) LTD    918492879V     COMM'N MAR'13  130409003627      CU1562                 
00007056004008410038805Nadee Kumari Weerasi23000000000000001265000SLR7056011001108629401DU PAL (PVT) LTD    937350487V     COMM'N MAR'13  130409004383      CU1562                 
00007056004008160040978Nimali P Kumari     23000000000000001495000SLR7056011001108629401DU PAL (PVT) LTD    847040181V     COMM'N MAR'13  130409004323      CU1562                 
00007056004008270050504Ravindika Keshari WW23000000000000001610000SLR7056011001108629401DU PAL (PVT) LTD    906842297V     COMM'N MAR'13  130409003582      CU1562                 
00007056004008320026540Fathima Waseela S   23000000000000001495000SLR7056011001108629401DU PAL (PVT) LTD    927451328V     COMM'N MAR'13  130409003984      CU1562                 
00007056004001108629401DU PAL (PVT) LTD    23001000000000740677340SLR7056011001108629401DU PAL (PVT) LTD    COMM'N MAR'13  COMM'N MAR'13  130409004215      CU1562                 
