00007056001008300024945RANUKA LAKSHAN      23000000000000007892000SLR7056011001108629401DU PAL (PVT) LTD    832704822V     SBO SAL JAN '14140207      @
00007056001008500031692SHASHIKA BULUGAHAHEN23000000000000007392000SLR7056011001108629401DU PAL (PVT) LTD    901423393V     SBO SAL JAN '14140207      @
00007056001008810025002R P NANDANASIRI     23000000000000006932000SLR7056011001108629401DU PAL (PVT) LTD    820664140V     SBO SAL JAN '14140207      @
00007056001008020039516SRIYAN MAWALAGE     23000000000000003432000SLR7056011001108629401DU PAL (PVT) LTD    821020689V     SBO SAL JAN '14140207      @
00007056001008690047336D.I.M. RAVIHARI BAND23000000000000001472000SLR7056011001108629401DU PAL (PVT) LTD    915373003V     SBO SAL JAN '14140207      @
00007056001008040080553DANUSHKA SIRIWARDENA23000000000000007432000SLR7056011001108629401DU PAL (PVT) LTD    831191040V     SBO SAL JAN '14140207      @
00007056001008104014757CHINTHAKA WICKREMASI23000000000000002472000SLR7056011001108629401DU PAL (PVT) LTD    921700695V     SBO SAL JAN '14140207      @
00007056001008310018682A M K AJITH PRIYALAL23000000000000001972000SLR7056011001108629401DU PAL (PVT) LTD    653451075V     SBO SAL JAN '14140207      @
00007056001008127000207S SIVARUBAN         23000000000000006932000SLR7056011001108629401DU PAL (PVT) LTD    820955544V     SBO SAL JAN '14140207      @
00007056001008119020211SHAMILA P. AMARASING23000000000000001196000SLR7056011001108629401DU PAL (PVT) LTD    906351374V     SBO SAL JAN '14140207      @
00007056001008170012322RANDIMA LAKMINI PERE23000000000000001972000SLR7056011001108629401DU PAL (PVT) LTD    917320306V     SBO SAL JAN '14140207      @
00007056001008160027101DILHARA P PERERA    23000000000000003972000SLR7056011001108629401DU PAL (PVT) LTD    915200702V     SBO SAL JAN '14140207      @
00007056001008020024742L T AJITH KUMARA    23000000000000001472000SLR7056011001108629401DU PAL (PVT) LTD    873112883V     SBO SAL JAN '14140207      @
00007056001008170012475J.D.V.Y. RANASINGHE 23000000000000001012000SLR7056011001108629401DU PAL (PVT) LTD    926262408V     SBO SAL JAN '14140207      @
00007056001008106020200E M N N BALASOORIA  23000000000000001012000SLR7056011001108629401DU PAL (PVT) LTD    935031710V     SBO SAL JAN '14140207      @
00007056001008222002146W.S.S.PERERA        23000000000000001012000SLR7056011001108629401DU PAL (PVT) LTD    898411605V     SBO SAL JAN '14140207      @
00007056001008170012027M S KUMARI          23000000000000001012000SLR7056011001108629401DU PAL (PVT) LTD    816210470V     SBO SAL JAN '14140207      @
00007056001008114023888P S N PEIRIS        23000000000000001012000SLR7056011001108629401DU PAL (PVT) LTD    888211020V     SBO SAL JAN '14140207      @
00007056001008140900439P G U GAYAN GUNASING23000000000000002932000SLR7056011001108629401DU PAL (PVT) LTD    821103339V     SBO SAL JAN '14140207      @
00007056001008530026417S.H.T.BUDDIKA       23000000000000008472000SLR7056011001108629401DU PAL (PVT) LTD    722063538V     SBO SAL JAN '14140207      @
00007278001100650120218A.M.N.W.M.H.P.ATHURU23000000000000008472000SLR7056011001108629401DU PAL (PVT) LTD    771273009V     SBO SAL JAN '14140207      @
00007056001008110000430W.P.SURANGA         23000000000000008472000SLR7056011001108629401DU PAL (PVT) LTD    801991483V     SBO SAL JAN '14140207      @
00007056001008040022945L.H.G.U.K.UDAYANGA  23000000000000008472000SLR7056011001108629401DU PAL (PVT) LTD    793590628V     SBO SAL JAN '14140207      @
00007056011001108629401DU PAL (PVT) LTD    23001000000000096420000SLR7056011001108629401DU PAL (PVT) LTD                  0SBO SAL JAN '14140207      @
