00007056001008580007984A.S.SAFWAN          23000000000000003937761SLR7056011001108629401DU PAL (PVT) LTD    880151070V     PS SAL APR '14 140519      @
00007056001008560019487A.ANTHONY           23000000000000000050606SLR7056011001108629401DU PAL (PVT) LTD    792303986V     PS SAL APR '14 140519      @
00007056001008259000653E.T.JOHNSON         23000000000000003081160SLR7056011001108629401DU PAL (PVT) LTD    761111973V     PS SAL APR '14 140519      @
00007056001008470026963D.D.T.K.WICKRAMARATH23000000000000003382054SLR7056011001108629401DU PAL (PVT) LTD    803265399V     PS SAL APR '14 140519      @
00007056001008110031118H.H.B.KIRINDENIYA   23000000000000003502887SLR7056011001108629401DU PAL (PVT) LTD    822300982V     PS SAL APR '14 140519      @
00007056001008180018942M A DILUSHA         23000000000000004267749SLR7056011001108629401DU PAL (PVT) LTD    875931660V     PS SAL APR '14 140519      @
00007056001008590041323S.L.P.R.KANNANGARA  23000000000000000580286SLR7056011001108629401DU PAL (PVT) LTD    780472073V     PS SAL APR '14 140519      @
00007056011001108629401DU PAL (PVT) LTD    23001000000000018802503SLR7056011001108629401DU PAL (PVT) LTD                  0PS SAL APR '14 140519      @
