00007056001008223001287J.D.B.L.JAYAKODI    23000000000000002530000SLR7056011001108629401DU PAL (PVT) LTD    887910073V     OS SAL APR '14 140519      @
00007092001007053416001M N ARIYARATNE      23000000000000009200000SLR7056011001108629401DU PAL (PVT) LTD    673030629V     OS SAL APR '14 140519      @
00007056001008100067615KARTHIKA SOMASUNDARA23000000000000001472000SLR7056011001108629401DU PAL (PVT) LTD    915271413V     OS SAL APR '14 140519      @
00007056011001108629401DU PAL (PVT) LTD    23001000000000013202000SLR7056011001108629401DU PAL (PVT) LTD                  0OS SAL APR '14 140519      @
