5555OUT111937056001000708                                                                                                                                                          
4444OUT11193705601100000075202265707070000007520226570001021778761796433                                                                                                           
00007056001008040024826H.G.P.C.RATHNASIRI  23000000000000004477373SLR7056011001108629401DU PAL (PVT) LTD    841574346V     COMM'N JUNE'13 130712004878      CU1562                 
00007056001008040063643M.F.F.FAZRINA       23000000000000000980187SLR7056011001108629401DU PAL (PVT) LTD    897100312V     COMM'N JUNE'13 130712005073      CU1562                 
00007056001008040085343A.C.F.RUSHDA        23000000000000000000000SLR7056011001108629401DU PAL (PVT) LTD    906642484V     COMM'N JUNE'13 130712004683      CU1562                 
00007278001100753147138D.G.R.C.WIJESOORIYA 23000000000000000000000SLR7056011001108629401DU PAL (PVT) LTD    840203964V     COMM'N JUNE'13 130712005325      CU1562                 
00007135189200160071852P.D.PRIYANTHA       23000000000000000000000SLR7056011001108629401DU PAL (PVT) LTD    771831745V     COMM'N JUNE'13 130712004134      CU1562                 
00007135112200160042653P.G.E.U.ABESEKARA   23000000000000003384671SLR7056011001108629401DU PAL (PVT) LTD    842472776V     COMM'N JUNE'13 130712004359      CU1562                 
00007135018200180011926M.SHAKIR            23000000000000000000000SLR7056011001108629401DU PAL (PVT) LTD    912930076V     COMM'N JUNE'13 130712005031      CU1562                 
00007010273000002628623A.S.WELAGEDARA      23000000000000000000000SLR7056011001108629401DU PAL (PVT) LTD    742810887V     COMM'N JUNE'13 130712004752      CU1562                 
00007056001001040056801J.M.KALEEL          23000000000000000341188SLR7056011001108629401DU PAL (PVT) LTD    502041193V     COMM'N JUNE'13 130712003477      CU1562                 
00007056001008040085958R.ANURADHA SAMARAKKO23000000000000000000000SLR7056011001108629401DU PAL (PVT) LTD    928072827V     COMM'N JUNE'13 130712004971      CU1562                 
00007056001008040022945L.H.G.U.K.UDAYANGA  23000000000000006308966SLR7056011001108629401DU PAL (PVT) LTD    793590628V     COMM'N JUNE'13 130712003951      CU1562                 
00007287083032555187101W.M.N.K.KARUNARATHNE23000000000000001553642SLR7056011001108629401DU PAL (PVT) LTD    858274133V     COMM'N JUNE'13 130712003657      CU1562                 
00007010473000073751920M.D.M.GUNATHILAKA   23000000000000001774816SLR7056011001108629401DU PAL (PVT) LTD    925061336V     COMM'N JUNE'13 130712005034      CU1562                 
00007056001008040014382W.W.M.K.W.C.P.KAPUWA23000000000000000106551SLR7056011001108629401DU PAL (PVT) LTD    802153600V     COMM'N JUNE'13 130712004158      CU1562                 
00007056001008120911679R.M.D.CHAMARA       23000000000000000000000SLR7056011001108629401DU PAL (PVT) LTD    790331281V     COMM'N JUNE'13 130712004116      CU1562                 
00007056001008170011176L.A.C.ARUNASIRI     23000000000000000000000SLR7056011001108629401DU PAL (PVT) LTD    903063300V     COMM'N JUNE'13 130712004557      CU1562                 
00007056001008080000136R.G.P.P.KUMARA      23000000000000004974314SLR7056011001108629401DU PAL (PVT) LTD    793410042V     COMM'N JUNE'13 130712004317      CU1562                 
00007056001008080038515B.G.C.S.BANDARA     23000000000000000000000SLR7056011001108629401DU PAL (PVT) LTD    860531585V     COMM'N JUNE'13 130712005052      CU1562                 
00007083018018020780132K.T.K.I.BANDARA     23000000000000001562422SLR7056011001108629401DU PAL (PVT) LTD    843453287V     COMM'N JUNE'13 130712005628      CU1562                 
00007056001008180034825D.S.HEWAWASAM       23000000000000000260082SLR7056011001108629401DU PAL (PVT) LTD    898101096V     COMM'N JUNE'13 130712003159      CU1562                 
00007056001008040081667J.V.D.K.JAYASEKARA  23000000000000001441891SLR7056011001108629401DU PAL (PVT) LTD    911871149V     COMM'N JUNE'13 130712004908      CU1562                 
00007056001008040083010T.RAVICHANDRAN      23000000000000000000000SLR7056011001108629401DU PAL (PVT) LTD    902543562V     COMM'N JUNE'13 130712005094      CU1562                 
00007056001008040003923A.W.M.HANEEF        23000000000000000000000SLR7056011001108629401DU PAL (PVT) LTD    793411154V     COMM'N JUNE'13 130712003999      CU1562                 
00007056001008265000384M.M.M.HAMSA         23000000000000000862146SLR7056011001108629401DU PAL (PVT) LTD    710631603V     COMM'N JUNE'13 130712003519      CU1562                 
00007287017002423763101S.W.P.A.PRIYANKARA  23000000000000005163733SLR7056011001108629401DU PAL (PVT) LTD    760862754V     COMM'N JUNE'13 130712003228      CU1562                 
00007056001008890025644G.R.T.GUNARATHNA    23000000000000001806691SLR7056011001108629401DU PAL (PVT) LTD    857010337V     COMM'N JUNE'13 130712004800      CU1562                 
00007056001008115019388A.DUSHANTHI RENUKA  23000000000000001146856SLR7056011001108629401DU PAL (PVT) LTD    915163033V     COMM'N JUNE'13 130712005211      CU1562                 
00007056001008040086416S.T.CHANDRIKA SILVA 23000000000000000000000SLR7056011001108629401DU PAL (PVT) LTD    698384620V     COMM'N JUNE'13 130712005460      CU1562                 
00007056001008340017235T.VINOD KUMAR       23000000000000000000000SLR7056011001108629401DU PAL (PVT) LTD    881201240V     COMM'N JUNE'13 130712004932      CU1562                 
00007056001008890026039P.G.THILINA MADUSANK23000000000000000425949SLR7056011001108629401DU PAL (PVT) LTD    901680329V     COMM'N JUNE'13 130712003582      CU1562                 
00007056001008890025851B.W.G.W.M.BUDDIKA PR23000000000000000000000SLR7056011001108629401DU PAL (PVT) LTD    871171971V     COMM'N JUNE'13 130712004380      CU1562                 
00007056001008340025389BALAKRISHNAN SUDHARS23000000000000000897000SLR7056011001108629401DU PAL (PVT) LTD    903394021V     COMM'N JUNE'13 130712004752      CU1562                 
00007135157200180038083P.T.H.P.I.SIRIWARDAN23000000000000005715098SLR7056011001108629401DU PAL (PVT) LTD    912530442V     COMM'N JUNE'13 130712005121      CU1562                 
00007287017001660986101M.V.L.P.A.KUMARI    23000000000000001784177SLR7056011001108629401DU PAL (PVT) LTD    765471060V     COMM'N JUNE'13 130712003288      CU1562                 
00007083015015020148819T.I.H.GAMAGE        23000000000000002890732SLR7056011001108629401DU PAL (PVT) LTD    851341749V     COMM'N JUNE'13 130712005535      CU1562                 
00007010598000074425579A.M.S.BANU          23000000000000001038383SLR7056011001108629401DU PAL (PVT) LTD    925531561V     COMM'N JUNE'13 130712003684      CU1562                 
00007135022200120011808J.M.B.G.A.D.JAYASING23000000000000000626049SLR7056011001108629401DU PAL (PVT) LTD    906402130V     COMM'N JUNE'13 130712005256      CU1562                 
00007135158200140016501S.B.AZAM            23000000000000001185543SLR7056011001108629401DU PAL (PVT) LTD    925132705V     COMM'N JUNE'13 130712005478      CU1562                 
00007278001100754035639U.D.HEWAGA          23000000000000000000000SLR7056011001108629401DU PAL (PVT) LTD    916450060V     COMM'N JUNE'13 130712004884      CU1562                 
00007056001008172000312MAHAROOF JUMAN      23000000000000000945163SLR7056011001108629401DU PAL (PVT) LTD    831251506V     COMM'N JUNE'13 130712004200      CU1562                 
00007135220200230030561G.K.M.N.S.KAVIRAJ   23000000000000005724601SLR7056011001108629401DU PAL (PVT) LTD    721241300V     COMM'N JUNE'13 130712004671      CU1562                 
00007135220200161114667G.A.WIMALAWARDHANA  23000000000000001201664SLR7056011001108629401DU PAL (PVT) LTD    781650560V     COMM'N JUNE'13 130712004134      CU1562                 
00007056001008185001796G.G.M.P.JAYAWARDHANA23000000000000002787492SLR7056011001108629401DU PAL (PVT) LTD    758210774V     COMM'N JUNE'13 130712004806      CU1562                 
00007311044443878840215P.G.G.DILSHAN       23000000000000001750027SLR7056011001108629401DU PAL (PVT) LTD    911835088V     COMM'N JUNE'13 130712004020      CU1562                 
00007010549000071375028I.S.ATHAPATHTHU     23000000000000000889429SLR7056011001108629401DU PAL (PVT) LTD    855720728V     COMM'N JUNE'13 130712004170      CU1562                 
00007056001008530026417S.H.T.BUDDIKA       23000000000000007907474SLR7056011001108629401DU PAL (PVT) LTD    722063538V     COMM'N JUNE'13 130712005430      CU1562                 
00007056001008880015117S.M.S. SAMARAKOON   23000000000000000078194SLR7056011001108629401DU PAL (PVT) LTD    781181269V     COMM'N JUNE'13 130712004449      CU1562                 
00007010006000008597524D.P.V. WEERASINGHE  23000000000000000131355SLR7056011001108629401DU PAL (PVT) LTD    713052183V     COMM'N JUNE'13 130712004683      CU1562                 
00007056001008530030242D.M.I.W.G.T.KEERTHI 23000000000000002493701SLR7056011001108629401DU PAL (PVT) LTD    730490046V     COMM'N JUNE'13 130712004791      CU1562                 
00007056001008148002155J.DHARMASENA        23000000000000000000000SLR7056011001108629401DU PAL (PVT) LTD    621002228V     COMM'N JUNE'13 130712004308      CU1562                 
00007287021002100801101J.A.M.P.JAYASINGHE  23000000000000003362054SLR7056011001108629401DU PAL (PVT) LTD    766092926V     COMM'N JUNE'13 130712003897      CU1562                 
00007056001008530002528T.M.P.U.LAKMAL      23000000000000000000000SLR7056011001108629401DU PAL (PVT) LTD    850950466V     COMM'N JUNE'13 130712004959      CU1562                 
00007010022000001565965S.H.M.T.S.HEWAGE    23000000000000001211565SLR7056011001108629401DU PAL (PVT) LTD    868022892V     COMM'N JUNE'13 130712004689      CU1562                 
00007056001008530037682W.T.L.SUMANATHILAKE 23000000000000002627324SLR7056011001108629401DU PAL (PVT) LTD    930960624V     COMM'N JUNE'13 130712003990      CU1562                 
00007056001008185002016S.D.ABEYKOON        23000000000000002531834SLR7056011001108629401DU PAL (PVT) LTD    748472860V     COMM'N JUNE'13 130712005400      CU1562                 
00007056001008185002021L.D.B.M.FERNANDO    23000000000000000000000SLR7056011001108629401DU PAL (PVT) LTD    871930422V     COMM'N JUNE'13 130712004464      CU1562                 
00007135242002070180000A.M.C.D. BANDARA    23000000000000001786703SLR7056011001108629401DU PAL (PVT) LTD    712243740V     COMM'N JUNE'13 130712004785      CU1562                 
00007056001008530022375A.A.N.HETTIARACHCHI 23000000000000002758570SLR7056011001108629401DU PAL (PVT) LTD    812310780V     COMM'N JUNE'13 130712004689      CU1562                 
00007010022000072973006S.R.RANATHUNGA      23000000000000000838471SLR7056011001108629401DU PAL (PVT) LTD    782093932V     COMM'N JUNE'13 130712004317      CU1562                 
00007010098000001481953K.R.C.KARUNARATHNA  23000000000000000000000SLR7056011001108629401DU PAL (PVT) LTD    846430610V     COMM'N JUNE'13 130712004812      CU1562                 
00007083010010020261002W.M.S.PADIVITA      23000000000000000000000SLR7056011001108629401DU PAL (PVT) LTD    838143393V     COMM'N JUNE'13 130712005070      CU1562                 
00007135008200298118387D.M.KUMARA          23000000000000000000000SLR7056011001108629401DU PAL (PVT) LTD    792030718V     COMM'N JUNE'13 130712004653      CU1562                 
00007056001008530017870A.N.G.D.S.N.NANAYAKK23000000000000000547184SLR7056011001108629401DU PAL (PVT) LTD    812112155V     COMM'N JUNE'13 130712004611      CU1562                 
00007010432000071423852K.G.N.S.WIJESIRI    23000000000000005661012SLR7056011001108629401DU PAL (PVT) LTD    891950179V     COMM'N JUNE'13 130712006039      CU1562                 
00007056001008185001396D.M.BRAYAN          23000000000000001076811SLR7056011001108629401DU PAL (PVT) LTD    850880514V     COMM'N JUNE'13 130712004080      CU1562                 
00007056001008320022298M.N.M.IRSHAD        23000000000000000000000SLR7056011001108629401DU PAL (PVT) LTD    870281471V     COMM'N JUNE'13 130712004626      CU1562                 
00007010432000072999535W.L.P.LIYANAGE      23000000000000000000000SLR7056011001108629401DU PAL (PVT) LTD    926013343V     COMM'N JUNE'13 130712005430      CU1562                 
00007010217000009753615S.SENARATHNA        23000000000000000000000SLR7056011001108629401DU PAL (PVT) LTD    643621380V     COMM'N JUNE'13 130712005223      CU1562                 
00007083034034020247196I.U.BANDARA         23000000000000002435557SLR7056011001108629401DU PAL (PVT) LTD    800860733V     COMM'N JUNE'13 130712003888      CU1562                 
00007010022000009856580I.G.A.S.VIDURUWAN   23000000000000001964364SLR7056011001108629401DU PAL (PVT) LTD    820481674V     COMM'N JUNE'13 130712004371      CU1562                 
00007010217000005697612H.K.M.MARSHUK       23000000000000000000000SLR7056011001108629401DU PAL (PVT) LTD    740100599V     COMM'N JUNE'13 130712005034      CU1562                 
00007056001008370033935N.M.FAIZAL          23000000000000002816024SLR7056011001108629401DU PAL (PVT) LTD    802563779V     COMM'N JUNE'13 130712004839      CU1562                 
00007278001100653519153G.W.KUMARA          23000000000000000127867SLR7056011001108629401DU PAL (PVT) LTD    750373739V     COMM'N JUNE'13 130712005127      CU1562                 
00007056001008300006477S.J.FONSEKA         23000000000000008123343SLR7056011001108629401DU PAL (PVT) LTD    701771435V     COMM'N JUNE'13 130712003963      CU1562                 
00007083071071020185642S.L.M.S.H.NUWAN     23000000000000003263047SLR7056011001108629401DU PAL (PVT) LTD    922911924V     COMM'N JUNE'13 130712004395      CU1562                 
00007056001008820001083M.C.R.MUNASINGHE    23000000000000001148662SLR7056011001108629401DU PAL (PVT) LTD    910631721V     COMM'N JUNE'13 130712004371      CU1562                 
00007056001008300031548P.P.C.GUNATHUNGA    23000000000000001370426SLR7056011001108629401DU PAL (PVT) LTD    932613182V     COMM'N JUNE'13 130712004434      CU1562                 
00007010688000009593162W.G.L.NIROSHANI     23000000000000001706306SLR7056011001108629401DU PAL (PVT) LTD    737780090V     COMM'N JUNE'13 130712004851      CU1562                 
00007287020033363005101J.W.P.WIJESIRI      23000000000000001104154SLR7056011001108629401DU PAL (PVT) LTD    777624377V     COMM'N JUNE'13 130712003861      CU1562                 
00007056001008820020512N.K.C.H.KUMARI      23000000000000000198498SLR7056011001108629401DU PAL (PVT) LTD    926802216V     COMM'N JUNE'13 130712004992      CU1562                 
00007056001008149004198F.D.D.L.PERERA      23000000000000000189349SLR7056011001108629401DU PAL (PVT) LTD    935542596V     COMM'N JUNE'13 130712005013      CU1562                 
00007010057000003195647M.D.T.WIMALATHUNGA  23000000000000000969046SLR7056011001108629401DU PAL (PVT) LTD    940430895V     COMM'N JUNE'13 130712003120      CU1562                 
00007056001008700033044W.D.A.H.GUNATHILAKA 23000000000000003341376SLR7056011001108629401DU PAL (PVT) LTD    920901352V     COMM'N JUNE'13 130712004863      CU1562                 
00007056001008133012059V.Prasad            23000000000000001943523SLR7056011001108629401DU PAL (PVT) LTD    922763097V     COMM'N JUNE'13 130712003882      CU1562                 
00007056001008820014918M.DASARATHA ANURADHA23000000000000002517849SLR7056011001108629401DU PAL (PVT) LTD    840382150V     COMM'N JUNE'13 130712004422      CU1562                 
00007056001008300031718C.S.K.DADALLAGE     23000000000000005273435SLR7056011001108629401DU PAL (PVT) LTD    902542086V     COMM'N JUNE'13 130712004338      CU1562                 
00007056001008300015010J.R.CHANDANAYAKA    23000000000000001238496SLR7056011001108629401DU PAL (PVT) LTD    841110625V     COMM'N JUNE'13 130712003636      CU1562                 
00007010517000074137680A.D.UDAYANGANI      23000000000000001476569SLR7056011001108629401DU PAL (PVT) LTD    918321420V     COMM'N JUNE'13 130712004398      CU1562                 
00007056001008300033209H.M.S.K.GUNAWARDANA 23000000000000000907908SLR7056011001108629401DU PAL (PVT) LTD    812784064V     COMM'N JUNE'13 130712003363      CU1562                 
00007135295200110031519T.M.GALAGEDARA      23000000000000001530410SLR7056011001108629401DU PAL (PVT) LTD    867902511V     COMM'N JUNE'13 130712003423      CU1562                 
00007056001008300033503K.A.A.D.Priyadarshan23000000000000001342384SLR7056011001108629401DU PAL (PVT) LTD    830491635V     COMM'N JUNE'13 130712005664      CU1562                 
00007056001008490033802E.K.ARUNA PRABATH   23000000000000000854959SLR7056011001108629401DU PAL (PVT) LTD    912274098V     COMM'N JUNE'13 130712004800      CU1562                 
00007010092000007015185W.G.D.T.Bandara     23000000000000007943778SLR7056011001108629401DU PAL (PVT) LTD    871262063V     COMM'N JUNE'13 130712002925      CU1562                 
00007056001008136001258W.M.N.CHATHURANGA   23000000000000003949112SLR7056011001108629401DU PAL (PVT) LTD    872261303V     COMM'N JUNE'13 130712005085      CU1562                 
00007056001008200044699M.G.U.WANIGARATHNA  23000000000000000395746SLR7056011001108629401DU PAL (PVT) LTD    671670086V     COMM'N JUNE'13 130712005910      CU1562                 
00007135014200180004334K.S.JAYASOORIYA ARAC23000000000000000028876SLR7056011001108629401DU PAL (PVT) LTD    912910113V     COMM'N JUNE'13 130712005019      CU1562                 
00007278001103353344964A.G.P.SAMANMALI     23000000000000000041005SLR7056011001108629401DU PAL (PVT) LTD    766300499V     COMM'N JUNE'13 130712005415      CU1562                 
00007010089000002915452I.D.N.DESHAPRIYA    23000000000000007999155SLR7056011001108629401DU PAL (PVT) LTD    871833362V     COMM'N JUNE'13 130712004686      CU1562                 
00007056001008190001474H.M.R.A.K.HERATH    23000000000000001337124SLR7056011001108629401DU PAL (PVT) LTD    762602466V     COMM'N JUNE'13 130712003975      CU1562                 
00007056001008211001754P.G.C.SANDALEKA     23000000000000000000000SLR7056011001108629401DU PAL (PVT) LTD    935040981V     COMM'N JUNE'13 130712005295      CU1562                 
00007278001107054170303W.H.NUPEARACHCHI    23000000000000000915213SLR7056011001108629401DU PAL (PVT) LTD    895524263V     COMM'N JUNE'13 130712005100      CU1562                 
00007287043033442924101S.P.T.JAYALATH      23000000000000000000000SLR7056011001108629401DU PAL (PVT) LTD    933432742V     COMM'N JUNE'13 130712005139      CU1562                 
00007278001106954058913B.SAYURI            23000000000000000923075SLR7056011001108629401DU PAL (PVT) LTD    938310378V     COMM'N JUNE'13 130712003918      CU1562                 
00007135080200340002199P.D.L.LAKRUWANI     23000000000000001048820SLR7056011001108629401DU PAL (PVT) LTD    925410608V     COMM'N JUNE'13 130712004587      CU1562                 
00007083076076020164158W.A.JAYAWARDANA     23000000000000000000000SLR7056011001108629401DU PAL (PVT) LTD    898170241V     COMM'N JUNE'13 130712005550      CU1562                 
00007056001008106021564A.THUVARAKA         23000000000000000968424SLR7056011001108629401DU PAL (PVT) LTD    867311459V     COMM'N JUNE'13 130712003591      CU1562                 
00007056001008204005126K.D.V.UPUL CHANDRASI23000000000000000805508SLR7056011001108629401DU PAL (PVT) LTD    651791138V     COMM'N JUNE'13 130712004275      CU1562                 
00007056001008131008626H.A.T.PALINDRA HEENP23000000000000000864616SLR7056011001108629401DU PAL (PVT) LTD    928443418V     COMM'N JUNE'13 130712005292      CU1562                 
00007719012100128110310P.C.A.KUMARA        23000000000000008941948SLR7056011001108629401DU PAL (PVT) LTD    802863640V     COMM'N JUNE'13 130712005364      CU1562                 
00007056001008170012255S.D.N.P.K.JAYAMANNA 23000000000000000000000SLR7056011001108629401DU PAL (PVT) LTD    852252235V     COMM'N JUNE'13 130712004830      CU1562                 
00007056001008147011608C.C.GAMAGE          23000000000000000000000SLR7056011001108629401DU PAL (PVT) LTD    812050699V     COMM'N JUNE'13 130712004626      CU1562                 
00007083160160020020706M.N.M.ASIF          23000000000000003977874SLR7056011001108629401DU PAL (PVT) LTD    931300881V     COMM'N JUNE'13 130712004266      CU1562                 
00007083064064020132816K.D.I.L.SAMANMALI   23000000000000001250101SLR7056011001108629401DU PAL (PVT) LTD    828171119V     COMM'N JUNE'13 130712004065      CU1562                 
00007056001008130003561K.V.S.I.KEKULAWALA  23000000000000004613757SLR7056011001108629401DU PAL (PVT) LTD    713642169V     COMM'N JUNE'13 130712003771      CU1562                 
00007135208200180321354H.M.T.I.KARIYAWASAM 23000000000000000626676SLR7056011001108629401DU PAL (PVT) LTD    817544037V     COMM'N JUNE'13 130712004716      CU1562                 
00007287070033414104101A.G.D.S.LAKSHITHA   23000000000000001108464SLR7056011001108629401DU PAL (PVT) LTD    911350203V     COMM'N JUNE'13 130712004830      CU1562                 
00007056001008370001886S.H.SAKIYA          23000000000000000000000SLR7056011001108629401DU PAL (PVT) LTD    885171214V     COMM'N JUNE'13 130712005772      CU1562                 
00007287062033333094101R.S.AMARASEKARA     23000000000000000971120SLR7056011001108629401DU PAL (PVT) LTD    931023845V     COMM'N JUNE'13 130712004572      CU1562                 
00007010721000071298714C.S.Dahanayaka      23000000000000005078654SLR7056011001108629401DU PAL (PVT) LTD    712491884V     COMM'N JUNE'13 130712005217      CU1562                 
00007278001109753495304M.C.S.PERERA        23000000000000000000000SLR7056011001108629401DU PAL (PVT) LTD    902873961V     COMM'N JUNE'13 130712005025      CU1562                 
00007056001008320024869A.A.M.MISYAATH      23000000000000000000000SLR7056011001108629401DU PAL (PVT) LTD     881822458V    COMM'N JUNE'13 130712004203      CU1562                 
00007010039000000484203G.S.SALLAY          23000000000000000000000SLR7056011001108629401DU PAL (PVT) LTD    896540637V     COMM'N JUNE'13 130712004398      CU1562                 
00007083009000090696718S.LOGESWARAN        23000000000000004043132SLR7056011001108629401DU PAL (PVT) LTD    812460315V     COMM'N JUNE'13 130712004926      CU1562                 
00007056001008690037933S.J.Perera          23000000000000002063698SLR7056011001108629401DU PAL (PVT) LTD    813092670V     COMM'N JUNE'13 130712004137      CU1562                 
00007056001008127011632M.RUBAJINI          23000000000000001157827SLR7056011001108629401DU PAL (PVT) LTD    818285795V     COMM'N JUNE'13 130712003738      CU1562                 
00007056001008100090127S.MURUGIAH          23000000000000000916870SLR7056011001108629401DU PAL (PVT) LTD    825741216X     COMM'N JUNE'13 130712004368      CU1562                 
00007056001008100090251M.BABANI            23000000000000000909758SLR7056011001108629401DU PAL (PVT) LTD    838613918V     COMM'N JUNE'13 130712004191      CU1562                 
00007278001102553844759W.G.S.BANDARA       23000000000000007382884SLR7056011001108629401DU PAL (PVT) LTD    840520609V     COMM'N JUNE'13 130712005409      CU1562                 
00007135019200120009332K.P.S.FERNANDO      23000000000000000120382SLR7056011001108629401DU PAL (PVT) LTD    875811762V     COMM'N JUNE'13 130712004923      CU1562                 
00007287011031429470101A.V.D.VIMUKTHA      23000000000000001643497SLR7056011001108629401DU PAL (PVT) LTD    752292558V     COMM'N JUNE'13 130712003570      CU1562                 
00007083039039020167751W.W.W.J.N.FERNANDO  23000000000000001194143SLR7056011001108629401DU PAL (PVT) LTD    923000186V     COMM'N JUNE'13 130712005049      CU1562                 
00007010039000000487962C.D.P.K.BANDARA     23000000000000000000000SLR7056011001108629401DU PAL (PVT) LTD    930223794V     COMM'N JUNE'13 130712003327      CU1562                 
00007056001008180036184B.G.D.DUSHANTHA     23000000000000003180480SLR7056011001108629401DU PAL (PVT) LTD    931341642V     COMM'N JUNE'13 130712004869      CU1562                 
00007056001008430009628M.I.M. INJATH       23000000000000012921215SLR7056011001108629401DU PAL (PVT) LTD    882354156V     COMM'N JUNE'13 130712006003      CU1562                 
00007056001008165001259S.L.CHANDRASENA     23000000000000000000000SLR7056011001108629401DU PAL (PVT) LTD    880040049V     COMM'N JUNE'13 130712004704      CU1562                 
00007056001008390013754M.I.M.SAFRAS        23000000000000001099800SLR7056011001108629401DU PAL (PVT) LTD    861552420V     COMM'N JUNE'13 130712004020      CU1562                 
00007056001008170010897S.P.KANTH           23000000000000001274226SLR7056011001108629401DU PAL (PVT) LTD    860233266V     COMM'N JUNE'13 130712003756      CU1562                 
00007056001008690050821M.S.P.KUMARA        23000000000000003375745SLR7056011001108629401DU PAL (PVT) LTD    882282066V     COMM'N JUNE'13 130712004839      CU1562                 
00007278001100453125662J.M.C.JAYASEKARA    23000000000000004148267SLR7056011001108629401DU PAL (PVT) LTD    820931858V     COMM'N JUNE'13 130712004677      CU1562                 
00007719083100835001820K.V.HENADEERA       23000000000000003207698SLR7056011001108629401DU PAL (PVT) LTD    903650044V     COMM'N JUNE'13 130712003714      CU1562                 
00007056001008170010707S.D.PALLIYAGURU     23000000000000003593401SLR7056011001108629401DU PAL (PVT) LTD    880771620V     COMM'N JUNE'13 130712003837      CU1562                 
00007056001008590037608H.J.THEJANI SILVA   23000000000000000839199SLR7056011001108629401DU PAL (PVT) LTD    716532356V     COMM'N JUNE'13 130712004101      CU1562                 
00007056001008560030509S.G.A.KUMAR         23000000000000000000000SLR7056011001108629401DU PAL (PVT) LTD    931862529V     COMM'N JUNE'13 130712005220      CU1562                 
00007056001008770034216H.M.S.K.S.BANDARA   23000000000000001406942SLR7056011001108629401DU PAL (PVT) LTD    622020092V     COMM'N JUNE'13 130712004299      CU1562                 
00007278001109554203904P.G.R.WIMALASENA    23000000000000000000000SLR7056011001108629401DU PAL (PVT) LTD    760315095V     COMM'N JUNE'13 130712005184      CU1562                 
00007056001008170010836D.M.T.T.DASANAYAKA  23000000000000001690092SLR7056011001108629401DU PAL (PVT) LTD    920550053V     COMM'N JUNE'13 130712005199      CU1562                 
00007056001008170011081P.M.M.ZAHARAN       23000000000000006414261SLR7056011001108629401DU PAL (PVT) LTD    870750650V     COMM'N JUNE'13 130712004122      CU1562                 
00007056001008460030270D.P.KODAGODA        23000000000000000000000SLR7056011001108629401DU PAL (PVT) LTD    872512861V     COMM'N JUNE'13 130712005400      CU1562                 
00007056001008214000857K.M.RAJAPAKSHA      23000000000000002030414SLR7056011001108629401DU PAL (PVT) LTD    872862536V     COMM'N JUNE'13 130712003615      CU1562                 
00007056001008870024386W.A.C.L.KUMARA      23000000000000004838662SLR7056011001108629401DU PAL (PVT) LTD    933532461V     COMM'N JUNE'13 130712004539      CU1562                 
00007056001008106020968R.PRABA             23000000000000000000000SLR7056011001108629401DU PAL (PVT) LTD    922074178V     COMM'N JUNE'13 130712004344      CU1562                 
00007056001008106020969S.SIVAKUMAR         23000000000000000000000SLR7056011001108629401DU PAL (PVT) LTD    920242073V     COMM'N JUNE'13 130712004260      CU1562                 
00007278001102350128759J.MUDALALIGE LASANTH23000000000000001370522SLR7056011001108629401DU PAL (PVT) LTD    750480276V     COMM'N JUNE'13 130712005661      CU1562                 
00007056001008110000430W.P.SURANGA         23000000000000003285326SLR7056011001108629401DU PAL (PVT) LTD    801991483V     COMM'N JUNE'13 130712004461      CU1562                 
00007287002001480944101D.W.S.SANJEEWA      23000000000000000000000SLR7056011001108629401DU PAL (PVT) LTD    782385135V     COMM'N JUNE'13 130712003834      CU1562                 
00007056001008123006409D.C.JAYASEKARA      23000000000000001644775SLR7056011001108629401DU PAL (PVT) LTD    850893250V     COMM'N JUNE'13 130712004047      CU1562                 
00007056001008070012002Y.R.LIANAARACHCHI   23000000000000003065790SLR7056011001108629401DU PAL (PVT) LTD    800490189V     COMM'N JUNE'13 130712003369      CU1562                 
00007135067200110011227M.M.S.AHAMAD        23000000000000001806030SLR7056011001108629401DU PAL (PVT) LTD    902733868V     COMM'N JUNE'13 130712004032      CU1562                 
00007010592000071813971S.L.R.WIJESIRI      23000000000000001400634SLR7056011001108629401DU PAL (PVT) LTD    890303994V     COMM'N JUNE'13 130712003825      CU1562                 
00007056001008181001702Y.M.WIJESINGHE      23000000000000000168958SLR7056011001108629401DU PAL (PVT) LTD    937121695V     COMM'N JUNE'13 130712005106      CU1562                 
00007056001008166000746H.M.IMITIYAS MOHOMEA23000000000000000515344SLR7056011001108629401DU PAL (PVT) LTD    862213572V     COMM'N JUNE'13 130712003555      CU1562                 
00007135188200150037473O.D.NISHSHANKA      23000000000000003843150SLR7056011001108629401DU PAL (PVT) LTD    912761614V     COMM'N JUNE'13 130712003363      CU1562                 
00007056001008270023700K.L.N.JAYALATH      23000000000000001272446SLR7056011001108629401DU PAL (PVT) LTD    720974673V     COMM'N JUNE'13 130712004812      CU1562                 
00007135077200170015735J.D.C.DE SILVA      23000000000000001954005SLR7056011001108629401DU PAL (PVT) LTD    912584232V     COMM'N JUNE'13 130712005832      CU1562                 
00007056001008151008425B.L.T.SANDAMALI     23000000000000000412500SLR7056011001108629401DU PAL (PVT) LTD    925792390V     COMM'N JUNE'13 130712004974      CU1562                 
00007056001008620030940K.S.M.PERERA        23000000000000000093439SLR7056011001108629401DU PAL (PVT) LTD    951010340V     COMM'N JUNE'13 130712005553      CU1562                 
00007056001008270041437K.L.A.E.MADHUSANKA  23000000000000002200181SLR7056011001108629401DU PAL (PVT) LTD    890081878V     COMM'N JUNE'13 130712004557      CU1562                 
00007056001008270026498M.A.ASHIK           23000000000000004218254SLR7056011001108629401DU PAL (PVT) LTD    773333076V     COMM'N JUNE'13 130712003978      CU1562                 
00007010537000073889799W.G.NAVODA          23000000000000000137527SLR7056011001108629401DU PAL (PVT) LTD    941793940V     COMM'N JUNE'13 130712004224      CU1562                 
00007719003109038009155A.H.S.N.PRIYALAL    23000000000000000979753SLR7056011001108629401DU PAL (PVT) LTD    932261154V     COMM'N JUNE'13 130712003819      CU1562                 
00007056001008135007492M.N.M.HAYAS         23000000000000003306866SLR7056011001108629401DU PAL (PVT) LTD    912121879V     COMM'N JUNE'13 130712005304      CU1562                 
00007056001008270052287R.H.D.SANJEEWA      23000000000000001756006SLR7056011001108629401DU PAL (PVT) LTD    800444942V     COMM'N JUNE'13 130712004752      CU1562                 
00007056001008270052116M.K.A.SUJEEWAN      23000000000000000000000SLR7056011001108629401DU PAL (PVT) LTD    880123440V     COMM'N JUNE'13 130712005097      CU1562                 
00007056001008070036695M.G.T.THIWANKA      23000000000000000000000SLR7056011001108629401DU PAL (PVT) LTD    932910950V     COMM'N JUNE'13 130712004170      CU1562                 
00007083013013020352001K.D.D.MADUSHANKA    23000000000000000202789SLR7056011001108629401DU PAL (PVT) LTD    931931628V     COMM'N JUNE'13 130712004077      CU1562                 
00007056001008129006181H.W.N.MAHEETHA      23000000000000001002198SLR7056011001108629401DU PAL (PVT) LTD    930492213V     COMM'N JUNE'13 130712004077      CU1562                 
00007056001008270048931N.D.WEKUNUGODAGE    23000000000000000942093SLR7056011001108629401DU PAL (PVT) LTD    893063730V     COMM'N JUNE'13 130712004014      CU1562                 
00007056001008270049082D.P.M.SRIMANTHA     23000000000000000919908SLR7056011001108629401DU PAL (PVT) LTD    890861083V     COMM'N JUNE'13 130712005208      CU1562                 
00007056001008050020692T.H.CHANDREAKEERTHI 23000000000000000000000SLR7056011001108629401DU PAL (PVT) LTD    801861288V     COMM'N JUNE'13 130712005421      CU1562                 
00007056001008270053073H.G.NADEESHA RANGI  23000000000000000786384SLR7056011001108629401DU PAL (PVT) LTD    846931643V     COMM'N JUNE'13 130712004035      CU1562                 
00007135207200170012074W.M.S.K.H.WIJESUNDAR23000000000000006847076SLR7056011001108629401DU PAL (PVT) LTD    792951775V     COMM'N JUNE'13 130712004773      CU1562                 
00007056001008810020257P.B.D.E.FERNANDO    23000000000000001499597SLR7056011001108629401DU PAL (PVT) LTD    846111069V     COMM'N JUNE'13 130712004179      CU1562                 
00007278001100654027310R.N.WICKRAMASINGHE  23000000000000000652587SLR7056011001108629401DU PAL (PVT) LTD    781532290V     COMM'N JUNE'13 130712004557      CU1562                 
00007010009000071786823W.A.D.I.T.PREMASINGH23000000000000001230204SLR7056011001108629401DU PAL (PVT) LTD    878331052V     COMM'N JUNE'13 130712004065      CU1562                 
00007010379000005827025W.G.A.D.GAMLATH     23000000000000000000000SLR7056011001108629401DU PAL (PVT) LTD    921482795V     COMM'N JUNE'13 130712004083      CU1562                 
00007010068000072284110J.A.R.S.JAYANETHTHIA23000000000000000000000SLR7056011001108629401DU PAL (PVT) LTD    921631022V     COMM'N JUNE'13 130712003867      CU1562                 
00007278001105353308091M.D.B.SENARATHNA    23000000000000001002346SLR7056011001108629401DU PAL (PVT) LTD    761930028V     COMM'N JUNE'13 130712004311      CU1562                 
00007056001008160058321S.M.S.P.SENANAYAKA  23000000000000002779747SLR7056011001108629401DU PAL (PVT) LTD    542020130X     COMM'N JUNE'13 130712004179      CU1562                 
00007056001008160071539H.W.D.B.KASTHURIMANI23000000000000000067648SLR7056011001108629401DU PAL (PVT) LTD    867120300V     COMM'N JUNE'13 130712003792      CU1562                 
00007135241200180038633S.D.M.S.N.SMARAKKODI23000000000000000000000SLR7056011001108629401DU PAL (PVT) LTD    900550952V     COMM'N JUNE'13 130712004917      CU1562                 
00007719771107718000727W.M.A.PUSHPAKUMARA  23000000000000000000000SLR7056011001108629401DU PAL (PVT) LTD    860903717V     COMM'N JUNE'13 130712004689      CU1562                 
00007135012200150438443M.R.M.S.PRIYARATHNA 23000000000000000000000SLR7056011001108629401DU PAL (PVT) LTD    727360999V     COMM'N JUNE'13 130712004578      CU1562                 
00007287018032360494101P.P.KULATHUNGA      23000000000000001460888SLR7056011001108629401DU PAL (PVT) LTD    632383010V     COMM'N JUNE'13 130712004407      CU1562                 
00007056001008160041107R.P.I.U.N.SENANAYAKE23000000000000000252150SLR7056011001108629401DU PAL (PVT) LTD    810684500V     COMM'N JUNE'13 130712004308      CU1562                 
00007135089200140030641H.G.WIMALARATHNA    23000000000000000000000SLR7056011001108629401DU PAL (PVT) LTD    573204050V     COMM'N JUNE'13 130712004548      CU1562                 
00007135334200170036596N.G.A.P.Wijesekara  23000000000000005333208SLR7056011001108629401DU PAL (PVT) LTD    721683362V     COMM'N JUNE'13 130712004524      CU1562                 
00007083023023020237698W.K.S.A.BANDARA     23000000000000000000000SLR7056011001108629401DU PAL (PVT) LTD    790333462V     COMM'N JUNE'13 130712005190      CU1562                 
00007056001008160073240E.P.S.M.DARMATHILAKA23000000000000000000000SLR7056011001108629401DU PAL (PVT) LTD    940964350V     COMM'N JUNE'13 130712004587      CU1562                 
00007278001100650302669H.M.S.P.DHARMASIRI  23000000000000000000000SLR7056011001108629401DU PAL (PVT) LTD    808523248V     COMM'N JUNE'13 130712005304      CU1562                 
00007135163200160009431A.M.K.ADIKARI       23000000000000000999964SLR7056011001108629401DU PAL (PVT) LTD    718230292V     COMM'N JUNE'13 130712003687      CU1562                 
00007719017100170424617W.W.I.NILANTHI      23000000000000001736387SLR7056011001108629401DU PAL (PVT) LTD    766423400V     COMM'N JUNE'13 130712005139      CU1562                 
00007010549000003876554R.M.P.RATHNAYAKE    23000000000000002149530SLR7056011001108629401DU PAL (PVT) LTD    653182361V     COMM'N JUNE'13 130712003582      CU1562                 
00007056001008600016198E.P.S.K.EDIRISINGHE 23000000000000000000000SLR7056011001108629401DU PAL (PVT) LTD    790571215V     COMM'N JUNE'13 130712005454      CU1562                 
00007056001008182001120H.P.S.DESHAPRIYA    23000000000000000000000SLR7056011001108629401DU PAL (PVT) LTD    722932625V     COMM'N JUNE'13 130712005448      CU1562                 
00007135012200110031011H.M.K.HERATH        23000000000000001887634SLR7056011001108629401DU PAL (PVT) LTD    765830060V     COMM'N JUNE'13 130712004728      CU1562                 
00007056001008160018686S.H.D.SRIKANTHA     23000000000000001646340SLR7056011001108629401DU PAL (PVT) LTD    786203945V     COMM'N JUNE'13 130712004800      CU1562                 
00007010379000000922221D.M.R.Disanayakae   23000000000000001454228SLR7056011001108629401DU PAL (PVT) LTD    722561031V     COMM'N JUNE'13 130712003525      CU1562                 
00007010379000005524555H.M.S.K.PRIYADARSHAN23000000000000000000000SLR7056011001108629401DU PAL (PVT) LTD    797491489V     COMM'N JUNE'13 130712004293      CU1562                 
00007010564000008153600M.N.M.NUSRATH       23000000000000000000000SLR7056011001108629401DU PAL (PVT) LTD    893561013V     COMM'N JUNE'13 130712005166      CU1562                 
00007719709107090105376H.D.A.LAKSIRI       23000000000000000000000SLR7056011001108629401DU PAL (PVT) LTD    701663071V     COMM'N JUNE'13 130712003771      CU1562                 
00007010172000005428351K.M.DANAPALA        23000000000000000339441SLR7056011001108629401DU PAL (PVT) LTD    650861337V     COMM'N JUNE'13 130712005391      CU1562                 
00007056001008174001777Y.M.P.YAPA          23000000000000000000000SLR7056011001108629401DU PAL (PVT) LTD    803302081V     COMM'N JUNE'13 130712004473      CU1562                 
00007010088000009470644P.G.N.K.RANASINGHE  23000000000000003623615SLR7056011001108629401DU PAL (PVT) LTD    881953781V     COMM'N JUNE'13 130712005700      CU1562                 
00007278001109553308702O.P.M.RANGANATH     23000000000000000000000SLR7056011001108629401DU PAL (PVT) LTD    881384264V     COMM'N JUNE'13 130712005073      CU1562                 
00007010743000071472884A.M.N.N.ATHTHANAYAKA23000000000000000000000SLR7056011001108629401DU PAL (PVT) LTD    932254654V     COMM'N JUNE'13 130712004197      CU1562                 
00007056001008160016364F.M.IRFAN           23000000000000000000000SLR7056011001108629401DU PAL (PVT) LTD    822482023X     COMM'N JUNE'13 130712005169      CU1562                 
00007056001008161003326I.M.A.ISMAIL        23000000000000000111604SLR7056011001108629401DU PAL (PVT) LTD    942022352V     COMM'N JUNE'13 130712003741      CU1562                 
00007010564000073317075I.M.IMRAS           23000000000000000000000SLR7056011001108629401DU PAL (PVT) LTD    900351410V     COMM'N JUNE'13 130712004596      CU1562                 
00007056001008450018937M.A.K.M.ARSHATH     23000000000000000280874SLR7056011001108629401DU PAL (PVT) LTD    922190909V     COMM'N JUNE'13 130712004809      CU1562                 
00007278001110953603651M.R.M.Rikaz         23000000000000001887903SLR7056011001108629401DU PAL (PVT) LTD    842130468V     COMM'N JUNE'13 130712004758      CU1562                 
00007056001008160073635K.M.C.L.BANDARA     23000000000000001038134SLR7056011001108629401DU PAL (PVT) LTD    921443838V     COMM'N JUNE'13 130712004530      CU1562                 
00007056001008160074849H.M.MANOJ SURANGA   23000000000000001563491SLR7056011001108629401DU PAL (PVT) LTD    822480373V     COMM'N JUNE'13 130712005397      CU1562                 
00007010009000072150853P.D.C.D.ARIYAWANSHA 23000000000000004220720SLR7056011001108629401DU PAL (PVT) LTD    762933284V     COMM'N JUNE'13 130712003651      CU1562                 
00007010009000070330862R.NEWTON            23000000000000001459905SLR7056011001108629401DU PAL (PVT) LTD    652360203V     COMM'N JUNE'13 130712003933      CU1562                 
00007010513000070672851A.A.P.D.KUMARA      23000000000000002451535SLR7056011001108629401DU PAL (PVT) LTD    683555282V     COMM'N JUNE'13 130712004422      CU1562                 
00007056001008160056041N.T.D.S.KUMARA      23000000000000002549852SLR7056011001108629401DU PAL (PVT) LTD    651942918V     COMM'N JUNE'13 130712003996      CU1562                 
00007287018032441420101K.G.D.D.D.WIJERATHNA23000000000000004836903SLR7056011001108629401DU PAL (PVT) LTD    823500947V     COMM'N JUNE'13 130712003906      CU1562                 
00007135199200190014538T.G.H.WIKUMSIRI     23000000000000000247614SLR7056011001108629401DU PAL (PVT) LTD    862171446V     COMM'N JUNE'13 130712004407      CU1562                 
00007083019019020424136M.M.SIFAN           23000000000000001066182SLR7056011001108629401DU PAL (PVT) LTD    890831559V     COMM'N JUNE'13 130712005862      CU1562                 
00007056001008161002776R.M.D.J.H.ABERATHNA 23000000000000000099318SLR7056011001108629401DU PAL (PVT) LTD    650590376V     COMM'N JUNE'13 130712004287      CU1562                 
00007287018001635075101R.H.G.E.K.RANASINGHE23000000000000001314358SLR7056011001108629401DU PAL (PVT) LTD    831391650V     COMM'N JUNE'13 130712003126      CU1562                 
00007056001008160074691R.Saldin Mohamed    23000000000000000000000SLR7056011001108629401DU PAL (PVT) LTD    761763172V     COMM'N JUNE'13 130712004338      CU1562                 
00007056001008160039826L.S.K.DALADAWATHTHAG23000000000000002651930SLR7056011001108629401DU PAL (PVT) LTD    887693721V     COMM'N JUNE'13 130712004338      CU1562                 
00007056001008710004501A.M.I.HEMATHILAKA AD23000000000000000651602SLR7056011001108629401DU PAL (PVT) LTD    811311642V     COMM'N JUNE'13 130712003894      CU1562                 
00007056001008432484601G.Raveendran        23000000000000004524346SLR7056011001108629401DU PAL (PVT) LTD    780661445V     COMM'N JUNE'13 130712005961      CU1562                 
00007056001008114015822P.G.H.FERNANDO      23000000000000000000000SLR7056011001108629401DU PAL (PVT) LTD    842211239V     COMM'N JUNE'13 130712004773      CU1562                 
00007135024200160010716G.SHEREEN           23000000000000001255463SLR7056011001108629401DU PAL (PVT) LTD    906360888V     COMM'N JUNE'13 130712004791      CU1562                 
00007056001008430026521C.N.P.CROOS         23000000000000000083710SLR7056011001108629401DU PAL (PVT) LTD    881051605V     COMM'N JUNE'13 130712003261      CU1562                 
00007287015002022072101M.R.D.H.BANDARA     23000000000000000413532SLR7056011001108629401DU PAL (PVT) LTD    861882853V     COMM'N JUNE'13 130712003381      CU1562                 
00007056001008430023291H.M.P.K.THILAKAWARDA23000000000000001161116SLR7056011001108629401DU PAL (PVT) LTD    803621446V     COMM'N JUNE'13 130712004128      CU1562                 
00007010050000008975187D.C.C.FERNANDO      23000000000000000000000SLR7056011001108629401DU PAL (PVT) LTD    783610329V     COMM'N JUNE'13 130712004023      CU1562                 
00007056001008106015953N.M.JAMSY           23000000000000000886328SLR7056011001108629401DU PAL (PVT) LTD    800612438V     COMM'N JUNE'13 130712004299      CU1562                 
00007278001100650120218A.M.N.W.M.H.P.ATHURU23000000000000007119475SLR7056011001108629401DU PAL (PVT) LTD    771273009V     COMM'N JUNE'13 130712004185      CU1562                 
00007056001008122002471L.H.W.S.DE SILVA    23000000000000000000000SLR7056011001108629401DU PAL (PVT) LTD    748392092V     COMM'N JUNE'13 130712005355      CU1562                 
00007056001008550010847K.S.SILVA           23000000000000001987723SLR7056011001108629401DU PAL (PVT) LTD    650110196V     COMM'N JUNE'13 130712003780      CU1562                 
00007135207200160024869R.K.D.M.R.P.M.K.BOGA23000000000000000000000SLR7056011001108629401DU PAL (PVT) LTD    932341212V     COMM'N JUNE'13 130712004251      CU1562                 
00007056001008550017724M.M.K.W.KEERTHI     23000000000000000841082SLR7056011001108629401DU PAL (PVT) LTD    632480199V     COMM'N JUNE'13 130712003522      CU1562                 
00007056001008160067239A.G.N.S.BANDARA     23000000000000002087198SLR7056011001108629401DU PAL (PVT) LTD    852203242V     COMM'N JUNE'13 130712004206      CU1562                 
00007287018001414194101D.M.D.Nalaka Karunar23000000000000000000000SLR7056011001108629401DU PAL (PVT) LTD    761992554V     COMM'N JUNE'13 130712003885      CU1562                 
00007010009000070585856D.A.W.MADARI        23000000000000002764592SLR7056011001108629401DU PAL (PVT) LTD    827703656V     COMM'N JUNE'13 130712004395      CU1562                 
00007287018032360834101E.M.S.K.EKANAYAKE   23000000000000001360520SLR7056011001108629401DU PAL (PVT) LTD    783311160V     COMM'N JUNE'13 130712004332      CU1562                 
00007056001008430014640A.CHANDRAPALA       23000000000000001118956SLR7056011001108629401DU PAL (PVT) LTD    660031995V     COMM'N JUNE'13 130712004497      CU1562                 
00007056001008510010826H.M.M.CHANDRASIRI   23000000000000000932900SLR7056011001108629401DU PAL (PVT) LTD    643130297V     COMM'N JUNE'13 130712005733      CU1562                 
00007056001008160073844M.T.M.AHAMED        23000000000000000000000SLR7056011001108629401DU PAL (PVT) LTD    932142198V     COMM'N JUNE'13 130712004800      CU1562                 
00007278001105353570803G.S.GOVINDA         23000000000000002421708SLR7056011001108629401DU PAL (PVT) LTD    870510799V     COMM'N JUNE'13 130712005793      CU1562                 
00007287010032412297101K.G.I.S.NAYANANADA  23000000000000000086531SLR7056011001108629401DU PAL (PVT) LTD    817940560V     COMM'N JUNE'13 130712004200      CU1562                 
00007135149002070483509S.A.D.M.AMARAWANSHA 23000000000000002742077SLR7056011001108629401DU PAL (PVT) LTD    878403215V     COMM'N JUNE'13 130712003798      CU1562                 
00007287010033468808101T.M.T.K.BANDARA     23000000000000000000000SLR7056011001108629401DU PAL (PVT) LTD    930891711V     COMM'N JUNE'13 130712004941      CU1562                 
00007083041041020175709P.K.I.KUMARA        23000000000000000000000SLR7056011001108629401DU PAL (PVT) LTD    731782636V     COMM'N JUNE'13 130712003912      CU1562                 
00007287063032530518101M.M.M.MUBEEN        23000000000000000000000SLR7056011001108629401DU PAL (PVT) LTD    832510459V     COMM'N JUNE'13 130712004092      CU1562                 
00007010498000005689003U.P.R.S.PATHIRANA   23000000000000001463724SLR7056011001108629401DU PAL (PVT) LTD    852812028V     COMM'N JUNE'13 130712003477      CU1562                 
00007083089089020127412A.R.D.NILMINI       23000000000000000551115SLR7056011001108629401DU PAL (PVT) LTD    886723636V     COMM'N JUNE'13 130712004038      CU1562                 
00007719018100180300799A.A.RUWAN KUMARA    23000000000000000801187SLR7056011001108629401DU PAL (PVT) LTD    941081096V     COMM'N JUNE'13 130712004800      CU1562                 
00007056001008120050858I.D.C.S.MAHINDU     23000000000000004177017SLR7056011001108629401DU PAL (PVT) LTD    853340537V     COMM'N JUNE'13 130712004299      CU1562                 
00007135119200143714509Kosala Kaduruwana   23000000000000001025102SLR7056011001108629401DU PAL (PVT) LTD    821271169V     COMM'N JUNE'13 130712005082      CU1562                 
00007135054200134871875K.GUNASENA          23000000000000001513628SLR7056011001108629401DU PAL (PVT) LTD    541872698V     COMM'N JUNE'13 130712003852      CU1562                 
00007056001008690051491K.N.S.PERERA        23000000000000003437317SLR7056011001108629401DU PAL (PVT) LTD    835483827V     COMM'N JUNE'13 130712003819      CU1562                 
00007056001008106020661B.P.N.PERERA        23000000000000003497609SLR7056011001108629401DU PAL (PVT) LTD    907341976V     COMM'N JUNE'13 130712004773      CU1562                 
00007056001008760027544D.M.D.DISSANAKAKE   23000000000000001809975SLR7056011001108629401DU PAL (PVT) LTD    726331251V     COMM'N JUNE'13 130712005244      CU1562                 
00007056001008258003254K.C.JAYASINGHE      23000000000000000975122SLR7056011001108629401DU PAL (PVT) LTD    897110431V     COMM'N JUNE'13 130712004653      CU1562                 
00007056001008106021562R.M.U.PRIYADARSHANI 23000000000000000336240SLR7056011001108629401DU PAL (PVT) LTD    906901110V     COMM'N JUNE'13 130712004695      CU1562                 
00007278001108153461448W.N.K.RANATHUNGE    23000000000000004221735SLR7056011001108629401DU PAL (PVT) LTD    750812090V     COMM'N JUNE'13 130712004725      CU1562                 
00007056001008800023083D.M.M.B.DASSANAYAKE 23000000000000002081510SLR7056011001108629401DU PAL (PVT) LTD    822900917V     COMM'N JUNE'13 130712003912      CU1562                 
00007719748107488001561M.C.N.KULATHUNGA    23000000000000003777333SLR7056011001108629401DU PAL (PVT) LTD    856152600V     COMM'N JUNE'13 130712004791      CU1562                 
00007056001008136005142R.B.C.H.JAYATHILAKA 23000000000000001638607SLR7056011001108629401DU PAL (PVT) LTD    868591200V     COMM'N JUNE'13 130712004146      CU1562                 
00007287029033337331101T.M.A.G.D.P.K.TENNAK23000000000000000000000SLR7056011001108629401DU PAL (PVT) LTD    822143865V     COMM'N JUNE'13 130712005493      CU1562                 
00007010002000071655042H.S.R.WEERASOORIYA  23000000000000000000000SLR7056011001108629401DU PAL (PVT) LTD    733620846V     COMM'N JUNE'13 130712004293      CU1562                 
00007083053053020143051R.M.N.JAYAWARDHANA  23000000000000000000000SLR7056011001108629401DU PAL (PVT) LTD    771931294V     COMM'N JUNE'13 130712004722      CU1562                 
00007056001008100900985B.M.SENAVIRATHNA    23000000000000000000000SLR7056011001108629401DU PAL (PVT) LTD    570922998V     COMM'N JUNE'13 130712004965      CU1562                 
00007135058200230016484W.W.M.WIJEKOON      23000000000000000000000SLR7056011001108629401DU PAL (PVT) LTD    660560866V     COMM'N JUNE'13 130712005235      CU1562                 
00007287057002452959101L.M.C.P.WIJESEKARA  23000000000000001993651SLR7056011001108629401DU PAL (PVT) LTD    880342304V     COMM'N JUNE'13 130712003954      CU1562                 
00007056001008120911663S.VIJAYKANTH        23000000000000000000000SLR7056011001108629401DU PAL (PVT) LTD    882633233V     COMM'N JUNE'13 130712004461      CU1562                 
00007056001008116007005K.A.S.PUSHPAKUMARA  23000000000000003632389SLR7056011001108629401DU PAL (PVT) LTD    812732781V     COMM'N JUNE'13 130712004170      CU1562                 
00007056001008750019727R.A.Leelarathna     23000000000000000000000SLR7056011001108629401DU PAL (PVT) LTD    733421630V     COMM'N JUNE'13 130712003975      CU1562                 
00007056001008560045108I.W.M.H.PRADEEP     23000000000000000000000SLR7056011001108629401DU PAL (PVT) LTD    881980622V     COMM'N JUNE'13 130712004191      CU1562                 
00007719002100020807095K.A.U.INDIKA        23000000000000000883013SLR7056011001108629401DU PAL (PVT) LTD    742430286V     COMM'N JUNE'13 130712004791      CU1562                 
00007719012109070170992P.H.R.PERERA        23000000000000000000000SLR7056011001108629401DU PAL (PVT) LTD    821632960V     COMM'N JUNE'13 130712004845      CU1562                 
00007056001008143012591T.A.I.INDIKA        23000000000000000000000SLR7056011001108629401DU PAL (PVT) LTD    820035615V     COMM'N JUNE'13 130712004605      CU1562                 
00007278001101650221290K.K.S.W.KUMARA      23000000000000000000000SLR7056011001108629401DU PAL (PVT) LTD    810310995V     COMM'N JUNE'13 130712005088      CU1562                 
00007719057100570421073E.A.Abewardhana     23000000000000000091308SLR7056011001108629401DU PAL (PVT) LTD    623383040V     COMM'N JUNE'13 130712004503      CU1562                 
00007278001102253555967D.D.T.VITHANAGE     23000000000000004802923SLR7056011001108629401DU PAL (PVT) LTD    791134234V     COMM'N JUNE'13 130712004941      CU1562                 
00007056001008700033861A. Weerasekara      23000000000000000000000SLR7056011001108629401DU PAL (PVT) LTD    533413544 V    COMM'N JUNE'13 130712004950      CU1562                 
00007056001008840016830S.SUJEEWA           23000000000000000000000SLR7056011001108629401DU PAL (PVT) LTD    737291960V     COMM'N JUNE'13 130712004566      CU1562                 
00007056001008230029104S.A.VIJITHA         23000000000000000000000SLR7056011001108629401DU PAL (PVT) LTD    888423427V     COMM'N JUNE'13 130712004863      CU1562                 
00007278001113754151856S.N.MADHUWANTHI     23000000000000000000000SLR7056011001108629401DU PAL (PVT) LTD    877062015V     COMM'N JUNE'13 130712005277      CU1562                 
00007278001102254191302M.N.S.KARUNARATHNA  23000000000000000000000SLR7056011001108629401DU PAL (PVT) LTD    903343265V     COMM'N JUNE'13 130712005193      CU1562                 
00007056001008700037337N.G.R.D.R.GAMLATH   23000000000000001629424SLR7056011001108629401DU PAL (PVT) LTD    922840091V     COMM'N JUNE'13 130712004158      CU1562                 
00007056001008500036451D.K.R.WEERASINGHE   23000000000000001014189SLR7056011001108629401DU PAL (PVT) LTD    927370468V     COMM'N JUNE'13 130712004134      CU1562                 
00007056001008770037918W.A.D.N.CHANDIKA KUM23000000000000000854801SLR7056011001108629401DU PAL (PVT) LTD    933580075V     COMM'N JUNE'13 130712003669      CU1562                 
00007056001008320013369E.M.A.P.BANDARA EKAN23000000000000001322292SLR7056011001108629401DU PAL (PVT) LTD    762580543V     COMM'N JUNE'13 130712004836      CU1562                 
00007278001102250018956K.B.S.R.BANDARA     23000000000000004122324SLR7056011001108629401DU PAL (PVT) LTD    781363189V     COMM'N JUNE'13 130712003465      CU1562                 
00007719057100578021368P.A.T.R.PERERA      23000000000000000000000SLR7056011001108629401DU PAL (PVT) LTD    791830684V     COMM'N JUNE'13 130712004533      CU1562                 
00007719043100438838089T.P.K.FERNANDO      23000000000000000000000SLR7056011001108629401DU PAL (PVT) LTD    856533280V     COMM'N JUNE'13 130712004542      CU1562                 
00007278001102254192757B.U.D.FERNANDO      23000000000000000000000SLR7056011001108629401DU PAL (PVT) LTD    895053287V     COMM'N JUNE'13 130712004851      CU1562                 
00007278001102050080711W.H.T.N.PATHMINEE   23000000000000001452474SLR7056011001108629401DU PAL (PVT) LTD    676610103V     COMM'N JUNE'13 130712005397      CU1562                 
00007278001102253763409B.M.B.FERNANDO      23000000000000000594260SLR7056011001108629401DU PAL (PVT) LTD    810741554V     COMM'N JUNE'13 130712005241      CU1562                 
00007056001008131008976S.VASHIKARAN        23000000000000000128836SLR7056011001108629401DU PAL (PVT) LTD    933342484V     COMM'N JUNE'13 130712005250      CU1562                 
00007056001008227001545S.A.MOHAMED FAHIM   23000000000000000000000SLR7056011001108629401DU PAL (PVT) LTD    692170903V     COMM'N JUNE'13 130712004092      CU1562                 
00007083097097020198044M.F.M.SALMAN        23000000000000000000000SLR7056011001108629401DU PAL (PVT) LTD    922512752V     COMM'N JUNE'13 130712005232      CU1562                 
00007010642000001908739W.G.M.C.SOMASIRI    23000000000000000000000SLR7056011001108629401DU PAL (PVT) LTD    921920121V     COMM'N JUNE'13 130712004782      CU1562                 
00007278001111153973692M.M.RUKSHAN         23000000000000000000000SLR7056011001108629401DU PAL (PVT) LTD    931842960V     COMM'N JUNE'13 130712004599      CU1562                 
00007056001008460007782H.P.H.PREMATHILAKA  23000000000000000000000SLR7056011001108629401DU PAL (PVT) LTD    771722636V     COMM'N JUNE'13 130712004770      CU1562                 
00007083056056020056714R.A.C.M.ROOPASINGHE 23000000000000000423249SLR7056011001108629401DU PAL (PVT) LTD    942540426V     COMM'N JUNE'13 130712003471      CU1562                 
00007056001008209003292H.K.K.KEVIN THARINDU23000000000000000160427SLR7056011001108629401DU PAL (PVT) LTD    951261521V     COMM'N JUNE'13 130712004542      CU1562                 
00007278001102153543638R.A.A.K.RANASINGHE  23000000000000000117950SLR7056011001108629401DU PAL (PVT) LTD    762581760V     COMM'N JUNE'13 130712004686      CU1562                 
00007056001008530000166H.M.R.P.HERATH      23000000000000000000000SLR7056011001108629401DU PAL (PVT) LTD    691533379V     COMM'N JUNE'13 130712004566      CU1562                 
00007056001008160074779S.D.VIRAJ SENARATHNE23000000000000000000000SLR7056011001108629401DU PAL (PVT) LTD    911311801V     COMM'N JUNE'13 130712004938      CU1562                 
00007056001008520025398P.H.S.SWARNAMALI    23000000000000000674554SLR7056011001108629401DU PAL (PVT) LTD    926364448V     COMM'N JUNE'13 130712004758      CU1562                 
00007056001008137000397B.M.J.KUMARA        23000000000000003208762SLR7056011001108629401DU PAL (PVT) LTD    711681736V     COMM'N JUNE'13 130712003726      CU1562                 
00007135214200160012206M.A.M.ASHIK         23000000000000000000000SLR7056011001108629401DU PAL (PVT) LTD    943591270V     COMM'N JUNE'13 130712004608      CU1562                 
00007056001008107017428B.THANUSHAN         23000000000000000000000SLR7056011001108629401DU PAL (PVT) LTD    911723239V     COMM'N JUNE'13 130712004593      CU1562                 
00007056001008127012955S.THANUSHANTH       23000000000000000000000SLR7056011001108629401DU PAL (PVT) LTD    910922742V     COMM'N JUNE'13 130712005532      CU1562                 
00007056001008140001222E.R.NALAKA          23000000000000000896340SLR7056011001108629401DU PAL (PVT) LTD    783521849V     COMM'N JUNE'13 130712004206      CU1562                 
00007056001008270053326W.A.L.K.MADUSHANKA P23000000000000000000000SLR7056011001108629401DU PAL (PVT) LTD    922101221V     COMM'N JUNE'13 130712005355      CU1562                 
00007056001008163001482W.A.S.K.WIMALASIRI  23000000000000000167542SLR7056011001108629401DU PAL (PVT) LTD    853254860V     COMM'N JUNE'13 130712004020      CU1562                 
00007056001008320028148M.FARISTAR MOHAMED  23000000000000000125475SLR7056011001108629401DU PAL (PVT) LTD    932870657V     COMM'N JUNE'13 130712003879      CU1562                 
00007278001103554080748P.L.A.U.KESHAN      23000000000000001308564SLR7056011001108629401DU PAL (PVT) LTD    910370405V     COMM'N JUNE'13 130712005337      CU1562                 
00007056001008103010374H.G.P.GAMAGE        23000000000000000000000SLR7056011001108629401DU PAL (PVT) LTD    841750853V     COMM'N JUNE'13 130712004599      CU1562                 
00007056001008120016786K.SUGANTHAN         23000000000000002010203SLR7056011001108629401DU PAL (PVT) LTD    752371202V     COMM'N JUNE'13 130712005295      CU1562                 
00007135064200140034224M.I.NAIYOOB         23000000000000000000000SLR7056011001108629401DU PAL (PVT) LTD    920393950V     COMM'N JUNE'13 130712005052      CU1562                 
00007056001008038364301A.M.M.RINOS         23000000000000000086340SLR7056011001108629401DU PAL (PVT) LTD    751490909V     COMM'N JUNE'13 130712004752      CU1562                 
00007278001112353752562D.M.ABEYWARNA       23000000000000003323921SLR7056011001108629401DU PAL (PVT) LTD    733592680V     COMM'N JUNE'13 130712003846      CU1562                 
00007056001008730007400K.M.M.P.BANDARA     23000000000000000000000SLR7056011001108629401DU PAL (PVT) LTD    792243525V     COMM'N JUNE'13 130712004890      CU1562                 
00007056001008150904552H.M.V.KULATHUNGA    23000000000000003628335SLR7056011001108629401DU PAL (PVT) LTD    570780107V     COMM'N JUNE'13 130712003609      CU1562                 
00007056001008700005146E.A.A.EDIRISINGHE   23000000000000000000000SLR7056011001108629401DU PAL (PVT) LTD    583183531V     COMM'N JUNE'13 130712004911      CU1562                 
00007135029200201099246W.A.D.G.WETHTHASINGE23000000000000000000000SLR7056011001108629401DU PAL (PVT) LTD    580072224V     COMM'N JUNE'13 130712004794      CU1562                 
00007278001108153591993H.M.H.N.SENAVIRATHNA23000000000000000000000SLR7056011001108629401DU PAL (PVT) LTD    893574123V     COMM'N JUNE'13 130712005175      CU1562                 
00007287100033467216101K.K.T.MADUSHAN      23000000000000000000000SLR7056011001108629401DU PAL (PVT) LTD    923311246V     COMM'N JUNE'13 130712005802      CU1562                 
00007056001008320028185F.ZUHARA NILAFER    23000000000000000065907SLR7056011001108629401DU PAL (PVT) LTD    827471690V     COMM'N JUNE'13 130712003948      CU1562                 
00007056001008121024512A.T.D.DILHAN PERERA 23000000000000000052148SLR7056011001108629401DU PAL (PVT) LTD    942802188V     COMM'N JUNE'13 130712003705      CU1562                 
00007056001008106020090A.ANTHANY NICHOLAS  23000000000000000052519SLR7056011001108629401DU PAL (PVT) LTD    850384649V     COMM'N JUNE'13 130712004941      CU1562                 
00007056001008730012607W.G.D.WEERASINGHE   23000000000000001097431SLR7056011001108629401DU PAL (PVT) LTD    733610727V     COMM'N JUNE'13 130712004827      CU1562                 
00007056001008040072805K.W.D.M.JAYAWEERA   23000000000000000818311SLR7056011001108629401DU PAL (PVT) LTD    896901311V     COMM'N JUNE'13 130712005538      CU1562                 
00007287057032317811101W.R.N.KULASOORIYA   23000000000000000000000SLR7056011001108629401DU PAL (PVT) LTD    766110223V     COMM'N JUNE'13 130712005166      CU1562                 
00007719741107410104833W.A.R.N.WIJESOORIYA 23000000000000000000000SLR7056011001108629401DU PAL (PVT) LTD    732430350V     COMM'N JUNE'13 130712004101      CU1562                 
00007056001008108038332S.SRIKANTHARANGANATH23000000000000001265402SLR7056011001108629401DU PAL (PVT) LTD    907302636V     COMM'N JUNE'13 130712004944      CU1562                 
00007278001106654191471D.B.N.N.DHARMASENA  23000000000000000000000SLR7056011001108629401DU PAL (PVT) LTD    753052097V     COMM'N JUNE'13 130712004284      CU1562                 
00007135112200150033630M.A.W.DHARMASRI     23000000000000000808849SLR7056011001108629401DU PAL (PVT) LTD    781351342V     COMM'N JUNE'13 130712004767      CU1562                 
00007056001008800000341R.M.S.PRIYANGA      23000000000000000000000SLR7056011001108629401DU PAL (PVT) LTD    751891121V     COMM'N JUNE'13 130712005094      CU1562                 
00007056001008127000533L.A.JESUTHASAN      23000000000000000000000SLR7056011001108629401DU PAL (PVT) LTD    840374106V     COMM'N JUNE'13 130712004269      CU1562                 
00007056001008106001661K.RAJEEV            23000000000000000000000SLR7056011001108629401DU PAL (PVT) LTD    832353655V     COMM'N JUNE'13 130712005241      CU1562                 
00007056001008153007870U.CHRISTHURAJA      23000000000000000809891SLR7056011001108629401DU PAL (PVT) LTD    937734271V     COMM'N JUNE'13 130712004836      CU1562                 
00007056001008040028161K.B.D.M.SAMARATHUNGA23000000000000000039485SLR7056011001108629401DU PAL (PVT) LTD    805223154V     COMM'N JUNE'13 130712004206      CU1562                 
00007056001008124002097W.G.G.Indrajith Gala23000000000000000327181SLR7056011001108629401DU PAL (PVT) LTD    772320884V     COMM'N JUNE'13 130712005244      CU1562                 
00007287045001364878101T.lakmal            23000000000000000000000SLR7056011001108629401DU PAL (PVT) LTD    910171763V     COMM'N JUNE'13 130712004548      CU1562                 
00007010049000006224926M.S.Maduranga       23000000000000000000000SLR7056011001108629401DU PAL (PVT) LTD    892721831V     COMM'N JUNE'13 130712003933      CU1562                 
00007056001008820019936R.M.I.L.Gunarathna  23000000000000000000000SLR7056011001108629401DU PAL (PVT) LTD    928342980V     COMM'N JUNE'13 130712004812      CU1562                 
00007056001008880023444Chirath Chathuranga 23000000000000005239215SLR7056011001108629401DU PAL (PVT) LTD    891790074V     COMM'N JUNE'13 130712005043      CU1562                 
00007056001008970019070P.H.L.De Silva      23000000000000003096871SLR7056011001108629401DU PAL (PVT) LTD    902161848V     COMM'N JUNE'13 130712004914      CU1562                 
00007056001008980020455J.N.T.AKALANKA      23000000000000002841085SLR7056011001108629401DU PAL (PVT) LTD    910660497V     COMM'N JUNE'13 130712004230      CU1562                 
00007056001008140026882D.S.C.P.DISSANAYAKA 23000000000000000102282SLR7056011001108629401DU PAL (PVT) LTD    912930939V     COMM'N JUNE'13 130712003978      CU1562                 
00007056001008330028282G.K.R.W.KUMARA      23000000000000003050814SLR7056011001108629401DU PAL (PVT) LTD    830351922V     COMM'N JUNE'13 130712003807      CU1562                 
00007056001008270051581S.A.C.LIYANAGE      23000000000000000000000SLR7056011001108629401DU PAL (PVT) LTD    796471760V     COMM'N JUNE'13 130712005082      CU1562                 
00007056001008970026870K.S.PRIYANGA DE SILV23000000000000000785099SLR7056011001108629401DU PAL (PVT) LTD    921841248V     COMM'N JUNE'13 130712004236      CU1562                 
00007056001008140028752Nishantha  Wickramas23000000000000001825985SLR7056011001108629401DU PAL (PVT) LTD    911260212V     COMM'N JUNE'13 130712004671      CU1562                 
00007135087200170009535P.L.K.THILINA       23000000000000000000000SLR7056011001108629401DU PAL (PVT) LTD    911534827V     COMM'N JUNE'13 130712004143      CU1562                 
00007056001008270049440M.S.M.Fawzan        23000000000000000000000SLR7056011001108629401DU PAL (PVT) LTD    942551770V     COMM'N JUNE'13 130712005106      CU1562                 
00007056001008112017456G.K.M.B.MALSHAN     23000000000000000000000SLR7056011001108629401DU PAL (PVT) LTD    932131994V     COMM'N JUNE'13 130712005196      CU1562                 
00007056001008350024563L.C.P.KUMARA        23000000000000000199925SLR7056011001108629401DU PAL (PVT) LTD    942792042V     COMM'N JUNE'13 130712004062      CU1562                 
00007056001008135000754D.Chandrakumara     23000000000000005945609SLR7056011001108629401DU PAL (PVT) LTD    791620929V     COMM'N JUNE'13 130712004602      CU1562                 
00007056001008270048549S.L.Chamara Vijethil23000000000000002567846SLR7056011001108629401DU PAL (PVT) LTD    941662919V     COMM'N JUNE'13 130712004533      CU1562                 
00007056001008270047384D.L.K.Sajith Kumara 23000000000000002401384SLR7056011001108629401DU PAL (PVT) LTD    920910548V     COMM'N JUNE'13 130712004431      CU1562                 
00007056001008280024392K.R.Gunasekara      23000000000000002550462SLR7056011001108629401DU PAL (PVT) LTD    793131674V     COMM'N JUNE'13 130712004359      CU1562                 
00007056001008270051001C.U.N.N.HEWAWASAM   23000000000000000192562SLR7056011001108629401DU PAL (PVT) LTD    940282926V     COMM'N JUNE'13 130712004830      CU1562                 
00007056001008270052557N.W.T.M.G.WARNASHANT23000000000000000863085SLR7056011001108629401DU PAL (PVT) LTD    866483540V     COMM'N JUNE'13 130712004386      CU1562                 
00007056001008270046739N.W.T.M.C.MAHESH WAR23000000000000001343899SLR7056011001108629401DU PAL (PVT) LTD    942734328V     COMM'N JUNE'13 130712004107      CU1562                 
00007056001008135000090F.M.Madugalle       23000000000000000000000SLR7056011001108629401DU PAL (PVT) LTD    731740674V     COMM'N JUNE'13 130712005250      CU1562                 
00007056001008270052747T.SHEHAN EDIRISINGHE23000000000000001061099SLR7056011001108629401DU PAL (PVT) LTD    942250840V     COMM'N JUNE'13 130712004719      CU1562                 
00007056001008050020693K.A.GIHAN DANUSHKA  23000000000000000000000SLR7056011001108629401DU PAL (PVT) LTD    851334408V     COMM'N JUNE'13 130712005337      CU1562                 
00007056001008151004369D.P.S.Abediwakara   23000000000000009009472SLR7056011001108629401DU PAL (PVT) LTD    770803314V     COMM'N JUNE'13 130712005313      CU1562                 
00007056001008070035904W.A.Nirodha Buddhapr23000000000000003898973SLR7056011001108629401DU PAL (PVT) LTD    810995556V     COMM'N JUNE'13 130712004242      CU1562                 
00007056001008151009310T.C.WEERASINGHE     23000000000000000911415SLR7056011001108629401DU PAL (PVT) LTD    867673288V     COMM'N JUNE'13 130712005586      CU1562                 
00007056001008350021600M.P.P.KUMARA        23000000000000003019974SLR7056011001108629401DU PAL (PVT) LTD    923291270V     COMM'N JUNE'13 130712004614      CU1562                 
00007056001008104004746P.HASARANGA         23000000000000000783033SLR7056011001108629401DU PAL (PVT) LTD    861411265V     COMM'N JUNE'13 130712005829      CU1562                 
00007056001008930014997W.K.V.ABEYGUNAWARDAN23000000000000001112337SLR7056011001108629401DU PAL (PVT) LTD    823540400V     COMM'N JUNE'13 130712004854      CU1562                 
00007056001008222002750R.A.P.DHARANA GUNATH23000000000000000824544SLR7056011001108629401DU PAL (PVT) LTD    903010380V     COMM'N JUNE'13 130712004596      CU1562                 
00007056001008151009744H.M.THILINA SAMPATH 23000000000000000825915SLR7056011001108629401DU PAL (PVT) LTD    901032793V     COMM'N JUNE'13 130712004230      CU1562                 
00007056001008070032430H.W.DILUKA MADUSHAN 23000000000000002493442SLR7056011001108629401DU PAL (PVT) LTD    862090756V     COMM'N JUNE'13 130712003678      CU1562                 
00007056001008570012861M.M.Farhan          23000000000000000000000SLR7056011001108629401DU PAL (PVT) LTD    873521597V     COMM'N JUNE'13 130712005538      CU1562                 
00007056001008870027432R.Y.Chandima Rahul  23000000000000000000000SLR7056011001108629401DU PAL (PVT) LTD    841202872V     COMM'N JUNE'13 130712004611      CU1562                 
00007056001008130037576H.A.S.K.Appuhamy    23000000000000000000000SLR7056011001108629401DU PAL (PVT) LTD    851600655V     COMM'N JUNE'13 130712004344      CU1562                 
00007056001008960020816W.M.Minura Rashantha23000000000000000000000SLR7056011001108629401DU PAL (PVT) LTD    900531516V     COMM'N JUNE'13 130712004155      CU1562                 
00007056001008570025115M.Z.M.SAFRIN        23000000000000000000000SLR7056011001108629401DU PAL (PVT) LTD    923501533V     COMM'N JUNE'13 130712004686      CU1562                 
00007287006001843076102M.A.Maduranga Udaya 23000000000000001929499SLR7056011001108629401DU PAL (PVT) LTD    802582404V     COMM'N JUNE'13 130712005205      CU1562                 
00007056001008400027302M.M.Muzhir          23000000000000001703647SLR7056011001108629401DU PAL (PVT) LTD    923001450V     COMM'N JUNE'13 130712004761      CU1562                 
00007056001008590013632R.TANOJA DE SILVA   23000000000000000000000SLR7056011001108629401DU PAL (PVT) LTD    713131563V     COMM'N JUNE'13 130712004542      CU1562                 
00007056001008119003191P.K.PUSHPA KUMARA   23000000000000000000000SLR7056011001108629401DU PAL (PVT) LTD    841062540V     COMM'N JUNE'13 130712005283      CU1562                 
00007056001008142009867P.L.D.G.L.Senevirath23000000000000001239148SLR7056011001108629401DU PAL (PVT) LTD    937713940V     COMM'N JUNE'13 130712004272      CU1562                 
00007056001008380019119J.M.C.A.Bandara jaya23000000000000000000000SLR7056011001108629401DU PAL (PVT) LTD    912482863V     COMM'N JUNE'13 130712005181      CU1562                 
00007083087087020257940W.A.P.A.H.Priyasanth23000000000000000000000SLR7056011001108629401DU PAL (PVT) LTD    801963765V     COMM'N JUNE'13 130712004047      CU1562                 
00007056001008106020836E.A.D.PETER         23000000000000000000000SLR7056011001108629401DU PAL (PVT) LTD    553061962V     COMM'N JUNE'13 130712005442      CU1562                 
00007056001008106021316E.M.G.B.dananjanee  23000000000000000000000SLR7056011001108629401DU PAL (PVT) LTD    926680544V     COMM'N JUNE'13 130712005082      CU1562                 
00007056001008170010655P.A.Chathuranga Vish23000000000000003550956SLR7056011001108629401DU PAL (PVT) LTD    883231155V     COMM'N JUNE'13 130712005130      CU1562                 
00007056001008106019375J.A.D.Thilina Shehan23000000000000002677095SLR7056011001108629401DU PAL (PVT) LTD    920392334V     COMM'N JUNE'13 130712004020      CU1562                 
00007056001008690018661H.N.U.Indika        23000000000000000000000SLR7056011001108629401DU PAL (PVT) LTD    731762368V     COMM'N JUNE'13 130712005355      CU1562                 
00007056001008106019958K.C.Kaushalya       23000000000000000000000SLR7056011001108629401DU PAL (PVT) LTD    891061439V     COMM'N JUNE'13 130712004269      CU1562                 
00007056001008106021009W.M.D.WEERASINGHE   23000000000000001657790SLR7056011001108629401DU PAL (PVT) LTD    930902136V     COMM'N JUNE'13 130712003765      CU1562                 
00007056001008770033045A.G.P.SINETH KUMARA 23000000000000000136753SLR7056011001108629401DU PAL (PVT) LTD    931981722V     COMM'N JUNE'13 130712004575      CU1562                 
00007056001008690051896H.K.G.SRIYANI SENEVI23000000000000000000000SLR7056011001108629401DU PAL (PVT) LTD    866581045V     COMM'N JUNE'13 130712005091      CU1562                 
00007056001008460013408T.A.P.U.KUMARA      23000000000000003946077SLR7056011001108629401DU PAL (PVT) LTD    763190536V     COMM'N JUNE'13 130712005361      CU1562                 
00007056001008217003309J.BALACHANDRAN      23000000000000000230497SLR7056011001108629401DU PAL (PVT) LTD    885741100V     COMM'N JUNE'13 130712005370      CU1562                 
00007056001008114000181T.A.R.W.KUMARA      23000000000000001238020SLR7056011001108629401DU PAL (PVT) LTD    800731631V     COMM'N JUNE'13 130712003480      CU1562                 
00007056001008560044570S.RAGUPATHY         23000000000000000956099SLR7056011001108629401DU PAL (PVT) LTD    887041997V     COMM'N JUNE'13 130712004368      CU1562                 
00007056001008320025648M.S.M.ZAHRAN        23000000000000000783861SLR7056011001108629401DU PAL (PVT) LTD    932981416V     COMM'N JUNE'13 130712004494      CU1562                 
00007056001008380020757M.I.MOHAMED FARHAN  23000000000000000070120SLR7056011001108629401DU PAL (PVT) LTD    891822073V     COMM'N JUNE'13 130712004773      CU1562                 
00007056001008620031120H.FATHIMA SUBAITHA  23000000000000000092301SLR7056011001108629401DU PAL (PVT) LTD    887720347V     COMM'N JUNE'13 130712004107      CU1562                 
00007056001008106021542K.A.KASUN GAYAN     23000000000000001233194SLR7056011001108629401DU PAL (PVT) LTD    872484647V     COMM'N JUNE'13 130712003174      CU1562                 
00007056001008106021612S.KUMAR JAYARAM     23000000000000000076515SLR7056011001108629401DU PAL (PVT) LTD    832855294V     COMM'N JUNE'13 130712003555      CU1562                 
00007056001008131009642A.RAMONA THURING    23000000000000000046779SLR7056011001108629401DU PAL (PVT) LTD    867830502V     COMM'N JUNE'13 130712004884      CU1562                 
00007056001008590032430T.M.FERNANDO        23000000000000000866897SLR7056011001108629401DU PAL (PVT) LTD    762292602V     COMM'N JUNE'13 130712005040      CU1562                 
00007056001008440039699L.B.N.PRIYADAMMI    23000000000000000845865SLR7056011001108629401DU PAL (PVT) LTD    795350209V     COMM'N JUNE'13 130712004038      CU1562                 
00007056001008258003644K.G.CHANDRIKA SAJEEW23000000000000000906009SLR7056011001108629401DU PAL (PVT) LTD    876923238V     COMM'N JUNE'13 130712003867      CU1562                 
00007135070200110006799I.S Maddumage       23000000000000000000000SLR7056011001108629401DU PAL (PVT) LTD    872292829V     COMM'N JUNE'13 130712005238      CU1562                 
00007083125125020052119D.D.Indika Sendanaya23000000000000000000000SLR7056011001108629401DU PAL (PVT) LTD    878903771V     COMM'N JUNE'13 130712004764      CU1562                 
00007056001008400017747M.A.Mohamed Arafath 23000000000000000000000SLR7056011001108629401DU PAL (PVT) LTD    882654036V     COMM'N JUNE'13 130712005376      CU1562                 
00007056001008480040294A.M.Shally          23000000000000000000000SLR7056011001108629401DU PAL (PVT) LTD    891072368V     COMM'N JUNE'13 130712005130      CU1562                 
00007135196200170006461M.P.K.D Farnando    23000000000000000000000SLR7056011001108629401DU PAL (PVT) LTD    882491358V     COMM'N JUNE'13 130712003966      CU1562                 
00007056001008480041257S.I.Thennakoon      23000000000000004318699SLR7056011001108629401DU PAL (PVT) LTD    910532375V     COMM'N JUNE'13 130712004227      CU1562                 
00007056001008410037452M.D.Peris           23000000000000000000000SLR7056011001108629401DU PAL (PVT) LTD    480980964V     COMM'N JUNE'13 130712004929      CU1562                 
00007056001008820019897D.M.E.L.Kulathilaka 23000000000000000000000SLR7056011001108629401DU PAL (PVT) LTD    900261217V     COMM'N JUNE'13 130712005091      CU1562                 
00007056001008960010212S.N.Baruhupala      23000000000000000000000SLR7056011001108629401DU PAL (PVT) LTD    891150309V     COMM'N JUNE'13 130712005025      CU1562                 
00007056001008750032324A.W.H.S.Dhanushka   23000000000000003297056SLR7056011001108629401DU PAL (PVT) LTD    933000494V     COMM'N JUNE'13 130712005319      CU1562                 
00007056001008960023437K.Y.M Karunarathne  23000000000000000555279SLR7056011001108629401DU PAL (PVT) LTD    900790503V     COMM'N JUNE'13 130712004023      CU1562                 
00007135070200120004059G.S.Maduranga       23000000000000000000000SLR7056011001108629401DU PAL (PVT) LTD    892180652V     COMM'N JUNE'13 130712004545      CU1562                 
00007056001008290008502H.D.B.Priyadarshana 23000000000000000000000SLR7056011001108629401DU PAL (PVT) LTD    842380669V     COMM'N JUNE'13 130712004146      CU1562                 
00007056001008190041857R.M.N.Dharshani     23000000000000000000000SLR7056011001108629401DU PAL (PVT) LTD    759540901V     COMM'N JUNE'13 130712004875      CU1562                 
00007056001008106020044C.S.Vithanage       23000000000000000000000SLR7056011001108629401DU PAL (PVT) LTD    931630083V     COMM'N JUNE'13 130712005037      CU1562                 
00007056001008110017612Sahan C W M Kumarana23000000000000005885699SLR7056011001108629401DU PAL (PVT) LTD    753203605V     COMM'N JUNE'13 130712005016      CU1562                 
00007278001109453788694K.G.S.Dulanjali     23000000000000000000000SLR7056011001108629401DU PAL (PVT) LTD    755151572V     COMM'N JUNE'13 130712005793      CU1562                 
00007056001008760027116W.A.Ruwan Kumara Gan23000000000000000000000SLR7056011001108629401DU PAL (PVT) LTD    812363395V     COMM'N JUNE'13 130712005349      CU1562                 
00007135072200340007093W.H.G.Sameera Dhammi23000000000000001517097SLR7056011001108629401DU PAL (PVT) LTD    873232790V     COMM'N JUNE'13 130712006486      CU1562                 
00007056001008258002380T.M.Madumalinga Pere23000000000000001871674SLR7056011001108629401DU PAL (PVT) LTD    910370197V     COMM'N JUNE'13 130712004740      CU1562                 
00007010542000071382520W.M.A.Supun Wijethun23000000000000000000000SLR7056011001108629401DU PAL (PVT) LTD    913020685V     COMM'N JUNE'13 130712004569      CU1562                 
00007056001008180037161M.B.M.Pathum Sathsar23000000000000001400412SLR7056011001108629401DU PAL (PVT) LTD    882654257V     COMM'N JUNE'13 130712005403      CU1562                 
00007056001008190041940R.A.Nadeeka Dulanja 23000000000000000981712SLR7056011001108629401DU PAL (PVT) LTD    822394507V     COMM'N JUNE'13 130712004704      CU1562                 
00007056001008930009485L.K.S.Pelpola       23000000000000000050621SLR7056011001108629401DU PAL (PVT) LTD    880473867V     COMM'N JUNE'13 130712004770      CU1562                 
00007010054000071108976H.D.S.I.Kanchana Som23000000000000000005940SLR7056011001108629401DU PAL (PVT) LTD    910460196V     COMM'N JUNE'13 130712003705      CU1562                 
00007056001008410036962E.A.C.Athukorala    23000000000000000000000SLR7056011001108629401DU PAL (PVT) LTD    822232310V     COMM'N JUNE'13 130712004131      CU1562                 
00007056001008258003526H.P.G.D.MADHUSHANKA 23000000000000000000000SLR7056011001108629401DU PAL (PVT) LTD    923554556V     COMM'N JUNE'13 130712004860      CU1562                 
00007056001008500026110M.N.M.Rahumathulla  23000000000000000000000SLR7056011001108629401DU PAL (PVT) LTD    873540478V     COMM'N JUNE'13 130712004854      CU1562                 
00007056001008145008530M.S.M.Safwan        23000000000000000394173SLR7056011001108629401DU PAL (PVT) LTD    872150048V     COMM'N JUNE'13 130712004848      CU1562                 
00007056001008760029118D.D.Chanuka Gunasena23000000000000000000000SLR7056011001108629401DU PAL (PVT) LTD    912784711V     COMM'N JUNE'13 130712005013      CU1562                 
00007056001008530029933R.Lakruwan Kumara   23000000000000000000000SLR7056011001108629401DU PAL (PVT) LTD    903163623V     COMM'N JUNE'13 130712004905      CU1562                 
00007056001008320025188M.R.Rajap           23000000000000000000000SLR7056011001108629401DU PAL (PVT) LTD    931702920V     COMM'N JUNE'13 130712005379      CU1562                 
00007056001008760030702B.V.T.PABASARA      23000000000000000000000SLR7056011001108629401DU PAL (PVT) LTD    863253276V     COMM'N JUNE'13 130712004824      CU1562                 
00007056001008120052466A.S.C.Nirmal Silva  23000000000000000000000SLR7056011001108629401DU PAL (PVT) LTD    902401067V     COMM'N JUNE'13 130712005415      CU1562                 
00007056001008500035033K.C Withanawasam    23000000000000000000000SLR7056011001108629401DU PAL (PVT) LTD    911653141V     COMM'N JUNE'13 130712005328      CU1562                 
00007056001008500035031A.G.L.N.Karunarathne23000000000000000000000SLR7056011001108629401DU PAL (PVT) LTD    913263766V     COMM'N JUNE'13 130712004497      CU1562                 
00007056001008500035032G.H.M.Y.K.Perera    23000000000000000000000SLR7056011001108629401DU PAL (PVT) LTD    912050165V     COMM'N JUNE'13 130712005412      CU1562                 
00007056001008118012755G.R.L.R.Gunawardana 23000000000000000000000SLR7056011001108629401DU PAL (PVT) LTD    915253938V     COMM'N JUNE'13 130712005268      CU1562                 
00007056001008128006075K.P.T.D.Leelarathna 23000000000000000000000SLR7056011001108629401DU PAL (PVT) LTD    790533704V     COMM'N JUNE'13 130712004623      CU1562                 
00007056001008114023092L.C.L.DE SILVA      23000000000000000345878SLR7056011001108629401DU PAL (PVT) LTD    920950647V     COMM'N JUNE'13 130712005133      CU1562                 
00007056001008770006444T.A.MALIK THARAK    23000000000000000051094SLR7056011001108629401DU PAL (PVT) LTD    931942107V     COMM'N JUNE'13 130712004530      CU1562                 
00007056001008258003521C.THAMILCHELVAN     23000000000000001148626SLR7056011001108629401DU PAL (PVT) LTD    800950759V     COMM'N JUNE'13 130712005142      CU1562                 
00007056001008120000483B.ASHOK             23000000000000000024105SLR7056011001108629401DU PAL (PVT) LTD    763261239V     COMM'N JUNE'13 130712004998      CU1562                 
00007056001008100088382S.VANI              23000000000000000059346SLR7056011001108629401DU PAL (PVT) LTD    937810776V     COMM'N JUNE'13 130712004134      CU1562                 
00007056001008210037278G.M.D.KEMASIRI      23000000000000000083864SLR7056011001108629401DU PAL (PVT) LTD    928452590V     COMM'N JUNE'13 130712004155      CU1562                 
00007056001008760027611K.G.S.Kumara        23000000000000010776732SLR7056011001108629401DU PAL (PVT) LTD    861531554V     COMM'N JUNE'13 130712004872      CU1562                 
00007056001008100921641T.P.D.P.Kumara      23000000000000000661850SLR7056011001108629401DU PAL (PVT) LTD    933511294V     COMM'N JUNE'13 130712004533      CU1562                 
00007056001008100921663W.G.G.T.Pradeep Kuma23000000000000000000000SLR7056011001108629401DU PAL (PVT) LTD    930562254V     COMM'N JUNE'13 130712004788      CU1562                 
00007056001008100921653S..G.Samarakoon     23000000000000000467066SLR7056011001108629401DU PAL (PVT) LTD    932272709V     COMM'N JUNE'13 130712004380      CU1562                 
00007056001008180044228M.L.K.Mahawatta     23000000000000001134722SLR7056011001108629401DU PAL (PVT) LTD    932441713V     COMM'N JUNE'13 130712003564      CU1562                 
00007056001008700037909T.C.R.ajapaksha     23000000000000000000000SLR7056011001108629401DU PAL (PVT) LTD    890022502V     COMM'N JUNE'13 130712004335      CU1562                 
00007056001008700014478H.W.Kumaranayake    23000000000000000000000SLR7056011001108629401DU PAL (PVT) LTD    811431010V     COMM'N JUNE'13 130712004995      CU1562                 
00007278001110653743730K.V.Kasun Chamara   23000000000000000000000SLR7056011001108629401DU PAL (PVT) LTD    902011234V     COMM'N JUNE'13 130712004758      CU1562                 
00007056001008290023471L.L.P.Jayasundara   23000000000000000000000SLR7056011001108629401DU PAL (PVT) LTD    863240441V     COMM'N JUNE'13 130712005247      CU1562                 
00007056001008145007464H.C.Mahesh Pathmasir23000000000000001540399SLR7056011001108629401DU PAL (PVT) LTD    850064229V     COMM'N JUNE'13 130712004389      CU1562                 
00007056001008760025702P.GAMAGE            23000000000000001235892SLR7056011001108629401DU PAL (PVT) LTD    722502248V     COMM'N JUNE'13 130712003237      CU1562                 
00007056001008130074603V.M.N.NISHSHANKA    23000000000000000000000SLR7056011001108629401DU PAL (PVT) LTD    901051771V     COMM'N JUNE'13 130712004989      CU1562                 
00007056001008106021309S.HARIPRASATH       23000000000000002717745SLR7056011001108629401DU PAL (PVT) LTD    950180064V     COMM'N JUNE'13 130712004410      CU1562                 
00007056001008160033637H D S K Hewage      23000000000000001307709SLR7056011001108629401DU PAL (PVT) LTD    782422600V     COMM'N JUNE'13 130712004164      CU1562                 
00007056001008330033337A.M.L. Lakmal Karuna23000000000000002396867SLR7056011001108629401DU PAL (PVT) LTD    912981371V     COMM'N JUNE'13 130712004107      CU1562                 
00007719017100170755877M H A N MINIPALAGE  23000000000000000000000SLR7056011001108629401DU PAL (PVT) LTD    852645296V     COMM'N JUNE'13 130712005253      CU1562                 
00007056001008160064329J.M.M.K.JAYAWARDANA 23000000000000001641204SLR7056011001108629401DU PAL (PVT) LTD    818164335V     COMM'N JUNE'13 130712004833      CU1562                 
00007056001008160053019G.A.T.S.Chandrasiri 23000000000000000000000SLR7056011001108629401DU PAL (PVT) LTD    811234265V     COMM'N JUNE'13 130712004338      CU1562                 
00007287018002488943101D.H.A.Rajanandana   23000000000000000000000SLR7056011001108629401DU PAL (PVT) LTD    670760260V     COMM'N JUNE'13 130712004599      CU1562                 
00007278001104853642413L A N I SUMANASIRI  23000000000000001296242SLR7056011001108629401DU PAL (PVT) LTD    851744592V     COMM'N JUNE'13 130712005271      CU1562                 
00007056001008530030251D.G.S.Darmarathna   23000000000000000000000SLR7056011001108629401DU PAL (PVT) LTD    882684288V     COMM'N JUNE'13 130712004167      CU1562                 
00007056001008162003514Kusum priyantha Jaya23000000000000003426126SLR7056011001108629401DU PAL (PVT) LTD    750530060V     COMM'N JUNE'13 130712004221      CU1562                 
00007010022000072280402D.M.T.P.Dissanayake 23000000000000000000000SLR7056011001108629401DU PAL (PVT) LTD    911402513V     COMM'N JUNE'13 130712004572      CU1562                 
00007056001008880025480A.W.L.M.Peiris      23000000000000000000000SLR7056011001108629401DU PAL (PVT) LTD    932311003V     COMM'N JUNE'13 130712004659      CU1562                 
00007056001008250020774M.A.C.A.MARASINGHE  23000000000000000304410SLR7056011001108629401DU PAL (PVT) LTD    781892696V     COMM'N JUNE'13 130712003783      CU1562                 
00007056001008510024433H.M.R.L.KUMARASIRI  23000000000000000000000SLR7056011001108629401DU PAL (PVT) LTD    911901951V     COMM'N JUNE'13 130712004779      CU1562                 
00007056001008730005937B.A.R.K.Nandasena   23000000000000001696869SLR7056011001108629401DU PAL (PVT) LTD    882502422V     COMM'N JUNE'13 130712003879      CU1562                 
00007056001008144012997J.K.A.Rangana       23000000000000000274874SLR7056011001108629401DU PAL (PVT) LTD    913391543V     COMM'N JUNE'13 130712003720      CU1562                 
00007056001008160074235J.C.JAYETHILAKA     23000000000000000000000SLR7056011001108629401DU PAL (PVT) LTD    640591820V     COMM'N JUNE'13 130712004680      CU1562                 
00007010768000070676290N.M.Nelushka Sagara 23000000000000002792705SLR7056011001108629401DU PAL (PVT) LTD    841374320V     COMM'N JUNE'13 130712005361      CU1562                 
00007056001008080029294K.W.A.Kumudu Chamind23000000000000003053538SLR7056011001108629401DU PAL (PVT) LTD    823640730X     COMM'N JUNE'13 130712005499      CU1562                 
00007056001008720017800S.Divaharan         23000000000000000000000SLR7056011001108629401DU PAL (PVT) LTD    911303477V     COMM'N JUNE'13 130712005499      CU1562                 
00007056001008500034891G.K.A.D.Kalansuriya 23000000000000000000000SLR7056011001108629401DU PAL (PVT) LTD    890691242V     COMM'N JUNE'13 130712004269      CU1562                 
00007056001008150911885M.H.G.C.S.Kulasinghe23000000000000000959530SLR7056011001108629401DU PAL (PVT) LTD    910293222V     COMM'N JUNE'13 130712003990      CU1562                 
00007056001008080015942E.G.D.D.B.Ellepola  23000000000000000087452SLR7056011001108629401DU PAL (PVT) LTD    883480511V     COMM'N JUNE'13 130712004059      CU1562                 
00007056001008080009531S.M.M.Z.M.SHELUBEEN 23000000000000003023485SLR7056011001108629401DU PAL (PVT) LTD    751272960V     COMM'N JUNE'13 130712004449      CU1562                 
00007056001008080008656J.P.NUWAN           23000000000000000635137SLR7056011001108629401DU PAL (PVT) LTD    880724630V     COMM'N JUNE'13 130712004968      CU1562                 
00007056001008080037847W.G.S.KUMARA WIJERAT23000000000000000026099SLR7056011001108629401DU PAL (PVT) LTD    711260382V     COMM'N JUNE'13 130712003981      CU1562                 
00007056001008080005121K.A.G.PRIYANTHA SENA23000000000000000000000SLR7056011001108629401DU PAL (PVT) LTD    770352053V     COMM'N JUNE'13 130712005685      CU1562                 
00007135334200150078304S.P.A.M Senarathna  23000000000000001694463SLR7056011001108629401DU PAL (PVT) LTD    801921469V     COMM'N JUNE'13 130712005577      CU1562                 
00007010002000008307543H.Nilani Rangika Rod23000000000000000066461SLR7056011001108629401DU PAL (PVT) LTD    846271562V     COMM'N JUNE'13 130712003900      CU1562                 
00007056001008160021303A.M.S.Abeykoon      23000000000000001604029SLR7056011001108629401DU PAL (PVT) LTD    803524394V     COMM'N JUNE'13 130712004650      CU1562                 
00007056001008167977501H.P.U.Ariyasinghe   23000000000000000000000SLR7056011001108629401DU PAL (PVT) LTD    732973222V     COMM'N JUNE'13 130712004635      CU1562                 
00007056001008160074231D.M.A.DISSANAYAKA   23000000000000001096021SLR7056011001108629401DU PAL (PVT) LTD    832711446V     COMM'N JUNE'13 130712004338      CU1562                 
00007056001008480048227K.P.Vijith Priyantha23000000000000004260781SLR7056011001108629401DU PAL (PVT) LTD    730980264V     COMM'N JUNE'13 130712004359      CU1562                 
00007056001008500034083I.N Sadamali        23000000000000000421664SLR7056011001108629401DU PAL (PVT) LTD    877493555V     COMM'N JUNE'13 130712004761      CU1562                 
00007056001008500034772R.D.Weerasundara    23000000000000001076992SLR7056011001108629401DU PAL (PVT) LTD    905632272V     COMM'N JUNE'13 130712004119      CU1562                 
00007056001008180020060W.G.N.P.Wimalarathna23000000000000002552382SLR7056011001108629401DU PAL (PVT) LTD    811862193V     COMM'N JUNE'13 130712004497      CU1562                 
00007278001115153740917W.L.P.Perera        23000000000000003891457SLR7056011001108629401DU PAL (PVT) LTD    922531331V     COMM'N JUNE'13 130712004284      CU1562                 
00007056001008114025149W.T.LAHIRU DE SILVA 23000000000000000000000SLR7056011001108629401DU PAL (PVT) LTD    951391115V     COMM'N JUNE'13 130712005277      CU1562                 
00007056001008410023468W.K.Steeve Heshan ro23000000000000003049488SLR7056011001108629401DU PAL (PVT) LTD    913313925V     COMM'N JUNE'13 130712004653      CU1562                 
00007135054200190019887K.Thilini DharshanI 23000000000000001180520SLR7056011001108629401DU PAL (PVT) LTD    935281644V     COMM'N JUNE'13 130712004395      CU1562                 
00007056001008930013542G.W.K.PRASAD        23000000000000000000000SLR7056011001108629401DU PAL (PVT) LTD    922760993V     COMM'N JUNE'13 130712005277      CU1562                 
00007278001100954189996A.A.D.S.P.K.ALGAMA  23000000000000001532773SLR7056011001108629401DU PAL (PVT) LTD    843080049V     COMM'N JUNE'13 130712005070      CU1562                 
00007056001008106020135W.M.A.K.Jayamat     23000000000000001626271SLR7056011001108629401DU PAL (PVT) LTD    910552732V     COMM'N JUNE'13 130712003231      CU1562                 
00007056001008106020461R.W.K.L.Chamara     23000000000000001722748SLR7056011001108629401DU PAL (PVT) LTD    912984532V     COMM'N JUNE'13 130712003450      CU1562                 
00007056001008160027101W.D.P.Perera        23000000000000001840657SLR7056011001108629401DU PAL (PVT) LTD    915200702V     COMM'N JUNE'13 130712004401      CU1562                 
00007056001008570023189M.Zaharan Rasheed   23000000000000003558957SLR7056011001108629401DU PAL (PVT) LTD    870182996V     COMM'N JUNE'13 130712004641      CU1562                 
00007056001008310011144R.A.D.K.Madusanka   23000000000000000878954SLR7056011001108629401DU PAL (PVT) LTD    821811589V     COMM'N JUNE'13 130712004380      CU1562                 
00007056001008580032339Sivakumar Subenthan 23000000000000003461042SLR7056011001108629401DU PAL (PVT) LTD    900872666V     COMM'N JUNE'13 130712004470      CU1562                 
00007056001008106021289V.JAYALUXSHAN       23000000000000003649958SLR7056011001108629401DU PAL (PVT) LTD    883541200V     COMM'N JUNE'13 130712005193      CU1562                 
00007056001008720017789S.H.JAUFER SADIQUE  23000000000000000154832SLR7056011001108629401DU PAL (PVT) LTD    920921744V     COMM'N JUNE'13 130712004626      CU1562                 
00007056001008131007201M.G.Husny Ahamed    23000000000000000000000SLR7056011001108629401DU PAL (PVT) LTD    922720568V     COMM'N JUNE'13 130712004719      CU1562                 
00007719728107288002070W.D.C.M.Gunasekara  23000000000000000000000SLR7056011001108629401DU PAL (PVT) LTD    922861242V     COMM'N JUNE'13 130712004509      CU1562                 
00007056001008670027219A.C.Indrajith Perera23000000000000000711703SLR7056011001108629401DU PAL (PVT) LTD    911941228V     COMM'N JUNE'13 130712004524      CU1562                 
00007056001008670029135J.P.K.Liyanapathiran23000000000000000000000SLR7056011001108629401DU PAL (PVT) LTD    792791360V     COMM'N JUNE'13 130712004584      CU1562                 
00007056001008580024656M.H.M.Mafaz         23000000000000000000000SLR7056011001108629401DU PAL (PVT) LTD    830261060V     COMM'N JUNE'13 130712004197      CU1562                 
00007056001008500035789B.A.M.Riflan        23000000000000001253395SLR7056011001108629401DU PAL (PVT) LTD    902591702V     COMM'N JUNE'13 130712004785      CU1562                 
00007056001008560052187H.P.M.Dilsiri       23000000000000000000000SLR7056011001108629401DU PAL (PVT) LTD    903112115V     COMM'N JUNE'13 130712004959      CU1562                 
00007056001008106019456D.R.R.Madusanka     23000000000000000886030SLR7056011001108629401DU PAL (PVT) LTD    921953330V     COMM'N JUNE'13 130712003810      CU1562                 
00007056001008106019454S.Nilanka Rajine    23000000000000002398769SLR7056011001108629401DU PAL (PVT) LTD    888350292V     COMM'N JUNE'13 130712003975      CU1562                 
00007056001008260900695P.Kasun Kalhara     23000000000000000000000SLR7056011001108629401DU PAL (PVT) LTD    901290377V     COMM'N JUNE'13 130712005517      CU1562                 
00007056001008106019610J.A.N.Tharika       23000000000000000815452SLR7056011001108629401DU PAL (PVT) LTD    935131570V     COMM'N JUNE'13 130712004050      CU1562                 
00007056001008114012193W.M.M.P.Fernando    23000000000000002355851SLR7056011001108629401DU PAL (PVT) LTD    846861637V     COMM'N JUNE'13 130712005178      CU1562                 
00007287008031444624101M.J.M.Izzeth        23000000000000000875144SLR7056011001108629401DU PAL (PVT) LTD    902581871V     COMM'N JUNE'13 130712005868      CU1562                 
00007056001008106019875P.D.Lahiru Tharaka  23000000000000000000000SLR7056011001108629401DU PAL (PVT) LTD    932120909V     COMM'N JUNE'13 130712004248      CU1562                 
00007056001008106019876J.A.Petum Chamra    23000000000000000000000SLR7056011001108629401DU PAL (PVT) LTD    933030040V     COMM'N JUNE'13 130712004164      CU1562                 
00007056001008106019874M.J.M.Isham         23000000000000000153364SLR7056011001108629401DU PAL (PVT) LTD    931632736V     COMM'N JUNE'13 130712004212      CU1562                 
00007083007007020322251B.A.M.Rinoz         23000000000000001144585SLR7056011001108629401DU PAL (PVT) LTD    922113726V     COMM'N JUNE'13 130712004236      CU1562                 
00007056001008500035748O.S.Namal           23000000000000000000000SLR7056011001108629401DU PAL (PVT) LTD    933443205V     COMM'N JUNE'13 130712005208      CU1562                 
00007056001008500035749P.J.S.Premakumar    23000000000000000000000SLR7056011001108629401DU PAL (PVT) LTD    940023106V     COMM'N JUNE'13 130712005124      CU1562                 
00007056001008190041204O.K.Chinthana       23000000000000000660494SLR7056011001108629401DU PAL (PVT) LTD    920990177V     COMM'N JUNE'13 130712003696      CU1562                 
00007056001001113003268H.M.Sri Palitha     23000000000000000000000SLR7056011001108629401DU PAL (PVT) LTD    662521418V     COMM'N JUNE'13 130712005145      CU1562                 
00007135055200123416655P.B.S.R.Kodithuwakku23000000000000000024899SLR7056011001108629401DU PAL (PVT) LTD    842000858V     COMM'N JUNE'13 130712004620      CU1562                 
00007135071200140006429P.L.M.S.Alwis       23000000000000000652362SLR7056011001108629401DU PAL (PVT) LTD    932970538V     COMM'N JUNE'13 130712004941      CU1562                 
00007056001008147007667H.A.Suresh Chandana 23000000000000000000000SLR7056011001108629401DU PAL (PVT) LTD    890322077V     COMM'N JUNE'13 130712005001      CU1562                 
