00007056001001234567890B LAHIRU THIWANKA   23000000000000001523565SLR7056011001108629401DU PAL (PVT) LTD    123456789V     CCI SAL SEP '13131119      @
00007056001001234567891FATHIMA RINOSHA HARU23000000000000001536310SLR7056011001108629401DU PAL (PVT) LTD    123456790V     CCI SAL SEP '13131119      @
00007056001001234567892S PANDULA DESHAPRIYA23000000000000001484901SLR7056011001108629401DU PAL (PVT) LTD    123456791V     CCI SAL SEP '13131119      @
00007056001001234567893S DANUSHA ERANGI SIL23000000000000001522634SLR7056011001108629401DU PAL (PVT) LTD    123456792V     CCI SAL SEP '13131119      @
00007056001001234567894M H MOHAMED  SHABEER23000000000000001344616SLR7056011001108629401DU PAL (PVT) LTD    123456793V     CCI SAL SEP '13131119      @
00007056001001234567895I P A ARUNA MADUSHAN23000000000000001496071SLR7056011001108629401DU PAL (PVT) LTD    123456794V     CCI SAL SEP '13131119      @
00007056001001234567896N K D DILINI ANUPAMA23000000000000001526822SLR7056011001108629401DU PAL (PVT) LTD    123456795V     CCI SAL SEP '13131119      @
00007056001001234567897KAVISHAN KANAGARATHN23000000000000001334000SLR7056011001108629401DU PAL (PVT) LTD    123456796V     CCI SAL SEP '13131119      @
00007056001001234567898RAZAN SHAMIL        23000000000000001484000SLR7056011001108629401DU PAL (PVT) LTD    123456797V     CCI SAL SEP '13131119      @
00007056001001234567899SHEHARA PEIRIS      23000000000000001484000SLR7056011001108629401DU PAL (PVT) LTD    123456798V     CCI SAL SEP '13131119      @
00007056001001234567900THILINI KANCHANAMALA23000000000000001484000SLR7056011001108629401DU PAL (PVT) LTD    123456799V     CCI SAL SEP '13131119      @
00007056001001234567901FATHIMA ROZEENA     23000000000000001334000SLR7056011001108629401DU PAL (PVT) LTD    123456800V     CCI SAL SEP '13131119      @
00007056001001234567902RUBINI GUNADAS      23000000000000001484000SLR7056011001108629401DU PAL (PVT) LTD    123456801V     CCI SAL SEP '13131119      @
00007056001001234567903MADUSHIKA WIJERATHNE23000000000000001334000SLR7056011001108629401DU PAL (PVT) LTD    123456802V     CCI SAL SEP '13131119      @
00007056001001234567904PUNYA MAHESHI       23000000000000001334000SLR7056011001108629401DU PAL (PVT) LTD    123456803V     CCI SAL SEP '13131119      @
00007056001001234567905URESHIKA NIMANTHI   23000000000000001334000SLR7056011001108629401DU PAL (PVT) LTD    123456804V     CCI SAL SEP '13131119      @
00007056001001234567906THAMBIRAJAH RASHMIKA23000000000000001484000SLR7056011001108629401DU PAL (PVT) LTD    123456805V     CCI SAL SEP '13131119      @
00007056001001234567907VISVAKULAM VIVEK    23000000000000001484000SLR7056011001108629401DU PAL (PVT) LTD    123456806V     CCI SAL SEP '13131119      @
00007056001001234567908NIYOMI SILVA        23000000000000001484000SLR7056011001108629401DU PAL (PVT) LTD    123456807V     CCI SAL SEP '13131119      @
00007056001001234567909K M THINELKA        23000000000000001334000SLR7056011001108629401DU PAL (PVT) LTD    123456808V     CCI SAL SEP '13131119      @
00007056001001234567910M INSHAF MARZOOK    23000000000000001334000SLR7056011001108629401DU PAL (PVT) LTD    123456809V     CCI SAL SEP '13131119      @
00007056001001234567911P RUSHANTHAN        23000000000000001484000SLR7056011001108629401DU PAL (PVT) LTD    123456810V     CCI SAL SEP '13131119      @
00007056001001234567912R M NAMAL RATHNAYAKE23000000000000001484000SLR7056011001108629401DU PAL (PVT) LTD    123456811V     CCI SAL SEP '13131119      @
00007056001001234567913W M D T MINOLI ANDRA23000000000000001484000SLR7056011001108629401DU PAL (PVT) LTD    123456812V     CCI SAL SEP '13131119      @
00007056001001234567914M SUJEETHARAN       23000000000000001484000SLR7056011001108629401DU PAL (PVT) LTD    123456813V     CCI SAL SEP '13131119      @
00007056001001234567915G SUZIRA HANIFFA    23000000000000001484000SLR7056011001108629401DU PAL (PVT) LTD    123456814V     CCI SAL SEP '13131119      @
00007056001001234567916D M K KAVINDU DISSAN23000000000000001484000SLR7056011001108629401DU PAL (PVT) LTD    123456815V     CCI SAL SEP '13131119      @
00007056001001234567917M K AKUSHLA RUKSHANI23000000000000001484000SLR7056011001108629401DU PAL (PVT) LTD    123456816V     CCI SAL SEP '13131119      @
00007056001001234567918W A CHALANI J JAYATH23000000000000001334000SLR7056011001108629401DU PAL (PVT) LTD    123456817V     CCI SAL SEP '13131119      @
00007056001001234567919SANIDI THARUNI KULAN23000000000000001484000SLR7056011001108629401DU PAL (PVT) LTD    123456818V     CCI SAL SEP '13131119      @
00007056001001234567920FATHIMA MIZHA MUNZIR23000000000000001334000SLR7056011001108629401DU PAL (PVT) LTD    123456819V     CCI SAL SEP '13131119      @
00007056001001234567921INDHUJA MAHENDRAN   23000000000000001484000SLR7056011001108629401DU PAL (PVT) LTD    123456820V     CCI SAL SEP '13131119      @
00007056001001234567922INSIZAMUL HAQ       23000000000000001484000SLR7056011001108629401DU PAL (PVT) LTD    123456821V     CCI SAL SEP '13131119      @
00007056001001234567923M M MOHAMED MUBARAK 23000000000000001484000SLR7056011001108629401DU PAL (PVT) LTD    123456822V     CCI SAL SEP '13131119      @
00007056001001234567924M ADIL SHAZUL THASSI23000000000000001484000SLR7056011001108629401DU PAL (PVT) LTD    123456823V     CCI SAL SEP '13131119      @
00007056001001234567925CHINTHUJA ANTHONY   23000000000000001493528SLR7056011001108629401DU PAL (PVT) LTD    123456824V     CCI SAL SEP '13131119      @
00007056011001108629401DU PAL (PVT) LTD    23001000000000052130447SLR7056011001108629401DU PAL (PVT) LTD                  0CCI SAL SEP '13131119      @
