00007056001008223001287J.D.B.L.JAYAKODI    23000000000000001411000SLR7056011001108629401DU PAL (PVT) LTD    887910073V     OS SAL MAR '14 140325      @
00007056001008116016383D.K.U.DISSANAYAKE   23000000000000000862000SLR7056011001108629401DU PAL (PVT) LTD                   OS SAL MAR '14 140325      @
00007056011001108629401DU PAL (PVT) LTD    23001000000000002273000SLR7056011001108629401DU PAL (PVT) LTD                  0OS SAL MAR '14 140325      @
