00007056001008300024945RANUKA LAKSHAN      23000000000000005546667SLR7056011001108629401DU PAL (PVT) LTD    832704822V     SBO SAL APR '14140519      @
00007056001008020039516SRIYAN MAWALAGE     23000000000000006340000SLR7056011001108629401DU PAL (PVT) LTD    821020689V     SBO SAL APR '14140519      @
00007056001008690047336D.I.M. RAVIHARI BAND23000000000000001707750SLR7056011001108629401DU PAL (PVT) LTD    915373003V     SBO SAL APR '14140519      @
00007056001008040080553DANUSHKA SIRIWARDENA23000000000000007080000SLR7056011001108629401DU PAL (PVT) LTD    831191040V     SBO SAL APR '14140519      @
00007056001008119020211SHAMILA P. AMARASING23000000000000001848950SLR7056011001108629401DU PAL (PVT) LTD    906351374V     SBO SAL APR '14140519      @
00007056001008170012322RANDIMA LAKMINI PERE23000000000000002151688SLR7056011001108629401DU PAL (PVT) LTD    917320306V     SBO SAL APR '14140519      @
00007056001008020024742L T AJITH KUMARA    23000000000000001587000SLR7056011001108629401DU PAL (PVT) LTD    873112883V     SBO SAL APR '14140519      @
00007056001008222002146W.S.S.PERERA        23000000000000001420000SLR7056011001108629401DU PAL (PVT) LTD    898411605V     SBO SAL APR '14140519      @
00007056001008170012027M S KUMARI          23000000000000001420000SLR7056011001108629401DU PAL (PVT) LTD    816210470V     SBO SAL APR '14140519      @
00007056001008530026417S.H.T.BUDDIKA       23000000000000007317500SLR7056011001108629401DU PAL (PVT) LTD    722063538V     SBO SAL APR '14140519      @
00007135207200170012074W.M.S.K.H.WIJESUNDAR23000000000000008380000SLR7056011001108629401DU PAL (PVT) LTD    792951775V     SBO SAL APR '14140519      @
00007135334200170036596N.G.A.P.WIJESEKARA  23000000000000006423750SLR7056011001108629401DU PAL (PVT) LTD    721683362V     SBO SAL APR '14140519      @
00007278001100650120218A.M.N.W.M.H.P.ATHURU23000000000000005270000SLR7056011001108629401DU PAL (PVT) LTD    771273009V     SBO SAL APR '14140519      @
00007056001008110000430W.P.SURANGA         23000000000000006380000SLR7056011001108629401DU PAL (PVT) LTD    801991483V     SBO SAL APR '14140519      @
00007287017002423763101S.W.P.A.PRIYANKARA  23000000000000007796667SLR7056011001108629401DU PAL (PVT) LTD    760862754V     SBO SAL APR '14140519      @
00007056001008040022945L.H.G.U.K.UDAYANGA  23000000000000008380000SLR7056011001108629401DU PAL (PVT) LTD    793590628V     SBO SAL APR '14140519      @
00007056001008104014757CHINTHAKA WICKREMASI23000000000000001617500SLR7056011001108629401DU PAL (PVT) LTD    921700695V     SBO SAL APR '14140519      @
00007056001008310018682A M K AJITH PRIYALAL23000000000000001880000SLR7056011001108629401DU PAL (PVT) LTD    653451075V     SBO SAL APR '14140519      @
00007056001008960027490P.V.K.ANJULA RATHNAY23000000000000001638500SLR7056011001108629401DU PAL (PVT) LTD    876791625V     SBO SAL APR '14140519      @
00007056001008960003121SHALIKA RUKSHANI    23000000000000001712063SLR7056011001108629401DU PAL (PVT) LTD    845660700V     SBO SAL APR '14140519      @
00007287006001843076102M.A.MADURANGA UDAYA 23000000000000003985833SLR7056011001108629401DU PAL (PVT) LTD    802582404V     SBO SAL APR '14140519      @
00007056001008790026092R.R.U. KUMARA BANDAR23000000000000005760000SLR7056011001108629401DU PAL (PVT) LTD    762353326V     SBO SAL APR '14140519      @
00007056011001108629401DU PAL (PVT) LTD    23001000000000095643868SLR7056011001108629401DU PAL (PVT) LTD                  0SBO SAL APR '14140519      @
