5555OUT112207056001000598                                                                                                                                                          
4444OUT11220705601100000075377311105970000007537731110001017594890489191                                                                                                           
00007056001008040024826H.G.P.C.RATHNASIRI  23000000000000001956090SLR7056011001108629401DU PAL (PVT) LTD    841574346V     COMM'N JULY'13 130808004947      CU1562                 
00007056001008040063643M.F.F.FAZRINA       23000000000000000998831SLR7056011001108629401DU PAL (PVT) LTD    897100312V     COMM'N JULY'13 130808004923      CU1562                 
00007278001100753147138D.G.R.C.WIJESOORIYA 23000000000000000000000SLR7056011001108629401DU PAL (PVT) LTD    840203964V     COMM'N JULY'13 130808005325      CU1562                 
00007135112200160042653P.G.E.U.ABESEKARA   23000000000000001478164SLR7056011001108629401DU PAL (PVT) LTD    842472776V     COMM'N JULY'13 130808004713      CU1562                 
00007135018200180011926M.SHAKIR            23000000000000000000000SLR7056011001108629401DU PAL (PVT) LTD    912930076V     COMM'N JULY'13 130808005031      CU1562                 
00007056001008040085958R.ANURADHA SAMARAKKO23000000000000000138872SLR7056011001108629401DU PAL (PVT) LTD    928072827V     COMM'N JULY'13 130808004641      CU1562                 
00007056001008040022945L.H.G.U.K.UDAYANGA  23000000000000006800440SLR7056011001108629401DU PAL (PVT) LTD    793590628V     COMM'N JULY'13 130808003891      CU1562                 
00007287083032555187101W.M.N.K.KARUNARATHNE23000000000000000546992SLR7056011001108629401DU PAL (PVT) LTD    858274133V     COMM'N JULY'13 130808003225      CU1562                 
00007010473000073751920M.D.M.GUNATHILAKA   23000000000000002233515SLR7056011001108629401DU PAL (PVT) LTD    925061336V     COMM'N JULY'13 130808004803      CU1562                 
00007056001008040014382W.W.M.K.W.C.P.KAPUWA23000000000000000000000SLR7056011001108629401DU PAL (PVT) LTD    802153600V     COMM'N JULY'13 130808005076      CU1562                 
00007056001008120911679R.M.D.CHAMARA       23000000000000000000000SLR7056011001108629401DU PAL (PVT) LTD    790331281V     COMM'N JULY'13 130808004116      CU1562                 
00007056001008170011176L.A.C.ARUNASIRI     23000000000000000000000SLR7056011001108629401DU PAL (PVT) LTD    903063300V     COMM'N JULY'13 130808004557      CU1562                 
00007056001008038364301A.M.M.RINOS         23000000000000000041151SLR7056011001108629401DU PAL (PVT) LTD    751490909V     COMM'N JULY'13 130808003645      CU1562                 
00007278001112353752562D.M.ABEYWARNA       23000000000000001564236SLR7056011001108629401DU PAL (PVT) LTD    733592680V     COMM'N JULY'13 130808003915      CU1562                 
00007056001008150904552H.M.V.KULATHUNGA    23000000000000003603537SLR7056011001108629401DU PAL (PVT) LTD    570780107V     COMM'N JULY'13 130808003456      CU1562                 
00007056001008730012607W.G.D.WEERASINGHE   23000000000000000804284SLR7056011001108629401DU PAL (PVT) LTD    733610727V     COMM'N JULY'13 130808003879      CU1562                 
00007056001008255004764G.GAMAGE MADUSHIKA  23000000000000001276633SLR7056011001108629401DU PAL (PVT) LTD    835871932V     COMM'N JULY'13 130808005094      CU1562                 
00007056001008150915011D.L.P.ARUNODAYA WIJE23000000000000000791868SLR7056011001108629401DU PAL (PVT) LTD    943533520V     COMM'N JULY'13 130808004740      CU1562                 
00007056001008040086072D.PRASHATH CYRIL    23000000000000000000000SLR7056011001108629401DU PAL (PVT) LTD    821121922X     COMM'N JULY'13 130808004386      CU1562                 
00007056001008150915586M.I.MOHAMED IHSHAN  23000000000000000000000SLR7056011001108629401DU PAL (PVT) LTD    921413831V     COMM'N JULY'13 130808004104      CU1562                 
00007056001008080000136R.G.P.P.KUMARA      23000000000000003527536SLR7056011001108629401DU PAL (PVT) LTD    793410042V     COMM'N JULY'13 130808005589      CU1562                 
00007083018018020780132K.T.K.I.BANDARA     23000000000000000386445SLR7056011001108629401DU PAL (PVT) LTD    843453287V     COMM'N JULY'13 130808005037      CU1562                 
00007056001008180034825D.S.HEWAWASAM       23000000000000000303771SLR7056011001108629401DU PAL (PVT) LTD    898101096V     COMM'N JULY'13 130808003636      CU1562                 
00007056001008040081667J.V.D.K.JAYASEKARA  23000000000000001402689SLR7056011001108629401DU PAL (PVT) LTD    911871149V     COMM'N JULY'13 130808004146      CU1562                 
00007056001008265000384M.M.M.HAMSA         23000000000000001229583SLR7056011001108629401DU PAL (PVT) LTD    710631603V     COMM'N JULY'13 130808003915      CU1562                 
00007287017002423763101S.W.P.A.PRIYANKARA  23000000000000004274078SLR7056011001108629401DU PAL (PVT) LTD    760862754V     COMM'N JULY'13 130808003459      CU1562                 
00007056001008890025644G.R.T.GUNARATHNA    23000000000000003310080SLR7056011001108629401DU PAL (PVT) LTD    857010337V     COMM'N JULY'13 130808004227      CU1562                 
00007056001008115019388A.DUSHANTHI RENUKA  23000000000000000581755SLR7056011001108629401DU PAL (PVT) LTD    915163033V     COMM'N JULY'13 130808005076      CU1562                 
00007056001008040086416S.T.CHANDRIKA SILVA 23000000000000000105230SLR7056011001108629401DU PAL (PVT) LTD    698384620V     COMM'N JULY'13 130808005616      CU1562                 
00007056001008340017235T.VINOD KUMAR       23000000000000000000000SLR7056011001108629401DU PAL (PVT) LTD    881201240V     COMM'N JULY'13 130808004932      CU1562                 
00007056001008890026039P.G.THILINA MADUSANK23000000000000000918732SLR7056011001108629401DU PAL (PVT) LTD    901680329V     COMM'N JULY'13 130808004455      CU1562                 
00007056001008890025851B.W.G.W.M.BUDDIKA PR23000000000000000011880SLR7056011001108629401DU PAL (PVT) LTD    871171971V     COMM'N JULY'13 130808004218      CU1562                 
00007056001008340025389BALAKRISHNAN SUDHARS23000000000000000179865SLR7056011001108629401DU PAL (PVT) LTD    903394021V     COMM'N JULY'13 130808004905      CU1562                 
00007135157200180038083P.T.H.P.I.SIRIWARDAN23000000000000004906301SLR7056011001108629401DU PAL (PVT) LTD    912530442V     COMM'N JULY'13 130808004779      CU1562                 
00007287017001660986101M.V.L.P.A.KUMARI    23000000000000001152850SLR7056011001108629401DU PAL (PVT) LTD    765471060V     COMM'N JULY'13 130808003408      CU1562                 
00007083015015020148819T.I.H.GAMAGE        23000000000000000151010SLR7056011001108629401DU PAL (PVT) LTD    851341749V     COMM'N JULY'13 130808005199      CU1562                 
00007010598000074425579A.M.S.BANU          23000000000000000248018SLR7056011001108629401DU PAL (PVT) LTD    925531561V     COMM'N JULY'13 130808004017      CU1562                 
00007135022200120011808J.M.B.G.A.D.JAYASING23000000000000000179116SLR7056011001108629401DU PAL (PVT) LTD    906402130V     COMM'N JULY'13 130808005154      CU1562                 
00007135158200140016501S.B.AZAM            23000000000000000974538SLR7056011001108629401DU PAL (PVT) LTD    925132705V     COMM'N JULY'13 130808005748      CU1562                 
00007056001008040086220T.C.SANDARUWAN BANDA23000000000000000212512SLR7056011001108629401DU PAL (PVT) LTD    930080233V     COMM'N JULY'13 130808004956      CU1562                 
00007056001008172000312MAHAROOF JUMAN      23000000000000000306830SLR7056011001108629401DU PAL (PVT) LTD    831251506V     COMM'N JULY'13 130808004413      CU1562                 
00007135220200230030561G.K.M.N.S.KAVIRAJ   23000000000000006849241SLR7056011001108629401DU PAL (PVT) LTD    721241300V     COMM'N JULY'13 130808005103      CU1562                 
00007135220200161114667G.A.WIMALAWARDHANA  23000000000000002908113SLR7056011001108629401DU PAL (PVT) LTD    781650560V     COMM'N JULY'13 130808004338      CU1562                 
00007056001008185001796G.G.M.P.JAYAWARDHANA23000000000000003242730SLR7056011001108629401DU PAL (PVT) LTD    758210774V     COMM'N JULY'13 130808005589      CU1562                 
00007311044443878840215P.G.G.DILSHAN       23000000000000001056814SLR7056011001108629401DU PAL (PVT) LTD    911835088V     COMM'N JULY'13 130808003984      CU1562                 
00007010549000071375028I.S.ATHAPATHTHU     23000000000000000000000SLR7056011001108629401DU PAL (PVT) LTD    855720728V     COMM'N JULY'13 130808004641      CU1562                 
00007056001008185002518G.V.PADMINI BANDARA 23000000000000002527452SLR7056011001108629401DU PAL (PVT) LTD    915951341V     COMM'N JULY'13 130808004647      CU1562                 
00007056001008784122101D.S.JAYAMPATHI ATHUL23000000000000000000000SLR7056011001108629401DU PAL (PVT) LTD    661840552V     COMM'N JULY'13 130808004632      CU1562                 
00007056001008162000516W.L.CHAMMIKA RANATHU23000000000000000000000SLR7056011001108629401DU PAL (PVT) LTD    930840033V     COMM'N JULY'13 130808005403      CU1562                 
00007056001008530026417S.H.T.BUDDIKA       23000000000000006882498SLR7056011001108629401DU PAL (PVT) LTD    722063538V     COMM'N JULY'13 130808004653      CU1562                 
00007056001008880015117S.M.S. SAMARAKOON   23000000000000000000000SLR7056011001108629401DU PAL (PVT) LTD    781181269V     COMM'N JULY'13 130808005265      CU1562                 
00007010006000008597524D.P.V. WEERASINGHE  23000000000000000000000SLR7056011001108629401DU PAL (PVT) LTD    713052183V     COMM'N JULY'13 130808004710      CU1562                 
00007056001008530030242D.M.I.W.G.T.KEERTHI 23000000000000002903180SLR7056011001108629401DU PAL (PVT) LTD    730490046V     COMM'N JULY'13 130808005151      CU1562                 
00007056001008148002155J.DHARMASENA        23000000000000000000000SLR7056011001108629401DU PAL (PVT) LTD    621002228V     COMM'N JULY'13 130808004308      CU1562                 
00007287021002100801101J.A.M.P.JAYASINGHE  23000000000000002867170SLR7056011001108629401DU PAL (PVT) LTD    766092926V     COMM'N JULY'13 130808002685      CU1562                 
00007056001008530002528T.M.P.U.LAKMAL      23000000000000000000000SLR7056011001108629401DU PAL (PVT) LTD    850950466V     COMM'N JULY'13 130808004959      CU1562                 
00007010022000001565965S.H.M.T.S.HEWAGE    23000000000000002805025SLR7056011001108629401DU PAL (PVT) LTD    868022892V     COMM'N JULY'13 130808005145      CU1562                 
00007056001008530037682W.T.L.SUMANATHILAKE 23000000000000002763065SLR7056011001108629401DU PAL (PVT) LTD    930960624V     COMM'N JULY'13 130808003171      CU1562                 
00007056001008185002016S.D.ABEYKOON        23000000000000002837608SLR7056011001108629401DU PAL (PVT) LTD    748472860V     COMM'N JULY'13 130808005133      CU1562                 
00007056001008185002021L.D.B.M.FERNANDO    23000000000000000000000SLR7056011001108629401DU PAL (PVT) LTD    871930422V     COMM'N JULY'13 130808004464      CU1562                 
00007135242002070180000A.M.C.D. BANDARA    23000000000000000161085SLR7056011001108629401DU PAL (PVT) LTD    712243740V     COMM'N JULY'13 130808004035      CU1562                 
00007056001008530022375A.A.N.HETTIARACHCHI 23000000000000004840030SLR7056011001108629401DU PAL (PVT) LTD    812310780V     COMM'N JULY'13 130808004437      CU1562                 
00007010022000072973006S.R.RANATHUNGA      23000000000000000962580SLR7056011001108629401DU PAL (PVT) LTD    782093932V     COMM'N JULY'13 130808003807      CU1562                 
00007010098000001481953K.R.C.KARUNARATHNA  23000000000000000000000SLR7056011001108629401DU PAL (PVT) LTD    846430610V     COMM'N JULY'13 130808004812      CU1562                 
00007083010010020261002W.M.S.PADIVITA      23000000000000002886339SLR7056011001108629401DU PAL (PVT) LTD    838143393V     COMM'N JULY'13 130808004602      CU1562                 
00007135008200298118387D.M.KUMARA          23000000000000000000000SLR7056011001108629401DU PAL (PVT) LTD    792030718V     COMM'N JULY'13 130808004653      CU1562                 
00007056001008530017870A.N.G.D.S.N.NANAYAKK23000000000000000908696SLR7056011001108629401DU PAL (PVT) LTD    812112155V     COMM'N JULY'13 130808004449      CU1562                 
00007278001116854180764S.A.S.INDUNIL WIJESI23000000000000000833997SLR7056011001108629401DU PAL (PVT) LTD    917382026V     COMM'N JULY'13 130808005175      CU1562                 
00007010432000071423852K.G.N.S.WIJESIRI    23000000000000005215549SLR7056011001108629401DU PAL (PVT) LTD    891950179V     COMM'N JULY'13 130808005091      CU1562                 
00007056001008185001396D.M.BRAYAN          23000000000000000000000SLR7056011001108629401DU PAL (PVT) LTD    850880514V     COMM'N JULY'13 130808005016      CU1562                 
00007056001008320022298M.N.M.IRSHAD        23000000000000000000000SLR7056011001108629401DU PAL (PVT) LTD    870281471V     COMM'N JULY'13 130808004626      CU1562                 
00007010432000072999535W.L.P.LIYANAGE      23000000000000000000000SLR7056011001108629401DU PAL (PVT) LTD    926013343V     COMM'N JULY'13 130808005430      CU1562                 
00007010217000009753615S.SENARATHNA        23000000000000000000000SLR7056011001108629401DU PAL (PVT) LTD    643621380V     COMM'N JULY'13 130808005223      CU1562                 
00007083034034020247196I.U.BANDARA         23000000000000003388467SLR7056011001108629401DU PAL (PVT) LTD    800860733V     COMM'N JULY'13 130808003216      CU1562                 
00007010022000009856580I.G.A.S.VIDURUWAN   23000000000000002969122SLR7056011001108629401DU PAL (PVT) LTD    820481674V     COMM'N JULY'13 130808004890      CU1562                 
00007010217000005697612H.K.M.MARSHUK       23000000000000000858442SLR7056011001108629401DU PAL (PVT) LTD    740100599V     COMM'N JULY'13 130808004806      CU1562                 
00007056001008370033935N.M.FAIZAL          23000000000000001727021SLR7056011001108629401DU PAL (PVT) LTD    802563779V     COMM'N JULY'13 130808005172      CU1562                 
00007056001008300006477S.J.FONSEKA         23000000000000006472077SLR7056011001108629401DU PAL (PVT) LTD    701771435V     COMM'N JULY'13 130808003288      CU1562                 
00007083071071020185642S.L.M.S.H.NUWAN     23000000000000003261981SLR7056011001108629401DU PAL (PVT) LTD    922911924V     COMM'N JULY'13 130808005028      CU1562                 
00007056001008820001083M.C.R.MUNASINGHE    23000000000000000994541SLR7056011001108629401DU PAL (PVT) LTD    910631721V     COMM'N JULY'13 130808004143      CU1562                 
00007056001008300031548P.P.C.GUNATHUNGA    23000000000000001244846SLR7056011001108629401DU PAL (PVT) LTD    932613182V     COMM'N JULY'13 130808004632      CU1562                 
00007010057000003195647M.D.T.WIMALATHUNGA  23000000000000000993564SLR7056011001108629401DU PAL (PVT) LTD    940430895V     COMM'N JULY'13 130808004059      CU1562                 
00007056001008700033044W.D.A.H.GUNATHILAKA 23000000000000002254633SLR7056011001108629401DU PAL (PVT) LTD    920901352V     COMM'N JULY'13 130808004923      CU1562                 
00007056001008133012059V.Prasad            23000000000000001409038SLR7056011001108629401DU PAL (PVT) LTD    922763097V     COMM'N JULY'13 130808003456      CU1562                 
00007056001008820014918M.DASARATHA ANURADHA23000000000000003202882SLR7056011001108629401DU PAL (PVT) LTD    840382150V     COMM'N JULY'13 130808003510      CU1562                 
00007010688000009593162W.G.L.NIROSHANI     23000000000000004030066SLR7056011001108629401DU PAL (PVT) LTD    737780090V     COMM'N JULY'13 130808005187      CU1562                 
00007056001008820020512N.K.C.H.KUMARI      23000000000000000982414SLR7056011001108629401DU PAL (PVT) LTD    926802216V     COMM'N JULY'13 130808005160      CU1562                 
00007287020033363005101J.W.P.WIJESIRI      23000000000000002944707SLR7056011001108629401DU PAL (PVT) LTD    777624377V     COMM'N JULY'13 130808002892      CU1562                 
00007056001008820022152M.A.S.SANEEJA ABEYSI23000000000000000787620SLR7056011001108629401DU PAL (PVT) LTD    935233151V     COMM'N JULY'13 130808003960      CU1562                 
00007056001008820022126G.M.U.HANSANI JAYASI23000000000000000786028SLR7056011001108629401DU PAL (PVT) LTD    926662384V     COMM'N JULY'13 130808004008      CU1562                 
00007056001008820020472D.S.D.K.GAYAN WIMALA23000000000000001066717SLR7056011001108629401DU PAL (PVT) LTD    910652974V     COMM'N JULY'13 130808004794      CU1562                 
00007056001008820022160R.K.B.D.M.M.KUMARA K23000000000000000792079SLR7056011001108629401DU PAL (PVT) LTD    930273422V     COMM'N JULY'13 130808004356      CU1562                 
00007056001008820019689W.K.ROSHAN PRADEEP  23000000000000000784290SLR7056011001108629401DU PAL (PVT) LTD    931193830V     COMM'N JULY'13 130808004059      CU1562                 
00007056001008300031718C.S.K.DADALLAGE     23000000000000005271707SLR7056011001108629401DU PAL (PVT) LTD    902542086V     COMM'N JULY'13 130808003636      CU1562                 
00007056001008300015010J.R.CHANDANAYAKA    23000000000000001925855SLR7056011001108629401DU PAL (PVT) LTD    841110625V     COMM'N JULY'13 130808003900      CU1562                 
00007010517000074137680A.D.UDAYANGANI      23000000000000001165484SLR7056011001108629401DU PAL (PVT) LTD    918321420V     COMM'N JULY'13 130808004236      CU1562                 
00007056001008300033209H.M.S.K.GUNAWARDANA 23000000000000000878214SLR7056011001108629401DU PAL (PVT) LTD    812784064V     COMM'N JULY'13 130808003885      CU1562                 
00007135295200110031519T.M.GALAGEDARA      23000000000000001907541SLR7056011001108629401DU PAL (PVT) LTD    867902511V     COMM'N JULY'13 130808003465      CU1562                 
00007056001008300033503K.A.A.D.Priyadarshan23000000000000002803683SLR7056011001108629401DU PAL (PVT) LTD    830491635V     COMM'N JULY'13 130808005163      CU1562                 
00007056001008490033802E.K.ARUNA PRABATH   23000000000000000944147SLR7056011001108629401DU PAL (PVT) LTD    912274098V     COMM'N JULY'13 130808005319      CU1562                 
00007010092000007015185W.G.D.T.Bandara     23000000000000007567405SLR7056011001108629401DU PAL (PVT) LTD    871262063V     COMM'N JULY'13 130808002904      CU1562                 
00007056001008136001258W.M.N.CHATHURANGA   23000000000000003980694SLR7056011001108629401DU PAL (PVT) LTD    872261303V     COMM'N JULY'13 130808003813      CU1562                 
00007056001008200044699M.G.U.WANIGARATHNA  23000000000000000292095SLR7056011001108629401DU PAL (PVT) LTD    671670086V     COMM'N JULY'13 130808004986      CU1562                 
00007135014200180004334K.S.JAYASOORIYA ARAC23000000000000000000000SLR7056011001108629401DU PAL (PVT) LTD    912910113V     COMM'N JULY'13 130808004761      CU1562                 
00007278001103353344964A.G.P.SAMANMALI     23000000000000000000000SLR7056011001108629401DU PAL (PVT) LTD    766300499V     COMM'N JULY'13 130808005256      CU1562                 
00007056001008470027665A.J.ABDUL NAWAS     23000000000000000966526SLR7056011001108629401DU PAL (PVT) LTD    723341191V     COMM'N JULY'13 130808005307      CU1562                 
00007010089000002915452I.D.N.DESHAPRIYA    23000000000000006902674SLR7056011001108629401DU PAL (PVT) LTD    871833362V     COMM'N JULY'13 130808004044      CU1562                 
00007056001008211001754P.G.C.SANDALEKA     23000000000000000000000SLR7056011001108629401DU PAL (PVT) LTD    935040981V     COMM'N JULY'13 130808005295      CU1562                 
00007278001107054170303W.H.NUPEARACHCHI    23000000000000000725533SLR7056011001108629401DU PAL (PVT) LTD    895524263V     COMM'N JULY'13 130808004791      CU1562                 
00007287043033442924101S.P.T.JAYALATH      23000000000000000000000SLR7056011001108629401DU PAL (PVT) LTD    933432742V     COMM'N JULY'13 130808005139      CU1562                 
00007278001106954058913B.SAYURI            23000000000000000990072SLR7056011001108629401DU PAL (PVT) LTD    938310378V     COMM'N JULY'13 130808004833      CU1562                 
00007135080200340002199P.D.L.LAKRUWANI     23000000000000000347913SLR7056011001108629401DU PAL (PVT) LTD    925410608V     COMM'N JULY'13 130808003738      CU1562                 
00007083076076020164158W.A.JAYAWARDANA     23000000000000000000000SLR7056011001108629401DU PAL (PVT) LTD    898170241V     COMM'N JULY'13 130808005550      CU1562                 
00007056001008106021564A.THUVARAKA         23000000000000000903545SLR7056011001108629401DU PAL (PVT) LTD    867311459V     COMM'N JULY'13 130808004584      CU1562                 
00007056001008204005126K.D.V.UPUL CHANDRASI23000000000000002659329SLR7056011001108629401DU PAL (PVT) LTD    651791138V     COMM'N JULY'13 130808003435      CU1562                 
00007056001008131008626H.A.T.PALINDRA HEENP23000000000000000000000SLR7056011001108629401DU PAL (PVT) LTD    928443418V     COMM'N JULY'13 130808004899      CU1562                 
00007719012100128110310P.C.A.KUMARA        23000000000000007511684SLR7056011001108629401DU PAL (PVT) LTD    802863640V     COMM'N JULY'13 130808005586      CU1562                 
00007056001008170012255S.D.N.P.K.JAYAMANNA 23000000000000000000000SLR7056011001108629401DU PAL (PVT) LTD    852252235V     COMM'N JULY'13 130808004830      CU1562                 
00007056001008147011608C.C.GAMAGE          23000000000000000000000SLR7056011001108629401DU PAL (PVT) LTD    812050699V     COMM'N JULY'13 130808004626      CU1562                 
00007083160160020020706M.N.M.ASIF          23000000000000002532986SLR7056011001108629401DU PAL (PVT) LTD    931300881V     COMM'N JULY'13 130808004620      CU1562                 
00007083064064020132816K.D.I.L.SAMANMALI   23000000000000001137160SLR7056011001108629401DU PAL (PVT) LTD    828171119V     COMM'N JULY'13 130808004281      CU1562                 
00007278001110154012566M.F.JAWAD MOHAMED   23000000000000000056883SLR7056011001108629401DU PAL (PVT) LTD    802371187V     COMM'N JULY'13 130808005367      CU1562                 
00007056001008450016553M.S.MOHAMED SANOON  23000000000000000046000SLR7056011001108629401DU PAL (PVT) LTD    802404220V     COMM'N JULY'13 130808005025      CU1562                 
00007056001008130003561K.V.S.I.KEKULAWALA  23000000000000003343372SLR7056011001108629401DU PAL (PVT) LTD    713642169V     COMM'N JULY'13 130808003822      CU1562                 
00007135208200180321354H.M.T.I.KARIYAWASAM 23000000000000001523372SLR7056011001108629401DU PAL (PVT) LTD    817544037V     COMM'N JULY'13 130808004206      CU1562                 
00007287070033414104101A.G.D.S.LAKSHITHA   23000000000000000440784SLR7056011001108629401DU PAL (PVT) LTD    911350203V     COMM'N JULY'13 130808004389      CU1562                 
00007056001008370001886S.H.SAKIYA          23000000000000000000000SLR7056011001108629401DU PAL (PVT) LTD    885171214V     COMM'N JULY'13 130808005772      CU1562                 
00007287062033333094101R.S.AMARASEKARA     23000000000000000299785SLR7056011001108629401DU PAL (PVT) LTD    931023845V     COMM'N JULY'13 130808004458      CU1562                 
00007010721000071298714C.S.Dahanayaka      23000000000000005049283SLR7056011001108629401DU PAL (PVT) LTD    712491884V     COMM'N JULY'13 130808005580      CU1562                 
00007278001109753495304M.C.S.PERERA        23000000000000000000000SLR7056011001108629401DU PAL (PVT) LTD    902873961V     COMM'N JULY'13 130808005025      CU1562                 
00007056001008320024869A.A.M.MISYAATH      23000000000000000000000SLR7056011001108629401DU PAL (PVT) LTD     881822458V    COMM'N JULY'13 130808004203      CU1562                 
00007010039000000484203G.S.SALLAY          23000000000000000000000SLR7056011001108629401DU PAL (PVT) LTD    896540637V     COMM'N JULY'13 130808004398      CU1562                 
00007083009000090696718S.LOGESWARAN        23000000000000003530649SLR7056011001108629401DU PAL (PVT) LTD    812460315V     COMM'N JULY'13 130808004995      CU1562                 
00007056001008690037933S.J.Perera          23000000000000002455582SLR7056011001108629401DU PAL (PVT) LTD    813092670V     COMM'N JULY'13 130808004200      CU1562                 
00007056001008127011632M.RUBAJINI          23000000000000000881767SLR7056011001108629401DU PAL (PVT) LTD    818285795V     COMM'N JULY'13 130808004800      CU1562                 
00007056001008100090127S.MURUGIAH          23000000000000000993470SLR7056011001108629401DU PAL (PVT) LTD    825741216X     COMM'N JULY'13 130808004824      CU1562                 
00007056001008100090251M.BABANI            23000000000000000000000SLR7056011001108629401DU PAL (PVT) LTD    838613918V     COMM'N JULY'13 130808004494      CU1562                 
00007278001102553844759W.G.S.BANDARA       23000000000000006994002SLR7056011001108629401DU PAL (PVT) LTD    840520609V     COMM'N JULY'13 130808004683      CU1562                 
00007135019200120009332K.P.S.FERNANDO      23000000000000000114509SLR7056011001108629401DU PAL (PVT) LTD    875811762V     COMM'N JULY'13 130808004749      CU1562                 
00007056001008114025139A.V.D.VIMUKTHA      23000000000000001197766SLR7056011001108629401DU PAL (PVT) LTD    752292558V     COMM'N JULY'13 130808004872      CU1562                 
00007083039039020167751W.W.W.J.N.FERNANDO  23000000000000001262751SLR7056011001108629401DU PAL (PVT) LTD    923000186V     COMM'N JULY'13 130808004749      CU1562                 
00007010039000000487962C.D.P.K.BANDARA     23000000000000000000000SLR7056011001108629401DU PAL (PVT) LTD    930223794V     COMM'N JULY'13 130808003327      CU1562                 
00007056001008180036184B.G.D.DUSHANTHA     23000000000000003683703SLR7056011001108629401DU PAL (PVT) LTD    931341642V     COMM'N JULY'13 130808004662      CU1562                 
00007056001008430009628M.I.M. INJATH       23000000000000012513158SLR7056011001108629401DU PAL (PVT) LTD    882354156V     COMM'N JULY'13 130808005076      CU1562                 
00007056001008390013754M.I.M.SAFRAS        23000000000000001273484SLR7056011001108629401DU PAL (PVT) LTD    861552420V     COMM'N JULY'13 130808004824      CU1562                 
00007056001008170010897S.P.KANTH           23000000000000001198954SLR7056011001108629401DU PAL (PVT) LTD    860233266V     COMM'N JULY'13 130808002880      CU1562                 
00007056001008690050821M.S.P.KUMARA        23000000000000003416344SLR7056011001108629401DU PAL (PVT) LTD    882282066V     COMM'N JULY'13 130808005136      CU1562                 
00007278001100453125662J.M.C.JAYASEKARA    23000000000000004367637SLR7056011001108629401DU PAL (PVT) LTD    820931858V     COMM'N JULY'13 130808003801      CU1562                 
00007719083100835001820K.V.HENADEERA       23000000000000003300333SLR7056011001108629401DU PAL (PVT) LTD    903650044V     COMM'N JULY'13 130808003396      CU1562                 
00007056001008170010707S.D.PALLIYAGURU     23000000000000003982406SLR7056011001108629401DU PAL (PVT) LTD    880771620V     COMM'N JULY'13 130808004221      CU1562                 
00007056001008590037608H.J.THEJANI SILVA   23000000000000000913480SLR7056011001108629401DU PAL (PVT) LTD    716532356V     COMM'N JULY'13 130808004548      CU1562                 
00007056001008113003647R.M.KAMAL JAYATHA   23000000000000002458360SLR7056011001108629401DU PAL (PVT) LTD    800223288V     COMM'N JULY'13 130808004605      CU1562                 
00007056001008560030509S.G.A.KUMAR         23000000000000000000000SLR7056011001108629401DU PAL (PVT) LTD    931862529V     COMM'N JULY'13 130808005220      CU1562                 
00007056001008770034216H.M.S.K.S.BANDARA   23000000000000001259786SLR7056011001108629401DU PAL (PVT) LTD    622020092V     COMM'N JULY'13 130808005424      CU1562                 
00007056001008170010836D.M.T.T.DASANAYAKA  23000000000000001821533SLR7056011001108629401DU PAL (PVT) LTD    920550053V     COMM'N JULY'13 130808004941      CU1562                 
00007056001008770039299U.SUMANAWEERA HEWAYA23000000000000000000000SLR7056011001108629401DU PAL (PVT) LTD    592392984V     COMM'N JULY'13 130808004626      CU1562                 
00007056001008170011081P.M.M.ZAHARAN       23000000000000007408631SLR7056011001108629401DU PAL (PVT) LTD    870750650V     COMM'N JULY'13 130808004350      CU1562                 
00007056001008214000857K.M.RAJAPAKSHA      23000000000000001994409SLR7056011001108629401DU PAL (PVT) LTD    872862536V     COMM'N JULY'13 130808003792      CU1562                 
00007056001008870024386W.A.C.L.KUMARA      23000000000000004914894SLR7056011001108629401DU PAL (PVT) LTD    933532461V     COMM'N JULY'13 130808003696      CU1562                 
00007056001008106020968R.PRABA             23000000000000000000000SLR7056011001108629401DU PAL (PVT) LTD    922074178V     COMM'N JULY'13 130808004344      CU1562                 
00007278001102350128759J.MUDALALIGE LASANTH23000000000000001201304SLR7056011001108629401DU PAL (PVT) LTD    750480276V     COMM'N JULY'13 130808006336      CU1562                 
00007056001008110000430W.P.SURANGA         23000000000000004653194SLR7056011001108629401DU PAL (PVT) LTD    801991483V     COMM'N JULY'13 130808005451      CU1562                 
00007056001008070012002Y.R.LIANAARACHCHI   23000000000000003531665SLR7056011001108629401DU PAL (PVT) LTD    800490189V     COMM'N JULY'13 130808004506      CU1562                 
00007056001008123006409D.C.JAYASEKARA      23000000000000002055901SLR7056011001108629401DU PAL (PVT) LTD    850893250V     COMM'N JULY'13 130808003921      CU1562                 
00007135067200110011227M.M.S.AHAMAD        23000000000000001336543SLR7056011001108629401DU PAL (PVT) LTD    902733868V     COMM'N JULY'13 130808003849      CU1562                 
00007010592000071813971S.L.R.WIJESIRI      23000000000000002523722SLR7056011001108629401DU PAL (PVT) LTD    890303994V     COMM'N JULY'13 130808003756      CU1562                 
00007056001008181001702Y.M.WIJESINGHE      23000000000000000951859SLR7056011001108629401DU PAL (PVT) LTD    937121695V     COMM'N JULY'13 130808004620      CU1562                 
00007056001008166000746H.M.IMITIYAS MOHOMEA23000000000000001186479SLR7056011001108629401DU PAL (PVT) LTD    862213572V     COMM'N JULY'13 130808004485      CU1562                 
00007056001008124002097W.G.G.Indrajith Gala23000000000000000420743SLR7056011001108629401DU PAL (PVT) LTD    772320884V     COMM'N JULY'13 130808004980      CU1562                 
00007056001008181000722T.PRABODH JAASINGHEA23000000000000000779023SLR7056011001108629401DU PAL (PVT) LTD    930721018V     COMM'N JULY'13 130808004914      CU1562                 
00007135188200150037473O.D.NISHSHANKA      23000000000000006241856SLR7056011001108629401DU PAL (PVT) LTD    912761614V     COMM'N JULY'13 130808002988      CU1562                 
00007056001008270023700K.L.N.JAYALATH      23000000000000001502662SLR7056011001108629401DU PAL (PVT) LTD    720974673V     COMM'N JULY'13 130808004716      CU1562                 
00007135077200170015735J.D.C.DE SILVA      23000000000000001701481SLR7056011001108629401DU PAL (PVT) LTD    912584232V     COMM'N JULY'13 130808005163      CU1562                 
00007056001008151008425B.L.T.SANDAMALI     23000000000000000943717SLR7056011001108629401DU PAL (PVT) LTD    925792390V     COMM'N JULY'13 130808004188      CU1562                 
00007056001008350024146W.K.ACHALA VIRAJ    23000000000000000023188SLR7056011001108629401DU PAL (PVT) LTD    930092541V     COMM'N JULY'13 130808003273      CU1562                 
00007056001008270052287R.H.D.SANJEEWA      23000000000000002531342SLR7056011001108629401DU PAL (PVT) LTD    800444942V     COMM'N JULY'13 130808004605      CU1562                 
00007083013013020352001K.D.D.MADUSHANKA    23000000000000000345000SLR7056011001108629401DU PAL (PVT) LTD    931931628V     COMM'N JULY'13 130808003747      CU1562                 
00007056001008129006181H.W.N.MAHEETHA      23000000000000001223343SLR7056011001108629401DU PAL (PVT) LTD    930492213V     COMM'N JULY'13 130808003951      CU1562                 
00007056001008270048931N.D.WEKUNUGODAGE    23000000000000001297730SLR7056011001108629401DU PAL (PVT) LTD    893063730V     COMM'N JULY'13 130808004845      CU1562                 
00007056001008270049082D.P.M.SRIMANTHA     23000000000000001004554SLR7056011001108629401DU PAL (PVT) LTD    890861083V     COMM'N JULY'13 130808004638      CU1562                 
00007056001008270053073H.G.NADEESHA RANGI  23000000000000000884661SLR7056011001108629401DU PAL (PVT) LTD    846931643V     COMM'N JULY'13 130808005070      CU1562                 
00007135207200170012074W.M.S.K.H.WIJESUNDAR23000000000000007380131SLR7056011001108629401DU PAL (PVT) LTD    792951775V     COMM'N JULY'13 130808004440      CU1562                 
00007056001008810020257P.B.D.E.FERNANDO    23000000000000001108160SLR7056011001108629401DU PAL (PVT) LTD    846111069V     COMM'N JULY'13 130808004287      CU1562                 
00007278001100654027310R.N.WICKRAMASINGHE  23000000000000001520562SLR7056011001108629401DU PAL (PVT) LTD    781532290V     COMM'N JULY'13 130808005511      CU1562                 
00007010009000071786823W.A.D.I.T.PREMASINGH23000000000000000855193SLR7056011001108629401DU PAL (PVT) LTD    878331052V     COMM'N JULY'13 130808004521      CU1562                 
00007010379000005827025W.G.A.D.GAMLATH     23000000000000000000000SLR7056011001108629401DU PAL (PVT) LTD    921482795V     COMM'N JULY'13 130808004083      CU1562                 
00007278001105353308091M.D.B.SENARATHNA    23000000000000000000000SLR7056011001108629401DU PAL (PVT) LTD    761930028V     COMM'N JULY'13 130808004980      CU1562                 
00007056001008160058321S.M.S.P.SENANAYAKA  23000000000000003435774SLR7056011001108629401DU PAL (PVT) LTD    542020130X     COMM'N JULY'13 130808003696      CU1562                 
00007135241200180038633S.D.M.S.N.SMARAKKODI23000000000000000000000SLR7056011001108629401DU PAL (PVT) LTD    900550952V     COMM'N JULY'13 130808004917      CU1562                 
00007719771107718000727W.M.A.PUSHPAKUMARA  23000000000000000000000SLR7056011001108629401DU PAL (PVT) LTD    860903717V     COMM'N JULY'13 130808004689      CU1562                 
00007287018032360494101P.P.KULATHUNGA      23000000000000001431354SLR7056011001108629401DU PAL (PVT) LTD    632383010V     COMM'N JULY'13 130808004476      CU1562                 
00007056001008160041107R.P.I.U.N.SENANAYAKE23000000000000001092722SLR7056011001108629401DU PAL (PVT) LTD    810684500V     COMM'N JULY'13 130808005148      CU1562                 
00007135089200140030641H.G.WIMALARATHNA    23000000000000000828497SLR7056011001108629401DU PAL (PVT) LTD    573204050V     COMM'N JULY'13 130808003948      CU1562                 
00007135334200170036596N.G.A.P.Wijesekara  23000000000000001928080SLR7056011001108629401DU PAL (PVT) LTD    721683362V     COMM'N JULY'13 130808005295      CU1562                 
00007135163200160009431A.M.K.ADIKARI       23000000000000001494332SLR7056011001108629401DU PAL (PVT) LTD    718230292V     COMM'N JULY'13 130808004044      CU1562                 
00007056001008160075890W.W.I.NILANTHI      23000000000000001682802SLR7056011001108629401DU PAL (PVT) LTD    766423400V     COMM'N JULY'13 130808004791      CU1562                 
00007010549000003876554R.M.P.RATHNAYAKE    23000000000000003673940SLR7056011001108629401DU PAL (PVT) LTD    653182361V     COMM'N JULY'13 130808003990      CU1562                 
00007056001008182001120H.P.S.DESHAPRIYA    23000000000000000137890SLR7056011001108629401DU PAL (PVT) LTD    722932625V     COMM'N JULY'13 130808005688      CU1562                 
00007135012200110031011H.M.K.HERATH        23000000000000001088703SLR7056011001108629401DU PAL (PVT) LTD    765830060V     COMM'N JULY'13 130808004569      CU1562                 
00007056001008160018686S.H.D.SRIKANTHA     23000000000000001063217SLR7056011001108629401DU PAL (PVT) LTD    786203945V     COMM'N JULY'13 130808004515      CU1562                 
00007056001008148011361H.M.D.DARSHANA BANDA23000000000000000091135SLR7056011001108629401DU PAL (PVT) LTD    933520820V     COMM'N JULY'13 130808003795      CU1562                 
00007056001008162003818P.V.M.DESHAPRIYA RAT23000000000000000916067SLR7056011001108629401DU PAL (PVT) LTD    822263151V     COMM'N JULY'13 130808004725      CU1562                 
00007056001008162003918W.M.JAYARATHNA BANDA23000000000000000000000SLR7056011001108629401DU PAL (PVT) LTD    791523249V     COMM'N JULY'13 130808004350      CU1562                 
00007010379000000922221D.M.R.Disanayakae   23000000000000000309102SLR7056011001108629401DU PAL (PVT) LTD    722561031V     COMM'N JULY'13 130808004368      CU1562                 
00007010172000005428351K.M.DANAPALA        23000000000000000194034SLR7056011001108629401DU PAL (PVT) LTD    650861337V     COMM'N JULY'13 130808005454      CU1562                 
00007010088000009470644P.G.N.K.RANASINGHE  23000000000000002921002SLR7056011001108629401DU PAL (PVT) LTD    881953781V     COMM'N JULY'13 130808005298      CU1562                 
00007056001008161003326I.M.A.ISMAIL        23000000000000000429653SLR7056011001108629401DU PAL (PVT) LTD    942022352V     COMM'N JULY'13 130808004098      CU1562                 
00007056001008450018937M.A.K.M.ARSHATH     23000000000000001503530SLR7056011001108629401DU PAL (PVT) LTD    922190909V     COMM'N JULY'13 130808005223      CU1562                 
00007278001110953603651M.R.M.Rikaz         23000000000000001221090SLR7056011001108629401DU PAL (PVT) LTD    842130468V     COMM'N JULY'13 130808004416      CU1562                 
00007056001008160073635K.M.C.L.BANDARA     23000000000000000607868SLR7056011001108629401DU PAL (PVT) LTD    921443838V     COMM'N JULY'13 130808004512      CU1562                 
00007056001008160074849H.M.MANOJ SURANGA   23000000000000000945191SLR7056011001108629401DU PAL (PVT) LTD    822480373V     COMM'N JULY'13 130808005424      CU1562                 
00007056001008160075221W.D.S.RUWANMALI GUNA23000000000000000000000SLR7056011001108629401DU PAL (PVT) LTD    886640692V     COMM'N JULY'13 130808004773      CU1562                 
00007056001008160074905P.D.C.D.ARIYAWANSHA 23000000000000002964852SLR7056011001108629401DU PAL (PVT) LTD    762933284V     COMM'N JULY'13 130808005235      CU1562                 
00007010009000070330862R.NEWTON            23000000000000000024522SLR7056011001108629401DU PAL (PVT) LTD    652360203V     COMM'N JULY'13 130808004581      CU1562                 
00007010513000070672851A.A.P.D.KUMARA      23000000000000003768890SLR7056011001108629401DU PAL (PVT) LTD    683555282V     COMM'N JULY'13 130808004725      CU1562                 
00007056001008160056041N.T.D.S.KUMARA      23000000000000001637274SLR7056011001108629401DU PAL (PVT) LTD    651942918V     COMM'N JULY'13 130808004416      CU1562                 
00007010555000072184233S.A.G.SANJEEWA SENAR23000000000000000956365SLR7056011001108629401DU PAL (PVT) LTD    802695144V     COMM'N JULY'13 130808004206      CU1562                 
00007287018032441420101K.G.D.D.D.WIJERATHNA23000000000000003681098SLR7056011001108629401DU PAL (PVT) LTD    823500947V     COMM'N JULY'13 130808003927      CU1562                 
00007083019019020424136M.M.SIFAN           23000000000000000971734SLR7056011001108629401DU PAL (PVT) LTD    890831559V     COMM'N JULY'13 130808005868      CU1562                 
00007056001008161002776R.M.D.J.H.ABERATHNA 23000000000000000000000SLR7056011001108629401DU PAL (PVT) LTD    650590376V     COMM'N JULY'13 130808004782      CU1562                 
00007287018001635075101R.H.G.E.K.RANASINGHE23000000000000000813593SLR7056011001108629401DU PAL (PVT) LTD    831391650V     COMM'N JULY'13 130808003897      CU1562                 
00007056001008160074691R.Saldin Mohamed    23000000000000000000000SLR7056011001108629401DU PAL (PVT) LTD    761763172V     COMM'N JULY'13 130808004338      CU1562                 
00007056001008160039826L.S.K.DALADAWATHTHAG23000000000000002993574SLR7056011001108629401DU PAL (PVT) LTD    887693721V     COMM'N JULY'13 130808004245      CU1562                 
00007056001008710004501A.M.I.HEMATHILAKA AD23000000000000002273962SLR7056011001108629401DU PAL (PVT) LTD    811311642V     COMM'N JULY'13 130808004833      CU1562                 
00007056001008432484601G.Raveendran        23000000000000002583231SLR7056011001108629401DU PAL (PVT) LTD    780661445V     COMM'N JULY'13 130808005271      CU1562                 
00007135024200160010716G.SHEREEN           23000000000000001159889SLR7056011001108629401DU PAL (PVT) LTD    906360888V     COMM'N JULY'13 130808005475      CU1562                 
00007287015002022072101M.R.D.H.BANDARA     23000000000000000090122SLR7056011001108629401DU PAL (PVT) LTD    861882853V     COMM'N JULY'13 130808002799      CU1562                 
00007056001008430023291H.M.P.K.THILAKAWARDA23000000000000000036490SLR7056011001108629401DU PAL (PVT) LTD    803621446V     COMM'N JULY'13 130808004518      CU1562                 
00007056001008174003372B.K.S. LAKMAL AMARAS23000000000000000872422SLR7056011001108629401DU PAL (PVT) LTD    870843305V     COMM'N JULY'13 130808005391      CU1562                 
00007056001008160047475B.W.M.P.W.D.S. BANDA23000000000000000000000SLR7056011001108629401DU PAL (PVT) LTD    873084081V     COMM'N JULY'13 130808004500      CU1562                 
00007056001008148011481A.K.MOHAMED IMRANKHA23000000000000000000000SLR7056011001108629401DU PAL (PVT) LTD    872444475V     COMM'N JULY'13 130808004896      CU1562                 
00007278001100650120218A.M.N.W.M.H.P.ATHURU23000000000000005258947SLR7056011001108629401DU PAL (PVT) LTD    771273009V     COMM'N JULY'13 130808005220      CU1562                 
00007056001008550010847K.S.SILVA           23000000000000001381409SLR7056011001108629401DU PAL (PVT) LTD    650110196V     COMM'N JULY'13 130808003975      CU1562                 
00007135207200160024869R.K.D.M.R.P.M.K.BOGA23000000000000000000000SLR7056011001108629401DU PAL (PVT) LTD    932341212V     COMM'N JULY'13 130808004251      CU1562                 
00007056001008550017724M.M.K.W.KEERTHI     23000000000000001375108SLR7056011001108629401DU PAL (PVT) LTD    632480199V     COMM'N JULY'13 130808004299      CU1562                 
00007056001008160067239A.G.N.S.BANDARA     23000000000000001365900SLR7056011001108629401DU PAL (PVT) LTD    852203242V     COMM'N JULY'13 130808003402      CU1562                 
00007287018001414194101D.M.D.Nalaka Karunar23000000000000000000000SLR7056011001108629401DU PAL (PVT) LTD    761992554V     COMM'N JULY'13 130808003885      CU1562                 
00007010009000070585856D.A.W.MADARI        23000000000000002891848SLR7056011001108629401DU PAL (PVT) LTD    827703656V     COMM'N JULY'13 130808004272      CU1562                 
00007287018032360834101E.M.S.K.EKANAYAKE   23000000000000000997363SLR7056011001108629401DU PAL (PVT) LTD    783311160V     COMM'N JULY'13 130808003813      CU1562                 
00007056001008430014640A.CHANDRAPALA       23000000000000000464840SLR7056011001108629401DU PAL (PVT) LTD    660031995V     COMM'N JULY'13 130808004053      CU1562                 
00007056001008510010826H.M.M.CHANDRASIRI   23000000000000002072949SLR7056011001108629401DU PAL (PVT) LTD    643130297V     COMM'N JULY'13 130808006027      CU1562                 
00007056001008160075775S.A.S.LAHIRU CHANDRA23000000000000000000000SLR7056011001108629401DU PAL (PVT) LTD    941781586VV    COMM'N JULY'13 130808004191      CU1562                 
00007056001008090020308M.A.MOHAMED INSHAF  23000000000000001027484SLR7056011001108629401DU PAL (PVT) LTD    941492533V     COMM'N JULY'13 130808005268      CU1562                 
00007056001008090022331M.I.MOHAMED RISLAN  23000000000000000023000SLR7056011001108629401DU PAL (PVT) LTD    931532758V     COMM'N JULY'13 130808004851      CU1562                 
00007278001105353570803G.S.GOVINDA         23000000000000004800315SLR7056011001108629401DU PAL (PVT) LTD    870510799V     COMM'N JULY'13 130808004911      CU1562                 
00007287010032412297101K.G.I.S.NAYANANADA  23000000000000000000000SLR7056011001108629401DU PAL (PVT) LTD    817940560V     COMM'N JULY'13 130808004269      CU1562                 
00007135149002070483509S.A.D.M.AMARAWANSHA 23000000000000002660477SLR7056011001108629401DU PAL (PVT) LTD    878403215V     COMM'N JULY'13 130808004005      CU1562                 
00007083041041020175709P.K.I.KUMARA        23000000000000000000000SLR7056011001108629401DU PAL (PVT) LTD    731782636V     COMM'N JULY'13 130808003912      CU1562                 
00007010498000005689003U.P.R.S.PATHIRANA   23000000000000000409824SLR7056011001108629401DU PAL (PVT) LTD    852812028V     COMM'N JULY'13 130808003234      CU1562                 
00007083089089020127412A.R.D.NILMINI       23000000000000000000000SLR7056011001108629401DU PAL (PVT) LTD    886723636V     COMM'N JULY'13 130808004416      CU1562                 
00007719018100180300799A.A.RUWAN KUMARA    23000000000000001002814SLR7056011001108629401DU PAL (PVT) LTD    941081096V     COMM'N JULY'13 130808005313      CU1562                 
00007287063032530518101M.M.M.MUBEEN        23000000000000002665013SLR7056011001108629401DU PAL (PVT) LTD    832510459V     COMM'N JULY'13 130808003969      CU1562                 
00007056001008120050858I.D.C.S.MAHINDU     23000000000000003172695SLR7056011001108629401DU PAL (PVT) LTD    853340537V     COMM'N JULY'13 130808004362      CU1562                 
00007135119200143714509Kosala Kaduruwana   23000000000000000889384SLR7056011001108629401DU PAL (PVT) LTD    821271169V     COMM'N JULY'13 130808005211      CU1562                 
00007135054200134871875K.GUNASENA          23000000000000001402204SLR7056011001108629401DU PAL (PVT) LTD    541872698V     COMM'N JULY'13 130808004512      CU1562                 
00007056001008690051491K.N.S.PERERA        23000000000000002097973SLR7056011001108629401DU PAL (PVT) LTD    835483827V     COMM'N JULY'13 130808003927      CU1562                 
00007056001008106020661B.P.N.PERERA        23000000000000002134437SLR7056011001108629401DU PAL (PVT) LTD    907341976V     COMM'N JULY'13 130808004923      CU1562                 
00007056001008760027544D.M.D.DISSANAKAKE   23000000000000001890893SLR7056011001108629401DU PAL (PVT) LTD    726331251V     COMM'N JULY'13 130808004383      CU1562                 
00007056001008258003254K.C.JAYASINGHE      23000000000000000605069SLR7056011001108629401DU PAL (PVT) LTD    897110431V     COMM'N JULY'13 130808004221      CU1562                 
00007056001008106021562R.M.U.PRIYADARSHANI 23000000000000000000000SLR7056011001108629401DU PAL (PVT) LTD    906901110V     COMM'N JULY'13 130808004398      CU1562                 
00007278001108153461448W.N.K.RANATHUNGE    23000000000000005418775SLR7056011001108629401DU PAL (PVT) LTD    750812090V     COMM'N JULY'13 130808004524      CU1562                 
00007056001008800023083D.M.M.B.DASSANAYAKE 23000000000000003789709SLR7056011001108629401DU PAL (PVT) LTD    822900917V     COMM'N JULY'13 130808003969      CU1562                 
00007719748107488001561M.C.N.KULATHUNGA    23000000000000001627757SLR7056011001108629401DU PAL (PVT) LTD    856152600V     COMM'N JULY'13 130808005217      CU1562                 
00007056001008136005142R.B.C.H.JAYATHILAKA 23000000000000001458316SLR7056011001108629401DU PAL (PVT) LTD    868591200V     COMM'N JULY'13 130808005127      CU1562                 
00007287029033337331101T.M.A.G.D.P.K.TENNAK23000000000000000159604SLR7056011001108629401DU PAL (PVT) LTD    822143865V     COMM'N JULY'13 130808004446      CU1562                 
00007010002000071655042H.S.R.WEERASOORIYA  23000000000000000000000SLR7056011001108629401DU PAL (PVT) LTD    733620846V     COMM'N JULY'13 130808004293      CU1562                 
00007083053053020143051R.M.N.JAYAWARDHANA  23000000000000000000000SLR7056011001108629401DU PAL (PVT) LTD    771931294V     COMM'N JULY'13 130808004722      CU1562                 
00007056001008100900985B.M.SENAVIRATHNA    23000000000000000000000SLR7056011001108629401DU PAL (PVT) LTD    570922998V     COMM'N JULY'13 130808004965      CU1562                 
00007135058200230016484W.W.M.WIJEKOON      23000000000000000000000SLR7056011001108629401DU PAL (PVT) LTD    660560866V     COMM'N JULY'13 130808005235      CU1562                 
00007287057002452959101L.M.C.P.WIJESEKARA  23000000000000001841478SLR7056011001108629401DU PAL (PVT) LTD    880342304V     COMM'N JULY'13 130808003930      CU1562                 
00007056001008120911663S.VIJAYKANTH        23000000000000000000000SLR7056011001108629401DU PAL (PVT) LTD    882633233V     COMM'N JULY'13 130808004461      CU1562                 
00007056001008116007005K.A.S.PUSHPAKUMARA  23000000000000005852927SLR7056011001108629401DU PAL (PVT) LTD    812732781V     COMM'N JULY'13 130808004266      CU1562                 
00007719002100020807095K.A.U.INDIKA        23000000000000000878542SLR7056011001108629401DU PAL (PVT) LTD    742430286V     COMM'N JULY'13 130808003732      CU1562                 
00007719012109070170992P.H.R.PERERA        23000000000000000869174SLR7056011001108629401DU PAL (PVT) LTD    821632960V     COMM'N JULY'13 130808004983      CU1562                 
00007278001102253555967D.D.T.VITHANAGE     23000000000000004083166SLR7056011001108629401DU PAL (PVT) LTD    791134234V     COMM'N JULY'13 130808004563      CU1562                 
00007056001008700033861A. Weerasekara      23000000000000000000000SLR7056011001108629401DU PAL (PVT) LTD    533413544 V    COMM'N JULY'13 130808004950      CU1562                 
00007278001113754151856S.N.MADHUWANTHI     23000000000000000000000SLR7056011001108629401DU PAL (PVT) LTD    877062015V     COMM'N JULY'13 130808005277      CU1562                 
00007056001008700037337N.G.R.D.R.GAMLATH   23000000000000001681055SLR7056011001108629401DU PAL (PVT) LTD    922840091V     COMM'N JULY'13 130808003597      CU1562                 
00007056001008770037918W.A.D.N.CHANDIKA KUM23000000000000000155527SLR7056011001108629401DU PAL (PVT) LTD    933580075V     COMM'N JULY'13 130808004509      CU1562                 
00007056001008320013369E.M.A.P.BANDARA EKAN23000000000000002404886SLR7056011001108629401DU PAL (PVT) LTD    762580543V     COMM'N JULY'13 130808004398      CU1562                 
00007278001102250018956K.B.S.R.BANDARA     23000000000000003837533SLR7056011001108629401DU PAL (PVT) LTD    781363189V     COMM'N JULY'13 130808004665      CU1562                 
00007719057100578021368P.A.T.R.PERERA      23000000000000000858017SLR7056011001108629401DU PAL (PVT) LTD    791830684V     COMM'N JULY'13 130808004041      CU1562                 
00007278001102254192757B.U.D.FERNANDO      23000000000000000000000SLR7056011001108629401DU PAL (PVT) LTD    895053287V     COMM'N JULY'13 130808004851      CU1562                 
00007278001102050080711W.H.T.N.PATHMINEE   23000000000000001810833SLR7056011001108629401DU PAL (PVT) LTD    676610103V     COMM'N JULY'13 130808005352      CU1562                 
00007278001102253763409B.M.B.FERNANDO      23000000000000000504225SLR7056011001108629401DU PAL (PVT) LTD    810741554V     COMM'N JULY'13 130808005940      CU1562                 
00007056001008131008976S.VASHIKARAN        23000000000000000000000SLR7056011001108629401DU PAL (PVT) LTD    933342484V     COMM'N JULY'13 130808005469      CU1562                 
00007056001008227001545S.A.MOHAMED FAHIM   23000000000000000880074SLR7056011001108629401DU PAL (PVT) LTD    692170903V     COMM'N JULY'13 130808003471      CU1562                 
00007278001111153973692M.M.RUKSHAN         23000000000000000000000SLR7056011001108629401DU PAL (PVT) LTD    931842960V     COMM'N JULY'13 130808004599      CU1562                 
00007056001008460007782H.P.H.PREMATHILAKA  23000000000000001709212SLR7056011001108629401DU PAL (PVT) LTD    771722636V     COMM'N JULY'13 130808004650      CU1562                 
00007083056056020056714R.A.C.M.ROOPASINGHE 23000000000000001148598SLR7056011001108629401DU PAL (PVT) LTD    942540426V     COMM'N JULY'13 130808003408      CU1562                 
00007056001008209003292H.K.K.KEVIN THARINDU23000000000000000216764SLR7056011001108629401DU PAL (PVT) LTD    951261521V     COMM'N JULY'13 130808005037      CU1562                 
00007278001102153543638R.A.A.K.RANASINGHE  23000000000000000000000SLR7056011001108629401DU PAL (PVT) LTD    762581760V     COMM'N JULY'13 130808005322      CU1562                 
00007056001008530000166H.M.R.P.HERATH      23000000000000000000000SLR7056011001108629401DU PAL (PVT) LTD    691533379V     COMM'N JULY'13 130808004566      CU1562                 
00007056001008160074779S.D.VIRAJ SENARATHNE23000000000000000081863SLR7056011001108629401DU PAL (PVT) LTD    911311801V     COMM'N JULY'13 130808004617      CU1562                 
00007278001100653519153G.W.KUMARA          23000000000000000055200SLR7056011001108629401DU PAL (PVT) LTD    750373739V     COMM'N JULY'13 130808004968      CU1562                 
00007056001008520025398P.H.S.SWARNAMALI    23000000000000001325653SLR7056011001108629401DU PAL (PVT) LTD    926364448V     COMM'N JULY'13 130808004884      CU1562                 
00007056001008137000397B.M.J.KUMARA        23000000000000003306229SLR7056011001108629401DU PAL (PVT) LTD    711681736V     COMM'N JULY'13 130808003870      CU1562                 
00007135214200160012206M.A.M.ASHIK         23000000000000000921838SLR7056011001108629401DU PAL (PVT) LTD    943591270V     COMM'N JULY'13 130808004326      CU1562                 
00007056001008107017428B.THANUSHAN         23000000000000000805669SLR7056011001108629401DU PAL (PVT) LTD    911723239V     COMM'N JULY'13 130808004950      CU1562                 
00007056001008127012955S.THANUSHANTH       23000000000000000000000SLR7056011001108629401DU PAL (PVT) LTD    910922742V     COMM'N JULY'13 130808005532      CU1562                 
00007056001008140001222E.R.NALAKA          23000000000000003533701SLR7056011001108629401DU PAL (PVT) LTD    783521849V     COMM'N JULY'13 130808005148      CU1562                 
00007056001008270053326W.A.L.K.MADUSHANKA P23000000000000000000000SLR7056011001108629401DU PAL (PVT) LTD    922101221V     COMM'N JULY'13 130808005355      CU1562                 
00007056001008163001482W.A.S.K.WIMALASIRI  23000000000000000131694SLR7056011001108629401DU PAL (PVT) LTD    853254860V     COMM'N JULY'13 130808004239      CU1562                 
00007056001008320028148M.FARISTAR MOHAMED  23000000000000000937839SLR7056011001108629401DU PAL (PVT) LTD    932870657V     COMM'N JULY'13 130808004293      CU1562                 
00007278001103554080748P.L.A.U.KESHAN      23000000000000000369280SLR7056011001108629401DU PAL (PVT) LTD    910370405V     COMM'N JULY'13 130808005037      CU1562                 
00007056001008103010374H.G.P.GAMAGE        23000000000000000000000SLR7056011001108629401DU PAL (PVT) LTD    841750853V     COMM'N JULY'13 130808004599      CU1562                 
00007056001008120016786K.SUGANTHAN         23000000000000001400740SLR7056011001108629401DU PAL (PVT) LTD    752371202V     COMM'N JULY'13 130808005271      CU1562                 
00007056001008117013380W.A.RASIKA THUSHARA 23000000000000000086183SLR7056011001108629401DU PAL (PVT) LTD    823130392V     COMM'N JULY'13 130808005316      CU1562                 
00007278001108153591993H.M.H.N.SENAVIRATHNA23000000000000000000000SLR7056011001108629401DU PAL (PVT) LTD    893574123V     COMM'N JULY'13 130808005175      CU1562                 
00007287100033467216101K.K.T.MADUSHAN      23000000000000000000000SLR7056011001108629401DU PAL (PVT) LTD    923311246V     COMM'N JULY'13 130808005802      CU1562                 
00007056001008320028185F.ZUHARA NILAFER    23000000000000000159728SLR7056011001108629401DU PAL (PVT) LTD    827471690V     COMM'N JULY'13 130808003906      CU1562                 
00007056001008121024512A.T.D.DILHAN PERERA 23000000000000000794608SLR7056011001108629401DU PAL (PVT) LTD    942802188V     COMM'N JULY'13 130808004392      CU1562                 
00007056001008106020090A.ANTHANY NICHOLAS  23000000000000000000000SLR7056011001108629401DU PAL (PVT) LTD    850384649V     COMM'N JULY'13 130808005169      CU1562                 
00007056001008040072805K.W.D.M.JAYAWEERA   23000000000000002864710SLR7056011001108629401DU PAL (PVT) LTD    896901311V     COMM'N JULY'13 130808005088      CU1562                 
00007287057032317811101W.R.N.KULASOORIYA   23000000000000000000000SLR7056011001108629401DU PAL (PVT) LTD    766110223V     COMM'N JULY'13 130808005166      CU1562                 
00007719741107410104833W.A.R.N.WIJESOORIYA 23000000000000000000000SLR7056011001108629401DU PAL (PVT) LTD    732430350V     COMM'N JULY'13 130808004101      CU1562                 
00007056001008108038332S.SRIKANTHARANGANATH23000000000000001164142SLR7056011001108629401DU PAL (PVT) LTD    907302636V     COMM'N JULY'13 130808004731      CU1562                 
00007278001106654191471D.B.N.N.DHARMASENA  23000000000000000000000SLR7056011001108629401DU PAL (PVT) LTD    753052097V     COMM'N JULY'13 130808004284      CU1562                 
00007056001008120912075M.A.W.DHARMASRI     23000000000000000479864SLR7056011001108629401DU PAL (PVT) LTD    781351342V     COMM'N JULY'13 130808005217      CU1562                 
00007056001008800000341R.M.S.PRIYANGA      23000000000000000000000SLR7056011001108629401DU PAL (PVT) LTD    751891121V     COMM'N JULY'13 130808005094      CU1562                 
00007056001008800002825M.I.FATHIMA HANAA   23000000000000000085496SLR7056011001108629401DU PAL (PVT) LTD    935790395V     COMM'N JULY'13 130808005187      CU1562                 
00007056001008520026358NILUSHA FAIZAL      23000000000000000847774SLR7056011001108629401DU PAL (PVT) LTD    775791306V     COMM'N JULY'13 130808004857      CU1562                 
00007056001008800027681W.M.L.T.KUMARI WANNI23000000000000000479960SLR7056011001108629401DU PAL (PVT) LTD    835780414V     COMM'N JULY'13 130808004833      CU1562                 
00007056001008127000533L.A.JESUTHASAN      23000000000000000000000SLR7056011001108629401DU PAL (PVT) LTD    840374106V     COMM'N JULY'13 130808004269      CU1562                 
00007056001008106001661K.RAJEEV            23000000000000000000000SLR7056011001108629401DU PAL (PVT) LTD    832353655V     COMM'N JULY'13 130808005241      CU1562                 
00007056001008153007870U.CHRISTHURAJA      23000000000000000000000SLR7056011001108629401DU PAL (PVT) LTD    937734271V     COMM'N JULY'13 130808004482      CU1562                 
00007056001008060103397NAVARETHTHINAM VIJIT23000000000000000167002SLR7056011001108629401DU PAL (PVT) LTD    951133400V     COMM'N JULY'13 130808004872      CU1562                 
00007056001008153007327JESUTHASAN JENITTAN 23000000000000000000000SLR7056011001108629401DU PAL (PVT) LTD    912113477V     COMM'N JULY'13 130808005139      CU1562                 
00007056001008152006582M.A.SIRAJAN SULFIKAR23000000000000000000000SLR7056011001108629401DU PAL (PVT) LTD    770420431V     COMM'N JULY'13 130808004191      CU1562                 
00007056001008172001833J.MOHAMED IMTIYAS   23000000000000000056730SLR7056011001108629401DU PAL (PVT) LTD    841034040V     COMM'N JULY'13 130808004032      CU1562                 
00007056001008172003252FAROOK HANIF        23000000000000000000000SLR7056011001108629401DU PAL (PVT) LTD    770771862V     COMM'N JULY'13 130808005265      CU1562                 
00007056001008172003026M. ABOOBUCKER AJIWAT23000000000000000025710SLR7056011001108629401DU PAL (PVT) LTD    752071950V     COMM'N JULY'13 130808004737      CU1562                 
00007056001008040028161K.B.D.M.SAMARATHUNGA23000000000000000247606SLR7056011001108629401DU PAL (PVT) LTD    805223154V     COMM'N JULY'13 130808003435      CU1562                 
00007056001008880023444Chirath Chathuranga 23000000000000004166150SLR7056011001108629401DU PAL (PVT) LTD    891790074V     COMM'N JULY'13 130808004758      CU1562                 
00007056001008980020455J.N.T.AKALANKA      23000000000000002938976SLR7056011001108629401DU PAL (PVT) LTD    910660497V     COMM'N JULY'13 130808003723      CU1562                 
00007056001008330028282G.K.R.W.KUMARA      23000000000000001801090SLR7056011001108629401DU PAL (PVT) LTD    830351922V     COMM'N JULY'13 130808004110      CU1562                 
00007056001008970026870K.S.PRIYANGA DE SILV23000000000000000821485SLR7056011001108629401DU PAL (PVT) LTD    921841248V     COMM'N JULY'13 130808005022      CU1562                 
00007056001008970019070P.H.L.De Silva      23000000000000002849517SLR7056011001108629401DU PAL (PVT) LTD    902161848V     COMM'N JULY'13 130808004530      CU1562                 
00007056001008270026498M.A.ASHIK           23000000000000001620183SLR7056011001108629401DU PAL (PVT) LTD    773333076V     COMM'N JULY'13 130808004641      CU1562                 
00007010537000073889799W.G.NAVODA          23000000000000001003823SLR7056011001108629401DU PAL (PVT) LTD    941793940V     COMM'N JULY'13 130808003600      CU1562                 
00007719003109038009155A.H.S.N.PRIYALAL    23000000000000000000000SLR7056011001108629401DU PAL (PVT) LTD    932261154V     COMM'N JULY'13 130808004290      CU1562                 
00007056001008135007492M.N.M.HAYAS         23000000000000001650785SLR7056011001108629401DU PAL (PVT) LTD    912121879V     COMM'N JULY'13 130808005736      CU1562                 
00007056001008129006384W.K.SUPUN DILANKA   23000000000000000636700SLR7056011001108629401DU PAL (PVT) LTD    921811667V     COMM'N JULY'13 130808005328      CU1562                 
00007056001008135000754D.Chandrakumara     23000000000000004382927SLR7056011001108629401DU PAL (PVT) LTD    791620929V     COMM'N JULY'13 130808003477      CU1562                 
00007056001008270048549S.L.Chamara Vijethil23000000000000003181026SLR7056011001108629401DU PAL (PVT) LTD    941662919V     COMM'N JULY'13 130808005016      CU1562                 
00007056001008270047384D.L.K.Sajith Kumara 23000000000000003211311SLR7056011001108629401DU PAL (PVT) LTD    920910548V     COMM'N JULY'13 130808003759      CU1562                 
00007056001008280024392K.R.Gunasekara      23000000000000002576566SLR7056011001108629401DU PAL (PVT) LTD    793131674V     COMM'N JULY'13 130808004698      CU1562                 
00007056001008270052557N.W.T.M.G.WARNASHANT23000000000000001122726SLR7056011001108629401DU PAL (PVT) LTD    866483540V     COMM'N JULY'13 130808004386      CU1562                 
00007056001008270046739N.W.T.M.C.MAHESH WAR23000000000000001423547SLR7056011001108629401DU PAL (PVT) LTD    942734328V     COMM'N JULY'13 130808003033      CU1562                 
00007056001008270052747T.SHEHAN EDIRISINGHE23000000000000000078309SLR7056011001108629401DU PAL (PVT) LTD    942250840V     COMM'N JULY'13 130808004554      CU1562                 
00007056001008151004369D.P.S.Abediwakara   23000000000000000000000SLR7056011001108629401DU PAL (PVT) LTD    770803314V     COMM'N JULY'13 130808005676      CU1562                 
00007056001008070035904W.A.Nirodha Buddhapr23000000000000003769810SLR7056011001108629401DU PAL (PVT) LTD    810995556V     COMM'N JULY'13 130808003957      CU1562                 
00007056001008151009310T.C.WEERASINGHE     23000000000000000288978SLR7056011001108629401DU PAL (PVT) LTD    867673288V     COMM'N JULY'13 130808004713      CU1562                 
00007056001008350021600M.P.P.KUMARA        23000000000000002575191SLR7056011001108629401DU PAL (PVT) LTD    923291270V     COMM'N JULY'13 130808004488      CU1562                 
00007056001008930014997W.K.V.ABEYGUNAWARDAN23000000000000001151023SLR7056011001108629401DU PAL (PVT) LTD    823540400V     COMM'N JULY'13 130808004005      CU1562                 
00007056001008222002750R.A.P.DHARANA GUNATH23000000000000000126891SLR7056011001108629401DU PAL (PVT) LTD    903010380V     COMM'N JULY'13 130808004137      CU1562                 
00007056001008151009744H.M.THILINA SAMPATH 23000000000000000151709SLR7056011001108629401DU PAL (PVT) LTD    901032793V     COMM'N JULY'13 130808003765      CU1562                 
00007056001008070032430H.W.DILUKA MADUSHAN 23000000000000002759402SLR7056011001108629401DU PAL (PVT) LTD    862090756V     COMM'N JULY'13 130808003108      CU1562                 
00007056001008140028752Nishantha  Wickramas23000000000000000000000SLR7056011001108629401DU PAL (PVT) LTD    911260212V     COMM'N JULY'13 130808004461      CU1562                 
00007056001008350024563L.C.P.KUMARA        23000000000000000000000SLR7056011001108629401DU PAL (PVT) LTD    942792042V     COMM'N JULY'13 130808004437      CU1562                 
00007056001008570012861M.M.Farhan          23000000000000000000000SLR7056011001108629401DU PAL (PVT) LTD    873521597V     COMM'N JULY'13 130808005538      CU1562                 
00007056001008870027432R.Y.Chandima Rahul  23000000000000000000000SLR7056011001108629401DU PAL (PVT) LTD    841202872V     COMM'N JULY'13 130808004611      CU1562                 
00007056001008960020816W.M.Minura Rashantha23000000000000000000000SLR7056011001108629401DU PAL (PVT) LTD    900531516V     COMM'N JULY'13 130808004155      CU1562                 
00007056001008570025115M.Z.M.SAFRIN        23000000000000000000000SLR7056011001108629401DU PAL (PVT) LTD    923501533V     COMM'N JULY'13 130808004686      CU1562                 
00007287006001843076102M.A.Maduranga Udaya 23000000000000001774822SLR7056011001108629401DU PAL (PVT) LTD    802582404V     COMM'N JULY'13 130808004728      CU1562                 
00007056001008400027302M.M.Muzhir          23000000000000000159549SLR7056011001108629401DU PAL (PVT) LTD    923001450V     COMM'N JULY'13 130808005286      CU1562                 
00007056001008590013632R.TANOJA DE SILVA   23000000000000000000000SLR7056011001108629401DU PAL (PVT) LTD    713131563V     COMM'N JULY'13 130808004542      CU1562                 
00007056001008119003191P.K.PUSHPA KUMARA   23000000000000000659851SLR7056011001108629401DU PAL (PVT) LTD    841062540V     COMM'N JULY'13 130808005262      CU1562                 
00007056001008560043305A.A.T.B.S.M. BANDARA23000000000000000000000SLR7056011001108629401DU PAL (PVT) LTD    861531066V     COMM'N JULY'13 130808005037      CU1562                 
00007056001008810033194J.LASANTHA HETTIARCH23000000000000000048553SLR7056011001108629401DU PAL (PVT) LTD    900400152V     COMM'N JULY'13 130808004116      CU1562                 
00007056001008142009867P.L.D.G.L.Senevirath23000000000000001638396SLR7056011001108629401DU PAL (PVT) LTD    937713940V     COMM'N JULY'13 130808004140      CU1562                 
00007056001008380019119J.M.C.A.Bandara jaya23000000000000000000000SLR7056011001108629401DU PAL (PVT) LTD    912482863V     COMM'N JULY'13 130808005181      CU1562                 
00007083087087020257940W.A.P.A.H.Priyasanth23000000000000000000000SLR7056011001108629401DU PAL (PVT) LTD    801963765V     COMM'N JULY'13 130808004047      CU1562                 
00007056001008106020836E.A.D.PETER         23000000000000000293235SLR7056011001108629401DU PAL (PVT) LTD    553061962V     COMM'N JULY'13 130808004992      CU1562                 
00007056001008106021879D.M.MADHUKA SURANGI 23000000000000000872684SLR7056011001108629401DU PAL (PVT) LTD    907450112V     COMM'N JULY'13 130808003747      CU1562                 
00007056001008170010655P.A.Chathuranga Vish23000000000000004033254SLR7056011001108629401DU PAL (PVT) LTD    883231155V     COMM'N JULY'13 130808005868      CU1562                 
00007056001008106019375J.A.D.Thilina Shehan23000000000000000510272SLR7056011001108629401DU PAL (PVT) LTD    920392334V     COMM'N JULY'13 130808004131      CU1562                 
00007056001008106021009W.M.D.WEERASINGHE   23000000000000001463184SLR7056011001108629401DU PAL (PVT) LTD    930902136V     COMM'N JULY'13 130808003897      CU1562                 
00007056001008770033045A.G.P.SINETH KUMARA 23000000000000001484059SLR7056011001108629401DU PAL (PVT) LTD    931981722V     COMM'N JULY'13 130808004746      CU1562                 
00007056001008690051896H.K.G.SRIYANI SENEVI23000000000000000000000SLR7056011001108629401DU PAL (PVT) LTD    866581045V     COMM'N JULY'13 130808005091      CU1562                 
00007056001008670030922K.P.SHYAMALI IROSHAN23000000000000001255035SLR7056011001108629401DU PAL (PVT) LTD    887410429V     COMM'N JULY'13 130808004209      CU1562                 
00007056001008480037991J.M.MOHAMED ZUHAR   23000000000000000736240SLR7056011001108629401DU PAL (PVT) LTD    891290098V     COMM'N JULY'13 130808004710      CU1562                 
00007056001008460013408T.A.P.U.KUMARA      23000000000000005026846SLR7056011001108629401DU PAL (PVT) LTD    763190536V     COMM'N JULY'13 130808005619      CU1562                 
00007056001008217003309J.BALACHANDRAN      23000000000000000799948SLR7056011001108629401DU PAL (PVT) LTD    885741100V     COMM'N JULY'13 130808005739      CU1562                 
00007056001008114000181T.A.R.W.KUMARA      23000000000000001371270SLR7056011001108629401DU PAL (PVT) LTD    800731631V     COMM'N JULY'13 130808004113      CU1562                 
00007056001008560044570S.RAGUPATHY         23000000000000001027760SLR7056011001108629401DU PAL (PVT) LTD    887041997V     COMM'N JULY'13 130808004116      CU1562                 
00007056001008320025648M.S.M.ZAHRAN        23000000000000000000000SLR7056011001108629401DU PAL (PVT) LTD    932981416V     COMM'N JULY'13 130808004701      CU1562                 
00007056001008380020757M.I.MOHAMED FARHAN  23000000000000000049194SLR7056011001108629401DU PAL (PVT) LTD    891822073V     COMM'N JULY'13 130808004803      CU1562                 
00007056001008620031120H.FATHIMA SUBAITHA  23000000000000000148710SLR7056011001108629401DU PAL (PVT) LTD    887720347V     COMM'N JULY'13 130808003549      CU1562                 
00007056001008106021542K.A.KASUN GAYAN     23000000000000001015090SLR7056011001108629401DU PAL (PVT) LTD    872484647V     COMM'N JULY'13 130808004356      CU1562                 
00007056001008106021612S.KUMAR JAYARAM     23000000000000000000000SLR7056011001108629401DU PAL (PVT) LTD    832855294V     COMM'N JULY'13 130808004194      CU1562                 
00007056001008131009642A.RAMONA THURING    23000000000000000782364SLR7056011001108629401DU PAL (PVT) LTD    867830502V     COMM'N JULY'13 130808004137      CU1562                 
00007056001008167002701K.MOHAMED WASEEM    23000000000000000824520SLR7056011001108629401DU PAL (PVT) LTD    903261080V     COMM'N JULY'13 130808005439      CU1562                 
00007056001008590032430T.M.FERNANDO        23000000000000000943111SLR7056011001108629401DU PAL (PVT) LTD    762292602V     COMM'N JULY'13 130808004953      CU1562                 
00007056001008440039699L.B.N.PRIYADAMMI    23000000000000001490302SLR7056011001108629401DU PAL (PVT) LTD    795350209V     COMM'N JULY'13 130808004575      CU1562                 
00007056001008258003644K.G.CHANDRIKA SAJEEW23000000000000002671252SLR7056011001108629401DU PAL (PVT) LTD    876923238V     COMM'N JULY'13 130808004215      CU1562                 
00007056001008290028557N.W.S. PRABHA PERERA23000000000000000846574SLR7056011001108629401DU PAL (PVT) LTD    866021627V     COMM'N JULY'13 130808004278      CU1562                 
00007056001008190902608H.E.THARINDU UDAYANG23000000000000000794534SLR7056011001108629401DU PAL (PVT) LTD    915534295V     COMM'N JULY'13 130808004374      CU1562                 
00007056001008480041257S.I.Thennakoon      23000000000000002208684SLR7056011001108629401DU PAL (PVT) LTD    910532375V     COMM'N JULY'13 130808005229      CU1562                 
00007056001008750032324A.W.H.S.Dhanushka   23000000000000001976056SLR7056011001108629401DU PAL (PVT) LTD    933000494V     COMM'N JULY'13 130808005502      CU1562                 
00007056001008960023437K.Y.M Karunarathne  23000000000000000000000SLR7056011001108629401DU PAL (PVT) LTD    900790503V     COMM'N JULY'13 130808004770      CU1562                 
00007056001008290008502H.D.B.Priyadarshana 23000000000000000000000SLR7056011001108629401DU PAL (PVT) LTD    842380669V     COMM'N JULY'13 130808004146      CU1562                 
00007056001008110017612Sahan C W M Kumarana23000000000000007193281SLR7056011001108629401DU PAL (PVT) LTD    753203605V     COMM'N JULY'13 130808004560      CU1562                 
00007278001109453788694K.G.S.Dulanjali     23000000000000000270005SLR7056011001108629401DU PAL (PVT) LTD    755151572V     COMM'N JULY'13 130808005103      CU1562                 
00007056001008760027116W.A.Ruwan Kumara Gan23000000000000000000000SLR7056011001108629401DU PAL (PVT) LTD    812363395V     COMM'N JULY'13 130808005349      CU1562                 
00007135072200340007093W.H.G.Sameera Dhammi23000000000000000724981SLR7056011001108629401DU PAL (PVT) LTD    873232790V     COMM'N JULY'13 130808006051      CU1562                 
00007056001008258002380T.M.Madumalinga Pere23000000000000002009930SLR7056011001108629401DU PAL (PVT) LTD    910370197V     COMM'N JULY'13 130808004206      CU1562                 
00007010542000071382520W.M.A.Supun Wijethun23000000000000000000000SLR7056011001108629401DU PAL (PVT) LTD    913020685V     COMM'N JULY'13 130808004569      CU1562                 
00007056001008180037161M.B.M.Pathum Sathsar23000000000000000761423SLR7056011001108629401DU PAL (PVT) LTD    882654257V     COMM'N JULY'13 130808004776      CU1562                 
00007056001008190041940R.A.Nadeeka Dulanja 23000000000000000210681SLR7056011001108629401DU PAL (PVT) LTD    822394507V     COMM'N JULY'13 130808003870      CU1562                 
00007056001008930009485L.K.S.Pelpola       23000000000000000000000SLR7056011001108629401DU PAL (PVT) LTD    880473867V     COMM'N JULY'13 130808005406      CU1562                 
00007010054000071108976H.D.S.I.Kanchana Som23000000000000000000000SLR7056011001108629401DU PAL (PVT) LTD    910460196V     COMM'N JULY'13 130808004407      CU1562                 
00007056001008410036962E.A.C.Athukorala    23000000000000001867862SLR7056011001108629401DU PAL (PVT) LTD    822232310V     COMM'N JULY'13 130808003180      CU1562                 
00007056001008258003526H.P.G.D.MADHUSHANKA 23000000000000000000000SLR7056011001108629401DU PAL (PVT) LTD    923554556V     COMM'N JULY'13 130808004860      CU1562                 
00007056001008770006444T.A.MALIK THARAK    23000000000000000083800SLR7056011001108629401DU PAL (PVT) LTD    931942107V     COMM'N JULY'13 130808004746      CU1562                 
00007056001008500026110M.N.M.Rahumathulla  23000000000000000000000SLR7056011001108629401DU PAL (PVT) LTD    873540478V     COMM'N JULY'13 130808004854      CU1562                 
00007056001008145008530M.S.M.Safwan        23000000000000000201590SLR7056011001108629401DU PAL (PVT) LTD    872150048V     COMM'N JULY'13 130808004878      CU1562                 
00007056001008760029118D.D.Chanuka Gunasena23000000000000000000000SLR7056011001108629401DU PAL (PVT) LTD    912784711V     COMM'N JULY'13 130808005013      CU1562                 
00007056001008530029933R.Lakruwan Kumara   23000000000000000000000SLR7056011001108629401DU PAL (PVT) LTD    903163623V     COMM'N JULY'13 130808004905      CU1562                 
00007056001008320025188M.R.Rajap           23000000000000000000000SLR7056011001108629401DU PAL (PVT) LTD    931702920V     COMM'N JULY'13 130808005379      CU1562                 
00007056001008760030702B.V.T.PABASARA      23000000000000000000000SLR7056011001108629401DU PAL (PVT) LTD    863253276V     COMM'N JULY'13 130808004824      CU1562                 
00007056001008120052466A.S.C.Nirmal Silva  23000000000000000000000SLR7056011001108629401DU PAL (PVT) LTD    902401067V     COMM'N JULY'13 130808005415      CU1562                 
00007056001008500035033K.C Withanawasam    23000000000000000000000SLR7056011001108629401DU PAL (PVT) LTD    911653141V     COMM'N JULY'13 130808005328      CU1562                 
00007056001008500035031A.G.L.N.Karunarathne23000000000000000000000SLR7056011001108629401DU PAL (PVT) LTD    913263766V     COMM'N JULY'13 130808004497      CU1562                 
00007056001008500035032G.H.M.Y.K.Perera    23000000000000000000000SLR7056011001108629401DU PAL (PVT) LTD    912050165V     COMM'N JULY'13 130808005412      CU1562                 
00007056001008118012755G.R.L.R.Gunawardana 23000000000000000000000SLR7056011001108629401DU PAL (PVT) LTD    915253938V     COMM'N JULY'13 130808005268      CU1562                 
00007056001008128006075K.P.T.D.Leelarathna 23000000000000000000000SLR7056011001108629401DU PAL (PVT) LTD    790533704V     COMM'N JULY'13 130808004623      CU1562                 
00007056001008114023092L.C.L.DE SILVA      23000000000000001080071SLR7056011001108629401DU PAL (PVT) LTD    920950647V     COMM'N JULY'13 130808004431      CU1562                 
00007056001008258003521C.THAMILCHELVAN     23000000000000000377379SLR7056011001108629401DU PAL (PVT) LTD    800950759V     COMM'N JULY'13 130808005469      CU1562                 
00007056001008120000483B.ASHOK             23000000000000000000000SLR7056011001108629401DU PAL (PVT) LTD    763261239V     COMM'N JULY'13 130808005574      CU1562                 
00007056001008100088382S.VANI              23000000000000000000000SLR7056011001108629401DU PAL (PVT) LTD    937810776V     COMM'N JULY'13 130808004647      CU1562                 
00007056001008210037278G.M.D.KEMASIRI      23000000000000000000000SLR7056011001108629401DU PAL (PVT) LTD    928452590V     COMM'N JULY'13 130808004728      CU1562                 
00007056001008760027611K.G.S.Kumara        23000000000000009966855SLR7056011001108629401DU PAL (PVT) LTD    861531554V     COMM'N JULY'13 130808004341      CU1562                 
00007056001008100921641T.P.D.P.Kumara      23000000000000000000000SLR7056011001108629401DU PAL (PVT) LTD    933511294V     COMM'N JULY'13 130808004638      CU1562                 
00007056001008100921663W.G.G.T.Pradeep Kuma23000000000000000000000SLR7056011001108629401DU PAL (PVT) LTD    930562254V     COMM'N JULY'13 130808004788      CU1562                 
00007056001008100921653S..G.Samarakoon     23000000000000000404569SLR7056011001108629401DU PAL (PVT) LTD    932272709V     COMM'N JULY'13 130808004842      CU1562                 
00007056001008180044228M.L.K.Mahawatta     23000000000000000969894SLR7056011001108629401DU PAL (PVT) LTD    932441713V     COMM'N JULY'13 130808004110      CU1562                 
00007056001008700037909T.C.R.ajapaksha     23000000000000000000000SLR7056011001108629401DU PAL (PVT) LTD    890022502V     COMM'N JULY'13 130808004335      CU1562                 
00007056001008700014478H.W.Kumaranayake    23000000000000000000000SLR7056011001108629401DU PAL (PVT) LTD    811431010V     COMM'N JULY'13 130808004995      CU1562                 
00007278001110653743730K.V.Kasun Chamara   23000000000000000000000SLR7056011001108629401DU PAL (PVT) LTD    902011234V     COMM'N JULY'13 130808004758      CU1562                 
00007056001008290023471L.L.P.Jayasundara   23000000000000000000000SLR7056011001108629401DU PAL (PVT) LTD    863240441V     COMM'N JULY'13 130808005247      CU1562                 
00007056001008145007464H.C.Mahesh Pathmasir23000000000000000372537SLR7056011001108629401DU PAL (PVT) LTD    850064229V     COMM'N JULY'13 130808004455      CU1562                 
00007056001008760025702P.GAMAGE            23000000000000000435719SLR7056011001108629401DU PAL (PVT) LTD    722502248V     COMM'N JULY'13 130808004509      CU1562                 
00007056001008130074603V.M.N.NISHSHANKA    23000000000000000000000SLR7056011001108629401DU PAL (PVT) LTD    901051771V     COMM'N JULY'13 130808004989      CU1562                 
00007056001008106021309S.HARIPRASATH       23000000000000003293941SLR7056011001108629401DU PAL (PVT) LTD    950180064V     COMM'N JULY'13 130808003633      CU1562                 
00007056001008160033637H D S K Hewage      23000000000000001641672SLR7056011001108629401DU PAL (PVT) LTD    782422600V     COMM'N JULY'13 130808004164      CU1562                 
00007056001008330033337A.M.L. Lakmal Karuna23000000000000002502965SLR7056011001108629401DU PAL (PVT) LTD    912981371V     COMM'N JULY'13 130808004521      CU1562                 
00007056001008160064329J.M.M.K.JAYAWARDANA 23000000000000001842881SLR7056011001108629401DU PAL (PVT) LTD    818164335V     COMM'N JULY'13 130808005142      CU1562                 
00007056001008160053019G.A.T.S.Chandrasiri 23000000000000000000000SLR7056011001108629401DU PAL (PVT) LTD    811234265V     COMM'N JULY'13 130808004338      CU1562                 
00007278001104853642413L A N I SUMANASIRI  23000000000000001604964SLR7056011001108629401DU PAL (PVT) LTD    851744592V     COMM'N JULY'13 130808005124      CU1562                 
00007056001008530030251D.G.S.Darmarathna   23000000000000000000000SLR7056011001108629401DU PAL (PVT) LTD    882684288V     COMM'N JULY'13 130808004167      CU1562                 
00007056001008162003514Kusum priyantha Jaya23000000000000003500902SLR7056011001108629401DU PAL (PVT) LTD    750530060V     COMM'N JULY'13 130808005046      CU1562                 
00007056001008880025480A.W.L.M.Peiris      23000000000000000000000SLR7056011001108629401DU PAL (PVT) LTD    932311003V     COMM'N JULY'13 130808004659      CU1562                 
00007056001008250020774M.A.C.A.MARASINGHE  23000000000000000308948SLR7056011001108629401DU PAL (PVT) LTD    781892696V     COMM'N JULY'13 130808004209      CU1562                 
00007056001008162003902PADMA SIRIWARDANA   23000000000000000018843SLR7056011001108629401DU PAL (PVT) LTD    738341015V     COMM'N JULY'13 130808004812      CU1562                 
00007056001008510024433H.M.R.L.KUMARASIRI  23000000000000000000000SLR7056011001108629401DU PAL (PVT) LTD    911901951V     COMM'N JULY'13 130808004779      CU1562                 
00007056001008730005937B.A.R.K.Nandasena   23000000000000001999419SLR7056011001108629401DU PAL (PVT) LTD    882502422V     COMM'N JULY'13 130808003942      CU1562                 
00007056001008144012997J.K.A.Rangana       23000000000000000543348SLR7056011001108629401DU PAL (PVT) LTD    913391543V     COMM'N JULY'13 130808004005      CU1562                 
00007056001008160074235J.C.JAYETHILAKA     23000000000000000055715SLR7056011001108629401DU PAL (PVT) LTD    640591820V     COMM'N JULY'13 130808004476      CU1562                 
00007056001008110915329I.SALINDA PREMASIRI 23000000000000000000000SLR7056011001108629401DU PAL (PVT) LTD    932911485V     COMM'N JULY'13 130808004293      CU1562                 
00007010768000070676290N.M.Nelushka Sagara 23000000000000001775432SLR7056011001108629401DU PAL (PVT) LTD    841374320V     COMM'N JULY'13 130808005397      CU1562                 
00007056001008080029294K.W.A.Kumudu Chamind23000000000000001743402SLR7056011001108629401DU PAL (PVT) LTD    823640730X     COMM'N JULY'13 130808005949      CU1562                 
00007056001008720017800S.Divaharan         23000000000000000000000SLR7056011001108629401DU PAL (PVT) LTD    911303477V     COMM'N JULY'13 130808005499      CU1562                 
00007056001008150911885M.H.G.C.S.Kulasinghe23000000000000001042819SLR7056011001108629401DU PAL (PVT) LTD    910293222V     COMM'N JULY'13 130808003765      CU1562                 
00007056001008080015942E.G.D.D.B.Ellepola  23000000000000000086854SLR7056011001108629401DU PAL (PVT) LTD    883480511V     COMM'N JULY'13 130808004341      CU1562                 
00007056001008080009531S.M.M.Z.M.SHELUBEEN 23000000000000002102505SLR7056011001108629401DU PAL (PVT) LTD    751272960V     COMM'N JULY'13 130808004587      CU1562                 
00007056001008080008656J.P.NUWAN           23000000000000000052555SLR7056011001108629401DU PAL (PVT) LTD    880724630V     COMM'N JULY'13 130808005193      CU1562                 
00007056001008080037847W.G.S.KUMARA WIJERAT23000000000000000000000SLR7056011001108629401DU PAL (PVT) LTD    711260382V     COMM'N JULY'13 130808004221      CU1562                 
00007056001008080005121K.A.G.PRIYANTHA SENA23000000000000000000000SLR7056011001108629401DU PAL (PVT) LTD    770352053V     COMM'N JULY'13 130808005685      CU1562                 
00007056001008040052988R.G.NUWAN NERANJA   23000000000000000000000SLR7056011001108629401DU PAL (PVT) LTD    793250428V     COMM'N JULY'13 130808004197      CU1562                 
00007135334200150078304S.P.A.M Senarathna  23000000000000000650320SLR7056011001108629401DU PAL (PVT) LTD    801921469V     COMM'N JULY'13 130808004926      CU1562                 
00007056001008160021303A.M.S.Abeykoon      23000000000000001330582SLR7056011001108629401DU PAL (PVT) LTD    803524394V     COMM'N JULY'13 130808004758      CU1562                 
00007056001008160074231D.M.A.DISSANAYAKA   23000000000000001220002SLR7056011001108629401DU PAL (PVT) LTD    832711446V     COMM'N JULY'13 130808004590      CU1562                 
00007056001008480048227K.P.Vijith Priyantha23000000000000005474837SLR7056011001108629401DU PAL (PVT) LTD    730980264V     COMM'N JULY'13 130808003897      CU1562                 
00007056001008500034083I.N Sadamali        23000000000000000000000SLR7056011001108629401DU PAL (PVT) LTD    877493555V     COMM'N JULY'13 130808005208      CU1562                 
00007056001008500034772R.D.Weerasundara    23000000000000002662247SLR7056011001108629401DU PAL (PVT) LTD    905632272V     COMM'N JULY'13 130808003972      CU1562                 
00007056001008180020060W.G.N.P.Wimalarathna23000000000000004619224SLR7056011001108629401DU PAL (PVT) LTD    811862193V     COMM'N JULY'13 130808003630      CU1562                 
00007278001115153740917W.L.P.Perera        23000000000000003651150SLR7056011001108629401DU PAL (PVT) LTD    922531331V     COMM'N JULY'13 130808004116      CU1562                 
00007056001008114025149W.T.LAHIRU DE SILVA 23000000000000000866358SLR7056011001108629401DU PAL (PVT) LTD    951391115V     COMM'N JULY'13 130808004197      CU1562                 
00007056001008410041451S.A.D.KUMARI PERERA 23000000000000000846861SLR7056011001108629401DU PAL (PVT) LTD    885241999V     COMM'N JULY'13 130808003471      CU1562                 
00007056001008410023468W.K.Steeve Heshan ro23000000000000003031134SLR7056011001108629401DU PAL (PVT) LTD    913313925V     COMM'N JULY'13 130808005418      CU1562                 
00007135054200190019887K.Thilini DharshanI 23000000000000001637525SLR7056011001108629401DU PAL (PVT) LTD    935281644V     COMM'N JULY'13 130808004359      CU1562                 
00007056001008930013542G.W.K.PRASAD        23000000000000000000000SLR7056011001108629401DU PAL (PVT) LTD    922760993V     COMM'N JULY'13 130808005277      CU1562                 
00007278001100954189996A.A.D.S.P.K.ALGAMA  23000000000000000000000SLR7056011001108629401DU PAL (PVT) LTD    843080049V     COMM'N JULY'13 130808005100      CU1562                 
00007056001008106020135W.M.A.K.Jayamat     23000000000000001719576SLR7056011001108629401DU PAL (PVT) LTD    910552732V     COMM'N JULY'13 130808003576      CU1562                 
00007056001008106020461R.W.K.L.Chamara     23000000000000001541676SLR7056011001108629401DU PAL (PVT) LTD    912984532V     COMM'N JULY'13 130808003102      CU1562                 
00007056001008160027101W.D.P.Perera        23000000000000000714351SLR7056011001108629401DU PAL (PVT) LTD    915200702V     COMM'N JULY'13 130808004053      CU1562                 
00007056001008570023189M.Zaharan Rasheed   23000000000000003191056SLR7056011001108629401DU PAL (PVT) LTD    870182996V     COMM'N JULY'13 130808004260      CU1562                 
00007056001008310011144R.A.D.K.Madusanka   23000000000000000000000SLR7056011001108629401DU PAL (PVT) LTD    821811589V     COMM'N JULY'13 130808004827      CU1562                 
00007056001008580032339Sivakumar Subenthan 23000000000000004577646SLR7056011001108629401DU PAL (PVT) LTD    900872666V     COMM'N JULY'13 130808004602      CU1562                 
00007056001008106021289V.JAYALUXSHAN       23000000000000003507481SLR7056011001108629401DU PAL (PVT) LTD    883541200V     COMM'N JULY'13 130808005646      CU1562                 
00007056001008720017789S.H.JAUFER SADIQUE  23000000000000001095941SLR7056011001108629401DU PAL (PVT) LTD    920921744V     COMM'N JULY'13 130808004473      CU1562                 
00007056001008570025473M.H.MOHAMED SIRAJ   23000000000000000024312SLR7056011001108629401DU PAL (PVT) LTD    930494283V     COMM'N JULY'13 130808003603      CU1562                 
00007056001008113019995RAMACHNDRAN PRATHEEP23000000000000000000000SLR7056011001108629401DU PAL (PVT) LTD    931851560V     COMM'N JULY'13 130808005298      CU1562                 
00007056001008131007201M.G.Husny Ahamed    23000000000000000000000SLR7056011001108629401DU PAL (PVT) LTD    922720568V     COMM'N JULY'13 130808004719      CU1562                 
00007056001008670027219A.C.Indrajith Perera23000000000000000470909SLR7056011001108629401DU PAL (PVT) LTD    911941228V     COMM'N JULY'13 130808004305      CU1562                 
00007056001008500035789B.A.M.Riflan        23000000000000001401360SLR7056011001108629401DU PAL (PVT) LTD    902591702V     COMM'N JULY'13 130808004635      CU1562                 
00007056001008560052187H.P.M.Dilsiri       23000000000000000548340SLR7056011001108629401DU PAL (PVT) LTD    903112115V     COMM'N JULY'13 130808004914      CU1562                 
00007056001008106019456D.R.R.Madusanka     23000000000000000956731SLR7056011001108629401DU PAL (PVT) LTD    921953330V     COMM'N JULY'13 130808004278      CU1562                 
00007056001008106019454S.Nilanka Rajine    23000000000000002402567SLR7056011001108629401DU PAL (PVT) LTD    888350292V     COMM'N JULY'13 130808004623      CU1562                 
00007056001008260900695P.Kasun Kalhara     23000000000000000444925SLR7056011001108629401DU PAL (PVT) LTD    901290377V     COMM'N JULY'13 130808005460      CU1562                 
00007056001008106019610J.A.N.Tharika       23000000000000000538748SLR7056011001108629401DU PAL (PVT) LTD    935131570V     COMM'N JULY'13 130808004263      CU1562                 
00007056001008114012193W.M.M.P.Fernando    23000000000000003851523SLR7056011001108629401DU PAL (PVT) LTD    846861637V     COMM'N JULY'13 130808004725      CU1562                 
00007287008031444624101M.J.M.Izzeth        23000000000000000853285SLR7056011001108629401DU PAL (PVT) LTD    902581871V     COMM'N JULY'13 130808005592      CU1562                 
00007056001008106019875P.D.Lahiru Tharaka  23000000000000000000000SLR7056011001108629401DU PAL (PVT) LTD    932120909V     COMM'N JULY'13 130808004248      CU1562                 
00007056001008106019876J.A.Petum Chamra    23000000000000000687897SLR7056011001108629401DU PAL (PVT) LTD    933030040V     COMM'N JULY'13 130808003192      CU1562                 
00007056001008106019874M.J.M.Isham         23000000000000000483437SLR7056011001108629401DU PAL (PVT) LTD    931632736V     COMM'N JULY'13 130808004299      CU1562                 
00007083007007020322251B.A.M.Rinoz         23000000000000000000000SLR7056011001108629401DU PAL (PVT) LTD    922113726V     COMM'N JULY'13 130808004590      CU1562                 
00007056001008500035748O.S.Namal           23000000000000000000000SLR7056011001108629401DU PAL (PVT) LTD    933443205V     COMM'N JULY'13 130808005208      CU1562                 
00007056001008190041204O.K.Chinthana       23000000000000000519139SLR7056011001108629401DU PAL (PVT) LTD    920990177V     COMM'N JULY'13 130808004806      CU1562                 
00007056001001113003268H.M.Sri Palitha     23000000000000000000000SLR7056011001108629401DU PAL (PVT) LTD    662521418V     COMM'N JULY'13 130808005145      CU1562                 
00007135055200123416655P.B.S.R.Kodithuwakku23000000000000000000000SLR7056011001108629401DU PAL (PVT) LTD    842000858V     COMM'N JULY'13 130808004959      CU1562                 
00007135071200140006429P.L.M.S.Alwis       23000000000000000464450SLR7056011001108629401DU PAL (PVT) LTD    932970538V     COMM'N JULY'13 130808004728      CU1562                 
00007056001008147007667H.A.Suresh Chandana 23000000000000000698200SLR7056011001108629401DU PAL (PVT) LTD    890322077V     COMM'N JULY'13 130808004467      CU1562                 
00007056001008620018989R.P.N.Pathmasiri    23000000000000001697638SLR7056011001108629401DU PAL (PVT) LTD    810812594V     COMM'N JULY'13 130808004920      CU1562                 
00007056001008620017355R.P.Harshaka Senarat23000000000000007167402SLR7056011001108629401DU PAL (PVT) LTD    832420182V     COMM'N JULY'13 130808004164      CU1562                 
00007056001008180044404P.G.Mekala Priyadars23000000000000002255213SLR7056011001108629401DU PAL (PVT) LTD    877270912V     COMM'N JULY'13 130808004062      CU1562                 
00007056001008167001940W.M.J.P.Franando    23000000000000000000000SLR7056011001108629401DU PAL (PVT) LTD    551812391V     COMM'N JULY'13 130808004626      CU1562                 
00007056001008230035561M.A.WAZEEN AKRAM    23000000000000000325832SLR7056011001108629401DU PAL (PVT) LTD    920971628V     COMM'N JULY'13 130808003378      CU1562                 
00007083018018020654758T.P.G.Gayan Manjula 23000000000000006382123SLR7056011001108629401DU PAL (PVT) LTD    841710533V     COMM'N JULY'13 130808005118      CU1562                 
00007056001008130063439W.D.Ranga Pradeep   23000000000000004708136SLR7056011001108629401DU PAL (PVT) LTD    902990453V     COMM'N JULY'13 130808003321      CU1562                 
00007056001008040071365A.D.Dassanayaka     23000000000000002458599SLR7056011001108629401DU PAL (PVT) LTD    902430458V     COMM'N JULY'13 130808004614      CU1562                 
00007010002000072751868W.M.N.Deepal Wickram23000000000000002655280SLR7056011001108629401DU PAL (PVT) LTD    920583210V     COMM'N JULY'13 130808003681      CU1562                 
00007056001008040081703A.P.R.Abeysekara    23000000000000002350228SLR7056011001108629401DU PAL (PVT) LTD    917271542V     COMM'N JULY'13 130808005061      CU1562                 
00007056001008370032775Jawfar Imthiyas     23000000000000000057648SLR7056011001108629401DU PAL (PVT) LTD    800713447V     COMM'N JULY'13 130808004032      CU1562                 
00007056001008450019045M.A.MOHAMED NUSKY   23000000000000000000000SLR7056011001108629401DU PAL (PVT) LTD    901791007V     COMM'N JULY'13 130808004572      CU1562                 
00007056001008210032174W.A.G.Nuwan Madusank23000000000000000000000SLR7056011001108629401DU PAL (PVT) LTD    891340796V     COMM'N JULY'13 130808004137      CU1562                 
00007056001008790023027A.S.M.Shakir        23000000000000004193657SLR7056011001108629401DU PAL (PVT) LTD    923580239V     COMM'N JULY'13 130808005433      CU1562                 
00007056001008040080982W.K.P.Sampath Bandar23000000000000001100253SLR7056011001108629401DU PAL (PVT) LTD    872943633V     COMM'N JULY'13 130808004095      CU1562                 
00007056001008143007696D.M.D.L.Karunarathna23000000000000000000000SLR7056011001108629401DU PAL (PVT) LTD    881281473V     COMM'N JULY'13 130808005196      CU1562                 
00007056001008040080677D.M.M.C. Dissanayaka23000000000000000848141SLR7056011001108629401DU PAL (PVT) LTD    882400956V     COMM'N JULY'13 130808005427      CU1562                 
00007056001008890023117H.T.M.Sabry         23000000000000003065571SLR7056011001108629401DU PAL (PVT) LTD    923374540V     COMM'N JULY'13 130808004104      CU1562                 
00007135011200140019428D.M.A.I.Siriwardhana23000000000000000000000SLR7056011001108629401DU PAL (PVT) LTD    802290373V     COMM'N JULY'13 130808004212      CU1562                 
00007056001008040080928D.D.Thilakarathna   23000000000000000523278SLR7056011001108629401DU PAL (PVT) LTD    912673065V     COMM'N JULY'13 130808004158      CU1562                 
00007056001008040082433R.Vishvanathan      23000000000000000356227SLR7056011001108629401DU PAL (PVT) LTD    902150560V     COMM'N JULY'13 130808004833      CU1562                 
00007056001008040082955E.M.N.Ekanayake     23000000000000002824015SLR7056011001108629401DU PAL (PVT) LTD    847683619V     COMM'N JULY'13 130808004410      CU1562                 
00007056001008040052551U.W.R.T.W.M.R.R.Band23000000000000000000000SLR7056011001108629401DU PAL (PVT) LTD    913100263V     COMM'N JULY'13 130808004941      CU1562                 
00007056001008102021537T.H.L.BANDARA ALAWAT23000000000000000000000SLR7056011001108629401DU PAL (PVT) LTD    940544521V     COMM'N JULY'13 130808005133      CU1562                 
00007056001008890017937KUGANRAJ RAMANATHAM 23000000000000000030150SLR7056011001108629401DU PAL (PVT) LTD    902741240V     COMM'N JULY'13 130808004200      CU1562                 
00007056001008107016171B.Losithakumara     23000000000000000000000SLR7056011001108629401DU PAL (PVT) LTD    903081384V     COMM'N JULY'13 130808004287      CU1562                 
00007056001008154002582R.J.J.Michalraj     23000000000000001114492SLR7056011001108629401DU PAL (PVT) LTD    913343719V     COMM'N JULY'13 130808004671      CU1562                 
00007056001008154000121M.M.Anas            23000000000000001305803SLR7056011001108629401DU PAL (PVT) LTD    912040410V     COMM'N JULY'13 130808003771      CU1562                 
00007056001008610042535Sivabalan Prasannath23000000000000001893803SLR7056011001108629401DU PAL (PVT) LTD    840854426V     COMM'N JULY'13 130808004698      CU1562                 
00007056001008600928863Vallipuram Varathan 23000000000000000000000SLR7056011001108629401DU PAL (PVT) LTD    761732641V     COMM'N JULY'13 130808004719      CU1562                 
00007056001008610043342V.NITHTHIYANANTHAN  23000000000000000074669SLR7056011001108629401DU PAL (PVT) LTD    780895349V     COMM'N JULY'13 130808004086      CU1562                 
00007056001008127001454C.E.B.RAJEEV        23000000000000002755397SLR7056011001108629401DU PAL (PVT) LTD    860200597V     COMM'N JULY'13 130808004659      CU1562                 
00007056001008127016293A.MERVINRAJ         23000000000000000000000SLR7056011001108629401DU PAL (PVT) LTD    862201051V     COMM'N JULY'13 130808004617      CU1562                 
00007056001008106008288N.KANTHARUBAN       23000000000000000935814SLR7056011001108629401DU PAL (PVT) LTD    800434033V     COMM'N JULY'13 130808004845      CU1562                 
00007056001008060099172N.JAHARUBAN         23000000000000000822629SLR7056011001108629401DU PAL (PVT) LTD    881314827V     COMM'N JULY'13 130808004521      CU1562                 
00007056001008156002176T.RAJPRASANTH       23000000000000000784192SLR7056011001108629401DU PAL (PVT) LTD    833102923V     COMM'N JULY'13 130808004992      CU1562                 
00007056001008060099430A.LIYOREMINS        23000000000000000000000SLR7056011001108629401DU PAL (PVT) LTD    903644630V     COMM'N JULY'13 130808004779      CU1562                 
00007056001008108050871A.ANANTHAEISWARAN   23000000000000000000000SLR7056011001108629401DU PAL (PVT) LTD    821024862V     COMM'N JULY'13 130808004431      CU1562                 
00007056001008150901397M.A.M.Roshan        23000000000000000000000SLR7056011001108629401DU PAL (PVT) LTD    901914230V     COMM'N JULY'13 130808004659      CU1562                 
