00007010773000070451135S.D.C.J. RATHNAYAKE 23000000000000001475113SLR7056011001108629401DU PAL (PVT) LTD    905840908V     CCO SAL APR '14140528      @
00007056001000006145345S.SIVAGNANAM        23000000000000001481000SLR7056011001108629401DU PAL (PVT) LTD    916882068V     CCO SAL APR '14140528      @
00007056001008570025862S. YOUSUF           23000000000000001435750SLR7056011001108629401DU PAL (PVT) LTD    956083753V     CCO SAL APR '14140528      @
00007056001008420030509A D. DISSANAYAKA    23000000000000001496000SLR7056011001108629401DU PAL (PVT) LTD    921092342V     CCO SAL APR '14140528      @
00007083103103020014547F. I. UVAIS         23000000000000001473250SLR7056011001108629401DU PAL (PVT) LTD    935310393V     CCO SAL APR '14140528      @
00007056001008230036196G.LISANTHINI        23000000000000001451103SLR7056011001108629401DU PAL (PVT) LTD    936410189V     CCO SAL APR '14140528      @
00007083036036020328237C.C.FERNANDO        23000000000000001497494SLR7056011001108629401DU PAL (PVT) LTD    923120157V     CCO SAL APR '14140528      @
00007056001008590038758B.H.S.I.DE SILVA    23000000000000001501444SLR7056011001108629401DU PAL (PVT) LTD    892920605V     CCO SAL APR '14140528      @
00007278001101953826093A.E.S.GUNASEKARA    23000000000000001526411SLR7056011001108629401DU PAL (PVT) LTD    896641174V     CCO SAL APR '14140528      @
00007056001008410041802D.P.R.M. DE SILVA   23000000000000001489250SLR7056011001108629401DU PAL (PVT) LTD    937954174V     CCO SAL APR '14140528      @
00007056001008130062388K.C.R.F.ADIKARAM    23000000000000001375308SLR7056011001108629401DU PAL (PVT) LTD    893310703V     CCO SAL APR '14140528      @
00007719079100795001021D.A.SHIWANTHI       23000000000000001330462SLR7056011001108629401DU PAL (PVT) LTD    915862993V     CCO SAL APR '14140528      @
00007719716107168000727R.M.D.N.WARAGODA    23000000000000001338154SLR7056011001108629401DU PAL (PVT) LTD    926740091V     CCO SAL APR '14140528      @
00007135201200105362332M.W.D.K.WIJERATHNE  23000000000000001334308SLR7056011001108629401DU PAL (PVT) LTD    895694029V     CCO SAL APR '14140528      @
00007135194200150019111M.N.F.A.NISHAM      23000000000000001469500SLR7056011001108629401DU PAL (PVT) LTD    946982334V     CCO SAL APR '14140528      @
00007056001008320029274N.DULANGI S.A.      23000000000000001338154SLR7056011001108629401DU PAL (PVT) LTD    935732298V     CCO SAL APR '14140528      @
00007056001008120045624M.E.R. PIROSHINI    23000000000000001338154SLR7056011001108629401DU PAL (PVT) LTD    916710232V     CCO SAL APR '14140528      @
00007056001008130912359R.K.S.VINODANI      23000000000000001338154SLR7056011001108629401DU PAL (PVT) LTD    928002454V     CCO SAL APR '14140528      @
00007719036100360472344S.M. FORBES         23000000000000001342000SLR7056011001108629401DU PAL (PVT) LTD    925501867V     CCO SAL APR '14140528      @
00007010016000074679214D.D. DALUGAMA       23000000000000001342000SLR7056011001108629401DU PAL (PVT) LTD    921481055V     CCO SAL APR '14140528      @
00007056001008440041036N.T.M. WIMALARATHNE 23000000000000001334308SLR7056011001108629401DU PAL (PVT) LTD    923223983V     CCO SAL APR '14140528      @
00007056001008480050518B.R.C.W.GUNASEKARA  23000000000000000090492SLR7056011001108629401DU PAL (PVT) LTD    903282096V     CCO SAL APR '14140528      @
00007056001008177003334A. CHATHURANGA      23000000000000001342000SLR7056011001108629401DU PAL (PVT) LTD    931331949V     CCO SAL APR '14140528      @
00007056001008120048862K. KUMARA           23000000000000001016154SLR7056011001108629401DU PAL (PVT) LTD    912656501V     CCO SAL APR '14140528      @
00007056001008320027362M.B.M.RIZNI         23000000000000001016154SLR7056011001108629401DU PAL (PVT) LTD    932391449V     CCO SAL APR '14140528      @
00007056001008930018351S.H.S.M.DHARMASIRI  23000000000000001451000SLR7056011001108629401DU PAL (PVT) LTD    912040666V     CCO SAL APR '14140528      @
00007010038000007969637L D I M.SAMARASINGHE23000000000000001492000SLR7056011001108629401DU PAL (PVT) LTD    940833922V     CCO SAL APR '14140528      @
00007056001008258004048P.SUDARSHANI        23000000000000001428250SLR7056011001108629401DU PAL (PVT) LTD    938000905V     CCO SAL APR '14140528      @
00007056001008200049543E.L.ATHAPATHTHU     23000000000000001579525SLR7056011001108629401DU PAL (PVT) LTD    938340978V     CCO SAL APR '14140528      @
00007056001008110033842M.S.MOHAMED SAAJITH 23000000000000001016154SLR7056011001108629401DU PAL (PVT) LTD    932081547V     CCO SAL APR '14140528      @
00007287038033490482101H.M.E.G.S.M.HERATH  23000000000000001342000SLR7056011001108629401DU PAL (PVT) LTD    903494115V     CCO SAL APR '14140528      @
00007278001104554207062M Y M SIDDIK        23000000000000000993077SLR7056011001108629401DU PAL (PVT) LTD    932382652V     CCO SAL APR '14140528      @
00007083084084020003071I D WEERASINGHE     23000000000000001438404SLR7056011001108629401DU PAL (PVT) LTD    927860678V     CCO SAL APR '14140528      @
00007056001008590039855S P N P SILVA       23000000000000001412058SLR7056011001108629401DU PAL (PVT) LTD    907941043V     CCO SAL APR '14140528      @
00007083138138020058180K R T MADUSHANI     23000000000000001342000SLR7056011001108629401DU PAL (PVT) LTD    927542170V     CCO SAL APR '14140528      @
00007135143200283314472D S PRIYADARSHANA   23000000000000001330462SLR7056011001108629401DU PAL (PVT) LTD    931582135V     CCO SAL APR '14140528      @
00007135080200291133828W V K DILSHANI      23000000000000001338154SLR7056011001108629401DU PAL (PVT) LTD    935902312V     CCO SAL APR '14140528      @
00007056001008020036332H P R K NAYANANANDA 23000000000000001416729SLR7056011001108629401DU PAL (PVT) LTD    925073814V     CCO SAL APR '14140528      @
00007056001008226004827E S M PRIYASHAN     23000000000000000332026SLR7056011001108629401DU PAL (PVT) LTD    951810193V     CCO SAL APR '14140528      @
00007010004000001312003W.A.C.JAYANGA JAYATH23000000000000001460125SLR7056011001108629401DU PAL (PVT) LTD    906182556V     CCO SAL APR '14140528      @
00007719009100098058237J R FERNANDO        23000000000000001492000SLR7056011001108629401DU PAL (PVT) LTD    883350324V     CCO SAL APR '14140528      @
00007056001008750036297G V JAYATHILAKA     23000000000000001334308SLR7056011001108629401DU PAL (PVT) LTD    898123464V     CCO SAL APR '14140528      @
00007056001008167002888M P A PERERA        23000000000000001342000SLR7056011001108629401DU PAL (PVT) LTD    937683960V     CCO SAL APR '14140528      @
00007135078200100017558H M L M HERATH      23000000000000001436970SLR7056011001108629401DU PAL (PVT) LTD    915892663V     CCO SAL APR '14140528      @
00007719061100615042780B C KALPANEE        23000000000000001408382SLR7056011001108629401DU PAL (PVT) LTD    936071422V     CCO SAL APR '14140528      @
00007056001008360037725T H M FERNANDO      23000000000000001012308SLR7056011001108629401DU PAL (PVT) LTD    923262407V     CCO SAL APR '14140528      @
00007056001008259002767K M C SHANAKA       23000000000000000977692SLR7056011001108629401DU PAL (PVT) LTD    933030210V     CCO SAL APR '14140528      @
00007056001008228003004D M C SANJEEWA      23000000000000000371401SLR7056011001108629401DU PAL (PVT) LTD    891714530V     CCO SAL APR '14140528      @
00007010002000009886284S A KUMUDIKA        23000000000000001414460SLR7056011001108629401DU PAL (PVT) LTD    926931512V     CCO SAL APR '14140528      @
00007056001008259002768T M T ISURINI       23000000000000001334308SLR7056011001108629401DU PAL (PVT) LTD    928552125V     CCO SAL APR '14140528      @
00007056001008260902568D M PRAVEETHA       23000000000000001338154SLR7056011001108629401DU PAL (PVT) LTD    955453611V     CCO SAL APR '14140528      @
00007056001008890000414SHIRAZ M R          23000000000000001469500SLR7056011001108629401DU PAL (PVT) LTD    940292786V     CCO SAL APR '14140528      @
00007056001008290036260SEWWANDI D D K      23000000000000001334308SLR7056011001108629401DU PAL (PVT) LTD    947162004V     CCO SAL APR '14140528      @
00007056001008211001812KOSHILA W M G       23000000000000001318923SLR7056011001108629401DU PAL (PVT) LTD    928291111V     CCO SAL APR '14140528      @
00007083093093020131935FERNANDO M S K      23000000000000001429500SLR7056011001108629401DU PAL (PVT) LTD    920632645V     CCO SAL APR '14140528      @
00007056001008720020621YOGENDRAN S         23000000000000001414000SLR7056011001108629401DU PAL (PVT) LTD    920743064V     CCO SAL APR '14140528      @
00007010746000075680125PERERA K S N        23000000000000001016154SLR7056011001108629401DU PAL (PVT) LTD    932690713V     CCO SAL APR '14140528      @
00007135098200180014691BULATHSINHALA D T   23000000000000001012308SLR7056011001108629401DU PAL (PVT) LTD    931922386V     CCO SAL APR '14140528      @
00007135186200100007851S KUJAJINI          23000000000000001448744SLR7056011001108629401DU PAL (PVT) LTD    926551060V     CCO SAL APR '14140528      @
00007056001008580032289MARZOOK A           23000000000000000976203SLR7056011001108629401DU PAL (PVT) LTD    923434631V     CCO SAL APR '14140528      @
00007056001008310044178SAMARAWEERA K S J   23000000000000001435750SLR7056011001108629401DU PAL (PVT) LTD    886902654V     CCO SAL APR '14140528      @
00007056001008890021603JONATHAN T          23000000000000001318923SLR7056011001108629401DU PAL (PVT) LTD    931144316V     CCO SAL APR '14140528      @
00007056001008120059427ALWIS A I D         23000000000000001338154SLR7056011001108629401DU PAL (PVT) LTD    936302491V     CCO SAL APR '14140528      @
00007056001008116016383DISSANAYAKE U       23000000000000000867369SLR7056011001108629401DU PAL (PVT) LTD    898483622V     CCO SAL APR '14140528      @
00007056001008110034567THARUKA T A S       23000000000000001342000SLR7056011001108629401DU PAL (PVT) LTD    938393079V     CCO SAL APR '14140528      @
00007056001008160079589VIDYARATHNE A U S   23000000000000001445125SLR7056011001108629401DU PAL (PVT) LTD    917092990V     CCO SAL APR '14140528      @
00007056001008110035602THISERA P J R       23000000000000001445125SLR7056011001108629401DU PAL (PVT) LTD    926420232V     CCO SAL APR '14140528      @
00007056001008120054794LAWTON S P          23000000000000001445125SLR7056011001108629401DU PAL (PVT) LTD    925542539V     CCO SAL APR '14140528      @
00007056001008110035589JAYASEKARA N N      23000000000000001445125SLR7056011001108629401DU PAL (PVT) LTD    915621236V     CCO SAL APR '14140528      @
00007719111101110163490SALLAY A G          23000000000000001392000SLR7056011001108629401DU PAL (PVT) LTD    921821735V     CCO SAL APR '14140528      @
00007056001008110035587PERERA G H M C D    23000000000000001388154SLR7056011001108629401DU PAL (PVT) LTD    838552889V     CCO SAL APR '14140528      @
00007287068001389082101UMAHARY B           23000000000000001334308SLR7056011001108629401DU PAL (PVT) LTD    927521423V     CCO SAL APR '14140528      @
00007056001008110035588JAYASURIYA J A M M  23000000000000001318923SLR7056011001108629401DU PAL (PVT) LTD    923192360V     CCO SAL APR '14140528      @
00007056001008110035590KUMAR P K           23000000000000001020000SLR7056011001108629401DU PAL (PVT) LTD    932012790V     CCO SAL APR '14140528      @
00007056001008110035591WIMALASOORIYA D B R 23000000000000001020000SLR7056011001108629401DU PAL (PVT) LTD    922613753V     CCO SAL APR '14140528      @
00007056001008258004802HARESH R            23000000000000001016154SLR7056011001108629401DU PAL (PVT) LTD    941101100V     CCO SAL APR '14140528      @
00007056001008580027576SILVA N G D N D     23000000000000000103538SLR7056011001108629401DU PAL (PVT) LTD    882800229V     CCO SAL APR '14140528      @
00007056011001108629401DU PAL (PVT) LTD    23001000000000098101477SLR7056011001108629401DU PAL (PVT) LTD                  0CCO SAL APR '14140528      @
